{
	"https://github.com/thirdweb-dev/contracts/blob/ee78bf9df7b7ac8bc8ded1c8ce91c31ef43cf73e/contracts/extension/upgradeable/ReentrancyGuard.sol": {
		"ReentrancyGuardStorage": {
			"abi": [
				{
					"inputs": [],
					"name": "REENTRANCY_GUARD_STORAGE_POSITION",
					"outputs": [
						{
							"internalType": "bytes32",
							"name": "",
							"type": "bytes32"
						}
					],
					"stateMutability": "view",
					"type": "function"
				}
			],
			"devdoc": {
				"kind": "dev",
				"methods": {},
				"stateVariables": {
					"REENTRANCY_GUARD_STORAGE_POSITION": {
						"custom:storage-location": "erc7201:reentrancy.guard.storage",
						"details": "keccak256(abi.encode(uint256(keccak256(\"reentrancy.guard.storage\")) - 1)) & ~bytes32(uint256(0xff))"
					}
				},
				"version": 1
			},
			"evm": {
				"assembly": "    /* \"https://github.com/thirdweb-dev/contracts/blob/ee78bf9df7b7ac8bc8ded1c8ce91c31ef43cf73e/contracts/extension/upgradeable/ReentrancyGuard.sol\":122:723  library ReentrancyGuardStorage {... */\n  dataSize(sub_0)\n  dataOffset(sub_0)\n  0x0b\n  dup3\n  dup3\n  dup3\n  codecopy\n  dup1\n  mload\n  0x00\n  byte\n  0x73\n  eq\n  tag_1\n  jumpi\n  mstore(0x00, 0x4e487b7100000000000000000000000000000000000000000000000000000000)\n  mstore(0x04, 0x00)\n  revert(0x00, 0x24)\ntag_1:\n  mstore(0x00, address)\n  0x73\n  dup2\n  mstore8\n  dup3\n  dup2\n  return\nstop\n\nsub_0: assembly {\n        /* \"https://github.com/thirdweb-dev/contracts/blob/ee78bf9df7b7ac8bc8ded1c8ce91c31ef43cf73e/contracts/extension/upgradeable/ReentrancyGuard.sol\":122:723  library ReentrancyGuardStorage {... */\n      eq(address, deployTimeAddress())\n      mstore(0x40, 0x80)\n      jumpi(tag_1, lt(calldatasize, 0x04))\n      shr(0xe0, calldataload(0x00))\n      dup1\n      0x984b83ff\n      eq\n      tag_2\n      jumpi\n    tag_1:\n      0x00\n      dup1\n      revert\n        /* \"https://github.com/thirdweb-dev/contracts/blob/ee78bf9df7b7ac8bc8ded1c8ce91c31ef43cf73e/contracts/extension/upgradeable/ReentrancyGuard.sol\":338:472  bytes32 public constant REENTRANCY_GUARD_STORAGE_POSITION =... */\n    tag_2:\n      tag_3\n      tag_4\n      jump\t// in\n    tag_3:\n      mload(0x40)\n      tag_5\n      swap2\n      swap1\n      tag_6\n      jump\t// in\n    tag_5:\n      mload(0x40)\n      dup1\n      swap2\n      sub\n      swap1\n      return\n    tag_4:\n        /* \"https://github.com/thirdweb-dev/contracts/blob/ee78bf9df7b7ac8bc8ded1c8ce91c31ef43cf73e/contracts/extension/upgradeable/ReentrancyGuard.sol\":406:472  0x1d281c488dae143b6ea4122e80c65059929950b9c32f17fc57be22089d9c3b00 */\n      0x1d281c488dae143b6ea4122e80c65059929950b9c32f17fc57be22089d9c3b00\n        /* \"https://github.com/thirdweb-dev/contracts/blob/ee78bf9df7b7ac8bc8ded1c8ce91c31ef43cf73e/contracts/extension/upgradeable/ReentrancyGuard.sol\":338:472  bytes32 public constant REENTRANCY_GUARD_STORAGE_POSITION =... */\n      0x00\n      shl\n      dup2\n      jump\t// out\n        /* \"#utility.yul\":7:84   */\n    tag_7:\n        /* \"#utility.yul\":44:51   */\n      0x00\n        /* \"#utility.yul\":73:78   */\n      dup2\n        /* \"#utility.yul\":62:78   */\n      swap1\n      pop\n        /* \"#utility.yul\":7:84   */\n      swap2\n      swap1\n      pop\n      jump\t// out\n        /* \"#utility.yul\":90:216   */\n    tag_8:\n        /* \"#utility.yul\":185:209   */\n      tag_12\n        /* \"#utility.yul\":203:208   */\n      dup2\n        /* \"#utility.yul\":185:209   */\n      tag_7\n      jump\t// in\n    tag_12:\n        /* \"#utility.yul\":180:183   */\n      dup3\n        /* \"#utility.yul\":173:210   */\n      mstore\n        /* \"#utility.yul\":90:216   */\n      pop\n      pop\n      jump\t// out\n        /* \"#utility.yul\":222:460   */\n    tag_6:\n        /* \"#utility.yul\":323:327   */\n      0x00\n        /* \"#utility.yul\":361:363   */\n      0x20\n        /* \"#utility.yul\":350:359   */\n      dup3\n        /* \"#utility.yul\":346:364   */\n      add\n        /* \"#utility.yul\":338:364   */\n      swap1\n      pop\n        /* \"#utility.yul\":374:453   */\n      tag_14\n        /* \"#utility.yul\":450:451   */\n      0x00\n        /* \"#utility.yul\":439:448   */\n      dup4\n        /* \"#utility.yul\":435:452   */\n      add\n        /* \"#utility.yul\":426:432   */\n      dup5\n        /* \"#utility.yul\":374:453   */\n      tag_8\n      jump\t// in\n    tag_14:\n        /* \"#utility.yul\":222:460   */\n      swap3\n      swap2\n      pop\n      pop\n      jump\t// out\n\n    auxdata: 0xa26469706673582212205d6e5c462d1cc38f51bca62790a9aaa55fd62065d4df9fc9d05fffd187d4cf8a64736f6c634300080c0033\n}\n",
				"bytecode": {
					"linkReferences": {},
					"object": "60df610052600b82828239805160001a607314610045577f4e487b7100000000000000000000000000000000000000000000000000000000600052600060045260246000fd5b30600052607381538281f3fe730000000000000000000000000000000000000000301460806040526004361060335760003560e01c8063984b83ff146038575b600080fd5b603e6052565b604051604991906090565b60405180910390f35b7f1d281c488dae143b6ea4122e80c65059929950b9c32f17fc57be22089d9c3b0060001b81565b6000819050919050565b608a816079565b82525050565b600060208201905060a360008301846083565b9291505056fea26469706673582212205d6e5c462d1cc38f51bca62790a9aaa55fd62065d4df9fc9d05fffd187d4cf8a64736f6c634300080c0033",
					"opcodes": "PUSH1 0xDF PUSH2 0x52 PUSH1 0xB DUP3 DUP3 DUP3 CODECOPY DUP1 MLOAD PUSH1 0x0 BYTE PUSH1 0x73 EQ PUSH2 0x45 JUMPI PUSH32 0x4E487B7100000000000000000000000000000000000000000000000000000000 PUSH1 0x0 MSTORE PUSH1 0x0 PUSH1 0x4 MSTORE PUSH1 0x24 PUSH1 0x0 REVERT JUMPDEST ADDRESS PUSH1 0x0 MSTORE PUSH1 0x73 DUP2 MSTORE8 DUP3 DUP2 RETURN INVALID PUSH20 0x0 ADDRESS EQ PUSH1 0x80 PUSH1 0x40 MSTORE PUSH1 0x4 CALLDATASIZE LT PUSH1 0x33 JUMPI PUSH1 0x0 CALLDATALOAD PUSH1 0xE0 SHR DUP1 PUSH4 0x984B83FF EQ PUSH1 0x38 JUMPI JUMPDEST PUSH1 0x0 DUP1 REVERT JUMPDEST PUSH1 0x3E PUSH1 0x52 JUMP JUMPDEST PUSH1 0x40 MLOAD PUSH1 0x49 SWAP2 SWAP1 PUSH1 0x90 JUMP JUMPDEST PUSH1 0x40 MLOAD DUP1 SWAP2 SUB SWAP1 RETURN JUMPDEST PUSH32 0x1D281C488DAE143B6EA4122E80C65059929950B9C32F17FC57BE22089D9C3B00 PUSH1 0x0 SHL DUP2 JUMP JUMPDEST PUSH1 0x0 DUP2 SWAP1 POP SWAP2 SWAP1 POP JUMP JUMPDEST PUSH1 0x8A DUP2 PUSH1 0x79 JUMP JUMPDEST DUP3 MSTORE POP POP JUMP JUMPDEST PUSH1 0x0 PUSH1 0x20 DUP3 ADD SWAP1 POP PUSH1 0xA3 PUSH1 0x0 DUP4 ADD DUP5 PUSH1 0x83 JUMP JUMPDEST SWAP3 SWAP2 POP POP JUMP INVALID LOG2 PUSH5 0x6970667358 0x22 SLT KECCAK256 0x5D PUSH15 0x5C462D1CC38F51BCA62790A9AAA55F 0xD6 KECCAK256 PUSH6 0xD4DF9FC9D05F SELFDESTRUCT 0xD1 DUP8 0xD4 0xCF DUP11 PUSH5 0x736F6C6343 STOP ADDMOD 0xC STOP CALLER "
				},
				"gasEstimates": {
					"creation": {
						"codeDepositCost": "44600",
						"executionCost": "121",
						"totalCost": "44721"
					},
					"external": {
						"REENTRANCY_GUARD_STORAGE_POSITION()": "297"
					},
					"internal": {
						"data()": "infinite"
					}
				},
				"methodIdentifiers": {
					"REENTRANCY_GUARD_STORAGE_POSITION()": "984b83ff"
				}
			},
			"storageLayout": {
				"storage": [],
				"types": null
			},
			"userdoc": {
				"kind": "user",
				"methods": {},
				"version": 1
			}
		}
	}
}