{
	"https://github.com/thirdweb-dev/contracts/blob/ee78bf9df7b7ac8bc8ded1c8ce91c31ef43cf73e/contracts/extension/upgradeable/Ownable.sol": {
		"OwnableStorage": {
			"abi": [
				{
					"inputs": [],
					"name": "OWNABLE_STORAGE_POSITION",
					"outputs": [
						{
							"internalType": "bytes32",
							"name": "",
							"type": "bytes32"
						}
					],
					"stateMutability": "view",
					"type": "function"
				}
			],
			"devdoc": {
				"kind": "dev",
				"methods": {},
				"stateVariables": {
					"OWNABLE_STORAGE_POSITION": {
						"custom:storage-location": "erc7201:extension.manager.storage"
					}
				},
				"title": "Ownable",
				"version": 1
			},
			"evm": {
				"assembly": "    /* \"https://github.com/thirdweb-dev/contracts/blob/ee78bf9df7b7ac8bc8ded1c8ce91c31ef43cf73e/contracts/extension/upgradeable/Ownable.sol\":486:1044  library OwnableStorage {... */\n  dataSize(sub_0)\n  dataOffset(sub_0)\n  0x0b\n  dup3\n  dup3\n  dup3\n  codecopy\n  dup1\n  mload\n  0x00\n  byte\n  0x73\n  eq\n  tag_1\n  jumpi\n  mstore(0x00, 0x4e487b7100000000000000000000000000000000000000000000000000000000)\n  mstore(0x04, 0x00)\n  revert(0x00, 0x24)\ntag_1:\n  mstore(0x00, address)\n  0x73\n  dup2\n  mstore8\n  dup3\n  dup2\n  return\nstop\n\nsub_0: assembly {\n        /* \"https://github.com/thirdweb-dev/contracts/blob/ee78bf9df7b7ac8bc8ded1c8ce91c31ef43cf73e/contracts/extension/upgradeable/Ownable.sol\":486:1044  library OwnableStorage {... */\n      eq(address, deployTimeAddress())\n      mstore(0x40, 0x80)\n      jumpi(tag_1, lt(calldatasize, 0x04))\n      shr(0xe0, calldataload(0x00))\n      dup1\n      0xf8f20d63\n      eq\n      tag_2\n      jumpi\n    tag_1:\n      0x00\n      dup1\n      revert\n        /* \"https://github.com/thirdweb-dev/contracts/blob/ee78bf9df7b7ac8bc8ded1c8ce91c31ef43cf73e/contracts/extension/upgradeable/Ownable.sol\":582:731  bytes32 public constant OWNABLE_STORAGE_POSITION =... */\n    tag_2:\n      tag_3\n      tag_4\n      jump\t// in\n    tag_3:\n      mload(0x40)\n      tag_5\n      swap2\n      swap1\n      tag_6\n      jump\t// in\n    tag_5:\n      mload(0x40)\n      dup1\n      swap2\n      sub\n      swap1\n      return\n    tag_4:\n        /* \"https://github.com/thirdweb-dev/contracts/blob/ee78bf9df7b7ac8bc8ded1c8ce91c31ef43cf73e/contracts/extension/upgradeable/Ownable.sol\":725:729  0xff */\n      0xff\n        /* \"https://github.com/thirdweb-dev/contracts/blob/ee78bf9df7b7ac8bc8ded1c8ce91c31ef43cf73e/contracts/extension/upgradeable/Ownable.sol\":709:731  bytes32(uint256(0xff)) */\n      0x00\n      shl\n        /* \"https://github.com/thirdweb-dev/contracts/blob/ee78bf9df7b7ac8bc8ded1c8ce91c31ef43cf73e/contracts/extension/upgradeable/Ownable.sol\":708:731  ~bytes32(uint256(0xff)) */\n      not\n        /* \"https://github.com/thirdweb-dev/contracts/blob/ee78bf9df7b7ac8bc8ded1c8ce91c31ef43cf73e/contracts/extension/upgradeable/Ownable.sol\":702:703  1 */\n      0x01\n        /* \"https://github.com/thirdweb-dev/contracts/blob/ee78bf9df7b7ac8bc8ded1c8ce91c31ef43cf73e/contracts/extension/upgradeable/Ownable.sol\":670:698  keccak256(\"ownable.storage\") */\n      0xfa02b2ade2dba28b48a24f204a68d8c0005ca2ccfd58c765cdddd023319a9b3f\n        /* \"https://github.com/thirdweb-dev/contracts/blob/ee78bf9df7b7ac8bc8ded1c8ce91c31ef43cf73e/contracts/extension/upgradeable/Ownable.sol\":662:699  uint256(keccak256(\"ownable.storage\")) */\n      0x00\n      shr\n        /* \"https://github.com/thirdweb-dev/contracts/blob/ee78bf9df7b7ac8bc8ded1c8ce91c31ef43cf73e/contracts/extension/upgradeable/Ownable.sol\":662:703  uint256(keccak256(\"ownable.storage\")) - 1 */\n      tag_7\n      swap2\n      swap1\n      tag_8\n      jump\t// in\n    tag_7:\n        /* \"https://github.com/thirdweb-dev/contracts/blob/ee78bf9df7b7ac8bc8ded1c8ce91c31ef43cf73e/contracts/extension/upgradeable/Ownable.sol\":651:704  abi.encode(uint256(keccak256(\"ownable.storage\")) - 1) */\n      add(0x20, mload(0x40))\n      tag_9\n      swap2\n      swap1\n      tag_10\n      jump\t// in\n    tag_9:\n      mload(0x40)\n      0x20\n      dup2\n      dup4\n      sub\n      sub\n      dup2\n      mstore\n      swap1\n      0x40\n      mstore\n        /* \"https://github.com/thirdweb-dev/contracts/blob/ee78bf9df7b7ac8bc8ded1c8ce91c31ef43cf73e/contracts/extension/upgradeable/Ownable.sol\":641:705  keccak256(abi.encode(uint256(keccak256(\"ownable.storage\")) - 1)) */\n      dup1\n      mload\n      swap1\n      0x20\n      add\n      keccak256\n        /* \"https://github.com/thirdweb-dev/contracts/blob/ee78bf9df7b7ac8bc8ded1c8ce91c31ef43cf73e/contracts/extension/upgradeable/Ownable.sol\":641:731  keccak256(abi.encode(uint256(keccak256(\"ownable.storage\")) - 1)) & ~bytes32(uint256(0xff)) */\n      and\n        /* \"https://github.com/thirdweb-dev/contracts/blob/ee78bf9df7b7ac8bc8ded1c8ce91c31ef43cf73e/contracts/extension/upgradeable/Ownable.sol\":582:731  bytes32 public constant OWNABLE_STORAGE_POSITION =... */\n      dup2\n      jump\t// out\n        /* \"#utility.yul\":7:84   */\n    tag_11:\n        /* \"#utility.yul\":44:51   */\n      0x00\n        /* \"#utility.yul\":73:78   */\n      dup2\n        /* \"#utility.yul\":62:78   */\n      swap1\n      pop\n        /* \"#utility.yul\":7:84   */\n      swap2\n      swap1\n      pop\n      jump\t// out\n        /* \"#utility.yul\":90:216   */\n    tag_12:\n        /* \"#utility.yul\":185:209   */\n      tag_19\n        /* \"#utility.yul\":203:208   */\n      dup2\n        /* \"#utility.yul\":185:209   */\n      tag_11\n      jump\t// in\n    tag_19:\n        /* \"#utility.yul\":180:183   */\n      dup3\n        /* \"#utility.yul\":173:210   */\n      mstore\n        /* \"#utility.yul\":90:216   */\n      pop\n      pop\n      jump\t// out\n        /* \"#utility.yul\":222:460   */\n    tag_6:\n        /* \"#utility.yul\":323:327   */\n      0x00\n        /* \"#utility.yul\":361:363   */\n      0x20\n        /* \"#utility.yul\":350:359   */\n      dup3\n        /* \"#utility.yul\":346:364   */\n      add\n        /* \"#utility.yul\":338:364   */\n      swap1\n      pop\n        /* \"#utility.yul\":374:453   */\n      tag_21\n        /* \"#utility.yul\":450:451   */\n      0x00\n        /* \"#utility.yul\":439:448   */\n      dup4\n        /* \"#utility.yul\":435:452   */\n      add\n        /* \"#utility.yul\":426:432   */\n      dup5\n        /* \"#utility.yul\":374:453   */\n      tag_12\n      jump\t// in\n    tag_21:\n        /* \"#utility.yul\":222:460   */\n      swap3\n      swap2\n      pop\n      pop\n      jump\t// out\n        /* \"#utility.yul\":466:543   */\n    tag_13:\n        /* \"#utility.yul\":503:510   */\n      0x00\n        /* \"#utility.yul\":532:537   */\n      dup2\n        /* \"#utility.yul\":521:537   */\n      swap1\n      pop\n        /* \"#utility.yul\":466:543   */\n      swap2\n      swap1\n      pop\n      jump\t// out\n        /* \"#utility.yul\":549:729   */\n    tag_14:\n        /* \"#utility.yul\":597:674   */\n      0x4e487b7100000000000000000000000000000000000000000000000000000000\n        /* \"#utility.yul\":594:595   */\n      0x00\n        /* \"#utility.yul\":587:675   */\n      mstore\n        /* \"#utility.yul\":694:698   */\n      0x11\n        /* \"#utility.yul\":691:692   */\n      0x04\n        /* \"#utility.yul\":684:699   */\n      mstore\n        /* \"#utility.yul\":718:722   */\n      0x24\n        /* \"#utility.yul\":715:716   */\n      0x00\n        /* \"#utility.yul\":708:723   */\n      revert\n        /* \"#utility.yul\":735:926   */\n    tag_8:\n        /* \"#utility.yul\":775:779   */\n      0x00\n        /* \"#utility.yul\":795:815   */\n      tag_25\n        /* \"#utility.yul\":813:814   */\n      dup3\n        /* \"#utility.yul\":795:815   */\n      tag_13\n      jump\t// in\n    tag_25:\n        /* \"#utility.yul\":790:815   */\n      swap2\n      pop\n        /* \"#utility.yul\":829:849   */\n      tag_26\n        /* \"#utility.yul\":847:848   */\n      dup4\n        /* \"#utility.yul\":829:849   */\n      tag_13\n      jump\t// in\n    tag_26:\n        /* \"#utility.yul\":824:849   */\n      swap3\n      pop\n        /* \"#utility.yul\":868:869   */\n      dup3\n        /* \"#utility.yul\":865:866   */\n      dup3\n        /* \"#utility.yul\":862:870   */\n      lt\n        /* \"#utility.yul\":859:893   */\n      iszero\n      tag_27\n      jumpi\n        /* \"#utility.yul\":873:891   */\n      tag_28\n      tag_14\n      jump\t// in\n    tag_28:\n        /* \"#utility.yul\":859:893   */\n    tag_27:\n        /* \"#utility.yul\":918:919   */\n      dup3\n        /* \"#utility.yul\":915:916   */\n      dup3\n        /* \"#utility.yul\":911:920   */\n      sub\n        /* \"#utility.yul\":903:920   */\n      swap1\n      pop\n        /* \"#utility.yul\":735:926   */\n      swap3\n      swap2\n      pop\n      pop\n      jump\t// out\n        /* \"#utility.yul\":932:1050   */\n    tag_15:\n        /* \"#utility.yul\":1019:1043   */\n      tag_30\n        /* \"#utility.yul\":1037:1042   */\n      dup2\n        /* \"#utility.yul\":1019:1043   */\n      tag_13\n      jump\t// in\n    tag_30:\n        /* \"#utility.yul\":1014:1017   */\n      dup3\n        /* \"#utility.yul\":1007:1044   */\n      mstore\n        /* \"#utility.yul\":932:1050   */\n      pop\n      pop\n      jump\t// out\n        /* \"#utility.yul\":1056:1278   */\n    tag_10:\n        /* \"#utility.yul\":1149:1153   */\n      0x00\n        /* \"#utility.yul\":1187:1189   */\n      0x20\n        /* \"#utility.yul\":1176:1185   */\n      dup3\n        /* \"#utility.yul\":1172:1190   */\n      add\n        /* \"#utility.yul\":1164:1190   */\n      swap1\n      pop\n        /* \"#utility.yul\":1200:1271   */\n      tag_32\n        /* \"#utility.yul\":1268:1269   */\n      0x00\n        /* \"#utility.yul\":1257:1266   */\n      dup4\n        /* \"#utility.yul\":1253:1270   */\n      add\n        /* \"#utility.yul\":1244:1250   */\n      dup5\n        /* \"#utility.yul\":1200:1271   */\n      tag_15\n      jump\t// in\n    tag_32:\n        /* \"#utility.yul\":1056:1278   */\n      swap3\n      swap2\n      pop\n      pop\n      jump\t// out\n\n    auxdata: 0xa264697066735822122022ef4066138d2e610144c5cc026859a4dd4773c070fd0aa135d7f5cb9be65d2064736f6c634300080c0033\n}\n",
				"bytecode": {
					"linkReferences": {},
					"object": "6101b9610053600b82828239805160001a607314610046577f4e487b7100000000000000000000000000000000000000000000000000000000600052600060045260246000fd5b30600052607381538281f3fe73000000000000000000000000000000000000000030146080604052600436106100355760003560e01c8063f8f20d631461003a575b600080fd5b610042610058565b60405161004f91906100d1565b60405180910390f35b60ff60001b1960017ffa02b2ade2dba28b48a24f204a68d8c0005ca2ccfd58c765cdddd023319a9b3f60001c61008e9190610125565b60405160200161009e9190610168565b604051602081830303815290604052805190602001201681565b6000819050919050565b6100cb816100b8565b82525050565b60006020820190506100e660008301846100c2565b92915050565b6000819050919050565b7f4e487b7100000000000000000000000000000000000000000000000000000000600052601160045260246000fd5b6000610130826100ec565b915061013b836100ec565b92508282101561014e5761014d6100f6565b5b828203905092915050565b610162816100ec565b82525050565b600060208201905061017d6000830184610159565b9291505056fea264697066735822122022ef4066138d2e610144c5cc026859a4dd4773c070fd0aa135d7f5cb9be65d2064736f6c634300080c0033",
					"opcodes": "PUSH2 0x1B9 PUSH2 0x53 PUSH1 0xB DUP3 DUP3 DUP3 CODECOPY DUP1 MLOAD PUSH1 0x0 BYTE PUSH1 0x73 EQ PUSH2 0x46 JUMPI PUSH32 0x4E487B7100000000000000000000000000000000000000000000000000000000 PUSH1 0x0 MSTORE PUSH1 0x0 PUSH1 0x4 MSTORE PUSH1 0x24 PUSH1 0x0 REVERT JUMPDEST ADDRESS PUSH1 0x0 MSTORE PUSH1 0x73 DUP2 MSTORE8 DUP3 DUP2 RETURN INVALID PUSH20 0x0 ADDRESS EQ PUSH1 0x80 PUSH1 0x40 MSTORE PUSH1 0x4 CALLDATASIZE LT PUSH2 0x35 JUMPI PUSH1 0x0 CALLDATALOAD PUSH1 0xE0 SHR DUP1 PUSH4 0xF8F20D63 EQ PUSH2 0x3A JUMPI JUMPDEST PUSH1 0x0 DUP1 REVERT JUMPDEST PUSH2 0x42 PUSH2 0x58 JUMP JUMPDEST PUSH1 0x40 MLOAD PUSH2 0x4F SWAP2 SWAP1 PUSH2 0xD1 JUMP JUMPDEST PUSH1 0x40 MLOAD DUP1 SWAP2 SUB SWAP1 RETURN JUMPDEST PUSH1 0xFF PUSH1 0x0 SHL NOT PUSH1 0x1 PUSH32 0xFA02B2ADE2DBA28B48A24F204A68D8C0005CA2CCFD58C765CDDDD023319A9B3F PUSH1 0x0 SHR PUSH2 0x8E SWAP2 SWAP1 PUSH2 0x125 JUMP JUMPDEST PUSH1 0x40 MLOAD PUSH1 0x20 ADD PUSH2 0x9E SWAP2 SWAP1 PUSH2 0x168 JUMP JUMPDEST PUSH1 0x40 MLOAD PUSH1 0x20 DUP2 DUP4 SUB SUB DUP2 MSTORE SWAP1 PUSH1 0x40 MSTORE DUP1 MLOAD SWAP1 PUSH1 0x20 ADD KECCAK256 AND DUP2 JUMP JUMPDEST PUSH1 0x0 DUP2 SWAP1 POP SWAP2 SWAP1 POP JUMP JUMPDEST PUSH2 0xCB DUP2 PUSH2 0xB8 JUMP JUMPDEST DUP3 MSTORE POP POP JUMP JUMPDEST PUSH1 0x0 PUSH1 0x20 DUP3 ADD SWAP1 POP PUSH2 0xE6 PUSH1 0x0 DUP4 ADD DUP5 PUSH2 0xC2 JUMP JUMPDEST SWAP3 SWAP2 POP POP JUMP JUMPDEST PUSH1 0x0 DUP2 SWAP1 POP SWAP2 SWAP1 POP JUMP JUMPDEST PUSH32 0x4E487B7100000000000000000000000000000000000000000000000000000000 PUSH1 0x0 MSTORE PUSH1 0x11 PUSH1 0x4 MSTORE PUSH1 0x24 PUSH1 0x0 REVERT JUMPDEST PUSH1 0x0 PUSH2 0x130 DUP3 PUSH2 0xEC JUMP JUMPDEST SWAP2 POP PUSH2 0x13B DUP4 PUSH2 0xEC JUMP JUMPDEST SWAP3 POP DUP3 DUP3 LT ISZERO PUSH2 0x14E JUMPI PUSH2 0x14D PUSH2 0xF6 JUMP JUMPDEST JUMPDEST DUP3 DUP3 SUB SWAP1 POP SWAP3 SWAP2 POP POP JUMP JUMPDEST PUSH2 0x162 DUP2 PUSH2 0xEC JUMP JUMPDEST DUP3 MSTORE POP POP JUMP JUMPDEST PUSH1 0x0 PUSH1 0x20 DUP3 ADD SWAP1 POP PUSH2 0x17D PUSH1 0x0 DUP4 ADD DUP5 PUSH2 0x159 JUMP JUMPDEST SWAP3 SWAP2 POP POP JUMP INVALID LOG2 PUSH5 0x6970667358 0x22 SLT KECCAK256 0x22 0xEF BLOCKHASH PUSH7 0x138D2E610144C5 0xCC MUL PUSH9 0x59A4DD4773C070FD0A LOG1 CALLDATALOAD 0xD7 CREATE2 0xCB SWAP12 0xE6 0x5D KECCAK256 PUSH5 0x736F6C6343 STOP ADDMOD 0xC STOP CALLER "
				},
				"gasEstimates": {
					"creation": {
						"codeDepositCost": "88200",
						"executionCost": "163",
						"totalCost": "88363"
					},
					"external": {
						"OWNABLE_STORAGE_POSITION()": "infinite"
					},
					"internal": {
						"data()": "infinite"
					}
				},
				"methodIdentifiers": {
					"OWNABLE_STORAGE_POSITION()": "f8f20d63"
				}
			},
			"storageLayout": {
				"storage": [],
				"types": null
			},
			"userdoc": {
				"kind": "user",
				"methods": {},
				"notice": "Thirdweb's `Ownable` is a contract extension to be used with any base contract. It exposes functions for setting and reading           who the 'owner' of the inheriting smart contract is, and lets the inheriting contract perform conditional logic that uses           information about who the contract's owner is.",
				"version": 1
			}
		}
	}
}