{
	"gota.sol": {
		"GotasNFTMarketplace": {
			"abi": [
				{
					"inputs": [
						{
							"internalType": "uint256",
							"name": "_royaltyPercentage",
							"type": "uint256"
						},
						{
							"internalType": "uint256",
							"name": "_platformFeePercentage",
							"type": "uint256"
						},
						{
							"internalType": "address",
							"name": "_royaltyAddress",
							"type": "address"
						},
						{
							"internalType": "address",
							"name": "_platformFeeAddress",
							"type": "address"
						}
					],
					"stateMutability": "nonpayable",
					"type": "constructor"
				},
				{
					"anonymous": false,
					"inputs": [
						{
							"indexed": true,
							"internalType": "uint256",
							"name": "listingId",
							"type": "uint256"
						}
					],
					"name": "NFTDelisted",
					"type": "event"
				},
				{
					"anonymous": false,
					"inputs": [
						{
							"indexed": true,
							"internalType": "uint256",
							"name": "listingId",
							"type": "uint256"
						},
						{
							"indexed": true,
							"internalType": "address",
							"name": "seller",
							"type": "address"
						},
						{
							"indexed": true,
							"internalType": "address",
							"name": "nftContract",
							"type": "address"
						},
						{
							"indexed": false,
							"internalType": "uint256[]",
							"name": "nftIds",
							"type": "uint256[]"
						},
						{
							"indexed": false,
							"internalType": "uint256",
							"name": "price",
							"type": "uint256"
						},
						{
							"indexed": false,
							"internalType": "uint256",
							"name": "deadline",
							"type": "uint256"
						}
					],
					"name": "NFTListed",
					"type": "event"
				},
				{
					"anonymous": false,
					"inputs": [
						{
							"indexed": true,
							"internalType": "uint256",
							"name": "listingId",
							"type": "uint256"
						},
						{
							"indexed": true,
							"internalType": "address",
							"name": "seller",
							"type": "address"
						},
						{
							"indexed": true,
							"internalType": "address",
							"name": "buyer",
							"type": "address"
						},
						{
							"indexed": false,
							"internalType": "uint256",
							"name": "price",
							"type": "uint256"
						}
					],
					"name": "NFTSold",
					"type": "event"
				},
				{
					"anonymous": false,
					"inputs": [
						{
							"indexed": true,
							"internalType": "address",
							"name": "prevOwner",
							"type": "address"
						},
						{
							"indexed": true,
							"internalType": "address",
							"name": "newOwner",
							"type": "address"
						}
					],
					"name": "OwnerUpdated",
					"type": "event"
				},
				{
					"anonymous": false,
					"inputs": [
						{
							"indexed": false,
							"internalType": "address",
							"name": "account",
							"type": "address"
						}
					],
					"name": "Paused",
					"type": "event"
				},
				{
					"anonymous": false,
					"inputs": [
						{
							"indexed": false,
							"internalType": "address",
							"name": "account",
							"type": "address"
						}
					],
					"name": "Unpaused",
					"type": "event"
				},
				{
					"inputs": [
						{
							"internalType": "uint256",
							"name": "",
							"type": "uint256"
						}
					],
					"name": "activeListingIds",
					"outputs": [
						{
							"internalType": "uint256",
							"name": "",
							"type": "uint256"
						}
					],
					"stateMutability": "view",
					"type": "function"
				},
				{
					"inputs": [
						{
							"internalType": "uint256",
							"name": "_listingId",
							"type": "uint256"
						}
					],
					"name": "buyNFT",
					"outputs": [],
					"stateMutability": "payable",
					"type": "function"
				},
				{
					"inputs": [
						{
							"internalType": "uint256",
							"name": "_listingId",
							"type": "uint256"
						}
					],
					"name": "cancelListing",
					"outputs": [],
					"stateMutability": "nonpayable",
					"type": "function"
				},
				{
					"inputs": [],
					"name": "getAllListingIds",
					"outputs": [
						{
							"internalType": "uint256[]",
							"name": "",
							"type": "uint256[]"
						}
					],
					"stateMutability": "view",
					"type": "function"
				},
				{
					"inputs": [
						{
							"internalType": "uint256",
							"name": "_listingId",
							"type": "uint256"
						}
					],
					"name": "getListingInfo",
					"outputs": [
						{
							"components": [
								{
									"internalType": "uint256",
									"name": "tokenId",
									"type": "uint256"
								},
								{
									"internalType": "string",
									"name": "metadataLink",
									"type": "string"
								}
							],
							"internalType": "struct GotasNFTMarketplace.TokenInfo[]",
							"name": "",
							"type": "tuple[]"
						}
					],
					"stateMutability": "view",
					"type": "function"
				},
				{
					"inputs": [
						{
							"internalType": "address",
							"name": "_nftContractAddress",
							"type": "address"
						},
						{
							"internalType": "uint256[]",
							"name": "_nftIds",
							"type": "uint256[]"
						},
						{
							"internalType": "uint256",
							"name": "_price",
							"type": "uint256"
						},
						{
							"internalType": "uint256",
							"name": "_deadline",
							"type": "uint256"
						}
					],
					"name": "listNFT",
					"outputs": [],
					"stateMutability": "nonpayable",
					"type": "function"
				},
				{
					"inputs": [
						{
							"internalType": "uint256",
							"name": "",
							"type": "uint256"
						}
					],
					"name": "listingOwners",
					"outputs": [
						{
							"internalType": "address",
							"name": "",
							"type": "address"
						}
					],
					"stateMutability": "view",
					"type": "function"
				},
				{
					"inputs": [
						{
							"internalType": "uint256",
							"name": "",
							"type": "uint256"
						}
					],
					"name": "listings",
					"outputs": [
						{
							"internalType": "address",
							"name": "nftContractAddress",
							"type": "address"
						},
						{
							"internalType": "address",
							"name": "seller",
							"type": "address"
						},
						{
							"internalType": "uint256",
							"name": "price",
							"type": "uint256"
						},
						{
							"internalType": "uint256",
							"name": "deadline",
							"type": "uint256"
						}
					],
					"stateMutability": "view",
					"type": "function"
				},
				{
					"inputs": [],
					"name": "nextListingId",
					"outputs": [
						{
							"internalType": "uint256",
							"name": "",
							"type": "uint256"
						}
					],
					"stateMutability": "view",
					"type": "function"
				},
				{
					"inputs": [],
					"name": "owner",
					"outputs": [
						{
							"internalType": "address",
							"name": "",
							"type": "address"
						}
					],
					"stateMutability": "view",
					"type": "function"
				},
				{
					"inputs": [],
					"name": "pause",
					"outputs": [],
					"stateMutability": "nonpayable",
					"type": "function"
				},
				{
					"inputs": [],
					"name": "paused",
					"outputs": [
						{
							"internalType": "bool",
							"name": "",
							"type": "bool"
						}
					],
					"stateMutability": "view",
					"type": "function"
				},
				{
					"inputs": [],
					"name": "platformFeeAddress",
					"outputs": [
						{
							"internalType": "address",
							"name": "",
							"type": "address"
						}
					],
					"stateMutability": "view",
					"type": "function"
				},
				{
					"inputs": [],
					"name": "platformFeePercentage",
					"outputs": [
						{
							"internalType": "uint256",
							"name": "",
							"type": "uint256"
						}
					],
					"stateMutability": "view",
					"type": "function"
				},
				{
					"inputs": [],
					"name": "royaltyAddress",
					"outputs": [
						{
							"internalType": "address",
							"name": "",
							"type": "address"
						}
					],
					"stateMutability": "view",
					"type": "function"
				},
				{
					"inputs": [],
					"name": "royaltyPercentage",
					"outputs": [
						{
							"internalType": "uint256",
							"name": "",
							"type": "uint256"
						}
					],
					"stateMutability": "view",
					"type": "function"
				},
				{
					"inputs": [
						{
							"internalType": "address",
							"name": "_newOwner",
							"type": "address"
						}
					],
					"name": "setOwner",
					"outputs": [],
					"stateMutability": "nonpayable",
					"type": "function"
				},
				{
					"inputs": [],
					"name": "unpause",
					"outputs": [],
					"stateMutability": "nonpayable",
					"type": "function"
				},
				{
					"inputs": [
						{
							"internalType": "address",
							"name": "_newRoyaltyAddress",
							"type": "address"
						},
						{
							"internalType": "address",
							"name": "_newPlatformFeeAddress",
							"type": "address"
						}
					],
					"name": "updateFeeAddresses",
					"outputs": [],
					"stateMutability": "nonpayable",
					"type": "function"
				},
				{
					"inputs": [
						{
							"internalType": "uint256",
							"name": "_newRoyaltyPercentage",
							"type": "uint256"
						},
						{
							"internalType": "uint256",
							"name": "_newPlatformFeePercentage",
							"type": "uint256"
						}
					],
					"name": "updateFeePercentages",
					"outputs": [],
					"stateMutability": "nonpayable",
					"type": "function"
				}
			],
			"devdoc": {
				"kind": "dev",
				"methods": {
					"paused()": {
						"details": "Returns true if the contract is paused, and false otherwise."
					},
					"setOwner(address)": {
						"params": {
							"_newOwner": "The address to set as the new owner of the contract."
						}
					}
				},
				"version": 1
			},
			"evm": {
				"assembly": "    /* \"gota.sol\":721:7580  contract GotasNFTMarketplace is Ownable, ReentrancyGuard, Pausable {... */\n  mstore(0x40, 0x80)\n    /* \"gota.sol\":1403:1404  1 */\n  0x01\n    /* \"gota.sol\":1372:1404  uint256 public nextListingId = 1 */\n  0x08\n  sstore\n    /* \"gota.sol\":1816:2330  constructor(... */\n  callvalue\n  dup1\n  iszero\n  tag_1\n  jumpi\n  0x00\n  dup1\n  revert\ntag_1:\n  pop\n  mload(0x40)\n  sub(codesize, bytecodeSize)\n  dup1\n  bytecodeSize\n  dup4\n  codecopy\n  dup2\n  dup2\n  add\n  0x40\n  mstore\n  dup2\n  add\n  swap1\n  tag_2\n  swap2\n  swap1\n  tag_3\n  jump\t// in\ntag_2:\n    /* \"https://github.com/thirdweb-dev/contracts/blob/ee78bf9df7b7ac8bc8ded1c8ce91c31ef43cf73e/contracts/extension/upgradeable/ReentrancyGuard.sol\":805:806  1 */\n  0x01\n    /* \"https://github.com/thirdweb-dev/contracts/blob/ee78bf9df7b7ac8bc8ded1c8ce91c31ef43cf73e/contracts/extension/upgradeable/ReentrancyGuard.sol\":880:905  _reentrancyGuardStorage() */\n  tag_8\n    /* \"https://github.com/thirdweb-dev/contracts/blob/ee78bf9df7b7ac8bc8ded1c8ce91c31ef43cf73e/contracts/extension/upgradeable/ReentrancyGuard.sol\":880:903  _reentrancyGuardStorage */\n  shl(0x20, tag_9)\n    /* \"https://github.com/thirdweb-dev/contracts/blob/ee78bf9df7b7ac8bc8ded1c8ce91c31ef43cf73e/contracts/extension/upgradeable/ReentrancyGuard.sol\":880:905  _reentrancyGuardStorage() */\n  0x20\n  shr\n  jump\t// in\ntag_8:\n    /* \"https://github.com/thirdweb-dev/contracts/blob/ee78bf9df7b7ac8bc8ded1c8ce91c31ef43cf73e/contracts/extension/upgradeable/ReentrancyGuard.sol\":880:913  _reentrancyGuardStorage()._status */\n  0x00\n  add\n    /* \"https://github.com/thirdweb-dev/contracts/blob/ee78bf9df7b7ac8bc8ded1c8ce91c31ef43cf73e/contracts/extension/upgradeable/ReentrancyGuard.sol\":880:928  _reentrancyGuardStorage()._status = _NOT_ENTERED */\n  dup2\n  swap1\n  sstore\n  pop\n    /* \"https://github.com/OpenZeppelin/openzeppelin-contracts/blob/release-v4.9/contracts/security/Pausable.sol\":1006:1011  false */\n  0x00\n    /* \"https://github.com/OpenZeppelin/openzeppelin-contracts/blob/release-v4.9/contracts/security/Pausable.sol\":996:1003  _paused */\n  dup1\n  0x00\n    /* \"https://github.com/OpenZeppelin/openzeppelin-contracts/blob/release-v4.9/contracts/security/Pausable.sol\":996:1011  _paused = false */\n  0x0100\n  exp\n  dup2\n  sload\n  dup2\n  0xff\n  mul\n  not\n  and\n  swap1\n  dup4\n  iszero\n  iszero\n  mul\n  or\n  swap1\n  sstore\n  pop\n    /* \"gota.sol\":2038:2039  0 */\n  0x00\n    /* \"gota.sol\":2011:2040  _royaltyAddress != address(0) */\n  0xffffffffffffffffffffffffffffffffffffffff\n  and\n    /* \"gota.sol\":2011:2026  _royaltyAddress */\n  dup3\n    /* \"gota.sol\":2011:2040  _royaltyAddress != address(0) */\n  0xffffffffffffffffffffffffffffffffffffffff\n  and\n  eq\n  iszero\n    /* \"gota.sol\":2011:2077  _royaltyAddress != address(0) && _platformFeeAddress != address(0) */\n  dup1\n  iszero\n  tag_12\n  jumpi\n  pop\n    /* \"gota.sol\":2075:2076  0 */\n  0x00\n    /* \"gota.sol\":2044:2077  _platformFeeAddress != address(0) */\n  0xffffffffffffffffffffffffffffffffffffffff\n  and\n    /* \"gota.sol\":2044:2063  _platformFeeAddress */\n  dup2\n    /* \"gota.sol\":2044:2077  _platformFeeAddress != address(0) */\n  0xffffffffffffffffffffffffffffffffffffffff\n  and\n  eq\n  iszero\n    /* \"gota.sol\":2011:2077  _royaltyAddress != address(0) && _platformFeeAddress != address(0) */\ntag_12:\n    /* \"gota.sol\":1990:2127  require(... */\n  tag_13\n  jumpi\n  mload(0x40)\n  0x08c379a000000000000000000000000000000000000000000000000000000000\n  dup2\n  mstore\n  0x04\n  add\n  tag_14\n  swap1\n  tag_15\n  jump\t// in\ntag_14:\n  mload(0x40)\n  dup1\n  swap2\n  sub\n  swap1\n  revert\ntag_13:\n    /* \"gota.sol\":2157:2175  _royaltyPercentage */\n  dup4\n    /* \"gota.sol\":2137:2154  royaltyPercentage */\n  0x02\n    /* \"gota.sol\":2137:2175  royaltyPercentage = _royaltyPercentage */\n  dup2\n  swap1\n  sstore\n  pop\n    /* \"gota.sol\":2209:2231  _platformFeePercentage */\n  dup3\n    /* \"gota.sol\":2185:2206  platformFeePercentage */\n  0x03\n    /* \"gota.sol\":2185:2231  platformFeePercentage = _platformFeePercentage */\n  dup2\n  swap1\n  sstore\n  pop\n    /* \"gota.sol\":2258:2273  _royaltyAddress */\n  dup2\n    /* \"gota.sol\":2241:2255  royaltyAddress */\n  0x04\n  0x00\n    /* \"gota.sol\":2241:2273  royaltyAddress = _royaltyAddress */\n  0x0100\n  exp\n  dup2\n  sload\n  dup2\n  0xffffffffffffffffffffffffffffffffffffffff\n  mul\n  not\n  and\n  swap1\n  dup4\n  0xffffffffffffffffffffffffffffffffffffffff\n  and\n  mul\n  or\n  swap1\n  sstore\n  pop\n    /* \"gota.sol\":2304:2323  _platformFeeAddress */\n  dup1\n    /* \"gota.sol\":2283:2301  platformFeeAddress */\n  0x05\n  0x00\n    /* \"gota.sol\":2283:2323  platformFeeAddress = _platformFeeAddress */\n  0x0100\n  exp\n  dup2\n  sload\n  dup2\n  0xffffffffffffffffffffffffffffffffffffffff\n  mul\n  not\n  and\n  swap1\n  dup4\n  0xffffffffffffffffffffffffffffffffffffffff\n  and\n  mul\n  or\n  swap1\n  sstore\n  pop\n    /* \"gota.sol\":1816:2330  constructor(... */\n  pop\n  pop\n  pop\n  pop\n    /* \"gota.sol\":721:7580  contract GotasNFTMarketplace is Ownable, ReentrancyGuard, Pausable {... */\n  jump(tag_16)\n    /* \"https://github.com/thirdweb-dev/contracts/blob/ee78bf9df7b7ac8bc8ded1c8ce91c31ef43cf73e/contracts/extension/upgradeable/ReentrancyGuard.sol\":1613:1766  function _reentrancyGuardStorage() internal pure returns (ReentrancyGuardStorage.Data storage data) {... */\ntag_9:\n    /* \"https://github.com/thirdweb-dev/contracts/blob/ee78bf9df7b7ac8bc8ded1c8ce91c31ef43cf73e/contracts/extension/upgradeable/ReentrancyGuard.sol\":1671:1711  ReentrancyGuardStorage.Data storage data */\n  0x00\n    /* \"https://github.com/thirdweb-dev/contracts/blob/ee78bf9df7b7ac8bc8ded1c8ce91c31ef43cf73e/contracts/extension/upgradeable/ReentrancyGuard.sol\":1730:1759  ReentrancyGuardStorage.data() */\n  tag_18\n    /* \"https://github.com/thirdweb-dev/contracts/blob/ee78bf9df7b7ac8bc8ded1c8ce91c31ef43cf73e/contracts/extension/upgradeable/ReentrancyGuard.sol\":1730:1757  ReentrancyGuardStorage.data */\n  or(tag_0_117, shl(0x20, tag_19))\n    /* \"https://github.com/thirdweb-dev/contracts/blob/ee78bf9df7b7ac8bc8ded1c8ce91c31ef43cf73e/contracts/extension/upgradeable/ReentrancyGuard.sol\":1730:1759  ReentrancyGuardStorage.data() */\n  0x20\n  shr\n  jump\t// in\ntag_18:\n    /* \"https://github.com/thirdweb-dev/contracts/blob/ee78bf9df7b7ac8bc8ded1c8ce91c31ef43cf73e/contracts/extension/upgradeable/ReentrancyGuard.sol\":1723:1759  data = ReentrancyGuardStorage.data() */\n  swap1\n  pop\n    /* \"https://github.com/thirdweb-dev/contracts/blob/ee78bf9df7b7ac8bc8ded1c8ce91c31ef43cf73e/contracts/extension/upgradeable/ReentrancyGuard.sol\":1613:1766  function _reentrancyGuardStorage() internal pure returns (ReentrancyGuardStorage.Data storage data) {... */\n  swap1\n  jump\t// out\n    /* \"https://github.com/thirdweb-dev/contracts/blob/ee78bf9df7b7ac8bc8ded1c8ce91c31ef43cf73e/contracts/extension/upgradeable/ReentrancyGuard.sol\":529:721  function data() internal pure returns (Data storage data_) {... */\ntag_19:\n    /* \"https://github.com/thirdweb-dev/contracts/blob/ee78bf9df7b7ac8bc8ded1c8ce91c31ef43cf73e/contracts/extension/upgradeable/ReentrancyGuard.sol\":568:586  Data storage data_ */\n  0x00\n    /* \"https://github.com/thirdweb-dev/contracts/blob/ee78bf9df7b7ac8bc8ded1c8ce91c31ef43cf73e/contracts/extension/upgradeable/ReentrancyGuard.sol\":598:614  bytes32 position */\n  dup1\n    /* \"https://github.com/thirdweb-dev/contracts/blob/ee78bf9df7b7ac8bc8ded1c8ce91c31ef43cf73e/contracts/extension/upgradeable/ReentrancyGuard.sol\":406:472  0x1d281c488dae143b6ea4122e80c65059929950b9c32f17fc57be22089d9c3b00 */\n  0x1d281c488dae143b6ea4122e80c65059929950b9c32f17fc57be22089d9c3b00\n    /* \"https://github.com/thirdweb-dev/contracts/blob/ee78bf9df7b7ac8bc8ded1c8ce91c31ef43cf73e/contracts/extension/upgradeable/ReentrancyGuard.sol\":617:650  REENTRANCY_GUARD_STORAGE_POSITION */\n  0x00\n  shl\n    /* \"https://github.com/thirdweb-dev/contracts/blob/ee78bf9df7b7ac8bc8ded1c8ce91c31ef43cf73e/contracts/extension/upgradeable/ReentrancyGuard.sol\":598:650  bytes32 position = REENTRANCY_GUARD_STORAGE_POSITION */\n  swap1\n  pop\n    /* \"https://github.com/thirdweb-dev/contracts/blob/ee78bf9df7b7ac8bc8ded1c8ce91c31ef43cf73e/contracts/extension/upgradeable/ReentrancyGuard.sol\":697:705  position */\n  dup1\n    /* \"https://github.com/thirdweb-dev/contracts/blob/ee78bf9df7b7ac8bc8ded1c8ce91c31ef43cf73e/contracts/extension/upgradeable/ReentrancyGuard.sol\":683:705  data_.slot := position */\n  swap2\n  pop\n    /* \"https://github.com/thirdweb-dev/contracts/blob/ee78bf9df7b7ac8bc8ded1c8ce91c31ef43cf73e/contracts/extension/upgradeable/ReentrancyGuard.sol\":669:715  {... */\n  pop\n    /* \"https://github.com/thirdweb-dev/contracts/blob/ee78bf9df7b7ac8bc8ded1c8ce91c31ef43cf73e/contracts/extension/upgradeable/ReentrancyGuard.sol\":529:721  function data() internal pure returns (Data storage data_) {... */\n  swap1\n  jump\t// out\n    /* \"#utility.yul\":88:205   */\ntag_22:\n    /* \"#utility.yul\":197:198   */\n  0x00\n    /* \"#utility.yul\":194:195   */\n  dup1\n    /* \"#utility.yul\":187:199   */\n  revert\n    /* \"#utility.yul\":334:411   */\ntag_24:\n    /* \"#utility.yul\":371:378   */\n  0x00\n    /* \"#utility.yul\":400:405   */\n  dup2\n    /* \"#utility.yul\":389:405   */\n  swap1\n  pop\n    /* \"#utility.yul\":334:411   */\n  swap2\n  swap1\n  pop\n  jump\t// out\n    /* \"#utility.yul\":417:539   */\ntag_25:\n    /* \"#utility.yul\":490:514   */\n  tag_40\n    /* \"#utility.yul\":508:513   */\n  dup2\n    /* \"#utility.yul\":490:514   */\n  tag_24\n  jump\t// in\ntag_40:\n    /* \"#utility.yul\":483:488   */\n  dup2\n    /* \"#utility.yul\":480:515   */\n  eq\n    /* \"#utility.yul\":470:533   */\n  tag_41\n  jumpi\n    /* \"#utility.yul\":529:530   */\n  0x00\n    /* \"#utility.yul\":526:527   */\n  dup1\n    /* \"#utility.yul\":519:531   */\n  revert\n    /* \"#utility.yul\":470:533   */\ntag_41:\n    /* \"#utility.yul\":417:539   */\n  pop\n  jump\t// out\n    /* \"#utility.yul\":545:688   */\ntag_26:\n    /* \"#utility.yul\":602:607   */\n  0x00\n    /* \"#utility.yul\":633:639   */\n  dup2\n    /* \"#utility.yul\":627:640   */\n  mload\n    /* \"#utility.yul\":618:640   */\n  swap1\n  pop\n    /* \"#utility.yul\":649:682   */\n  tag_43\n    /* \"#utility.yul\":676:681   */\n  dup2\n    /* \"#utility.yul\":649:682   */\n  tag_25\n  jump\t// in\ntag_43:\n    /* \"#utility.yul\":545:688   */\n  swap3\n  swap2\n  pop\n  pop\n  jump\t// out\n    /* \"#utility.yul\":694:820   */\ntag_27:\n    /* \"#utility.yul\":731:738   */\n  0x00\n    /* \"#utility.yul\":771:813   */\n  0xffffffffffffffffffffffffffffffffffffffff\n    /* \"#utility.yul\":764:769   */\n  dup3\n    /* \"#utility.yul\":760:814   */\n  and\n    /* \"#utility.yul\":749:814   */\n  swap1\n  pop\n    /* \"#utility.yul\":694:820   */\n  swap2\n  swap1\n  pop\n  jump\t// out\n    /* \"#utility.yul\":826:922   */\ntag_28:\n    /* \"#utility.yul\":863:870   */\n  0x00\n    /* \"#utility.yul\":892:916   */\n  tag_46\n    /* \"#utility.yul\":910:915   */\n  dup3\n    /* \"#utility.yul\":892:916   */\n  tag_27\n  jump\t// in\ntag_46:\n    /* \"#utility.yul\":881:916   */\n  swap1\n  pop\n    /* \"#utility.yul\":826:922   */\n  swap2\n  swap1\n  pop\n  jump\t// out\n    /* \"#utility.yul\":928:1050   */\ntag_29:\n    /* \"#utility.yul\":1001:1025   */\n  tag_48\n    /* \"#utility.yul\":1019:1024   */\n  dup2\n    /* \"#utility.yul\":1001:1025   */\n  tag_28\n  jump\t// in\ntag_48:\n    /* \"#utility.yul\":994:999   */\n  dup2\n    /* \"#utility.yul\":991:1026   */\n  eq\n    /* \"#utility.yul\":981:1044   */\n  tag_49\n  jumpi\n    /* \"#utility.yul\":1040:1041   */\n  0x00\n    /* \"#utility.yul\":1037:1038   */\n  dup1\n    /* \"#utility.yul\":1030:1042   */\n  revert\n    /* \"#utility.yul\":981:1044   */\ntag_49:\n    /* \"#utility.yul\":928:1050   */\n  pop\n  jump\t// out\n    /* \"#utility.yul\":1056:1199   */\ntag_30:\n    /* \"#utility.yul\":1113:1118   */\n  0x00\n    /* \"#utility.yul\":1144:1150   */\n  dup2\n    /* \"#utility.yul\":1138:1151   */\n  mload\n    /* \"#utility.yul\":1129:1151   */\n  swap1\n  pop\n    /* \"#utility.yul\":1160:1193   */\n  tag_51\n    /* \"#utility.yul\":1187:1192   */\n  dup2\n    /* \"#utility.yul\":1160:1193   */\n  tag_29\n  jump\t// in\ntag_51:\n    /* \"#utility.yul\":1056:1199   */\n  swap3\n  swap2\n  pop\n  pop\n  jump\t// out\n    /* \"#utility.yul\":1205:2025   */\ntag_3:\n    /* \"#utility.yul\":1302:1308   */\n  0x00\n    /* \"#utility.yul\":1310:1316   */\n  dup1\n    /* \"#utility.yul\":1318:1324   */\n  0x00\n    /* \"#utility.yul\":1326:1332   */\n  dup1\n    /* \"#utility.yul\":1375:1378   */\n  0x80\n    /* \"#utility.yul\":1363:1372   */\n  dup6\n    /* \"#utility.yul\":1354:1361   */\n  dup8\n    /* \"#utility.yul\":1350:1373   */\n  sub\n    /* \"#utility.yul\":1346:1379   */\n  slt\n    /* \"#utility.yul\":1343:1463   */\n  iszero\n  tag_53\n  jumpi\n    /* \"#utility.yul\":1382:1461   */\n  tag_54\n  tag_22\n  jump\t// in\ntag_54:\n    /* \"#utility.yul\":1343:1463   */\ntag_53:\n    /* \"#utility.yul\":1502:1503   */\n  0x00\n    /* \"#utility.yul\":1527:1591   */\n  tag_55\n    /* \"#utility.yul\":1583:1590   */\n  dup8\n    /* \"#utility.yul\":1574:1580   */\n  dup3\n    /* \"#utility.yul\":1563:1572   */\n  dup9\n    /* \"#utility.yul\":1559:1581   */\n  add\n    /* \"#utility.yul\":1527:1591   */\n  tag_26\n  jump\t// in\ntag_55:\n    /* \"#utility.yul\":1517:1591   */\n  swap5\n  pop\n    /* \"#utility.yul\":1473:1601   */\n  pop\n    /* \"#utility.yul\":1640:1642   */\n  0x20\n    /* \"#utility.yul\":1666:1730   */\n  tag_56\n    /* \"#utility.yul\":1722:1729   */\n  dup8\n    /* \"#utility.yul\":1713:1719   */\n  dup3\n    /* \"#utility.yul\":1702:1711   */\n  dup9\n    /* \"#utility.yul\":1698:1720   */\n  add\n    /* \"#utility.yul\":1666:1730   */\n  tag_26\n  jump\t// in\ntag_56:\n    /* \"#utility.yul\":1656:1730   */\n  swap4\n  pop\n    /* \"#utility.yul\":1611:1740   */\n  pop\n    /* \"#utility.yul\":1779:1781   */\n  0x40\n    /* \"#utility.yul\":1805:1869   */\n  tag_57\n    /* \"#utility.yul\":1861:1868   */\n  dup8\n    /* \"#utility.yul\":1852:1858   */\n  dup3\n    /* \"#utility.yul\":1841:1850   */\n  dup9\n    /* \"#utility.yul\":1837:1859   */\n  add\n    /* \"#utility.yul\":1805:1869   */\n  tag_30\n  jump\t// in\ntag_57:\n    /* \"#utility.yul\":1795:1869   */\n  swap3\n  pop\n    /* \"#utility.yul\":1750:1879   */\n  pop\n    /* \"#utility.yul\":1918:1920   */\n  0x60\n    /* \"#utility.yul\":1944:2008   */\n  tag_58\n    /* \"#utility.yul\":2000:2007   */\n  dup8\n    /* \"#utility.yul\":1991:1997   */\n  dup3\n    /* \"#utility.yul\":1980:1989   */\n  dup9\n    /* \"#utility.yul\":1976:1998   */\n  add\n    /* \"#utility.yul\":1944:2008   */\n  tag_30\n  jump\t// in\ntag_58:\n    /* \"#utility.yul\":1934:2008   */\n  swap2\n  pop\n    /* \"#utility.yul\":1889:2018   */\n  pop\n    /* \"#utility.yul\":1205:2025   */\n  swap3\n  swap6\n  swap2\n  swap5\n  pop\n  swap3\n  pop\n  jump\t// out\n    /* \"#utility.yul\":2031:2200   */\ntag_31:\n    /* \"#utility.yul\":2115:2126   */\n  0x00\n    /* \"#utility.yul\":2149:2155   */\n  dup3\n    /* \"#utility.yul\":2144:2147   */\n  dup3\n    /* \"#utility.yul\":2137:2156   */\n  mstore\n    /* \"#utility.yul\":2189:2193   */\n  0x20\n    /* \"#utility.yul\":2184:2187   */\n  dup3\n    /* \"#utility.yul\":2180:2194   */\n  add\n    /* \"#utility.yul\":2165:2194   */\n  swap1\n  pop\n    /* \"#utility.yul\":2031:2200   */\n  swap3\n  swap2\n  pop\n  pop\n  jump\t// out\n    /* \"#utility.yul\":2206:2380   */\ntag_32:\n    /* \"#utility.yul\":2346:2372   */\n  0x4164647265737365732063616e6e6f74206265207a65726f0000000000000000\n    /* \"#utility.yul\":2342:2343   */\n  0x00\n    /* \"#utility.yul\":2334:2340   */\n  dup3\n    /* \"#utility.yul\":2330:2344   */\n  add\n    /* \"#utility.yul\":2323:2373   */\n  mstore\n    /* \"#utility.yul\":2206:2380   */\n  pop\n  jump\t// out\n    /* \"#utility.yul\":2386:2752   */\ntag_33:\n    /* \"#utility.yul\":2528:2531   */\n  0x00\n    /* \"#utility.yul\":2549:2616   */\n  tag_62\n    /* \"#utility.yul\":2613:2615   */\n  0x18\n    /* \"#utility.yul\":2608:2611   */\n  dup4\n    /* \"#utility.yul\":2549:2616   */\n  tag_31\n  jump\t// in\ntag_62:\n    /* \"#utility.yul\":2542:2616   */\n  swap2\n  pop\n    /* \"#utility.yul\":2625:2718   */\n  tag_63\n    /* \"#utility.yul\":2714:2717   */\n  dup3\n    /* \"#utility.yul\":2625:2718   */\n  tag_32\n  jump\t// in\ntag_63:\n    /* \"#utility.yul\":2743:2745   */\n  0x20\n    /* \"#utility.yul\":2738:2741   */\n  dup3\n    /* \"#utility.yul\":2734:2746   */\n  add\n    /* \"#utility.yul\":2727:2746   */\n  swap1\n  pop\n    /* \"#utility.yul\":2386:2752   */\n  swap2\n  swap1\n  pop\n  jump\t// out\n    /* \"#utility.yul\":2758:3177   */\ntag_15:\n    /* \"#utility.yul\":2924:2928   */\n  0x00\n    /* \"#utility.yul\":2962:2964   */\n  0x20\n    /* \"#utility.yul\":2951:2960   */\n  dup3\n    /* \"#utility.yul\":2947:2965   */\n  add\n    /* \"#utility.yul\":2939:2965   */\n  swap1\n  pop\n    /* \"#utility.yul\":3011:3020   */\n  dup2\n    /* \"#utility.yul\":3005:3009   */\n  dup2\n    /* \"#utility.yul\":3001:3021   */\n  sub\n    /* \"#utility.yul\":2997:2998   */\n  0x00\n    /* \"#utility.yul\":2986:2995   */\n  dup4\n    /* \"#utility.yul\":2982:2999   */\n  add\n    /* \"#utility.yul\":2975:3022   */\n  mstore\n    /* \"#utility.yul\":3039:3170   */\n  tag_65\n    /* \"#utility.yul\":3165:3169   */\n  dup2\n    /* \"#utility.yul\":3039:3170   */\n  tag_33\n  jump\t// in\ntag_65:\n    /* \"#utility.yul\":3031:3170   */\n  swap1\n  pop\n    /* \"#utility.yul\":2758:3177   */\n  swap2\n  swap1\n  pop\n  jump\t// out\n    /* \"gota.sol\":721:7580  contract GotasNFTMarketplace is Ownable, ReentrancyGuard, Pausable {... */\ntag_16:\n  dataSize(sub_0)\n  dup1\n  dataOffset(sub_0)\n  0x00\n  codecopy\n  0x00\n  return\nstop\n\nsub_0: assembly {\n        /* \"gota.sol\":721:7580  contract GotasNFTMarketplace is Ownable, ReentrancyGuard, Pausable {... */\n      mstore(0x40, 0x80)\n      jumpi(tag_1, lt(calldatasize, 0x04))\n      shr(0xe0, calldataload(0x00))\n      dup1\n      0x85dd3008\n      gt\n      tag_22\n      jumpi\n      dup1\n      0xb9314135\n      gt\n      tag_23\n      jumpi\n      dup1\n      0xb9314135\n      eq\n      tag_17\n      jumpi\n      dup1\n      0xcdd78cfc\n      eq\n      tag_18\n      jumpi\n      dup1\n      0xde74e57b\n      eq\n      tag_19\n      jumpi\n      dup1\n      0xe3b6a1f6\n      eq\n      tag_20\n      jumpi\n      dup1\n      0xed14834f\n      eq\n      tag_21\n      jumpi\n      jump(tag_1)\n    tag_23:\n      dup1\n      0x85dd3008\n      eq\n      tag_12\n      jumpi\n      dup1\n      0x8a71bb2d\n      eq\n      tag_13\n      jumpi\n      dup1\n      0x8da5cb5b\n      eq\n      tag_14\n      jumpi\n      dup1\n      0xaaccf1ec\n      eq\n      tag_15\n      jumpi\n      dup1\n      0xad2f852a\n      eq\n      tag_16\n      jumpi\n      jump(tag_1)\n    tag_22:\n      dup1\n      0x5c975abb\n      gt\n      tag_24\n      jumpi\n      dup1\n      0x5c975abb\n      eq\n      tag_7\n      jumpi\n      dup1\n      0x5e4e8d65\n      eq\n      tag_8\n      jumpi\n      dup1\n      0x78578bb3\n      eq\n      tag_9\n      jumpi\n      dup1\n      0x7bdaceef\n      eq\n      tag_10\n      jumpi\n      dup1\n      0x8456cb59\n      eq\n      tag_11\n      jumpi\n      jump(tag_1)\n    tag_24:\n      dup1\n      0x13af4035\n      eq\n      tag_2\n      jumpi\n      dup1\n      0x305a67a8\n      eq\n      tag_3\n      jumpi\n      dup1\n      0x3f4ba83a\n      eq\n      tag_4\n      jumpi\n      dup1\n      0x4e313796\n      eq\n      tag_5\n      jumpi\n      dup1\n      0x51ed8288\n      eq\n      tag_6\n      jumpi\n    tag_1:\n      0x00\n      dup1\n      revert\n        /* \"https://github.com/thirdweb-dev/contracts/blob/ee78bf9df7b7ac8bc8ded1c8ce91c31ef43cf73e/contracts/extension/upgradeable/Ownable.sol\":1633:1806  function setOwner(address _newOwner) external override {... */\n    tag_2:\n      callvalue\n      dup1\n      iszero\n      tag_25\n      jumpi\n      0x00\n      dup1\n      revert\n    tag_25:\n      pop\n      tag_26\n      0x04\n      dup1\n      calldatasize\n      sub\n      dup2\n      add\n      swap1\n      tag_27\n      swap2\n      swap1\n      tag_28\n      jump\t// in\n    tag_27:\n      tag_29\n      jump\t// in\n    tag_26:\n      stop\n        /* \"gota.sol\":5430:5752  function cancelListing(uint256 _listingId) external nonReentrant {... */\n    tag_3:\n      callvalue\n      dup1\n      iszero\n      tag_30\n      jumpi\n      0x00\n      dup1\n      revert\n    tag_30:\n      pop\n      tag_31\n      0x04\n      dup1\n      calldatasize\n      sub\n      dup2\n      add\n      swap1\n      tag_32\n      swap2\n      swap1\n      tag_33\n      jump\t// in\n    tag_32:\n      tag_34\n      jump\t// in\n    tag_31:\n      stop\n        /* \"gota.sol\":5838:5916  function unpause() external onlyOwner nonReentrant {... */\n    tag_4:\n      callvalue\n      dup1\n      iszero\n      tag_35\n      jumpi\n      0x00\n      dup1\n      revert\n    tag_35:\n      pop\n      tag_36\n      tag_37\n      jump\t// in\n    tag_36:\n      stop\n        /* \"gota.sol\":2440:3713  function listNFT(... */\n    tag_5:\n      callvalue\n      dup1\n      iszero\n      tag_38\n      jumpi\n      0x00\n      dup1\n      revert\n    tag_38:\n      pop\n      tag_39\n      0x04\n      dup1\n      calldatasize\n      sub\n      dup2\n      add\n      swap1\n      tag_40\n      swap2\n      swap1\n      tag_41\n      jump\t// in\n    tag_40:\n      tag_42\n      jump\t// in\n    tag_39:\n      stop\n        /* \"gota.sol\":3719:5424  function buyNFT(uint256 _listingId)... */\n    tag_6:\n      tag_43\n      0x04\n      dup1\n      calldatasize\n      sub\n      dup2\n      add\n      swap1\n      tag_44\n      swap2\n      swap1\n      tag_33\n      jump\t// in\n    tag_44:\n      tag_45\n      jump\t// in\n    tag_43:\n      stop\n        /* \"https://github.com/OpenZeppelin/openzeppelin-contracts/blob/release-v4.9/contracts/security/Pausable.sol\":1615:1699  function paused() public view virtual returns (bool) {... */\n    tag_7:\n      callvalue\n      dup1\n      iszero\n      tag_46\n      jumpi\n      0x00\n      dup1\n      revert\n    tag_46:\n      pop\n      tag_47\n      tag_48\n      jump\t// in\n    tag_47:\n      mload(0x40)\n      tag_49\n      swap2\n      swap1\n      tag_50\n      jump\t// in\n    tag_49:\n      mload(0x40)\n      dup1\n      swap2\n      sub\n      swap1\n      return\n        /* \"gota.sol\":5922:6338  function updateFeeAddresses(... */\n    tag_8:\n      callvalue\n      dup1\n      iszero\n      tag_51\n      jumpi\n      0x00\n      dup1\n      revert\n    tag_51:\n      pop\n      tag_52\n      0x04\n      dup1\n      calldatasize\n      sub\n      dup2\n      add\n      swap1\n      tag_53\n      swap2\n      swap1\n      tag_54\n      jump\t// in\n    tag_53:\n      tag_55\n      jump\t// in\n    tag_52:\n      stop\n        /* \"gota.sol\":6344:6611  function updateFeePercentages(... */\n    tag_9:\n      callvalue\n      dup1\n      iszero\n      tag_56\n      jumpi\n      0x00\n      dup1\n      revert\n    tag_56:\n      pop\n      tag_57\n      0x04\n      dup1\n      calldatasize\n      sub\n      dup2\n      add\n      swap1\n      tag_58\n      swap2\n      swap1\n      tag_59\n      jump\t// in\n    tag_58:\n      tag_60\n      jump\t// in\n    tag_57:\n      stop\n        /* \"gota.sol\":1317:1365  mapping(uint256 => address) public listingOwners */\n    tag_10:\n      callvalue\n      dup1\n      iszero\n      tag_61\n      jumpi\n      0x00\n      dup1\n      revert\n    tag_61:\n      pop\n      tag_62\n      0x04\n      dup1\n      calldatasize\n      sub\n      dup2\n      add\n      swap1\n      tag_63\n      swap2\n      swap1\n      tag_33\n      jump\t// in\n    tag_63:\n      tag_64\n      jump\t// in\n    tag_62:\n      mload(0x40)\n      tag_65\n      swap2\n      swap1\n      tag_66\n      jump\t// in\n    tag_65:\n      mload(0x40)\n      dup1\n      swap2\n      sub\n      swap1\n      return\n        /* \"gota.sol\":5758:5832  function pause() external onlyOwner nonReentrant {... */\n    tag_11:\n      callvalue\n      dup1\n      iszero\n      tag_67\n      jumpi\n      0x00\n      dup1\n      revert\n    tag_67:\n      pop\n      tag_68\n      tag_69\n      jump\t// in\n    tag_68:\n      stop\n        /* \"gota.sol\":6617:6726  function getAllListingIds() external view returns (uint256[] memory) {... */\n    tag_12:\n      callvalue\n      dup1\n      iszero\n      tag_70\n      jumpi\n      0x00\n      dup1\n      revert\n    tag_70:\n      pop\n      tag_71\n      tag_72\n      jump\t// in\n    tag_71:\n      mload(0x40)\n      tag_73\n      swap2\n      swap1\n      tag_74\n      jump\t// in\n    tag_73:\n      mload(0x40)\n      dup1\n      swap2\n      sub\n      swap1\n      return\n        /* \"gota.sol\":1113:1145  uint256 public royaltyPercentage */\n    tag_13:\n      callvalue\n      dup1\n      iszero\n      tag_75\n      jumpi\n      0x00\n      dup1\n      revert\n    tag_75:\n      pop\n      tag_76\n      tag_77\n      jump\t// in\n    tag_76:\n      mload(0x40)\n      tag_78\n      swap2\n      swap1\n      tag_79\n      jump\t// in\n    tag_78:\n      mload(0x40)\n      dup1\n      swap2\n      sub\n      swap1\n      return\n        /* \"https://github.com/thirdweb-dev/contracts/blob/ee78bf9df7b7ac8bc8ded1c8ce91c31ef43cf73e/contracts/extension/upgradeable/Ownable.sol\":1353:1457  function owner() public view override returns (address) {... */\n    tag_14:\n      callvalue\n      dup1\n      iszero\n      tag_80\n      jumpi\n      0x00\n      dup1\n      revert\n    tag_80:\n      pop\n      tag_81\n      tag_82\n      jump\t// in\n    tag_81:\n      mload(0x40)\n      tag_83\n      swap2\n      swap1\n      tag_66\n      jump\t// in\n    tag_83:\n      mload(0x40)\n      dup1\n      swap2\n      sub\n      swap1\n      return\n        /* \"gota.sol\":1372:1404  uint256 public nextListingId = 1 */\n    tag_15:\n      callvalue\n      dup1\n      iszero\n      tag_84\n      jumpi\n      0x00\n      dup1\n      revert\n    tag_84:\n      pop\n      tag_85\n      tag_86\n      jump\t// in\n    tag_85:\n      mload(0x40)\n      tag_87\n      swap2\n      swap1\n      tag_79\n      jump\t// in\n    tag_87:\n      mload(0x40)\n      dup1\n      swap2\n      sub\n      swap1\n      return\n        /* \"gota.sol\":1193:1222  address public royaltyAddress */\n    tag_16:\n      callvalue\n      dup1\n      iszero\n      tag_88\n      jumpi\n      0x00\n      dup1\n      revert\n    tag_88:\n      pop\n      tag_89\n      tag_90\n      jump\t// in\n    tag_89:\n      mload(0x40)\n      tag_91\n      swap2\n      swap1\n      tag_66\n      jump\t// in\n    tag_91:\n      mload(0x40)\n      dup1\n      swap2\n      sub\n      swap1\n      return\n        /* \"gota.sol\":6732:7578  function getListingInfo(uint256 _listingId)... */\n    tag_17:\n      callvalue\n      dup1\n      iszero\n      tag_92\n      jumpi\n      0x00\n      dup1\n      revert\n    tag_92:\n      pop\n      tag_93\n      0x04\n      dup1\n      calldatasize\n      sub\n      dup2\n      add\n      swap1\n      tag_94\n      swap2\n      swap1\n      tag_33\n      jump\t// in\n    tag_94:\n      tag_95\n      jump\t// in\n    tag_93:\n      mload(0x40)\n      tag_96\n      swap2\n      swap1\n      tag_97\n      jump\t// in\n    tag_96:\n      mload(0x40)\n      dup1\n      swap2\n      sub\n      swap1\n      return\n        /* \"gota.sol\":1151:1187  uint256 public platformFeePercentage */\n    tag_18:\n      callvalue\n      dup1\n      iszero\n      tag_98\n      jumpi\n      0x00\n      dup1\n      revert\n    tag_98:\n      pop\n      tag_99\n      tag_100\n      jump\t// in\n    tag_99:\n      mload(0x40)\n      tag_101\n      swap2\n      swap1\n      tag_79\n      jump\t// in\n    tag_101:\n      mload(0x40)\n      dup1\n      swap2\n      sub\n      swap1\n      return\n        /* \"gota.sol\":1268:1311  mapping(uint256 => Listing) public listings */\n    tag_19:\n      callvalue\n      dup1\n      iszero\n      tag_102\n      jumpi\n      0x00\n      dup1\n      revert\n    tag_102:\n      pop\n      tag_103\n      0x04\n      dup1\n      calldatasize\n      sub\n      dup2\n      add\n      swap1\n      tag_104\n      swap2\n      swap1\n      tag_33\n      jump\t// in\n    tag_104:\n      tag_105\n      jump\t// in\n    tag_103:\n      mload(0x40)\n      tag_106\n      swap5\n      swap4\n      swap3\n      swap2\n      swap1\n      tag_107\n      jump\t// in\n    tag_106:\n      mload(0x40)\n      dup1\n      swap2\n      sub\n      swap1\n      return\n        /* \"gota.sol\":1074:1107  uint256[] public activeListingIds */\n    tag_20:\n      callvalue\n      dup1\n      iszero\n      tag_108\n      jumpi\n      0x00\n      dup1\n      revert\n    tag_108:\n      pop\n      tag_109\n      0x04\n      dup1\n      calldatasize\n      sub\n      dup2\n      add\n      swap1\n      tag_110\n      swap2\n      swap1\n      tag_33\n      jump\t// in\n    tag_110:\n      tag_111\n      jump\t// in\n    tag_109:\n      mload(0x40)\n      tag_112\n      swap2\n      swap1\n      tag_79\n      jump\t// in\n    tag_112:\n      mload(0x40)\n      dup1\n      swap2\n      sub\n      swap1\n      return\n        /* \"gota.sol\":1228:1261  address public platformFeeAddress */\n    tag_21:\n      callvalue\n      dup1\n      iszero\n      tag_113\n      jumpi\n      0x00\n      dup1\n      revert\n    tag_113:\n      pop\n      tag_114\n      tag_115\n      jump\t// in\n    tag_114:\n      mload(0x40)\n      tag_116\n      swap2\n      swap1\n      tag_66\n      jump\t// in\n    tag_116:\n      mload(0x40)\n      dup1\n      swap2\n      sub\n      swap1\n      return\n        /* \"https://github.com/thirdweb-dev/contracts/blob/ee78bf9df7b7ac8bc8ded1c8ce91c31ef43cf73e/contracts/extension/upgradeable/Ownable.sol\":1633:1806  function setOwner(address _newOwner) external override {... */\n    tag_29:\n        /* \"https://github.com/thirdweb-dev/contracts/blob/ee78bf9df7b7ac8bc8ded1c8ce91c31ef43cf73e/contracts/extension/upgradeable/Ownable.sol\":1703:1717  _canSetOwner() */\n      tag_119\n        /* \"https://github.com/thirdweb-dev/contracts/blob/ee78bf9df7b7ac8bc8ded1c8ce91c31ef43cf73e/contracts/extension/upgradeable/Ownable.sol\":1703:1715  _canSetOwner */\n      tag_120\n        /* \"https://github.com/thirdweb-dev/contracts/blob/ee78bf9df7b7ac8bc8ded1c8ce91c31ef43cf73e/contracts/extension/upgradeable/Ownable.sol\":1703:1717  _canSetOwner() */\n      jump\t// in\n    tag_119:\n        /* \"https://github.com/thirdweb-dev/contracts/blob/ee78bf9df7b7ac8bc8ded1c8ce91c31ef43cf73e/contracts/extension/upgradeable/Ownable.sol\":1698:1768  if (!_canSetOwner()) {... */\n      tag_121\n      jumpi\n        /* \"https://github.com/thirdweb-dev/contracts/blob/ee78bf9df7b7ac8bc8ded1c8ce91c31ef43cf73e/contracts/extension/upgradeable/Ownable.sol\":1733:1757  revert(\"Not authorized\") */\n      mload(0x40)\n      0x08c379a000000000000000000000000000000000000000000000000000000000\n      dup2\n      mstore\n      0x04\n      add\n      tag_122\n      swap1\n      tag_123\n      jump\t// in\n    tag_122:\n      mload(0x40)\n      dup1\n      swap2\n      sub\n      swap1\n      revert\n        /* \"https://github.com/thirdweb-dev/contracts/blob/ee78bf9df7b7ac8bc8ded1c8ce91c31ef43cf73e/contracts/extension/upgradeable/Ownable.sol\":1698:1768  if (!_canSetOwner()) {... */\n    tag_121:\n        /* \"https://github.com/thirdweb-dev/contracts/blob/ee78bf9df7b7ac8bc8ded1c8ce91c31ef43cf73e/contracts/extension/upgradeable/Ownable.sol\":1777:1799  _setupOwner(_newOwner) */\n      tag_124\n        /* \"https://github.com/thirdweb-dev/contracts/blob/ee78bf9df7b7ac8bc8ded1c8ce91c31ef43cf73e/contracts/extension/upgradeable/Ownable.sol\":1789:1798  _newOwner */\n      dup2\n        /* \"https://github.com/thirdweb-dev/contracts/blob/ee78bf9df7b7ac8bc8ded1c8ce91c31ef43cf73e/contracts/extension/upgradeable/Ownable.sol\":1777:1788  _setupOwner */\n      tag_125\n        /* \"https://github.com/thirdweb-dev/contracts/blob/ee78bf9df7b7ac8bc8ded1c8ce91c31ef43cf73e/contracts/extension/upgradeable/Ownable.sol\":1777:1799  _setupOwner(_newOwner) */\n      jump\t// in\n    tag_124:\n        /* \"https://github.com/thirdweb-dev/contracts/blob/ee78bf9df7b7ac8bc8ded1c8ce91c31ef43cf73e/contracts/extension/upgradeable/Ownable.sol\":1633:1806  function setOwner(address _newOwner) external override {... */\n      pop\n      jump\t// out\n        /* \"gota.sol\":5430:5752  function cancelListing(uint256 _listingId) external nonReentrant {... */\n    tag_34:\n        /* \"https://github.com/thirdweb-dev/contracts/blob/ee78bf9df7b7ac8bc8ded1c8ce91c31ef43cf73e/contracts/extension/upgradeable/ReentrancyGuard.sol\":848:849  2 */\n      0x02\n        /* \"https://github.com/thirdweb-dev/contracts/blob/ee78bf9df7b7ac8bc8ded1c8ce91c31ef43cf73e/contracts/extension/upgradeable/ReentrancyGuard.sol\":1147:1172  _reentrancyGuardStorage() */\n      tag_127\n        /* \"https://github.com/thirdweb-dev/contracts/blob/ee78bf9df7b7ac8bc8ded1c8ce91c31ef43cf73e/contracts/extension/upgradeable/ReentrancyGuard.sol\":1147:1170  _reentrancyGuardStorage */\n      tag_128\n        /* \"https://github.com/thirdweb-dev/contracts/blob/ee78bf9df7b7ac8bc8ded1c8ce91c31ef43cf73e/contracts/extension/upgradeable/ReentrancyGuard.sol\":1147:1172  _reentrancyGuardStorage() */\n      jump\t// in\n    tag_127:\n        /* \"https://github.com/thirdweb-dev/contracts/blob/ee78bf9df7b7ac8bc8ded1c8ce91c31ef43cf73e/contracts/extension/upgradeable/ReentrancyGuard.sol\":1147:1180  _reentrancyGuardStorage()._status */\n      0x00\n      add\n      sload\n        /* \"https://github.com/thirdweb-dev/contracts/blob/ee78bf9df7b7ac8bc8ded1c8ce91c31ef43cf73e/contracts/extension/upgradeable/ReentrancyGuard.sol\":1147:1192  _reentrancyGuardStorage()._status != _ENTERED */\n      eq\n      iszero\n        /* \"https://github.com/thirdweb-dev/contracts/blob/ee78bf9df7b7ac8bc8ded1c8ce91c31ef43cf73e/contracts/extension/upgradeable/ReentrancyGuard.sol\":1139:1228  require(_reentrancyGuardStorage()._status != _ENTERED, \"ReentrancyGuard: reentrant call\") */\n      tag_129\n      jumpi\n      mload(0x40)\n      0x08c379a000000000000000000000000000000000000000000000000000000000\n      dup2\n      mstore\n      0x04\n      add\n      tag_130\n      swap1\n      tag_131\n      jump\t// in\n    tag_130:\n      mload(0x40)\n      dup1\n      swap2\n      sub\n      swap1\n      revert\n    tag_129:\n        /* \"https://github.com/thirdweb-dev/contracts/blob/ee78bf9df7b7ac8bc8ded1c8ce91c31ef43cf73e/contracts/extension/upgradeable/ReentrancyGuard.sol\":848:849  2 */\n      0x02\n        /* \"https://github.com/thirdweb-dev/contracts/blob/ee78bf9df7b7ac8bc8ded1c8ce91c31ef43cf73e/contracts/extension/upgradeable/ReentrancyGuard.sol\":1303:1328  _reentrancyGuardStorage() */\n      tag_132\n        /* \"https://github.com/thirdweb-dev/contracts/blob/ee78bf9df7b7ac8bc8ded1c8ce91c31ef43cf73e/contracts/extension/upgradeable/ReentrancyGuard.sol\":1303:1326  _reentrancyGuardStorage */\n      tag_128\n        /* \"https://github.com/thirdweb-dev/contracts/blob/ee78bf9df7b7ac8bc8ded1c8ce91c31ef43cf73e/contracts/extension/upgradeable/ReentrancyGuard.sol\":1303:1328  _reentrancyGuardStorage() */\n      jump\t// in\n    tag_132:\n        /* \"https://github.com/thirdweb-dev/contracts/blob/ee78bf9df7b7ac8bc8ded1c8ce91c31ef43cf73e/contracts/extension/upgradeable/ReentrancyGuard.sol\":1303:1336  _reentrancyGuardStorage()._status */\n      0x00\n      add\n        /* \"https://github.com/thirdweb-dev/contracts/blob/ee78bf9df7b7ac8bc8ded1c8ce91c31ef43cf73e/contracts/extension/upgradeable/ReentrancyGuard.sol\":1303:1347  _reentrancyGuardStorage()._status = _ENTERED */\n      dup2\n      swap1\n      sstore\n      pop\n        /* \"gota.sol\":5555:5565  msg.sender */\n      caller\n        /* \"gota.sol\":5526:5565  listingOwners[_listingId] == msg.sender */\n      0xffffffffffffffffffffffffffffffffffffffff\n      and\n        /* \"gota.sol\":5526:5539  listingOwners */\n      0x07\n        /* \"gota.sol\":5526:5551  listingOwners[_listingId] */\n      0x00\n        /* \"gota.sol\":5540:5550  _listingId */\n      dup4\n        /* \"gota.sol\":5526:5551  listingOwners[_listingId] */\n      dup2\n      mstore\n      0x20\n      add\n      swap1\n      dup2\n      mstore\n      0x20\n      add\n      0x00\n      keccak256\n      0x00\n      swap1\n      sload\n      swap1\n      0x0100\n      exp\n      swap1\n      div\n      0xffffffffffffffffffffffffffffffffffffffff\n      and\n        /* \"gota.sol\":5526:5565  listingOwners[_listingId] == msg.sender */\n      0xffffffffffffffffffffffffffffffffffffffff\n      and\n      eq\n        /* \"gota.sol\":5505:5628  require(... */\n      tag_134\n      jumpi\n      mload(0x40)\n      0x08c379a000000000000000000000000000000000000000000000000000000000\n      dup2\n      mstore\n      0x04\n      add\n      tag_135\n      swap1\n      tag_136\n      jump\t// in\n    tag_135:\n      mload(0x40)\n      dup1\n      swap2\n      sub\n      swap1\n      revert\n    tag_134:\n        /* \"gota.sol\":5645:5653  listings */\n      0x06\n        /* \"gota.sol\":5645:5665  listings[_listingId] */\n      0x00\n        /* \"gota.sol\":5654:5664  _listingId */\n      dup3\n        /* \"gota.sol\":5645:5665  listings[_listingId] */\n      dup2\n      mstore\n      0x20\n      add\n      swap1\n      dup2\n      mstore\n      0x20\n      add\n      0x00\n      keccak256\n      0x00\n        /* \"gota.sol\":5638:5665  delete listings[_listingId] */\n      dup1\n      dup3\n      add\n      exp(0x0100, 0x00)\n      dup2\n      sload\n      swap1\n      0xffffffffffffffffffffffffffffffffffffffff\n      mul\n      not\n      and\n      swap1\n      sstore\n      0x01\n      dup3\n      add\n      0x00\n      tag_137\n      swap2\n      swap1\n      tag_138\n      jump\t// in\n    tag_137:\n      0x02\n      dup3\n      add\n      exp(0x0100, 0x00)\n      dup2\n      sload\n      swap1\n      0xffffffffffffffffffffffffffffffffffffffff\n      mul\n      not\n      and\n      swap1\n      sstore\n      0x03\n      dup3\n      add\n      0x00\n      swap1\n      sstore\n      0x04\n      dup3\n      add\n      0x00\n      swap1\n      sstore\n      pop\n      pop\n        /* \"gota.sol\":5682:5695  listingOwners */\n      0x07\n        /* \"gota.sol\":5682:5707  listingOwners[_listingId] */\n      0x00\n        /* \"gota.sol\":5696:5706  _listingId */\n      dup3\n        /* \"gota.sol\":5682:5707  listingOwners[_listingId] */\n      dup2\n      mstore\n      0x20\n      add\n      swap1\n      dup2\n      mstore\n      0x20\n      add\n      0x00\n      keccak256\n      0x00\n        /* \"gota.sol\":5675:5707  delete listingOwners[_listingId] */\n      0x0100\n      exp\n      dup2\n      sload\n      swap1\n      0xffffffffffffffffffffffffffffffffffffffff\n      mul\n      not\n      and\n      swap1\n      sstore\n        /* \"gota.sol\":5734:5744  _listingId */\n      dup1\n        /* \"gota.sol\":5722:5745  NFTDelisted(_listingId) */\n      0xc0c55a6edead4433d18cb1e287a0a20a2fa003a6f483bc9823d2e504d70d1c67\n      mload(0x40)\n      mload(0x40)\n      dup1\n      swap2\n      sub\n      swap1\n      log2\n        /* \"https://github.com/thirdweb-dev/contracts/blob/ee78bf9df7b7ac8bc8ded1c8ce91c31ef43cf73e/contracts/extension/upgradeable/ReentrancyGuard.sol\":805:806  1 */\n      0x01\n        /* \"https://github.com/thirdweb-dev/contracts/blob/ee78bf9df7b7ac8bc8ded1c8ce91c31ef43cf73e/contracts/extension/upgradeable/ReentrancyGuard.sol\":1502:1527  _reentrancyGuardStorage() */\n      tag_139\n        /* \"https://github.com/thirdweb-dev/contracts/blob/ee78bf9df7b7ac8bc8ded1c8ce91c31ef43cf73e/contracts/extension/upgradeable/ReentrancyGuard.sol\":1502:1525  _reentrancyGuardStorage */\n      tag_128\n        /* \"https://github.com/thirdweb-dev/contracts/blob/ee78bf9df7b7ac8bc8ded1c8ce91c31ef43cf73e/contracts/extension/upgradeable/ReentrancyGuard.sol\":1502:1527  _reentrancyGuardStorage() */\n      jump\t// in\n    tag_139:\n        /* \"https://github.com/thirdweb-dev/contracts/blob/ee78bf9df7b7ac8bc8ded1c8ce91c31ef43cf73e/contracts/extension/upgradeable/ReentrancyGuard.sol\":1502:1535  _reentrancyGuardStorage()._status */\n      0x00\n      add\n        /* \"https://github.com/thirdweb-dev/contracts/blob/ee78bf9df7b7ac8bc8ded1c8ce91c31ef43cf73e/contracts/extension/upgradeable/ReentrancyGuard.sol\":1502:1550  _reentrancyGuardStorage()._status = _NOT_ENTERED */\n      dup2\n      swap1\n      sstore\n      pop\n        /* \"gota.sol\":5430:5752  function cancelListing(uint256 _listingId) external nonReentrant {... */\n      pop\n      jump\t// out\n        /* \"gota.sol\":5838:5916  function unpause() external onlyOwner nonReentrant {... */\n    tag_37:\n        /* \"https://github.com/thirdweb-dev/contracts/blob/ee78bf9df7b7ac8bc8ded1c8ce91c31ef43cf73e/contracts/extension/upgradeable/Ownable.sol\":1188:1205  _ownableStorage() */\n      tag_141\n        /* \"https://github.com/thirdweb-dev/contracts/blob/ee78bf9df7b7ac8bc8ded1c8ce91c31ef43cf73e/contracts/extension/upgradeable/Ownable.sol\":1188:1203  _ownableStorage */\n      tag_142\n        /* \"https://github.com/thirdweb-dev/contracts/blob/ee78bf9df7b7ac8bc8ded1c8ce91c31ef43cf73e/contracts/extension/upgradeable/Ownable.sol\":1188:1205  _ownableStorage() */\n      jump\t// in\n    tag_141:\n        /* \"https://github.com/thirdweb-dev/contracts/blob/ee78bf9df7b7ac8bc8ded1c8ce91c31ef43cf73e/contracts/extension/upgradeable/Ownable.sol\":1188:1212  _ownableStorage()._owner */\n      0x00\n      add\n      0x00\n      swap1\n      sload\n      swap1\n      0x0100\n      exp\n      swap1\n      div\n      0xffffffffffffffffffffffffffffffffffffffff\n      and\n        /* \"https://github.com/thirdweb-dev/contracts/blob/ee78bf9df7b7ac8bc8ded1c8ce91c31ef43cf73e/contracts/extension/upgradeable/Ownable.sol\":1174:1212  msg.sender != _ownableStorage()._owner */\n      0xffffffffffffffffffffffffffffffffffffffff\n      and\n        /* \"https://github.com/thirdweb-dev/contracts/blob/ee78bf9df7b7ac8bc8ded1c8ce91c31ef43cf73e/contracts/extension/upgradeable/Ownable.sol\":1174:1184  msg.sender */\n      caller\n        /* \"https://github.com/thirdweb-dev/contracts/blob/ee78bf9df7b7ac8bc8ded1c8ce91c31ef43cf73e/contracts/extension/upgradeable/Ownable.sol\":1174:1212  msg.sender != _ownableStorage()._owner */\n      0xffffffffffffffffffffffffffffffffffffffff\n      and\n      eq\n        /* \"https://github.com/thirdweb-dev/contracts/blob/ee78bf9df7b7ac8bc8ded1c8ce91c31ef43cf73e/contracts/extension/upgradeable/Ownable.sol\":1170:1263  if (msg.sender != _ownableStorage()._owner) {... */\n      tag_143\n      jumpi\n        /* \"https://github.com/thirdweb-dev/contracts/blob/ee78bf9df7b7ac8bc8ded1c8ce91c31ef43cf73e/contracts/extension/upgradeable/Ownable.sol\":1228:1252  revert(\"Not authorized\") */\n      mload(0x40)\n      0x08c379a000000000000000000000000000000000000000000000000000000000\n      dup2\n      mstore\n      0x04\n      add\n      tag_144\n      swap1\n      tag_123\n      jump\t// in\n    tag_144:\n      mload(0x40)\n      dup1\n      swap2\n      sub\n      swap1\n      revert\n        /* \"https://github.com/thirdweb-dev/contracts/blob/ee78bf9df7b7ac8bc8ded1c8ce91c31ef43cf73e/contracts/extension/upgradeable/Ownable.sol\":1170:1263  if (msg.sender != _ownableStorage()._owner) {... */\n    tag_143:\n        /* \"https://github.com/thirdweb-dev/contracts/blob/ee78bf9df7b7ac8bc8ded1c8ce91c31ef43cf73e/contracts/extension/upgradeable/ReentrancyGuard.sol\":848:849  2 */\n      0x02\n        /* \"https://github.com/thirdweb-dev/contracts/blob/ee78bf9df7b7ac8bc8ded1c8ce91c31ef43cf73e/contracts/extension/upgradeable/ReentrancyGuard.sol\":1147:1172  _reentrancyGuardStorage() */\n      tag_146\n        /* \"https://github.com/thirdweb-dev/contracts/blob/ee78bf9df7b7ac8bc8ded1c8ce91c31ef43cf73e/contracts/extension/upgradeable/ReentrancyGuard.sol\":1147:1170  _reentrancyGuardStorage */\n      tag_128\n        /* \"https://github.com/thirdweb-dev/contracts/blob/ee78bf9df7b7ac8bc8ded1c8ce91c31ef43cf73e/contracts/extension/upgradeable/ReentrancyGuard.sol\":1147:1172  _reentrancyGuardStorage() */\n      jump\t// in\n    tag_146:\n        /* \"https://github.com/thirdweb-dev/contracts/blob/ee78bf9df7b7ac8bc8ded1c8ce91c31ef43cf73e/contracts/extension/upgradeable/ReentrancyGuard.sol\":1147:1180  _reentrancyGuardStorage()._status */\n      0x00\n      add\n      sload\n        /* \"https://github.com/thirdweb-dev/contracts/blob/ee78bf9df7b7ac8bc8ded1c8ce91c31ef43cf73e/contracts/extension/upgradeable/ReentrancyGuard.sol\":1147:1192  _reentrancyGuardStorage()._status != _ENTERED */\n      eq\n      iszero\n        /* \"https://github.com/thirdweb-dev/contracts/blob/ee78bf9df7b7ac8bc8ded1c8ce91c31ef43cf73e/contracts/extension/upgradeable/ReentrancyGuard.sol\":1139:1228  require(_reentrancyGuardStorage()._status != _ENTERED, \"ReentrancyGuard: reentrant call\") */\n      tag_147\n      jumpi\n      mload(0x40)\n      0x08c379a000000000000000000000000000000000000000000000000000000000\n      dup2\n      mstore\n      0x04\n      add\n      tag_148\n      swap1\n      tag_131\n      jump\t// in\n    tag_148:\n      mload(0x40)\n      dup1\n      swap2\n      sub\n      swap1\n      revert\n    tag_147:\n        /* \"https://github.com/thirdweb-dev/contracts/blob/ee78bf9df7b7ac8bc8ded1c8ce91c31ef43cf73e/contracts/extension/upgradeable/ReentrancyGuard.sol\":848:849  2 */\n      0x02\n        /* \"https://github.com/thirdweb-dev/contracts/blob/ee78bf9df7b7ac8bc8ded1c8ce91c31ef43cf73e/contracts/extension/upgradeable/ReentrancyGuard.sol\":1303:1328  _reentrancyGuardStorage() */\n      tag_149\n        /* \"https://github.com/thirdweb-dev/contracts/blob/ee78bf9df7b7ac8bc8ded1c8ce91c31ef43cf73e/contracts/extension/upgradeable/ReentrancyGuard.sol\":1303:1326  _reentrancyGuardStorage */\n      tag_128\n        /* \"https://github.com/thirdweb-dev/contracts/blob/ee78bf9df7b7ac8bc8ded1c8ce91c31ef43cf73e/contracts/extension/upgradeable/ReentrancyGuard.sol\":1303:1328  _reentrancyGuardStorage() */\n      jump\t// in\n    tag_149:\n        /* \"https://github.com/thirdweb-dev/contracts/blob/ee78bf9df7b7ac8bc8ded1c8ce91c31ef43cf73e/contracts/extension/upgradeable/ReentrancyGuard.sol\":1303:1336  _reentrancyGuardStorage()._status */\n      0x00\n      add\n        /* \"https://github.com/thirdweb-dev/contracts/blob/ee78bf9df7b7ac8bc8ded1c8ce91c31ef43cf73e/contracts/extension/upgradeable/ReentrancyGuard.sol\":1303:1347  _reentrancyGuardStorage()._status = _ENTERED */\n      dup2\n      swap1\n      sstore\n      pop\n        /* \"gota.sol\":5899:5909  _unpause() */\n      tag_151\n        /* \"gota.sol\":5899:5907  _unpause */\n      tag_152\n        /* \"gota.sol\":5899:5909  _unpause() */\n      jump\t// in\n    tag_151:\n        /* \"https://github.com/thirdweb-dev/contracts/blob/ee78bf9df7b7ac8bc8ded1c8ce91c31ef43cf73e/contracts/extension/upgradeable/ReentrancyGuard.sol\":805:806  1 */\n      0x01\n        /* \"https://github.com/thirdweb-dev/contracts/blob/ee78bf9df7b7ac8bc8ded1c8ce91c31ef43cf73e/contracts/extension/upgradeable/ReentrancyGuard.sol\":1502:1527  _reentrancyGuardStorage() */\n      tag_153\n        /* \"https://github.com/thirdweb-dev/contracts/blob/ee78bf9df7b7ac8bc8ded1c8ce91c31ef43cf73e/contracts/extension/upgradeable/ReentrancyGuard.sol\":1502:1525  _reentrancyGuardStorage */\n      tag_128\n        /* \"https://github.com/thirdweb-dev/contracts/blob/ee78bf9df7b7ac8bc8ded1c8ce91c31ef43cf73e/contracts/extension/upgradeable/ReentrancyGuard.sol\":1502:1527  _reentrancyGuardStorage() */\n      jump\t// in\n    tag_153:\n        /* \"https://github.com/thirdweb-dev/contracts/blob/ee78bf9df7b7ac8bc8ded1c8ce91c31ef43cf73e/contracts/extension/upgradeable/ReentrancyGuard.sol\":1502:1535  _reentrancyGuardStorage()._status */\n      0x00\n      add\n        /* \"https://github.com/thirdweb-dev/contracts/blob/ee78bf9df7b7ac8bc8ded1c8ce91c31ef43cf73e/contracts/extension/upgradeable/ReentrancyGuard.sol\":1502:1550  _reentrancyGuardStorage()._status = _NOT_ENTERED */\n      dup2\n      swap1\n      sstore\n      pop\n        /* \"gota.sol\":5838:5916  function unpause() external onlyOwner nonReentrant {... */\n      jump\t// out\n        /* \"gota.sol\":2440:3713  function listNFT(... */\n    tag_42:\n        /* \"https://github.com/OpenZeppelin/openzeppelin-contracts/blob/release-v4.9/contracts/security/Pausable.sol\":1239:1258  _requireNotPaused() */\n      tag_155\n        /* \"https://github.com/OpenZeppelin/openzeppelin-contracts/blob/release-v4.9/contracts/security/Pausable.sol\":1239:1256  _requireNotPaused */\n      tag_156\n        /* \"https://github.com/OpenZeppelin/openzeppelin-contracts/blob/release-v4.9/contracts/security/Pausable.sol\":1239:1258  _requireNotPaused() */\n      jump\t// in\n    tag_155:\n        /* \"https://github.com/thirdweb-dev/contracts/blob/ee78bf9df7b7ac8bc8ded1c8ce91c31ef43cf73e/contracts/extension/upgradeable/ReentrancyGuard.sol\":848:849  2 */\n      0x02\n        /* \"https://github.com/thirdweb-dev/contracts/blob/ee78bf9df7b7ac8bc8ded1c8ce91c31ef43cf73e/contracts/extension/upgradeable/ReentrancyGuard.sol\":1147:1172  _reentrancyGuardStorage() */\n      tag_158\n        /* \"https://github.com/thirdweb-dev/contracts/blob/ee78bf9df7b7ac8bc8ded1c8ce91c31ef43cf73e/contracts/extension/upgradeable/ReentrancyGuard.sol\":1147:1170  _reentrancyGuardStorage */\n      tag_128\n        /* \"https://github.com/thirdweb-dev/contracts/blob/ee78bf9df7b7ac8bc8ded1c8ce91c31ef43cf73e/contracts/extension/upgradeable/ReentrancyGuard.sol\":1147:1172  _reentrancyGuardStorage() */\n      jump\t// in\n    tag_158:\n        /* \"https://github.com/thirdweb-dev/contracts/blob/ee78bf9df7b7ac8bc8ded1c8ce91c31ef43cf73e/contracts/extension/upgradeable/ReentrancyGuard.sol\":1147:1180  _reentrancyGuardStorage()._status */\n      0x00\n      add\n      sload\n        /* \"https://github.com/thirdweb-dev/contracts/blob/ee78bf9df7b7ac8bc8ded1c8ce91c31ef43cf73e/contracts/extension/upgradeable/ReentrancyGuard.sol\":1147:1192  _reentrancyGuardStorage()._status != _ENTERED */\n      eq\n      iszero\n        /* \"https://github.com/thirdweb-dev/contracts/blob/ee78bf9df7b7ac8bc8ded1c8ce91c31ef43cf73e/contracts/extension/upgradeable/ReentrancyGuard.sol\":1139:1228  require(_reentrancyGuardStorage()._status != _ENTERED, \"ReentrancyGuard: reentrant call\") */\n      tag_159\n      jumpi\n      mload(0x40)\n      0x08c379a000000000000000000000000000000000000000000000000000000000\n      dup2\n      mstore\n      0x04\n      add\n      tag_160\n      swap1\n      tag_131\n      jump\t// in\n    tag_160:\n      mload(0x40)\n      dup1\n      swap2\n      sub\n      swap1\n      revert\n    tag_159:\n        /* \"https://github.com/thirdweb-dev/contracts/blob/ee78bf9df7b7ac8bc8ded1c8ce91c31ef43cf73e/contracts/extension/upgradeable/ReentrancyGuard.sol\":848:849  2 */\n      0x02\n        /* \"https://github.com/thirdweb-dev/contracts/blob/ee78bf9df7b7ac8bc8ded1c8ce91c31ef43cf73e/contracts/extension/upgradeable/ReentrancyGuard.sol\":1303:1328  _reentrancyGuardStorage() */\n      tag_161\n        /* \"https://github.com/thirdweb-dev/contracts/blob/ee78bf9df7b7ac8bc8ded1c8ce91c31ef43cf73e/contracts/extension/upgradeable/ReentrancyGuard.sol\":1303:1326  _reentrancyGuardStorage */\n      tag_128\n        /* \"https://github.com/thirdweb-dev/contracts/blob/ee78bf9df7b7ac8bc8ded1c8ce91c31ef43cf73e/contracts/extension/upgradeable/ReentrancyGuard.sol\":1303:1328  _reentrancyGuardStorage() */\n      jump\t// in\n    tag_161:\n        /* \"https://github.com/thirdweb-dev/contracts/blob/ee78bf9df7b7ac8bc8ded1c8ce91c31ef43cf73e/contracts/extension/upgradeable/ReentrancyGuard.sol\":1303:1336  _reentrancyGuardStorage()._status */\n      0x00\n      add\n        /* \"https://github.com/thirdweb-dev/contracts/blob/ee78bf9df7b7ac8bc8ded1c8ce91c31ef43cf73e/contracts/extension/upgradeable/ReentrancyGuard.sol\":1303:1347  _reentrancyGuardStorage()._status = _ENTERED */\n      dup2\n      swap1\n      sstore\n      pop\n        /* \"gota.sol\":2648:2649  0 */\n      0x00\n        /* \"gota.sol\":2639:2645  _price */\n      dup3\n        /* \"gota.sol\":2639:2649  _price > 0 */\n      gt\n        /* \"gota.sol\":2631:2686  require(_price > 0, \"Price must be greater than zero.\") */\n      tag_163\n      jumpi\n      mload(0x40)\n      0x08c379a000000000000000000000000000000000000000000000000000000000\n      dup2\n      mstore\n      0x04\n      add\n      tag_164\n      swap1\n      tag_165\n      jump\t// in\n    tag_164:\n      mload(0x40)\n      dup1\n      swap2\n      sub\n      swap1\n      revert\n    tag_163:\n        /* \"gota.sol\":2716:2717  0 */\n      0x00\n        /* \"gota.sol\":2704:2713  _deadline */\n      dup2\n        /* \"gota.sol\":2704:2717  _deadline > 0 */\n      gt\n        /* \"gota.sol\":2696:2757  require(_deadline > 0, \"Deadline must be greater than zero.\") */\n      tag_166\n      jumpi\n      mload(0x40)\n      0x08c379a000000000000000000000000000000000000000000000000000000000\n      dup2\n      mstore\n      0x04\n      add\n      tag_167\n      swap1\n      tag_168\n      jump\t// in\n    tag_167:\n      mload(0x40)\n      dup1\n      swap2\n      sub\n      swap1\n      revert\n    tag_166:\n        /* \"gota.sol\":2792:2793  0 */\n      0x00\n        /* \"gota.sol\":2775:2782  _nftIds */\n      dup4\n        /* \"gota.sol\":2775:2789  _nftIds.length */\n      mload\n        /* \"gota.sol\":2775:2793  _nftIds.length > 0 */\n      gt\n        /* \"gota.sol\":2767:2825  require(_nftIds.length > 0, \"Must list at least one NFT.\") */\n      tag_169\n      jumpi\n      mload(0x40)\n      0x08c379a000000000000000000000000000000000000000000000000000000000\n      dup2\n      mstore\n      0x04\n      add\n      tag_170\n      swap1\n      tag_171\n      jump\t// in\n    tag_170:\n      mload(0x40)\n      dup1\n      swap2\n      sub\n      swap1\n      revert\n    tag_169:\n        /* \"gota.sol\":2835:2854  IERC721 nftContract */\n      0x00\n        /* \"gota.sol\":2865:2884  _nftContractAddress */\n      dup5\n        /* \"gota.sol\":2835:2885  IERC721 nftContract = IERC721(_nftContractAddress) */\n      swap1\n      pop\n        /* \"gota.sol\":2900:2909  uint256 i */\n      0x00\n        /* \"gota.sol\":2895:3138  for (uint256 i = 0; i < _nftIds.length; i++) {... */\n    tag_172:\n        /* \"gota.sol\":2919:2926  _nftIds */\n      dup5\n        /* \"gota.sol\":2919:2933  _nftIds.length */\n      mload\n        /* \"gota.sol\":2915:2916  i */\n      dup2\n        /* \"gota.sol\":2915:2933  i < _nftIds.length */\n      lt\n        /* \"gota.sol\":2895:3138  for (uint256 i = 0; i < _nftIds.length; i++) {... */\n      iszero\n      tag_173\n      jumpi\n        /* \"gota.sol\":2954:2968  uint256 _nftId */\n      0x00\n        /* \"gota.sol\":2971:2978  _nftIds */\n      dup6\n        /* \"gota.sol\":2979:2980  i */\n      dup3\n        /* \"gota.sol\":2971:2981  _nftIds[i] */\n      dup2\n      mload\n      dup2\n      lt\n      tag_175\n      jumpi\n      tag_176\n      tag_177\n      jump\t// in\n    tag_176:\n    tag_175:\n      0x20\n      mul\n      0x20\n      add\n      add\n      mload\n        /* \"gota.sol\":2954:2981  uint256 _nftId = _nftIds[i] */\n      swap1\n      pop\n        /* \"gota.sol\":3051:3061  msg.sender */\n      caller\n        /* \"gota.sol\":3020:3061  nftContract.ownerOf(_nftId) == msg.sender */\n      0xffffffffffffffffffffffffffffffffffffffff\n      and\n        /* \"gota.sol\":3020:3031  nftContract */\n      dup4\n        /* \"gota.sol\":3020:3039  nftContract.ownerOf */\n      0xffffffffffffffffffffffffffffffffffffffff\n      and\n      0x6352211e\n        /* \"gota.sol\":3040:3046  _nftId */\n      dup4\n        /* \"gota.sol\":3020:3047  nftContract.ownerOf(_nftId) */\n      mload(0x40)\n      dup3\n      0xffffffff\n      and\n      0xe0\n      shl\n      dup2\n      mstore\n      0x04\n      add\n      tag_178\n      swap2\n      swap1\n      tag_79\n      jump\t// in\n    tag_178:\n      0x20\n      mload(0x40)\n      dup1\n      dup4\n      sub\n      dup2\n      dup7\n      gas\n      staticcall\n      iszero\n      dup1\n      iszero\n      tag_180\n      jumpi\n      returndatasize\n      0x00\n      dup1\n      returndatacopy\n      revert(0x00, returndatasize)\n    tag_180:\n      pop\n      pop\n      pop\n      pop\n      mload(0x40)\n      returndatasize\n      not(0x1f)\n      0x1f\n      dup3\n      add\n      and\n      dup3\n      add\n      dup1\n      0x40\n      mstore\n      pop\n      dup2\n      add\n      swap1\n      tag_181\n      swap2\n      swap1\n      tag_182\n      jump\t// in\n    tag_181:\n        /* \"gota.sol\":3020:3061  nftContract.ownerOf(_nftId) == msg.sender */\n      0xffffffffffffffffffffffffffffffffffffffff\n      and\n      eq\n        /* \"gota.sol\":2995:3127  require(... */\n      tag_183\n      jumpi\n      mload(0x40)\n      0x08c379a000000000000000000000000000000000000000000000000000000000\n      dup2\n      mstore\n      0x04\n      add\n      tag_184\n      swap1\n      tag_185\n      jump\t// in\n    tag_184:\n      mload(0x40)\n      dup1\n      swap2\n      sub\n      swap1\n      revert\n    tag_183:\n        /* \"gota.sol\":2940:3138  {... */\n      pop\n        /* \"gota.sol\":2935:2938  i++ */\n      dup1\n      dup1\n      tag_186\n      swap1\n      tag_187\n      jump\t// in\n    tag_186:\n      swap2\n      pop\n      pop\n        /* \"gota.sol\":2895:3138  for (uint256 i = 0; i < _nftIds.length; i++) {... */\n      jump(tag_172)\n    tag_173:\n      pop\n        /* \"gota.sol\":3173:3384  Listing({... */\n      mload(0x40)\n      dup1\n      0xa0\n      add\n      0x40\n      mstore\n      dup1\n        /* \"gota.sol\":3215:3234  _nftContractAddress */\n      dup7\n        /* \"gota.sol\":3173:3384  Listing({... */\n      0xffffffffffffffffffffffffffffffffffffffff\n      and\n      dup2\n      mstore\n      0x20\n      add\n        /* \"gota.sol\":3256:3263  _nftIds */\n      dup6\n        /* \"gota.sol\":3173:3384  Listing({... */\n      dup2\n      mstore\n      0x20\n      add\n        /* \"gota.sol\":3285:3295  msg.sender */\n      caller\n        /* \"gota.sol\":3173:3384  Listing({... */\n      0xffffffffffffffffffffffffffffffffffffffff\n      and\n      dup2\n      mstore\n      0x20\n      add\n        /* \"gota.sol\":3316:3322  _price */\n      dup5\n        /* \"gota.sol\":3173:3384  Listing({... */\n      dup2\n      mstore\n      0x20\n      add\n        /* \"gota.sol\":3364:3373  _deadline */\n      dup4\n        /* \"gota.sol\":3346:3361  block.timestamp */\n      timestamp\n        /* \"gota.sol\":3346:3373  block.timestamp + _deadline */\n      tag_188\n      swap2\n      swap1\n      tag_189\n      jump\t// in\n    tag_188:\n        /* \"gota.sol\":3173:3384  Listing({... */\n      dup2\n      mstore\n      pop\n        /* \"gota.sol\":3147:3155  listings */\n      0x06\n        /* \"gota.sol\":3147:3170  listings[nextListingId] */\n      0x00\n        /* \"gota.sol\":3156:3169  nextListingId */\n      sload(0x08)\n        /* \"gota.sol\":3147:3170  listings[nextListingId] */\n      dup2\n      mstore\n      0x20\n      add\n      swap1\n      dup2\n      mstore\n      0x20\n      add\n      0x00\n      keccak256\n        /* \"gota.sol\":3147:3384  listings[nextListingId] = Listing({... */\n      0x00\n      dup3\n      add\n      mload\n      dup2\n      0x00\n      add\n      exp(0x0100, 0x00)\n      dup2\n      sload\n      dup2\n      0xffffffffffffffffffffffffffffffffffffffff\n      mul\n      not\n      and\n      swap1\n      dup4\n      0xffffffffffffffffffffffffffffffffffffffff\n      and\n      mul\n      or\n      swap1\n      sstore\n      pop\n      0x20\n      dup3\n      add\n      mload\n      dup2\n      0x01\n      add\n      swap1\n      dup1\n      mload\n      swap1\n      0x20\n      add\n      swap1\n      tag_190\n      swap3\n      swap2\n      swap1\n      tag_191\n      jump\t// in\n    tag_190:\n      pop\n      0x40\n      dup3\n      add\n      mload\n      dup2\n      0x02\n      add\n      exp(0x0100, 0x00)\n      dup2\n      sload\n      dup2\n      0xffffffffffffffffffffffffffffffffffffffff\n      mul\n      not\n      and\n      swap1\n      dup4\n      0xffffffffffffffffffffffffffffffffffffffff\n      and\n      mul\n      or\n      swap1\n      sstore\n      pop\n      0x60\n      dup3\n      add\n      mload\n      dup2\n      0x03\n      add\n      sstore\n      0x80\n      dup3\n      add\n      mload\n      dup2\n      0x04\n      add\n      sstore\n      swap1\n      pop\n      pop\n        /* \"gota.sol\":3425:3435  msg.sender */\n      caller\n        /* \"gota.sol\":3394:3407  listingOwners */\n      0x07\n        /* \"gota.sol\":3394:3422  listingOwners[nextListingId] */\n      0x00\n        /* \"gota.sol\":3408:3421  nextListingId */\n      sload(0x08)\n        /* \"gota.sol\":3394:3422  listingOwners[nextListingId] */\n      dup2\n      mstore\n      0x20\n      add\n      swap1\n      dup2\n      mstore\n      0x20\n      add\n      0x00\n      keccak256\n      0x00\n        /* \"gota.sol\":3394:3435  listingOwners[nextListingId] = msg.sender */\n      0x0100\n      exp\n      dup2\n      sload\n      dup2\n      0xffffffffffffffffffffffffffffffffffffffff\n      mul\n      not\n      and\n      swap1\n      dup4\n      0xffffffffffffffffffffffffffffffffffffffff\n      and\n      mul\n      or\n      swap1\n      sstore\n      pop\n        /* \"gota.sol\":3445:3461  activeListingIds */\n      0x01\n        /* \"gota.sol\":3467:3480  nextListingId */\n      sload(0x08)\n        /* \"gota.sol\":3445:3481  activeListingIds.push(nextListingId) */\n      swap1\n      dup1\n      0x01\n      dup2\n      sload\n      add\n      dup1\n      dup3\n      sstore\n      dup1\n      swap2\n      pop\n      pop\n      0x01\n      swap1\n      sub\n      swap1\n      0x00\n      mstore\n      keccak256(0x00, 0x20)\n      add\n      0x00\n      swap1\n      swap2\n      swap1\n      swap2\n      swap1\n      swap2\n      pop\n      sstore\n        /* \"gota.sol\":3570:3589  _nftContractAddress */\n      dup5\n        /* \"gota.sol\":3496:3681  NFTListed(... */\n      0xffffffffffffffffffffffffffffffffffffffff\n      and\n        /* \"gota.sol\":3546:3556  msg.sender */\n      caller\n        /* \"gota.sol\":3496:3681  NFTListed(... */\n      0xffffffffffffffffffffffffffffffffffffffff\n      and\n        /* \"gota.sol\":3519:3532  nextListingId */\n      sload(0x08)\n        /* \"gota.sol\":3496:3681  NFTListed(... */\n      0xb135ab5d6fb2741efa75bf597e471845ca0a87fc756c5ab2a23f77639e3a8941\n        /* \"gota.sol\":3603:3610  _nftIds */\n      dup8\n        /* \"gota.sol\":3624:3630  _price */\n      dup8\n        /* \"gota.sol\":3662:3671  _deadline */\n      dup8\n        /* \"gota.sol\":3644:3659  block.timestamp */\n      timestamp\n        /* \"gota.sol\":3644:3671  block.timestamp + _deadline */\n      tag_193\n      swap2\n      swap1\n      tag_189\n      jump\t// in\n    tag_193:\n        /* \"gota.sol\":3496:3681  NFTListed(... */\n      mload(0x40)\n      tag_194\n      swap4\n      swap3\n      swap2\n      swap1\n      tag_195\n      jump\t// in\n    tag_194:\n      mload(0x40)\n      dup1\n      swap2\n      sub\n      swap1\n      log4\n        /* \"gota.sol\":3691:3704  nextListingId */\n      0x08\n      0x00\n        /* \"gota.sol\":3691:3706  nextListingId++ */\n      dup2\n      sload\n      dup1\n      swap3\n      swap2\n      swap1\n      tag_196\n      swap1\n      tag_187\n      jump\t// in\n    tag_196:\n      swap2\n      swap1\n      pop\n      sstore\n      pop\n        /* \"gota.sol\":2621:3713  {... */\n      pop\n        /* \"https://github.com/thirdweb-dev/contracts/blob/ee78bf9df7b7ac8bc8ded1c8ce91c31ef43cf73e/contracts/extension/upgradeable/ReentrancyGuard.sol\":805:806  1 */\n      0x01\n        /* \"https://github.com/thirdweb-dev/contracts/blob/ee78bf9df7b7ac8bc8ded1c8ce91c31ef43cf73e/contracts/extension/upgradeable/ReentrancyGuard.sol\":1502:1527  _reentrancyGuardStorage() */\n      tag_197\n        /* \"https://github.com/thirdweb-dev/contracts/blob/ee78bf9df7b7ac8bc8ded1c8ce91c31ef43cf73e/contracts/extension/upgradeable/ReentrancyGuard.sol\":1502:1525  _reentrancyGuardStorage */\n      tag_128\n        /* \"https://github.com/thirdweb-dev/contracts/blob/ee78bf9df7b7ac8bc8ded1c8ce91c31ef43cf73e/contracts/extension/upgradeable/ReentrancyGuard.sol\":1502:1527  _reentrancyGuardStorage() */\n      jump\t// in\n    tag_197:\n        /* \"https://github.com/thirdweb-dev/contracts/blob/ee78bf9df7b7ac8bc8ded1c8ce91c31ef43cf73e/contracts/extension/upgradeable/ReentrancyGuard.sol\":1502:1535  _reentrancyGuardStorage()._status */\n      0x00\n      add\n        /* \"https://github.com/thirdweb-dev/contracts/blob/ee78bf9df7b7ac8bc8ded1c8ce91c31ef43cf73e/contracts/extension/upgradeable/ReentrancyGuard.sol\":1502:1550  _reentrancyGuardStorage()._status = _NOT_ENTERED */\n      dup2\n      swap1\n      sstore\n      pop\n        /* \"gota.sol\":2440:3713  function listNFT(... */\n      pop\n      pop\n      pop\n      pop\n      jump\t// out\n        /* \"gota.sol\":3719:5424  function buyNFT(uint256 _listingId)... */\n    tag_45:\n        /* \"https://github.com/OpenZeppelin/openzeppelin-contracts/blob/release-v4.9/contracts/security/Pausable.sol\":1239:1258  _requireNotPaused() */\n      tag_199\n        /* \"https://github.com/OpenZeppelin/openzeppelin-contracts/blob/release-v4.9/contracts/security/Pausable.sol\":1239:1256  _requireNotPaused */\n      tag_156\n        /* \"https://github.com/OpenZeppelin/openzeppelin-contracts/blob/release-v4.9/contracts/security/Pausable.sol\":1239:1258  _requireNotPaused() */\n      jump\t// in\n    tag_199:\n        /* \"https://github.com/thirdweb-dev/contracts/blob/ee78bf9df7b7ac8bc8ded1c8ce91c31ef43cf73e/contracts/extension/upgradeable/ReentrancyGuard.sol\":848:849  2 */\n      0x02\n        /* \"https://github.com/thirdweb-dev/contracts/blob/ee78bf9df7b7ac8bc8ded1c8ce91c31ef43cf73e/contracts/extension/upgradeable/ReentrancyGuard.sol\":1147:1172  _reentrancyGuardStorage() */\n      tag_201\n        /* \"https://github.com/thirdweb-dev/contracts/blob/ee78bf9df7b7ac8bc8ded1c8ce91c31ef43cf73e/contracts/extension/upgradeable/ReentrancyGuard.sol\":1147:1170  _reentrancyGuardStorage */\n      tag_128\n        /* \"https://github.com/thirdweb-dev/contracts/blob/ee78bf9df7b7ac8bc8ded1c8ce91c31ef43cf73e/contracts/extension/upgradeable/ReentrancyGuard.sol\":1147:1172  _reentrancyGuardStorage() */\n      jump\t// in\n    tag_201:\n        /* \"https://github.com/thirdweb-dev/contracts/blob/ee78bf9df7b7ac8bc8ded1c8ce91c31ef43cf73e/contracts/extension/upgradeable/ReentrancyGuard.sol\":1147:1180  _reentrancyGuardStorage()._status */\n      0x00\n      add\n      sload\n        /* \"https://github.com/thirdweb-dev/contracts/blob/ee78bf9df7b7ac8bc8ded1c8ce91c31ef43cf73e/contracts/extension/upgradeable/ReentrancyGuard.sol\":1147:1192  _reentrancyGuardStorage()._status != _ENTERED */\n      eq\n      iszero\n        /* \"https://github.com/thirdweb-dev/contracts/blob/ee78bf9df7b7ac8bc8ded1c8ce91c31ef43cf73e/contracts/extension/upgradeable/ReentrancyGuard.sol\":1139:1228  require(_reentrancyGuardStorage()._status != _ENTERED, \"ReentrancyGuard: reentrant call\") */\n      tag_202\n      jumpi\n      mload(0x40)\n      0x08c379a000000000000000000000000000000000000000000000000000000000\n      dup2\n      mstore\n      0x04\n      add\n      tag_203\n      swap1\n      tag_131\n      jump\t// in\n    tag_203:\n      mload(0x40)\n      dup1\n      swap2\n      sub\n      swap1\n      revert\n    tag_202:\n        /* \"https://github.com/thirdweb-dev/contracts/blob/ee78bf9df7b7ac8bc8ded1c8ce91c31ef43cf73e/contracts/extension/upgradeable/ReentrancyGuard.sol\":848:849  2 */\n      0x02\n        /* \"https://github.com/thirdweb-dev/contracts/blob/ee78bf9df7b7ac8bc8ded1c8ce91c31ef43cf73e/contracts/extension/upgradeable/ReentrancyGuard.sol\":1303:1328  _reentrancyGuardStorage() */\n      tag_204\n        /* \"https://github.com/thirdweb-dev/contracts/blob/ee78bf9df7b7ac8bc8ded1c8ce91c31ef43cf73e/contracts/extension/upgradeable/ReentrancyGuard.sol\":1303:1326  _reentrancyGuardStorage */\n      tag_128\n        /* \"https://github.com/thirdweb-dev/contracts/blob/ee78bf9df7b7ac8bc8ded1c8ce91c31ef43cf73e/contracts/extension/upgradeable/ReentrancyGuard.sol\":1303:1328  _reentrancyGuardStorage() */\n      jump\t// in\n    tag_204:\n        /* \"https://github.com/thirdweb-dev/contracts/blob/ee78bf9df7b7ac8bc8ded1c8ce91c31ef43cf73e/contracts/extension/upgradeable/ReentrancyGuard.sol\":1303:1336  _reentrancyGuardStorage()._status */\n      0x00\n      add\n        /* \"https://github.com/thirdweb-dev/contracts/blob/ee78bf9df7b7ac8bc8ded1c8ce91c31ef43cf73e/contracts/extension/upgradeable/ReentrancyGuard.sol\":1303:1347  _reentrancyGuardStorage()._status = _ENTERED */\n      dup2\n      swap1\n      sstore\n      pop\n        /* \"gota.sol\":3865:3866  0 */\n      0x00\n        /* \"gota.sol\":3853:3862  msg.value */\n      callvalue\n        /* \"gota.sol\":3853:3866  msg.value > 0 */\n      gt\n        /* \"gota.sol\":3845:3908  require(msg.value > 0, \"Sent value must be greater than zero.\") */\n      tag_206\n      jumpi\n      mload(0x40)\n      0x08c379a000000000000000000000000000000000000000000000000000000000\n      dup2\n      mstore\n      0x04\n      add\n      tag_207\n      swap1\n      tag_208\n      jump\t// in\n    tag_207:\n      mload(0x40)\n      dup1\n      swap2\n      sub\n      swap1\n      revert\n    tag_206:\n        /* \"gota.sol\":3918:3941  Listing storage listing */\n      0x00\n        /* \"gota.sol\":3944:3952  listings */\n      0x06\n        /* \"gota.sol\":3944:3964  listings[_listingId] */\n      0x00\n        /* \"gota.sol\":3953:3963  _listingId */\n      dup4\n        /* \"gota.sol\":3944:3964  listings[_listingId] */\n      dup2\n      mstore\n      0x20\n      add\n      swap1\n      dup2\n      mstore\n      0x20\n      add\n      0x00\n      keccak256\n        /* \"gota.sol\":3918:3964  Listing storage listing = listings[_listingId] */\n      swap1\n      pop\n        /* \"gota.sol\":4008:4009  0 */\n      0x00\n        /* \"gota.sol\":3982:4010  listing.seller != address(0) */\n      0xffffffffffffffffffffffffffffffffffffffff\n      and\n        /* \"gota.sol\":3982:3989  listing */\n      dup2\n        /* \"gota.sol\":3982:3996  listing.seller */\n      0x02\n      add\n      0x00\n      swap1\n      sload\n      swap1\n      0x0100\n      exp\n      swap1\n      div\n      0xffffffffffffffffffffffffffffffffffffffff\n      and\n        /* \"gota.sol\":3982:4010  listing.seller != address(0) */\n      0xffffffffffffffffffffffffffffffffffffffff\n      and\n      eq\n      iszero\n        /* \"gota.sol\":3974:4038  require(listing.seller != address(0), \"Listing does not exist.\") */\n      tag_209\n      jumpi\n      mload(0x40)\n      0x08c379a000000000000000000000000000000000000000000000000000000000\n      dup2\n      mstore\n      0x04\n      add\n      tag_210\n      swap1\n      tag_211\n      jump\t// in\n    tag_210:\n      mload(0x40)\n      dup1\n      swap2\n      sub\n      swap1\n      revert\n    tag_209:\n        /* \"gota.sol\":4088:4095  listing */\n      dup1\n        /* \"gota.sol\":4088:4104  listing.deadline */\n      0x04\n      add\n      sload\n        /* \"gota.sol\":4069:4084  block.timestamp */\n      timestamp\n        /* \"gota.sol\":4069:4104  block.timestamp <= listing.deadline */\n      gt\n      iszero\n        /* \"gota.sol\":4048:4155  require(... */\n      tag_212\n      jumpi\n      mload(0x40)\n      0x08c379a000000000000000000000000000000000000000000000000000000000\n      dup2\n      mstore\n      0x04\n      add\n      tag_213\n      swap1\n      tag_214\n      jump\t// in\n    tag_213:\n      mload(0x40)\n      dup1\n      swap2\n      sub\n      swap1\n      revert\n    tag_212:\n        /* \"gota.sol\":4199:4206  listing */\n      dup1\n        /* \"gota.sol\":4199:4212  listing.price */\n      0x03\n      add\n      sload\n        /* \"gota.sol\":4186:4195  msg.value */\n      callvalue\n        /* \"gota.sol\":4186:4212  msg.value == listing.price */\n      eq\n        /* \"gota.sol\":4165:4284  require(... */\n      tag_215\n      jumpi\n      mload(0x40)\n      0x08c379a000000000000000000000000000000000000000000000000000000000\n      dup2\n      mstore\n      0x04\n      add\n      tag_216\n      swap1\n      tag_217\n      jump\t// in\n    tag_216:\n      mload(0x40)\n      dup1\n      swap2\n      sub\n      swap1\n      revert\n    tag_215:\n        /* \"gota.sol\":4294:4315  uint256 royaltyAmount */\n      0x00\n        /* \"gota.sol\":4356:4361  10000 */\n      0x2710\n        /* \"gota.sol\":4335:4352  royaltyPercentage */\n      sload(0x02)\n        /* \"gota.sol\":4319:4326  listing */\n      dup4\n        /* \"gota.sol\":4319:4332  listing.price */\n      0x03\n      add\n      sload\n        /* \"gota.sol\":4319:4352  listing.price * royaltyPercentage */\n      tag_218\n      swap2\n      swap1\n      tag_219\n      jump\t// in\n    tag_218:\n        /* \"gota.sol\":4318:4361  (listing.price * royaltyPercentage) / 10000 */\n      tag_220\n      swap2\n      swap1\n      tag_221\n      jump\t// in\n    tag_220:\n        /* \"gota.sol\":4294:4361  uint256 royaltyAmount = (listing.price * royaltyPercentage) / 10000 */\n      swap1\n      pop\n        /* \"gota.sol\":4371:4390  uint256 platformFee */\n      0x00\n        /* \"gota.sol\":4435:4440  10000 */\n      0x2710\n        /* \"gota.sol\":4410:4431  platformFeePercentage */\n      sload(0x03)\n        /* \"gota.sol\":4394:4401  listing */\n      dup5\n        /* \"gota.sol\":4394:4407  listing.price */\n      0x03\n      add\n      sload\n        /* \"gota.sol\":4394:4431  listing.price * platformFeePercentage */\n      tag_222\n      swap2\n      swap1\n      tag_219\n      jump\t// in\n    tag_222:\n        /* \"gota.sol\":4393:4440  (listing.price * platformFeePercentage) / 10000 */\n      tag_223\n      swap2\n      swap1\n      tag_221\n      jump\t// in\n    tag_223:\n        /* \"gota.sol\":4371:4440  uint256 platformFee = (listing.price * platformFeePercentage) / 10000 */\n      swap1\n      pop\n        /* \"gota.sol\":4450:4470  uint256 sellerAmount */\n      0x00\n        /* \"gota.sol\":4505:4516  platformFee */\n      dup2\n        /* \"gota.sol\":4489:4502  royaltyAmount */\n      dup4\n        /* \"gota.sol\":4473:4480  listing */\n      dup6\n        /* \"gota.sol\":4473:4486  listing.price */\n      0x03\n      add\n      sload\n        /* \"gota.sol\":4473:4502  listing.price - royaltyAmount */\n      tag_224\n      swap2\n      swap1\n      tag_225\n      jump\t// in\n    tag_224:\n        /* \"gota.sol\":4473:4516  listing.price - royaltyAmount - platformFee */\n      tag_226\n      swap2\n      swap1\n      tag_225\n      jump\t// in\n    tag_226:\n        /* \"gota.sol\":4450:4516  uint256 sellerAmount = listing.price - royaltyAmount - platformFee */\n      swap1\n      pop\n        /* \"gota.sol\":4577:4586  uint256 i */\n      0x00\n        /* \"gota.sol\":4572:5043  for (uint256 i = 0; i < listing.nftIds.length; i++) {... */\n    tag_227:\n        /* \"gota.sol\":4596:4603  listing */\n      dup5\n        /* \"gota.sol\":4596:4610  listing.nftIds */\n      0x01\n      add\n        /* \"gota.sol\":4596:4617  listing.nftIds.length */\n      dup1\n      sload\n      swap1\n      pop\n        /* \"gota.sol\":4592:4593  i */\n      dup2\n        /* \"gota.sol\":4592:4617  i < listing.nftIds.length */\n      lt\n        /* \"gota.sol\":4572:5043  for (uint256 i = 0; i < listing.nftIds.length; i++) {... */\n      iszero\n      tag_228\n      jumpi\n        /* \"gota.sol\":4638:4652  uint256 _nftId */\n      0x00\n        /* \"gota.sol\":4655:4662  listing */\n      dup6\n        /* \"gota.sol\":4655:4669  listing.nftIds */\n      0x01\n      add\n        /* \"gota.sol\":4670:4671  i */\n      dup3\n        /* \"gota.sol\":4655:4672  listing.nftIds[i] */\n      dup2\n      sload\n      dup2\n      lt\n      tag_230\n      jumpi\n      tag_231\n      tag_177\n      jump\t// in\n    tag_231:\n    tag_230:\n      swap1\n      0x00\n      mstore\n      keccak256(0x00, 0x20)\n      add\n      sload\n        /* \"gota.sol\":4638:4672  uint256 _nftId = listing.nftIds[i] */\n      swap1\n      pop\n        /* \"gota.sol\":4786:4793  listing */\n      dup6\n        /* \"gota.sol\":4786:4800  listing.seller */\n      0x02\n      add\n      0x00\n      swap1\n      sload\n      swap1\n      0x0100\n      exp\n      swap1\n      div\n      0xffffffffffffffffffffffffffffffffffffffff\n      and\n        /* \"gota.sol\":4711:4800  IERC721(listing.nftContractAddress).ownerOf(_nftId) ==... */\n      0xffffffffffffffffffffffffffffffffffffffff\n      and\n        /* \"gota.sol\":4719:4726  listing */\n      dup7\n        /* \"gota.sol\":4719:4745  listing.nftContractAddress */\n      0x00\n      add\n      0x00\n      swap1\n      sload\n      swap1\n      0x0100\n      exp\n      swap1\n      div\n      0xffffffffffffffffffffffffffffffffffffffff\n      and\n        /* \"gota.sol\":4711:4754  IERC721(listing.nftContractAddress).ownerOf */\n      0xffffffffffffffffffffffffffffffffffffffff\n      and\n      0x6352211e\n        /* \"gota.sol\":4755:4761  _nftId */\n      dup4\n        /* \"gota.sol\":4711:4762  IERC721(listing.nftContractAddress).ownerOf(_nftId) */\n      mload(0x40)\n      dup3\n      0xffffffff\n      and\n      0xe0\n      shl\n      dup2\n      mstore\n      0x04\n      add\n      tag_233\n      swap2\n      swap1\n      tag_79\n      jump\t// in\n    tag_233:\n      0x20\n      mload(0x40)\n      dup1\n      dup4\n      sub\n      dup2\n      dup7\n      gas\n      staticcall\n      iszero\n      dup1\n      iszero\n      tag_235\n      jumpi\n      returndatasize\n      0x00\n      dup1\n      returndatacopy\n      revert(0x00, returndatasize)\n    tag_235:\n      pop\n      pop\n      pop\n      pop\n      mload(0x40)\n      returndatasize\n      not(0x1f)\n      0x1f\n      dup3\n      add\n      and\n      dup3\n      add\n      dup1\n      0x40\n      mstore\n      pop\n      dup2\n      add\n      swap1\n      tag_236\n      swap2\n      swap1\n      tag_182\n      jump\t// in\n    tag_236:\n        /* \"gota.sol\":4711:4800  IERC721(listing.nftContractAddress).ownerOf(_nftId) ==... */\n      0xffffffffffffffffffffffffffffffffffffffff\n      and\n      eq\n        /* \"gota.sol\":4686:4872  require(... */\n      tag_237\n      jumpi\n      mload(0x40)\n      0x08c379a000000000000000000000000000000000000000000000000000000000\n      dup2\n      mstore\n      0x04\n      add\n      tag_238\n      swap1\n      tag_239\n      jump\t// in\n    tag_238:\n      mload(0x40)\n      dup1\n      swap2\n      sub\n      swap1\n      revert\n    tag_237:\n        /* \"gota.sol\":4894:4901  listing */\n      dup6\n        /* \"gota.sol\":4894:4920  listing.nftContractAddress */\n      0x00\n      add\n      0x00\n      swap1\n      sload\n      swap1\n      0x0100\n      exp\n      swap1\n      div\n      0xffffffffffffffffffffffffffffffffffffffff\n      and\n        /* \"gota.sol\":4886:4934  IERC721(listing.nftContractAddress).transferFrom */\n      0xffffffffffffffffffffffffffffffffffffffff\n      and\n      0x23b872dd\n        /* \"gota.sol\":4952:4959  listing */\n      dup8\n        /* \"gota.sol\":4952:4966  listing.seller */\n      0x02\n      add\n      0x00\n      swap1\n      sload\n      swap1\n      0x0100\n      exp\n      swap1\n      div\n      0xffffffffffffffffffffffffffffffffffffffff\n      and\n        /* \"gota.sol\":4984:4994  msg.sender */\n      caller\n        /* \"gota.sol\":5012:5018  _nftId */\n      dup5\n        /* \"gota.sol\":4886:5032  IERC721(listing.nftContractAddress).transferFrom(... */\n      mload(0x40)\n      dup5\n      0xffffffff\n      and\n      0xe0\n      shl\n      dup2\n      mstore\n      0x04\n      add\n      tag_240\n      swap4\n      swap3\n      swap2\n      swap1\n      tag_241\n      jump\t// in\n    tag_240:\n      0x00\n      mload(0x40)\n      dup1\n      dup4\n      sub\n      dup2\n      0x00\n      dup8\n      dup1\n      extcodesize\n      iszero\n      dup1\n      iszero\n      tag_242\n      jumpi\n      0x00\n      dup1\n      revert\n    tag_242:\n      pop\n      gas\n      call\n      iszero\n      dup1\n      iszero\n      tag_244\n      jumpi\n      returndatasize\n      0x00\n      dup1\n      returndatacopy\n      revert(0x00, returndatasize)\n    tag_244:\n      pop\n      pop\n      pop\n      pop\n        /* \"gota.sol\":4624:5043  {... */\n      pop\n        /* \"gota.sol\":4619:4622  i++ */\n      dup1\n      dup1\n      tag_245\n      swap1\n      tag_187\n      jump\t// in\n    tag_245:\n      swap2\n      pop\n      pop\n        /* \"gota.sol\":4572:5043  for (uint256 i = 0; i < listing.nftIds.length; i++) {... */\n      jump(tag_227)\n    tag_228:\n      pop\n        /* \"gota.sol\":5095:5102  listing */\n      dup4\n        /* \"gota.sol\":5095:5109  listing.seller */\n      0x02\n      add\n      0x00\n      swap1\n      sload\n      swap1\n      0x0100\n      exp\n      swap1\n      div\n      0xffffffffffffffffffffffffffffffffffffffff\n      and\n        /* \"gota.sol\":5087:5119  payable(listing.seller).transfer */\n      0xffffffffffffffffffffffffffffffffffffffff\n      and\n        /* \"gota.sol\":5087:5133  payable(listing.seller).transfer(sellerAmount) */\n      0x08fc\n        /* \"gota.sol\":5120:5132  sellerAmount */\n      dup3\n        /* \"gota.sol\":5087:5133  payable(listing.seller).transfer(sellerAmount) */\n      swap1\n      dup2\n      iszero\n      mul\n      swap1\n      mload(0x40)\n      0x00\n      mload(0x40)\n      dup1\n      dup4\n      sub\n      dup2\n      dup6\n      dup9\n      dup9\n      call\n      swap4\n      pop\n      pop\n      pop\n      pop\n      iszero\n      dup1\n      iszero\n      tag_247\n      jumpi\n      returndatasize\n      0x00\n      dup1\n      returndatacopy\n      revert(0x00, returndatasize)\n    tag_247:\n      pop\n        /* \"gota.sol\":5151:5165  royaltyAddress */\n      0x04\n      0x00\n      swap1\n      sload\n      swap1\n      0x0100\n      exp\n      swap1\n      div\n      0xffffffffffffffffffffffffffffffffffffffff\n      and\n        /* \"gota.sol\":5143:5175  payable(royaltyAddress).transfer */\n      0xffffffffffffffffffffffffffffffffffffffff\n      and\n        /* \"gota.sol\":5143:5190  payable(royaltyAddress).transfer(royaltyAmount) */\n      0x08fc\n        /* \"gota.sol\":5176:5189  royaltyAmount */\n      dup5\n        /* \"gota.sol\":5143:5190  payable(royaltyAddress).transfer(royaltyAmount) */\n      swap1\n      dup2\n      iszero\n      mul\n      swap1\n      mload(0x40)\n      0x00\n      mload(0x40)\n      dup1\n      dup4\n      sub\n      dup2\n      dup6\n      dup9\n      dup9\n      call\n      swap4\n      pop\n      pop\n      pop\n      pop\n      iszero\n      dup1\n      iszero\n      tag_249\n      jumpi\n      returndatasize\n      0x00\n      dup1\n      returndatacopy\n      revert(0x00, returndatasize)\n    tag_249:\n      pop\n        /* \"gota.sol\":5208:5226  platformFeeAddress */\n      0x05\n      0x00\n      swap1\n      sload\n      swap1\n      0x0100\n      exp\n      swap1\n      div\n      0xffffffffffffffffffffffffffffffffffffffff\n      and\n        /* \"gota.sol\":5200:5236  payable(platformFeeAddress).transfer */\n      0xffffffffffffffffffffffffffffffffffffffff\n      and\n        /* \"gota.sol\":5200:5249  payable(platformFeeAddress).transfer(platformFee) */\n      0x08fc\n        /* \"gota.sol\":5237:5248  platformFee */\n      dup4\n        /* \"gota.sol\":5200:5249  payable(platformFeeAddress).transfer(platformFee) */\n      swap1\n      dup2\n      iszero\n      mul\n      swap1\n      mload(0x40)\n      0x00\n      mload(0x40)\n      dup1\n      dup4\n      sub\n      dup2\n      dup6\n      dup9\n      dup9\n      call\n      swap4\n      pop\n      pop\n      pop\n      pop\n      iszero\n      dup1\n      iszero\n      tag_251\n      jumpi\n      returndatasize\n      0x00\n      dup1\n      returndatacopy\n      revert(0x00, returndatasize)\n    tag_251:\n      pop\n        /* \"gota.sol\":5391:5401  msg.sender */\n      caller\n        /* \"gota.sol\":5355:5417  NFTSold(_listingId, listing.seller, msg.sender, listing.price) */\n      0xffffffffffffffffffffffffffffffffffffffff\n      and\n        /* \"gota.sol\":5375:5382  listing */\n      dup5\n        /* \"gota.sol\":5375:5389  listing.seller */\n      0x02\n      add\n      0x00\n      swap1\n      sload\n      swap1\n      0x0100\n      exp\n      swap1\n      div\n      0xffffffffffffffffffffffffffffffffffffffff\n      and\n        /* \"gota.sol\":5355:5417  NFTSold(_listingId, listing.seller, msg.sender, listing.price) */\n      0xffffffffffffffffffffffffffffffffffffffff\n      and\n        /* \"gota.sol\":5363:5373  _listingId */\n      dup7\n        /* \"gota.sol\":5355:5417  NFTSold(_listingId, listing.seller, msg.sender, listing.price) */\n      0x8562eb94748e30bb0071e932744ce902b460c683474fcb3bfd567ffa16b1afb2\n        /* \"gota.sol\":5403:5410  listing */\n      dup8\n        /* \"gota.sol\":5403:5416  listing.price */\n      0x03\n      add\n      sload\n        /* \"gota.sol\":5355:5417  NFTSold(_listingId, listing.seller, msg.sender, listing.price) */\n      mload(0x40)\n      tag_252\n      swap2\n      swap1\n      tag_79\n      jump\t// in\n    tag_252:\n      mload(0x40)\n      dup1\n      swap2\n      sub\n      swap1\n      log4\n        /* \"gota.sol\":3835:5424  {... */\n      pop\n      pop\n      pop\n      pop\n        /* \"https://github.com/thirdweb-dev/contracts/blob/ee78bf9df7b7ac8bc8ded1c8ce91c31ef43cf73e/contracts/extension/upgradeable/ReentrancyGuard.sol\":805:806  1 */\n      0x01\n        /* \"https://github.com/thirdweb-dev/contracts/blob/ee78bf9df7b7ac8bc8ded1c8ce91c31ef43cf73e/contracts/extension/upgradeable/ReentrancyGuard.sol\":1502:1527  _reentrancyGuardStorage() */\n      tag_253\n        /* \"https://github.com/thirdweb-dev/contracts/blob/ee78bf9df7b7ac8bc8ded1c8ce91c31ef43cf73e/contracts/extension/upgradeable/ReentrancyGuard.sol\":1502:1525  _reentrancyGuardStorage */\n      tag_128\n        /* \"https://github.com/thirdweb-dev/contracts/blob/ee78bf9df7b7ac8bc8ded1c8ce91c31ef43cf73e/contracts/extension/upgradeable/ReentrancyGuard.sol\":1502:1527  _reentrancyGuardStorage() */\n      jump\t// in\n    tag_253:\n        /* \"https://github.com/thirdweb-dev/contracts/blob/ee78bf9df7b7ac8bc8ded1c8ce91c31ef43cf73e/contracts/extension/upgradeable/ReentrancyGuard.sol\":1502:1535  _reentrancyGuardStorage()._status */\n      0x00\n      add\n        /* \"https://github.com/thirdweb-dev/contracts/blob/ee78bf9df7b7ac8bc8ded1c8ce91c31ef43cf73e/contracts/extension/upgradeable/ReentrancyGuard.sol\":1502:1550  _reentrancyGuardStorage()._status = _NOT_ENTERED */\n      dup2\n      swap1\n      sstore\n      pop\n        /* \"gota.sol\":3719:5424  function buyNFT(uint256 _listingId)... */\n      pop\n      jump\t// out\n        /* \"https://github.com/OpenZeppelin/openzeppelin-contracts/blob/release-v4.9/contracts/security/Pausable.sol\":1615:1699  function paused() public view virtual returns (bool) {... */\n    tag_48:\n        /* \"https://github.com/OpenZeppelin/openzeppelin-contracts/blob/release-v4.9/contracts/security/Pausable.sol\":1662:1666  bool */\n      0x00\n        /* \"https://github.com/OpenZeppelin/openzeppelin-contracts/blob/release-v4.9/contracts/security/Pausable.sol\":1685:1692  _paused */\n      dup1\n      0x00\n      swap1\n      sload\n      swap1\n      0x0100\n      exp\n      swap1\n      div\n      0xff\n      and\n        /* \"https://github.com/OpenZeppelin/openzeppelin-contracts/blob/release-v4.9/contracts/security/Pausable.sol\":1678:1692  return _paused */\n      swap1\n      pop\n        /* \"https://github.com/OpenZeppelin/openzeppelin-contracts/blob/release-v4.9/contracts/security/Pausable.sol\":1615:1699  function paused() public view virtual returns (bool) {... */\n      swap1\n      jump\t// out\n        /* \"gota.sol\":5922:6338  function updateFeeAddresses(... */\n    tag_55:\n        /* \"https://github.com/thirdweb-dev/contracts/blob/ee78bf9df7b7ac8bc8ded1c8ce91c31ef43cf73e/contracts/extension/upgradeable/Ownable.sol\":1188:1205  _ownableStorage() */\n      tag_256\n        /* \"https://github.com/thirdweb-dev/contracts/blob/ee78bf9df7b7ac8bc8ded1c8ce91c31ef43cf73e/contracts/extension/upgradeable/Ownable.sol\":1188:1203  _ownableStorage */\n      tag_142\n        /* \"https://github.com/thirdweb-dev/contracts/blob/ee78bf9df7b7ac8bc8ded1c8ce91c31ef43cf73e/contracts/extension/upgradeable/Ownable.sol\":1188:1205  _ownableStorage() */\n      jump\t// in\n    tag_256:\n        /* \"https://github.com/thirdweb-dev/contracts/blob/ee78bf9df7b7ac8bc8ded1c8ce91c31ef43cf73e/contracts/extension/upgradeable/Ownable.sol\":1188:1212  _ownableStorage()._owner */\n      0x00\n      add\n      0x00\n      swap1\n      sload\n      swap1\n      0x0100\n      exp\n      swap1\n      div\n      0xffffffffffffffffffffffffffffffffffffffff\n      and\n        /* \"https://github.com/thirdweb-dev/contracts/blob/ee78bf9df7b7ac8bc8ded1c8ce91c31ef43cf73e/contracts/extension/upgradeable/Ownable.sol\":1174:1212  msg.sender != _ownableStorage()._owner */\n      0xffffffffffffffffffffffffffffffffffffffff\n      and\n        /* \"https://github.com/thirdweb-dev/contracts/blob/ee78bf9df7b7ac8bc8ded1c8ce91c31ef43cf73e/contracts/extension/upgradeable/Ownable.sol\":1174:1184  msg.sender */\n      caller\n        /* \"https://github.com/thirdweb-dev/contracts/blob/ee78bf9df7b7ac8bc8ded1c8ce91c31ef43cf73e/contracts/extension/upgradeable/Ownable.sol\":1174:1212  msg.sender != _ownableStorage()._owner */\n      0xffffffffffffffffffffffffffffffffffffffff\n      and\n      eq\n        /* \"https://github.com/thirdweb-dev/contracts/blob/ee78bf9df7b7ac8bc8ded1c8ce91c31ef43cf73e/contracts/extension/upgradeable/Ownable.sol\":1170:1263  if (msg.sender != _ownableStorage()._owner) {... */\n      tag_257\n      jumpi\n        /* \"https://github.com/thirdweb-dev/contracts/blob/ee78bf9df7b7ac8bc8ded1c8ce91c31ef43cf73e/contracts/extension/upgradeable/Ownable.sol\":1228:1252  revert(\"Not authorized\") */\n      mload(0x40)\n      0x08c379a000000000000000000000000000000000000000000000000000000000\n      dup2\n      mstore\n      0x04\n      add\n      tag_258\n      swap1\n      tag_123\n      jump\t// in\n    tag_258:\n      mload(0x40)\n      dup1\n      swap2\n      sub\n      swap1\n      revert\n        /* \"https://github.com/thirdweb-dev/contracts/blob/ee78bf9df7b7ac8bc8ded1c8ce91c31ef43cf73e/contracts/extension/upgradeable/Ownable.sol\":1170:1263  if (msg.sender != _ownableStorage()._owner) {... */\n    tag_257:\n        /* \"https://github.com/thirdweb-dev/contracts/blob/ee78bf9df7b7ac8bc8ded1c8ce91c31ef43cf73e/contracts/extension/upgradeable/ReentrancyGuard.sol\":848:849  2 */\n      0x02\n        /* \"https://github.com/thirdweb-dev/contracts/blob/ee78bf9df7b7ac8bc8ded1c8ce91c31ef43cf73e/contracts/extension/upgradeable/ReentrancyGuard.sol\":1147:1172  _reentrancyGuardStorage() */\n      tag_260\n        /* \"https://github.com/thirdweb-dev/contracts/blob/ee78bf9df7b7ac8bc8ded1c8ce91c31ef43cf73e/contracts/extension/upgradeable/ReentrancyGuard.sol\":1147:1170  _reentrancyGuardStorage */\n      tag_128\n        /* \"https://github.com/thirdweb-dev/contracts/blob/ee78bf9df7b7ac8bc8ded1c8ce91c31ef43cf73e/contracts/extension/upgradeable/ReentrancyGuard.sol\":1147:1172  _reentrancyGuardStorage() */\n      jump\t// in\n    tag_260:\n        /* \"https://github.com/thirdweb-dev/contracts/blob/ee78bf9df7b7ac8bc8ded1c8ce91c31ef43cf73e/contracts/extension/upgradeable/ReentrancyGuard.sol\":1147:1180  _reentrancyGuardStorage()._status */\n      0x00\n      add\n      sload\n        /* \"https://github.com/thirdweb-dev/contracts/blob/ee78bf9df7b7ac8bc8ded1c8ce91c31ef43cf73e/contracts/extension/upgradeable/ReentrancyGuard.sol\":1147:1192  _reentrancyGuardStorage()._status != _ENTERED */\n      eq\n      iszero\n        /* \"https://github.com/thirdweb-dev/contracts/blob/ee78bf9df7b7ac8bc8ded1c8ce91c31ef43cf73e/contracts/extension/upgradeable/ReentrancyGuard.sol\":1139:1228  require(_reentrancyGuardStorage()._status != _ENTERED, \"ReentrancyGuard: reentrant call\") */\n      tag_261\n      jumpi\n      mload(0x40)\n      0x08c379a000000000000000000000000000000000000000000000000000000000\n      dup2\n      mstore\n      0x04\n      add\n      tag_262\n      swap1\n      tag_131\n      jump\t// in\n    tag_262:\n      mload(0x40)\n      dup1\n      swap2\n      sub\n      swap1\n      revert\n    tag_261:\n        /* \"https://github.com/thirdweb-dev/contracts/blob/ee78bf9df7b7ac8bc8ded1c8ce91c31ef43cf73e/contracts/extension/upgradeable/ReentrancyGuard.sol\":848:849  2 */\n      0x02\n        /* \"https://github.com/thirdweb-dev/contracts/blob/ee78bf9df7b7ac8bc8ded1c8ce91c31ef43cf73e/contracts/extension/upgradeable/ReentrancyGuard.sol\":1303:1328  _reentrancyGuardStorage() */\n      tag_263\n        /* \"https://github.com/thirdweb-dev/contracts/blob/ee78bf9df7b7ac8bc8ded1c8ce91c31ef43cf73e/contracts/extension/upgradeable/ReentrancyGuard.sol\":1303:1326  _reentrancyGuardStorage */\n      tag_128\n        /* \"https://github.com/thirdweb-dev/contracts/blob/ee78bf9df7b7ac8bc8ded1c8ce91c31ef43cf73e/contracts/extension/upgradeable/ReentrancyGuard.sol\":1303:1328  _reentrancyGuardStorage() */\n      jump\t// in\n    tag_263:\n        /* \"https://github.com/thirdweb-dev/contracts/blob/ee78bf9df7b7ac8bc8ded1c8ce91c31ef43cf73e/contracts/extension/upgradeable/ReentrancyGuard.sol\":1303:1336  _reentrancyGuardStorage()._status */\n      0x00\n      add\n        /* \"https://github.com/thirdweb-dev/contracts/blob/ee78bf9df7b7ac8bc8ded1c8ce91c31ef43cf73e/contracts/extension/upgradeable/ReentrancyGuard.sol\":1303:1347  _reentrancyGuardStorage()._status = _ENTERED */\n      dup2\n      swap1\n      sstore\n      pop\n        /* \"gota.sol\":6125:6126  0 */\n      0x00\n        /* \"gota.sol\":6095:6127  _newRoyaltyAddress != address(0) */\n      0xffffffffffffffffffffffffffffffffffffffff\n      and\n        /* \"gota.sol\":6095:6113  _newRoyaltyAddress */\n      dup3\n        /* \"gota.sol\":6095:6127  _newRoyaltyAddress != address(0) */\n      0xffffffffffffffffffffffffffffffffffffffff\n      and\n      eq\n      iszero\n        /* \"gota.sol\":6095:6183  _newRoyaltyAddress != address(0) &&... */\n      dup1\n      iszero\n      tag_265\n      jumpi\n      pop\n        /* \"gota.sol\":6181:6182  0 */\n      0x00\n        /* \"gota.sol\":6147:6183  _newPlatformFeeAddress != address(0) */\n      0xffffffffffffffffffffffffffffffffffffffff\n      and\n        /* \"gota.sol\":6147:6169  _newPlatformFeeAddress */\n      dup2\n        /* \"gota.sol\":6147:6183  _newPlatformFeeAddress != address(0) */\n      0xffffffffffffffffffffffffffffffffffffffff\n      and\n      eq\n      iszero\n        /* \"gota.sol\":6095:6183  _newRoyaltyAddress != address(0) &&... */\n    tag_265:\n        /* \"gota.sol\":6074:6233  require(... */\n      tag_266\n      jumpi\n      mload(0x40)\n      0x08c379a000000000000000000000000000000000000000000000000000000000\n      dup2\n      mstore\n      0x04\n      add\n      tag_267\n      swap1\n      tag_268\n      jump\t// in\n    tag_267:\n      mload(0x40)\n      dup1\n      swap2\n      sub\n      swap1\n      revert\n    tag_266:\n        /* \"gota.sol\":6260:6278  _newRoyaltyAddress */\n      dup2\n        /* \"gota.sol\":6243:6257  royaltyAddress */\n      0x04\n      0x00\n        /* \"gota.sol\":6243:6278  royaltyAddress = _newRoyaltyAddress */\n      0x0100\n      exp\n      dup2\n      sload\n      dup2\n      0xffffffffffffffffffffffffffffffffffffffff\n      mul\n      not\n      and\n      swap1\n      dup4\n      0xffffffffffffffffffffffffffffffffffffffff\n      and\n      mul\n      or\n      swap1\n      sstore\n      pop\n        /* \"gota.sol\":6309:6331  _newPlatformFeeAddress */\n      dup1\n        /* \"gota.sol\":6288:6306  platformFeeAddress */\n      0x05\n      0x00\n        /* \"gota.sol\":6288:6331  platformFeeAddress = _newPlatformFeeAddress */\n      0x0100\n      exp\n      dup2\n      sload\n      dup2\n      0xffffffffffffffffffffffffffffffffffffffff\n      mul\n      not\n      and\n      swap1\n      dup4\n      0xffffffffffffffffffffffffffffffffffffffff\n      and\n      mul\n      or\n      swap1\n      sstore\n      pop\n        /* \"https://github.com/thirdweb-dev/contracts/blob/ee78bf9df7b7ac8bc8ded1c8ce91c31ef43cf73e/contracts/extension/upgradeable/ReentrancyGuard.sol\":805:806  1 */\n      0x01\n        /* \"https://github.com/thirdweb-dev/contracts/blob/ee78bf9df7b7ac8bc8ded1c8ce91c31ef43cf73e/contracts/extension/upgradeable/ReentrancyGuard.sol\":1502:1527  _reentrancyGuardStorage() */\n      tag_269\n        /* \"https://github.com/thirdweb-dev/contracts/blob/ee78bf9df7b7ac8bc8ded1c8ce91c31ef43cf73e/contracts/extension/upgradeable/ReentrancyGuard.sol\":1502:1525  _reentrancyGuardStorage */\n      tag_128\n        /* \"https://github.com/thirdweb-dev/contracts/blob/ee78bf9df7b7ac8bc8ded1c8ce91c31ef43cf73e/contracts/extension/upgradeable/ReentrancyGuard.sol\":1502:1527  _reentrancyGuardStorage() */\n      jump\t// in\n    tag_269:\n        /* \"https://github.com/thirdweb-dev/contracts/blob/ee78bf9df7b7ac8bc8ded1c8ce91c31ef43cf73e/contracts/extension/upgradeable/ReentrancyGuard.sol\":1502:1535  _reentrancyGuardStorage()._status */\n      0x00\n      add\n        /* \"https://github.com/thirdweb-dev/contracts/blob/ee78bf9df7b7ac8bc8ded1c8ce91c31ef43cf73e/contracts/extension/upgradeable/ReentrancyGuard.sol\":1502:1550  _reentrancyGuardStorage()._status = _NOT_ENTERED */\n      dup2\n      swap1\n      sstore\n      pop\n        /* \"gota.sol\":5922:6338  function updateFeeAddresses(... */\n      pop\n      pop\n      jump\t// out\n        /* \"gota.sol\":6344:6611  function updateFeePercentages(... */\n    tag_60:\n        /* \"https://github.com/thirdweb-dev/contracts/blob/ee78bf9df7b7ac8bc8ded1c8ce91c31ef43cf73e/contracts/extension/upgradeable/Ownable.sol\":1188:1205  _ownableStorage() */\n      tag_271\n        /* \"https://github.com/thirdweb-dev/contracts/blob/ee78bf9df7b7ac8bc8ded1c8ce91c31ef43cf73e/contracts/extension/upgradeable/Ownable.sol\":1188:1203  _ownableStorage */\n      tag_142\n        /* \"https://github.com/thirdweb-dev/contracts/blob/ee78bf9df7b7ac8bc8ded1c8ce91c31ef43cf73e/contracts/extension/upgradeable/Ownable.sol\":1188:1205  _ownableStorage() */\n      jump\t// in\n    tag_271:\n        /* \"https://github.com/thirdweb-dev/contracts/blob/ee78bf9df7b7ac8bc8ded1c8ce91c31ef43cf73e/contracts/extension/upgradeable/Ownable.sol\":1188:1212  _ownableStorage()._owner */\n      0x00\n      add\n      0x00\n      swap1\n      sload\n      swap1\n      0x0100\n      exp\n      swap1\n      div\n      0xffffffffffffffffffffffffffffffffffffffff\n      and\n        /* \"https://github.com/thirdweb-dev/contracts/blob/ee78bf9df7b7ac8bc8ded1c8ce91c31ef43cf73e/contracts/extension/upgradeable/Ownable.sol\":1174:1212  msg.sender != _ownableStorage()._owner */\n      0xffffffffffffffffffffffffffffffffffffffff\n      and\n        /* \"https://github.com/thirdweb-dev/contracts/blob/ee78bf9df7b7ac8bc8ded1c8ce91c31ef43cf73e/contracts/extension/upgradeable/Ownable.sol\":1174:1184  msg.sender */\n      caller\n        /* \"https://github.com/thirdweb-dev/contracts/blob/ee78bf9df7b7ac8bc8ded1c8ce91c31ef43cf73e/contracts/extension/upgradeable/Ownable.sol\":1174:1212  msg.sender != _ownableStorage()._owner */\n      0xffffffffffffffffffffffffffffffffffffffff\n      and\n      eq\n        /* \"https://github.com/thirdweb-dev/contracts/blob/ee78bf9df7b7ac8bc8ded1c8ce91c31ef43cf73e/contracts/extension/upgradeable/Ownable.sol\":1170:1263  if (msg.sender != _ownableStorage()._owner) {... */\n      tag_272\n      jumpi\n        /* \"https://github.com/thirdweb-dev/contracts/blob/ee78bf9df7b7ac8bc8ded1c8ce91c31ef43cf73e/contracts/extension/upgradeable/Ownable.sol\":1228:1252  revert(\"Not authorized\") */\n      mload(0x40)\n      0x08c379a000000000000000000000000000000000000000000000000000000000\n      dup2\n      mstore\n      0x04\n      add\n      tag_273\n      swap1\n      tag_123\n      jump\t// in\n    tag_273:\n      mload(0x40)\n      dup1\n      swap2\n      sub\n      swap1\n      revert\n        /* \"https://github.com/thirdweb-dev/contracts/blob/ee78bf9df7b7ac8bc8ded1c8ce91c31ef43cf73e/contracts/extension/upgradeable/Ownable.sol\":1170:1263  if (msg.sender != _ownableStorage()._owner) {... */\n    tag_272:\n        /* \"https://github.com/thirdweb-dev/contracts/blob/ee78bf9df7b7ac8bc8ded1c8ce91c31ef43cf73e/contracts/extension/upgradeable/ReentrancyGuard.sol\":848:849  2 */\n      0x02\n        /* \"https://github.com/thirdweb-dev/contracts/blob/ee78bf9df7b7ac8bc8ded1c8ce91c31ef43cf73e/contracts/extension/upgradeable/ReentrancyGuard.sol\":1147:1172  _reentrancyGuardStorage() */\n      tag_275\n        /* \"https://github.com/thirdweb-dev/contracts/blob/ee78bf9df7b7ac8bc8ded1c8ce91c31ef43cf73e/contracts/extension/upgradeable/ReentrancyGuard.sol\":1147:1170  _reentrancyGuardStorage */\n      tag_128\n        /* \"https://github.com/thirdweb-dev/contracts/blob/ee78bf9df7b7ac8bc8ded1c8ce91c31ef43cf73e/contracts/extension/upgradeable/ReentrancyGuard.sol\":1147:1172  _reentrancyGuardStorage() */\n      jump\t// in\n    tag_275:\n        /* \"https://github.com/thirdweb-dev/contracts/blob/ee78bf9df7b7ac8bc8ded1c8ce91c31ef43cf73e/contracts/extension/upgradeable/ReentrancyGuard.sol\":1147:1180  _reentrancyGuardStorage()._status */\n      0x00\n      add\n      sload\n        /* \"https://github.com/thirdweb-dev/contracts/blob/ee78bf9df7b7ac8bc8ded1c8ce91c31ef43cf73e/contracts/extension/upgradeable/ReentrancyGuard.sol\":1147:1192  _reentrancyGuardStorage()._status != _ENTERED */\n      eq\n      iszero\n        /* \"https://github.com/thirdweb-dev/contracts/blob/ee78bf9df7b7ac8bc8ded1c8ce91c31ef43cf73e/contracts/extension/upgradeable/ReentrancyGuard.sol\":1139:1228  require(_reentrancyGuardStorage()._status != _ENTERED, \"ReentrancyGuard: reentrant call\") */\n      tag_276\n      jumpi\n      mload(0x40)\n      0x08c379a000000000000000000000000000000000000000000000000000000000\n      dup2\n      mstore\n      0x04\n      add\n      tag_277\n      swap1\n      tag_131\n      jump\t// in\n    tag_277:\n      mload(0x40)\n      dup1\n      swap2\n      sub\n      swap1\n      revert\n    tag_276:\n        /* \"https://github.com/thirdweb-dev/contracts/blob/ee78bf9df7b7ac8bc8ded1c8ce91c31ef43cf73e/contracts/extension/upgradeable/ReentrancyGuard.sol\":848:849  2 */\n      0x02\n        /* \"https://github.com/thirdweb-dev/contracts/blob/ee78bf9df7b7ac8bc8ded1c8ce91c31ef43cf73e/contracts/extension/upgradeable/ReentrancyGuard.sol\":1303:1328  _reentrancyGuardStorage() */\n      tag_278\n        /* \"https://github.com/thirdweb-dev/contracts/blob/ee78bf9df7b7ac8bc8ded1c8ce91c31ef43cf73e/contracts/extension/upgradeable/ReentrancyGuard.sol\":1303:1326  _reentrancyGuardStorage */\n      tag_128\n        /* \"https://github.com/thirdweb-dev/contracts/blob/ee78bf9df7b7ac8bc8ded1c8ce91c31ef43cf73e/contracts/extension/upgradeable/ReentrancyGuard.sol\":1303:1328  _reentrancyGuardStorage() */\n      jump\t// in\n    tag_278:\n        /* \"https://github.com/thirdweb-dev/contracts/blob/ee78bf9df7b7ac8bc8ded1c8ce91c31ef43cf73e/contracts/extension/upgradeable/ReentrancyGuard.sol\":1303:1336  _reentrancyGuardStorage()._status */\n      0x00\n      add\n        /* \"https://github.com/thirdweb-dev/contracts/blob/ee78bf9df7b7ac8bc8ded1c8ce91c31ef43cf73e/contracts/extension/upgradeable/ReentrancyGuard.sol\":1303:1347  _reentrancyGuardStorage()._status = _ENTERED */\n      dup2\n      swap1\n      sstore\n      pop\n        /* \"gota.sol\":6524:6545  _newRoyaltyPercentage */\n      dup2\n        /* \"gota.sol\":6504:6521  royaltyPercentage */\n      0x02\n        /* \"gota.sol\":6504:6545  royaltyPercentage = _newRoyaltyPercentage */\n      dup2\n      swap1\n      sstore\n      pop\n        /* \"gota.sol\":6579:6604  _newPlatformFeePercentage */\n      dup1\n        /* \"gota.sol\":6555:6576  platformFeePercentage */\n      0x03\n        /* \"gota.sol\":6555:6604  platformFeePercentage = _newPlatformFeePercentage */\n      dup2\n      swap1\n      sstore\n      pop\n        /* \"https://github.com/thirdweb-dev/contracts/blob/ee78bf9df7b7ac8bc8ded1c8ce91c31ef43cf73e/contracts/extension/upgradeable/ReentrancyGuard.sol\":805:806  1 */\n      0x01\n        /* \"https://github.com/thirdweb-dev/contracts/blob/ee78bf9df7b7ac8bc8ded1c8ce91c31ef43cf73e/contracts/extension/upgradeable/ReentrancyGuard.sol\":1502:1527  _reentrancyGuardStorage() */\n      tag_280\n        /* \"https://github.com/thirdweb-dev/contracts/blob/ee78bf9df7b7ac8bc8ded1c8ce91c31ef43cf73e/contracts/extension/upgradeable/ReentrancyGuard.sol\":1502:1525  _reentrancyGuardStorage */\n      tag_128\n        /* \"https://github.com/thirdweb-dev/contracts/blob/ee78bf9df7b7ac8bc8ded1c8ce91c31ef43cf73e/contracts/extension/upgradeable/ReentrancyGuard.sol\":1502:1527  _reentrancyGuardStorage() */\n      jump\t// in\n    tag_280:\n        /* \"https://github.com/thirdweb-dev/contracts/blob/ee78bf9df7b7ac8bc8ded1c8ce91c31ef43cf73e/contracts/extension/upgradeable/ReentrancyGuard.sol\":1502:1535  _reentrancyGuardStorage()._status */\n      0x00\n      add\n        /* \"https://github.com/thirdweb-dev/contracts/blob/ee78bf9df7b7ac8bc8ded1c8ce91c31ef43cf73e/contracts/extension/upgradeable/ReentrancyGuard.sol\":1502:1550  _reentrancyGuardStorage()._status = _NOT_ENTERED */\n      dup2\n      swap1\n      sstore\n      pop\n        /* \"gota.sol\":6344:6611  function updateFeePercentages(... */\n      pop\n      pop\n      jump\t// out\n        /* \"gota.sol\":1317:1365  mapping(uint256 => address) public listingOwners */\n    tag_64:\n      mstore(0x20, 0x07)\n      dup1\n      0x00\n      mstore\n      keccak256(0x00, 0x40)\n      0x00\n      swap2\n      pop\n      sload\n      swap1\n      0x0100\n      exp\n      swap1\n      div\n      0xffffffffffffffffffffffffffffffffffffffff\n      and\n      dup2\n      jump\t// out\n        /* \"gota.sol\":5758:5832  function pause() external onlyOwner nonReentrant {... */\n    tag_69:\n        /* \"https://github.com/thirdweb-dev/contracts/blob/ee78bf9df7b7ac8bc8ded1c8ce91c31ef43cf73e/contracts/extension/upgradeable/Ownable.sol\":1188:1205  _ownableStorage() */\n      tag_282\n        /* \"https://github.com/thirdweb-dev/contracts/blob/ee78bf9df7b7ac8bc8ded1c8ce91c31ef43cf73e/contracts/extension/upgradeable/Ownable.sol\":1188:1203  _ownableStorage */\n      tag_142\n        /* \"https://github.com/thirdweb-dev/contracts/blob/ee78bf9df7b7ac8bc8ded1c8ce91c31ef43cf73e/contracts/extension/upgradeable/Ownable.sol\":1188:1205  _ownableStorage() */\n      jump\t// in\n    tag_282:\n        /* \"https://github.com/thirdweb-dev/contracts/blob/ee78bf9df7b7ac8bc8ded1c8ce91c31ef43cf73e/contracts/extension/upgradeable/Ownable.sol\":1188:1212  _ownableStorage()._owner */\n      0x00\n      add\n      0x00\n      swap1\n      sload\n      swap1\n      0x0100\n      exp\n      swap1\n      div\n      0xffffffffffffffffffffffffffffffffffffffff\n      and\n        /* \"https://github.com/thirdweb-dev/contracts/blob/ee78bf9df7b7ac8bc8ded1c8ce91c31ef43cf73e/contracts/extension/upgradeable/Ownable.sol\":1174:1212  msg.sender != _ownableStorage()._owner */\n      0xffffffffffffffffffffffffffffffffffffffff\n      and\n        /* \"https://github.com/thirdweb-dev/contracts/blob/ee78bf9df7b7ac8bc8ded1c8ce91c31ef43cf73e/contracts/extension/upgradeable/Ownable.sol\":1174:1184  msg.sender */\n      caller\n        /* \"https://github.com/thirdweb-dev/contracts/blob/ee78bf9df7b7ac8bc8ded1c8ce91c31ef43cf73e/contracts/extension/upgradeable/Ownable.sol\":1174:1212  msg.sender != _ownableStorage()._owner */\n      0xffffffffffffffffffffffffffffffffffffffff\n      and\n      eq\n        /* \"https://github.com/thirdweb-dev/contracts/blob/ee78bf9df7b7ac8bc8ded1c8ce91c31ef43cf73e/contracts/extension/upgradeable/Ownable.sol\":1170:1263  if (msg.sender != _ownableStorage()._owner) {... */\n      tag_283\n      jumpi\n        /* \"https://github.com/thirdweb-dev/contracts/blob/ee78bf9df7b7ac8bc8ded1c8ce91c31ef43cf73e/contracts/extension/upgradeable/Ownable.sol\":1228:1252  revert(\"Not authorized\") */\n      mload(0x40)\n      0x08c379a000000000000000000000000000000000000000000000000000000000\n      dup2\n      mstore\n      0x04\n      add\n      tag_284\n      swap1\n      tag_123\n      jump\t// in\n    tag_284:\n      mload(0x40)\n      dup1\n      swap2\n      sub\n      swap1\n      revert\n        /* \"https://github.com/thirdweb-dev/contracts/blob/ee78bf9df7b7ac8bc8ded1c8ce91c31ef43cf73e/contracts/extension/upgradeable/Ownable.sol\":1170:1263  if (msg.sender != _ownableStorage()._owner) {... */\n    tag_283:\n        /* \"https://github.com/thirdweb-dev/contracts/blob/ee78bf9df7b7ac8bc8ded1c8ce91c31ef43cf73e/contracts/extension/upgradeable/ReentrancyGuard.sol\":848:849  2 */\n      0x02\n        /* \"https://github.com/thirdweb-dev/contracts/blob/ee78bf9df7b7ac8bc8ded1c8ce91c31ef43cf73e/contracts/extension/upgradeable/ReentrancyGuard.sol\":1147:1172  _reentrancyGuardStorage() */\n      tag_286\n        /* \"https://github.com/thirdweb-dev/contracts/blob/ee78bf9df7b7ac8bc8ded1c8ce91c31ef43cf73e/contracts/extension/upgradeable/ReentrancyGuard.sol\":1147:1170  _reentrancyGuardStorage */\n      tag_128\n        /* \"https://github.com/thirdweb-dev/contracts/blob/ee78bf9df7b7ac8bc8ded1c8ce91c31ef43cf73e/contracts/extension/upgradeable/ReentrancyGuard.sol\":1147:1172  _reentrancyGuardStorage() */\n      jump\t// in\n    tag_286:\n        /* \"https://github.com/thirdweb-dev/contracts/blob/ee78bf9df7b7ac8bc8ded1c8ce91c31ef43cf73e/contracts/extension/upgradeable/ReentrancyGuard.sol\":1147:1180  _reentrancyGuardStorage()._status */\n      0x00\n      add\n      sload\n        /* \"https://github.com/thirdweb-dev/contracts/blob/ee78bf9df7b7ac8bc8ded1c8ce91c31ef43cf73e/contracts/extension/upgradeable/ReentrancyGuard.sol\":1147:1192  _reentrancyGuardStorage()._status != _ENTERED */\n      eq\n      iszero\n        /* \"https://github.com/thirdweb-dev/contracts/blob/ee78bf9df7b7ac8bc8ded1c8ce91c31ef43cf73e/contracts/extension/upgradeable/ReentrancyGuard.sol\":1139:1228  require(_reentrancyGuardStorage()._status != _ENTERED, \"ReentrancyGuard: reentrant call\") */\n      tag_287\n      jumpi\n      mload(0x40)\n      0x08c379a000000000000000000000000000000000000000000000000000000000\n      dup2\n      mstore\n      0x04\n      add\n      tag_288\n      swap1\n      tag_131\n      jump\t// in\n    tag_288:\n      mload(0x40)\n      dup1\n      swap2\n      sub\n      swap1\n      revert\n    tag_287:\n        /* \"https://github.com/thirdweb-dev/contracts/blob/ee78bf9df7b7ac8bc8ded1c8ce91c31ef43cf73e/contracts/extension/upgradeable/ReentrancyGuard.sol\":848:849  2 */\n      0x02\n        /* \"https://github.com/thirdweb-dev/contracts/blob/ee78bf9df7b7ac8bc8ded1c8ce91c31ef43cf73e/contracts/extension/upgradeable/ReentrancyGuard.sol\":1303:1328  _reentrancyGuardStorage() */\n      tag_289\n        /* \"https://github.com/thirdweb-dev/contracts/blob/ee78bf9df7b7ac8bc8ded1c8ce91c31ef43cf73e/contracts/extension/upgradeable/ReentrancyGuard.sol\":1303:1326  _reentrancyGuardStorage */\n      tag_128\n        /* \"https://github.com/thirdweb-dev/contracts/blob/ee78bf9df7b7ac8bc8ded1c8ce91c31ef43cf73e/contracts/extension/upgradeable/ReentrancyGuard.sol\":1303:1328  _reentrancyGuardStorage() */\n      jump\t// in\n    tag_289:\n        /* \"https://github.com/thirdweb-dev/contracts/blob/ee78bf9df7b7ac8bc8ded1c8ce91c31ef43cf73e/contracts/extension/upgradeable/ReentrancyGuard.sol\":1303:1336  _reentrancyGuardStorage()._status */\n      0x00\n      add\n        /* \"https://github.com/thirdweb-dev/contracts/blob/ee78bf9df7b7ac8bc8ded1c8ce91c31ef43cf73e/contracts/extension/upgradeable/ReentrancyGuard.sol\":1303:1347  _reentrancyGuardStorage()._status = _ENTERED */\n      dup2\n      swap1\n      sstore\n      pop\n        /* \"gota.sol\":5817:5825  _pause() */\n      tag_291\n        /* \"gota.sol\":5817:5823  _pause */\n      tag_292\n        /* \"gota.sol\":5817:5825  _pause() */\n      jump\t// in\n    tag_291:\n        /* \"https://github.com/thirdweb-dev/contracts/blob/ee78bf9df7b7ac8bc8ded1c8ce91c31ef43cf73e/contracts/extension/upgradeable/ReentrancyGuard.sol\":805:806  1 */\n      0x01\n        /* \"https://github.com/thirdweb-dev/contracts/blob/ee78bf9df7b7ac8bc8ded1c8ce91c31ef43cf73e/contracts/extension/upgradeable/ReentrancyGuard.sol\":1502:1527  _reentrancyGuardStorage() */\n      tag_293\n        /* \"https://github.com/thirdweb-dev/contracts/blob/ee78bf9df7b7ac8bc8ded1c8ce91c31ef43cf73e/contracts/extension/upgradeable/ReentrancyGuard.sol\":1502:1525  _reentrancyGuardStorage */\n      tag_128\n        /* \"https://github.com/thirdweb-dev/contracts/blob/ee78bf9df7b7ac8bc8ded1c8ce91c31ef43cf73e/contracts/extension/upgradeable/ReentrancyGuard.sol\":1502:1527  _reentrancyGuardStorage() */\n      jump\t// in\n    tag_293:\n        /* \"https://github.com/thirdweb-dev/contracts/blob/ee78bf9df7b7ac8bc8ded1c8ce91c31ef43cf73e/contracts/extension/upgradeable/ReentrancyGuard.sol\":1502:1535  _reentrancyGuardStorage()._status */\n      0x00\n      add\n        /* \"https://github.com/thirdweb-dev/contracts/blob/ee78bf9df7b7ac8bc8ded1c8ce91c31ef43cf73e/contracts/extension/upgradeable/ReentrancyGuard.sol\":1502:1550  _reentrancyGuardStorage()._status = _NOT_ENTERED */\n      dup2\n      swap1\n      sstore\n      pop\n        /* \"gota.sol\":5758:5832  function pause() external onlyOwner nonReentrant {... */\n      jump\t// out\n        /* \"gota.sol\":6617:6726  function getAllListingIds() external view returns (uint256[] memory) {... */\n    tag_72:\n        /* \"gota.sol\":6668:6684  uint256[] memory */\n      0x60\n        /* \"gota.sol\":6703:6719  activeListingIds */\n      0x01\n        /* \"gota.sol\":6696:6719  return activeListingIds */\n      dup1\n      sload\n      dup1\n      0x20\n      mul\n      0x20\n      add\n      mload(0x40)\n      swap1\n      dup2\n      add\n      0x40\n      mstore\n      dup1\n      swap3\n      swap2\n      swap1\n      dup2\n      dup2\n      mstore\n      0x20\n      add\n      dup3\n      dup1\n      sload\n      dup1\n      iszero\n      tag_295\n      jumpi\n      0x20\n      mul\n      dup3\n      add\n      swap2\n      swap1\n      0x00\n      mstore\n      keccak256(0x00, 0x20)\n      swap1\n    tag_296:\n      dup2\n      sload\n      dup2\n      mstore\n      0x20\n      add\n      swap1\n      0x01\n      add\n      swap1\n      dup1\n      dup4\n      gt\n      tag_296\n      jumpi\n    tag_295:\n      pop\n      pop\n      pop\n      pop\n      pop\n      swap1\n      pop\n        /* \"gota.sol\":6617:6726  function getAllListingIds() external view returns (uint256[] memory) {... */\n      swap1\n      jump\t// out\n        /* \"gota.sol\":1113:1145  uint256 public royaltyPercentage */\n    tag_77:\n      sload(0x02)\n      dup2\n      jump\t// out\n        /* \"https://github.com/thirdweb-dev/contracts/blob/ee78bf9df7b7ac8bc8ded1c8ce91c31ef43cf73e/contracts/extension/upgradeable/Ownable.sol\":1353:1457  function owner() public view override returns (address) {... */\n    tag_82:\n        /* \"https://github.com/thirdweb-dev/contracts/blob/ee78bf9df7b7ac8bc8ded1c8ce91c31ef43cf73e/contracts/extension/upgradeable/Ownable.sol\":1400:1407  address */\n      0x00\n        /* \"https://github.com/thirdweb-dev/contracts/blob/ee78bf9df7b7ac8bc8ded1c8ce91c31ef43cf73e/contracts/extension/upgradeable/Ownable.sol\":1426:1443  _ownableStorage() */\n      tag_298\n        /* \"https://github.com/thirdweb-dev/contracts/blob/ee78bf9df7b7ac8bc8ded1c8ce91c31ef43cf73e/contracts/extension/upgradeable/Ownable.sol\":1426:1441  _ownableStorage */\n      tag_142\n        /* \"https://github.com/thirdweb-dev/contracts/blob/ee78bf9df7b7ac8bc8ded1c8ce91c31ef43cf73e/contracts/extension/upgradeable/Ownable.sol\":1426:1443  _ownableStorage() */\n      jump\t// in\n    tag_298:\n        /* \"https://github.com/thirdweb-dev/contracts/blob/ee78bf9df7b7ac8bc8ded1c8ce91c31ef43cf73e/contracts/extension/upgradeable/Ownable.sol\":1426:1450  _ownableStorage()._owner */\n      0x00\n      add\n      0x00\n      swap1\n      sload\n      swap1\n      0x0100\n      exp\n      swap1\n      div\n      0xffffffffffffffffffffffffffffffffffffffff\n      and\n        /* \"https://github.com/thirdweb-dev/contracts/blob/ee78bf9df7b7ac8bc8ded1c8ce91c31ef43cf73e/contracts/extension/upgradeable/Ownable.sol\":1419:1450  return _ownableStorage()._owner */\n      swap1\n      pop\n        /* \"https://github.com/thirdweb-dev/contracts/blob/ee78bf9df7b7ac8bc8ded1c8ce91c31ef43cf73e/contracts/extension/upgradeable/Ownable.sol\":1353:1457  function owner() public view override returns (address) {... */\n      swap1\n      jump\t// out\n        /* \"gota.sol\":1372:1404  uint256 public nextListingId = 1 */\n    tag_86:\n      sload(0x08)\n      dup2\n      jump\t// out\n        /* \"gota.sol\":1193:1222  address public royaltyAddress */\n    tag_90:\n      0x04\n      0x00\n      swap1\n      sload\n      swap1\n      0x0100\n      exp\n      swap1\n      div\n      0xffffffffffffffffffffffffffffffffffffffff\n      and\n      dup2\n      jump\t// out\n        /* \"gota.sol\":6732:7578  function getListingInfo(uint256 _listingId)... */\n    tag_95:\n        /* \"gota.sol\":6823:6841  TokenInfo[] memory */\n      0x60\n        /* \"gota.sol\":6857:6880  Listing storage listing */\n      0x00\n        /* \"gota.sol\":6883:6891  listings */\n      0x06\n        /* \"gota.sol\":6883:6903  listings[_listingId] */\n      0x00\n        /* \"gota.sol\":6892:6902  _listingId */\n      dup5\n        /* \"gota.sol\":6883:6903  listings[_listingId] */\n      dup2\n      mstore\n      0x20\n      add\n      swap1\n      dup2\n      mstore\n      0x20\n      add\n      0x00\n      keccak256\n        /* \"gota.sol\":6857:6903  Listing storage listing = listings[_listingId] */\n      swap1\n      pop\n        /* \"gota.sol\":6947:6948  0 */\n      0x00\n        /* \"gota.sol\":6921:6949  listing.seller != address(0) */\n      0xffffffffffffffffffffffffffffffffffffffff\n      and\n        /* \"gota.sol\":6921:6928  listing */\n      dup2\n        /* \"gota.sol\":6921:6935  listing.seller */\n      0x02\n      add\n      0x00\n      swap1\n      sload\n      swap1\n      0x0100\n      exp\n      swap1\n      div\n      0xffffffffffffffffffffffffffffffffffffffff\n      and\n        /* \"gota.sol\":6921:6949  listing.seller != address(0) */\n      0xffffffffffffffffffffffffffffffffffffffff\n      and\n      eq\n      iszero\n        /* \"gota.sol\":6913:6977  require(listing.seller != address(0), \"Listing does not exist.\") */\n      tag_300\n      jumpi\n      mload(0x40)\n      0x08c379a000000000000000000000000000000000000000000000000000000000\n      dup2\n      mstore\n      0x04\n      add\n      tag_301\n      swap1\n      tag_211\n      jump\t// in\n    tag_301:\n      mload(0x40)\n      dup1\n      swap2\n      sub\n      swap1\n      revert\n    tag_300:\n        /* \"gota.sol\":6987:7020  TokenInfo[] memory tokenInfoArray */\n      0x00\n        /* \"gota.sol\":7052:7059  listing */\n      dup2\n        /* \"gota.sol\":7052:7066  listing.nftIds */\n      0x01\n      add\n        /* \"gota.sol\":7052:7073  listing.nftIds.length */\n      dup1\n      sload\n      swap1\n      pop\n        /* \"gota.sol\":7023:7083  new TokenInfo[](... */\n      0xffffffffffffffff\n      dup2\n      gt\n      iszero\n      tag_302\n      jumpi\n      tag_303\n      tag_304\n      jump\t// in\n    tag_303:\n    tag_302:\n      mload(0x40)\n      swap1\n      dup1\n      dup3\n      mstore\n      dup1\n      0x20\n      mul\n      0x20\n      add\n      dup3\n      add\n      0x40\n      mstore\n      dup1\n      iszero\n      tag_305\n      jumpi\n      dup2\n      0x20\n      add\n    tag_306:\n      tag_307\n      tag_308\n      jump\t// in\n    tag_307:\n      dup2\n      mstore\n      0x20\n      add\n      swap1\n      0x01\n      swap1\n      sub\n      swap1\n      dup2\n      tag_306\n      jumpi\n      swap1\n      pop\n    tag_305:\n      pop\n        /* \"gota.sol\":6987:7083  TokenInfo[] memory tokenInfoArray = new TokenInfo[](... */\n      swap1\n      pop\n        /* \"gota.sol\":7098:7107  uint256 i */\n      0x00\n        /* \"gota.sol\":7093:7541  for (uint256 i = 0; i < listing.nftIds.length; i++) {... */\n    tag_309:\n        /* \"gota.sol\":7117:7124  listing */\n      dup3\n        /* \"gota.sol\":7117:7131  listing.nftIds */\n      0x01\n      add\n        /* \"gota.sol\":7117:7138  listing.nftIds.length */\n      dup1\n      sload\n      swap1\n      pop\n        /* \"gota.sol\":7113:7114  i */\n      dup2\n        /* \"gota.sol\":7113:7138  i < listing.nftIds.length */\n      lt\n        /* \"gota.sol\":7093:7541  for (uint256 i = 0; i < listing.nftIds.length; i++) {... */\n      iszero\n      tag_310\n      jumpi\n        /* \"gota.sol\":7159:7173  uint256 _nftId */\n      0x00\n        /* \"gota.sol\":7176:7183  listing */\n      dup4\n        /* \"gota.sol\":7176:7190  listing.nftIds */\n      0x01\n      add\n        /* \"gota.sol\":7191:7192  i */\n      dup3\n        /* \"gota.sol\":7176:7193  listing.nftIds[i] */\n      dup2\n      sload\n      dup2\n      lt\n      tag_312\n      jumpi\n      tag_313\n      tag_177\n      jump\t// in\n    tag_313:\n    tag_312:\n      swap1\n      0x00\n      mstore\n      keccak256(0x00, 0x20)\n      add\n      sload\n        /* \"gota.sol\":7159:7193  uint256 _nftId = listing.nftIds[i] */\n      swap1\n      pop\n        /* \"gota.sol\":7207:7238  string memory tokenMetadataLink */\n      0x00\n        /* \"gota.sol\":7207:7243  string memory tokenMetadataLink = \"\" */\n      mload(0x40)\n      dup1\n      0x20\n      add\n      0x40\n      mstore\n      dup1\n      0x00\n      dup2\n      mstore\n      pop\n      swap1\n      pop\n        /* \"gota.sol\":7293:7300  listing */\n      dup5\n        /* \"gota.sol\":7293:7319  listing.nftContractAddress */\n      0x00\n      add\n      0x00\n      swap1\n      sload\n      swap1\n      0x0100\n      exp\n      swap1\n      div\n      0xffffffffffffffffffffffffffffffffffffffff\n      and\n        /* \"gota.sol\":7277:7329  IERC721Metadata(listing.nftContractAddress).tokenURI */\n      0xffffffffffffffffffffffffffffffffffffffff\n      and\n      0xc87b56dd\n        /* \"gota.sol\":7330:7336  _nftId */\n      dup4\n        /* \"gota.sol\":7277:7337  IERC721Metadata(listing.nftContractAddress).tokenURI(_nftId) */\n      mload(0x40)\n      dup3\n      0xffffffff\n      and\n      0xe0\n      shl\n      dup2\n      mstore\n      0x04\n      add\n      tag_315\n      swap2\n      swap1\n      tag_79\n      jump\t// in\n    tag_315:\n      0x00\n      mload(0x40)\n      dup1\n      dup4\n      sub\n      dup2\n      dup7\n      gas\n      staticcall\n      swap3\n      pop\n      pop\n      pop\n      dup1\n      iszero\n      tag_316\n      jumpi\n      pop\n      mload(0x40)\n      returndatasize\n      0x00\n      dup3\n      returndatacopy\n      returndatasize\n      not(0x1f)\n      0x1f\n      dup3\n      add\n      and\n      dup3\n      add\n      dup1\n      0x40\n      mstore\n      pop\n      dup2\n      add\n      swap1\n      tag_317\n      swap2\n      swap1\n      tag_318\n      jump\t// in\n    tag_317:\n      0x01\n    tag_316:\n        /* \"gota.sol\":7257:7461  try... */\n      tag_319\n      jumpi\n      jump(tag_323)\n    tag_319:\n        /* \"gota.sol\":7425:7437  metadataLink */\n      dup1\n        /* \"gota.sol\":7405:7437  tokenMetadataLink = metadataLink */\n      swap2\n      pop\n        /* \"gota.sol\":7350:7452  returns (string memory metadataLink) {... */\n      pop\n        /* \"gota.sol\":7257:7461  try... */\n    tag_323:\n        /* \"gota.sol\":7494:7530  TokenInfo(_nftId, tokenMetadataLink) */\n      mload(0x40)\n      dup1\n      0x40\n      add\n      0x40\n      mstore\n      dup1\n        /* \"gota.sol\":7504:7510  _nftId */\n      dup4\n        /* \"gota.sol\":7494:7530  TokenInfo(_nftId, tokenMetadataLink) */\n      dup2\n      mstore\n      0x20\n      add\n        /* \"gota.sol\":7512:7529  tokenMetadataLink */\n      dup3\n        /* \"gota.sol\":7494:7530  TokenInfo(_nftId, tokenMetadataLink) */\n      dup2\n      mstore\n      pop\n        /* \"gota.sol\":7474:7488  tokenInfoArray */\n      dup5\n        /* \"gota.sol\":7489:7490  i */\n      dup5\n        /* \"gota.sol\":7474:7491  tokenInfoArray[i] */\n      dup2\n      mload\n      dup2\n      lt\n      tag_324\n      jumpi\n      tag_325\n      tag_177\n      jump\t// in\n    tag_325:\n    tag_324:\n      0x20\n      mul\n      0x20\n      add\n      add\n        /* \"gota.sol\":7474:7530  tokenInfoArray[i] = TokenInfo(_nftId, tokenMetadataLink) */\n      dup2\n      swap1\n      mstore\n      pop\n        /* \"gota.sol\":7145:7541  {... */\n      pop\n      pop\n        /* \"gota.sol\":7140:7143  i++ */\n      dup1\n      dup1\n      tag_326\n      swap1\n      tag_187\n      jump\t// in\n    tag_326:\n      swap2\n      pop\n      pop\n        /* \"gota.sol\":7093:7541  for (uint256 i = 0; i < listing.nftIds.length; i++) {... */\n      jump(tag_309)\n    tag_310:\n      pop\n        /* \"gota.sol\":7557:7571  tokenInfoArray */\n      dup1\n        /* \"gota.sol\":7550:7571  return tokenInfoArray */\n      swap3\n      pop\n      pop\n      pop\n        /* \"gota.sol\":6732:7578  function getListingInfo(uint256 _listingId)... */\n      swap2\n      swap1\n      pop\n      jump\t// out\n        /* \"gota.sol\":1151:1187  uint256 public platformFeePercentage */\n    tag_100:\n      sload(0x03)\n      dup2\n      jump\t// out\n        /* \"gota.sol\":1268:1311  mapping(uint256 => Listing) public listings */\n    tag_105:\n      mstore(0x20, 0x06)\n      dup1\n      0x00\n      mstore\n      keccak256(0x00, 0x40)\n      0x00\n      swap2\n      pop\n      swap1\n      pop\n      dup1\n      0x00\n      add\n      0x00\n      swap1\n      sload\n      swap1\n      0x0100\n      exp\n      swap1\n      div\n      0xffffffffffffffffffffffffffffffffffffffff\n      and\n      swap1\n      dup1\n      0x02\n      add\n      0x00\n      swap1\n      sload\n      swap1\n      0x0100\n      exp\n      swap1\n      div\n      0xffffffffffffffffffffffffffffffffffffffff\n      and\n      swap1\n      dup1\n      0x03\n      add\n      sload\n      swap1\n      dup1\n      0x04\n      add\n      sload\n      swap1\n      pop\n      dup5\n      jump\t// out\n        /* \"gota.sol\":1074:1107  uint256[] public activeListingIds */\n    tag_111:\n      0x01\n      dup2\n      dup2\n      sload\n      dup2\n      lt\n      tag_327\n      jumpi\n      0x00\n      dup1\n      revert\n    tag_327:\n      swap1\n      0x00\n      mstore\n      keccak256(0x00, 0x20)\n      add\n      0x00\n      swap2\n      pop\n      swap1\n      pop\n      sload\n      dup2\n      jump\t// out\n        /* \"gota.sol\":1228:1261  address public platformFeeAddress */\n    tag_115:\n      0x05\n      0x00\n      swap1\n      sload\n      swap1\n      0x0100\n      exp\n      swap1\n      div\n      0xffffffffffffffffffffffffffffffffffffffff\n      and\n      dup2\n      jump\t// out\n        /* \"https://github.com/thirdweb-dev/contracts/blob/ee78bf9df7b7ac8bc8ded1c8ce91c31ef43cf73e/contracts/extension/upgradeable/ReentrancyGuard.sol\":529:721  function data() internal pure returns (Data storage data_) {... */\n    tag_117:\n        /* \"https://github.com/thirdweb-dev/contracts/blob/ee78bf9df7b7ac8bc8ded1c8ce91c31ef43cf73e/contracts/extension/upgradeable/ReentrancyGuard.sol\":568:586  Data storage data_ */\n      0x00\n        /* \"https://github.com/thirdweb-dev/contracts/blob/ee78bf9df7b7ac8bc8ded1c8ce91c31ef43cf73e/contracts/extension/upgradeable/ReentrancyGuard.sol\":598:614  bytes32 position */\n      dup1\n        /* \"https://github.com/thirdweb-dev/contracts/blob/ee78bf9df7b7ac8bc8ded1c8ce91c31ef43cf73e/contracts/extension/upgradeable/ReentrancyGuard.sol\":406:472  0x1d281c488dae143b6ea4122e80c65059929950b9c32f17fc57be22089d9c3b00 */\n      0x1d281c488dae143b6ea4122e80c65059929950b9c32f17fc57be22089d9c3b00\n        /* \"https://github.com/thirdweb-dev/contracts/blob/ee78bf9df7b7ac8bc8ded1c8ce91c31ef43cf73e/contracts/extension/upgradeable/ReentrancyGuard.sol\":617:650  REENTRANCY_GUARD_STORAGE_POSITION */\n      0x00\n      shl\n        /* \"https://github.com/thirdweb-dev/contracts/blob/ee78bf9df7b7ac8bc8ded1c8ce91c31ef43cf73e/contracts/extension/upgradeable/ReentrancyGuard.sol\":598:650  bytes32 position = REENTRANCY_GUARD_STORAGE_POSITION */\n      swap1\n      pop\n        /* \"https://github.com/thirdweb-dev/contracts/blob/ee78bf9df7b7ac8bc8ded1c8ce91c31ef43cf73e/contracts/extension/upgradeable/ReentrancyGuard.sol\":697:705  position */\n      dup1\n        /* \"https://github.com/thirdweb-dev/contracts/blob/ee78bf9df7b7ac8bc8ded1c8ce91c31ef43cf73e/contracts/extension/upgradeable/ReentrancyGuard.sol\":683:705  data_.slot := position */\n      swap2\n      pop\n        /* \"https://github.com/thirdweb-dev/contracts/blob/ee78bf9df7b7ac8bc8ded1c8ce91c31ef43cf73e/contracts/extension/upgradeable/ReentrancyGuard.sol\":669:715  {... */\n      pop\n        /* \"https://github.com/thirdweb-dev/contracts/blob/ee78bf9df7b7ac8bc8ded1c8ce91c31ef43cf73e/contracts/extension/upgradeable/ReentrancyGuard.sol\":529:721  function data() internal pure returns (Data storage data_) {... */\n      swap1\n      jump\t// out\n        /* \"gota.sol\":2336:2434  function _canSetOwner() internal view virtual override returns (bool) {... */\n    tag_120:\n        /* \"gota.sol\":2400:2404  bool */\n      0x00\n        /* \"gota.sol\":2423:2427  true */\n      0x01\n        /* \"gota.sol\":2416:2427  return true */\n      swap1\n      pop\n        /* \"gota.sol\":2336:2434  function _canSetOwner() internal view virtual override returns (bool) {... */\n      swap1\n      jump\t// out\n        /* \"https://github.com/thirdweb-dev/contracts/blob/ee78bf9df7b7ac8bc8ded1c8ce91c31ef43cf73e/contracts/extension/upgradeable/Ownable.sol\":1921:2129  function _setupOwner(address _newOwner) internal {... */\n    tag_125:\n        /* \"https://github.com/thirdweb-dev/contracts/blob/ee78bf9df7b7ac8bc8ded1c8ce91c31ef43cf73e/contracts/extension/upgradeable/Ownable.sol\":1980:1998  address _prevOwner */\n      0x00\n        /* \"https://github.com/thirdweb-dev/contracts/blob/ee78bf9df7b7ac8bc8ded1c8ce91c31ef43cf73e/contracts/extension/upgradeable/Ownable.sol\":2001:2018  _ownableStorage() */\n      tag_332\n        /* \"https://github.com/thirdweb-dev/contracts/blob/ee78bf9df7b7ac8bc8ded1c8ce91c31ef43cf73e/contracts/extension/upgradeable/Ownable.sol\":2001:2016  _ownableStorage */\n      tag_142\n        /* \"https://github.com/thirdweb-dev/contracts/blob/ee78bf9df7b7ac8bc8ded1c8ce91c31ef43cf73e/contracts/extension/upgradeable/Ownable.sol\":2001:2018  _ownableStorage() */\n      jump\t// in\n    tag_332:\n        /* \"https://github.com/thirdweb-dev/contracts/blob/ee78bf9df7b7ac8bc8ded1c8ce91c31ef43cf73e/contracts/extension/upgradeable/Ownable.sol\":2001:2025  _ownableStorage()._owner */\n      0x00\n      add\n      0x00\n      swap1\n      sload\n      swap1\n      0x0100\n      exp\n      swap1\n      div\n      0xffffffffffffffffffffffffffffffffffffffff\n      and\n        /* \"https://github.com/thirdweb-dev/contracts/blob/ee78bf9df7b7ac8bc8ded1c8ce91c31ef43cf73e/contracts/extension/upgradeable/Ownable.sol\":1980:2025  address _prevOwner = _ownableStorage()._owner */\n      swap1\n      pop\n        /* \"https://github.com/thirdweb-dev/contracts/blob/ee78bf9df7b7ac8bc8ded1c8ce91c31ef43cf73e/contracts/extension/upgradeable/Ownable.sol\":2062:2071  _newOwner */\n      dup2\n        /* \"https://github.com/thirdweb-dev/contracts/blob/ee78bf9df7b7ac8bc8ded1c8ce91c31ef43cf73e/contracts/extension/upgradeable/Ownable.sol\":2035:2052  _ownableStorage() */\n      tag_333\n        /* \"https://github.com/thirdweb-dev/contracts/blob/ee78bf9df7b7ac8bc8ded1c8ce91c31ef43cf73e/contracts/extension/upgradeable/Ownable.sol\":2035:2050  _ownableStorage */\n      tag_142\n        /* \"https://github.com/thirdweb-dev/contracts/blob/ee78bf9df7b7ac8bc8ded1c8ce91c31ef43cf73e/contracts/extension/upgradeable/Ownable.sol\":2035:2052  _ownableStorage() */\n      jump\t// in\n    tag_333:\n        /* \"https://github.com/thirdweb-dev/contracts/blob/ee78bf9df7b7ac8bc8ded1c8ce91c31ef43cf73e/contracts/extension/upgradeable/Ownable.sol\":2035:2059  _ownableStorage()._owner */\n      0x00\n      add\n      0x00\n        /* \"https://github.com/thirdweb-dev/contracts/blob/ee78bf9df7b7ac8bc8ded1c8ce91c31ef43cf73e/contracts/extension/upgradeable/Ownable.sol\":2035:2071  _ownableStorage()._owner = _newOwner */\n      0x0100\n      exp\n      dup2\n      sload\n      dup2\n      0xffffffffffffffffffffffffffffffffffffffff\n      mul\n      not\n      and\n      swap1\n      dup4\n      0xffffffffffffffffffffffffffffffffffffffff\n      and\n      mul\n      or\n      swap1\n      sstore\n      pop\n        /* \"https://github.com/thirdweb-dev/contracts/blob/ee78bf9df7b7ac8bc8ded1c8ce91c31ef43cf73e/contracts/extension/upgradeable/Ownable.sol\":2112:2121  _newOwner */\n      dup2\n        /* \"https://github.com/thirdweb-dev/contracts/blob/ee78bf9df7b7ac8bc8ded1c8ce91c31ef43cf73e/contracts/extension/upgradeable/Ownable.sol\":2087:2122  OwnerUpdated(_prevOwner, _newOwner) */\n      0xffffffffffffffffffffffffffffffffffffffff\n      and\n        /* \"https://github.com/thirdweb-dev/contracts/blob/ee78bf9df7b7ac8bc8ded1c8ce91c31ef43cf73e/contracts/extension/upgradeable/Ownable.sol\":2100:2110  _prevOwner */\n      dup2\n        /* \"https://github.com/thirdweb-dev/contracts/blob/ee78bf9df7b7ac8bc8ded1c8ce91c31ef43cf73e/contracts/extension/upgradeable/Ownable.sol\":2087:2122  OwnerUpdated(_prevOwner, _newOwner) */\n      0xffffffffffffffffffffffffffffffffffffffff\n      and\n      0x8292fce18fa69edf4db7b94ea2e58241df0ae57f97e0a6c9b29067028bf92d76\n      mload(0x40)\n      mload(0x40)\n      dup1\n      swap2\n      sub\n      swap1\n      log3\n        /* \"https://github.com/thirdweb-dev/contracts/blob/ee78bf9df7b7ac8bc8ded1c8ce91c31ef43cf73e/contracts/extension/upgradeable/Ownable.sol\":1970:2129  {... */\n      pop\n        /* \"https://github.com/thirdweb-dev/contracts/blob/ee78bf9df7b7ac8bc8ded1c8ce91c31ef43cf73e/contracts/extension/upgradeable/Ownable.sol\":1921:2129  function _setupOwner(address _newOwner) internal {... */\n      pop\n      jump\t// out\n        /* \"https://github.com/thirdweb-dev/contracts/blob/ee78bf9df7b7ac8bc8ded1c8ce91c31ef43cf73e/contracts/extension/upgradeable/ReentrancyGuard.sol\":1613:1766  function _reentrancyGuardStorage() internal pure returns (ReentrancyGuardStorage.Data storage data) {... */\n    tag_128:\n        /* \"https://github.com/thirdweb-dev/contracts/blob/ee78bf9df7b7ac8bc8ded1c8ce91c31ef43cf73e/contracts/extension/upgradeable/ReentrancyGuard.sol\":1671:1711  ReentrancyGuardStorage.Data storage data */\n      0x00\n        /* \"https://github.com/thirdweb-dev/contracts/blob/ee78bf9df7b7ac8bc8ded1c8ce91c31ef43cf73e/contracts/extension/upgradeable/ReentrancyGuard.sol\":1730:1759  ReentrancyGuardStorage.data() */\n      tag_335\n        /* \"https://github.com/thirdweb-dev/contracts/blob/ee78bf9df7b7ac8bc8ded1c8ce91c31ef43cf73e/contracts/extension/upgradeable/ReentrancyGuard.sol\":1730:1757  ReentrancyGuardStorage.data */\n      tag_117\n        /* \"https://github.com/thirdweb-dev/contracts/blob/ee78bf9df7b7ac8bc8ded1c8ce91c31ef43cf73e/contracts/extension/upgradeable/ReentrancyGuard.sol\":1730:1759  ReentrancyGuardStorage.data() */\n      jump\t// in\n    tag_335:\n        /* \"https://github.com/thirdweb-dev/contracts/blob/ee78bf9df7b7ac8bc8ded1c8ce91c31ef43cf73e/contracts/extension/upgradeable/ReentrancyGuard.sol\":1723:1759  data = ReentrancyGuardStorage.data() */\n      swap1\n      pop\n        /* \"https://github.com/thirdweb-dev/contracts/blob/ee78bf9df7b7ac8bc8ded1c8ce91c31ef43cf73e/contracts/extension/upgradeable/ReentrancyGuard.sol\":1613:1766  function _reentrancyGuardStorage() internal pure returns (ReentrancyGuardStorage.Data storage data) {... */\n      swap1\n      jump\t// out\n        /* \"https://github.com/thirdweb-dev/contracts/blob/ee78bf9df7b7ac8bc8ded1c8ce91c31ef43cf73e/contracts/extension/upgradeable/Ownable.sol\":2177:2306  function _ownableStorage() internal pure returns (OwnableStorage.Data storage data) {... */\n    tag_142:\n        /* \"https://github.com/thirdweb-dev/contracts/blob/ee78bf9df7b7ac8bc8ded1c8ce91c31ef43cf73e/contracts/extension/upgradeable/Ownable.sol\":2227:2259  OwnableStorage.Data storage data */\n      0x00\n        /* \"https://github.com/thirdweb-dev/contracts/blob/ee78bf9df7b7ac8bc8ded1c8ce91c31ef43cf73e/contracts/extension/upgradeable/Ownable.sol\":2278:2299  OwnableStorage.data() */\n      tag_337\n        /* \"https://github.com/thirdweb-dev/contracts/blob/ee78bf9df7b7ac8bc8ded1c8ce91c31ef43cf73e/contracts/extension/upgradeable/Ownable.sol\":2278:2297  OwnableStorage.data */\n      tag_338\n        /* \"https://github.com/thirdweb-dev/contracts/blob/ee78bf9df7b7ac8bc8ded1c8ce91c31ef43cf73e/contracts/extension/upgradeable/Ownable.sol\":2278:2299  OwnableStorage.data() */\n      jump\t// in\n    tag_337:\n        /* \"https://github.com/thirdweb-dev/contracts/blob/ee78bf9df7b7ac8bc8ded1c8ce91c31ef43cf73e/contracts/extension/upgradeable/Ownable.sol\":2271:2299  data = OwnableStorage.data() */\n      swap1\n      pop\n        /* \"https://github.com/thirdweb-dev/contracts/blob/ee78bf9df7b7ac8bc8ded1c8ce91c31ef43cf73e/contracts/extension/upgradeable/Ownable.sol\":2177:2306  function _ownableStorage() internal pure returns (OwnableStorage.Data storage data) {... */\n      swap1\n      jump\t// out\n        /* \"https://github.com/OpenZeppelin/openzeppelin-contracts/blob/release-v4.9/contracts/security/Pausable.sol\":2433:2550  function _unpause() internal virtual whenPaused {... */\n    tag_152:\n        /* \"https://github.com/OpenZeppelin/openzeppelin-contracts/blob/release-v4.9/contracts/security/Pausable.sol\":1486:1502  _requirePaused() */\n      tag_340\n        /* \"https://github.com/OpenZeppelin/openzeppelin-contracts/blob/release-v4.9/contracts/security/Pausable.sol\":1486:1500  _requirePaused */\n      tag_341\n        /* \"https://github.com/OpenZeppelin/openzeppelin-contracts/blob/release-v4.9/contracts/security/Pausable.sol\":1486:1502  _requirePaused() */\n      jump\t// in\n    tag_340:\n        /* \"https://github.com/OpenZeppelin/openzeppelin-contracts/blob/release-v4.9/contracts/security/Pausable.sol\":2501:2506  false */\n      0x00\n        /* \"https://github.com/OpenZeppelin/openzeppelin-contracts/blob/release-v4.9/contracts/security/Pausable.sol\":2491:2498  _paused */\n      dup1\n      0x00\n        /* \"https://github.com/OpenZeppelin/openzeppelin-contracts/blob/release-v4.9/contracts/security/Pausable.sol\":2491:2506  _paused = false */\n      0x0100\n      exp\n      dup2\n      sload\n      dup2\n      0xff\n      mul\n      not\n      and\n      swap1\n      dup4\n      iszero\n      iszero\n      mul\n      or\n      swap1\n      sstore\n      pop\n        /* \"https://github.com/OpenZeppelin/openzeppelin-contracts/blob/release-v4.9/contracts/security/Pausable.sol\":2521:2543  Unpaused(_msgSender()) */\n      0x5db9ee0a495bf2e6ff9c91a7834c1ba4fdd244a5e8aa4e537bd38aeae4b073aa\n        /* \"https://github.com/OpenZeppelin/openzeppelin-contracts/blob/release-v4.9/contracts/security/Pausable.sol\":2530:2542  _msgSender() */\n      tag_343\n        /* \"https://github.com/OpenZeppelin/openzeppelin-contracts/blob/release-v4.9/contracts/security/Pausable.sol\":2530:2540  _msgSender */\n      tag_344\n        /* \"https://github.com/OpenZeppelin/openzeppelin-contracts/blob/release-v4.9/contracts/security/Pausable.sol\":2530:2542  _msgSender() */\n      jump\t// in\n    tag_343:\n        /* \"https://github.com/OpenZeppelin/openzeppelin-contracts/blob/release-v4.9/contracts/security/Pausable.sol\":2521:2543  Unpaused(_msgSender()) */\n      mload(0x40)\n      tag_345\n      swap2\n      swap1\n      tag_66\n      jump\t// in\n    tag_345:\n      mload(0x40)\n      dup1\n      swap2\n      sub\n      swap1\n      log1\n        /* \"https://github.com/OpenZeppelin/openzeppelin-contracts/blob/release-v4.9/contracts/security/Pausable.sol\":2433:2550  function _unpause() internal virtual whenPaused {... */\n      jump\t// out\n        /* \"https://github.com/OpenZeppelin/openzeppelin-contracts/blob/release-v4.9/contracts/security/Pausable.sol\":1767:1873  function _requireNotPaused() internal view virtual {... */\n    tag_156:\n        /* \"https://github.com/OpenZeppelin/openzeppelin-contracts/blob/release-v4.9/contracts/security/Pausable.sol\":1837:1845  paused() */\n      tag_347\n        /* \"https://github.com/OpenZeppelin/openzeppelin-contracts/blob/release-v4.9/contracts/security/Pausable.sol\":1837:1843  paused */\n      tag_48\n        /* \"https://github.com/OpenZeppelin/openzeppelin-contracts/blob/release-v4.9/contracts/security/Pausable.sol\":1837:1845  paused() */\n      jump\t// in\n    tag_347:\n        /* \"https://github.com/OpenZeppelin/openzeppelin-contracts/blob/release-v4.9/contracts/security/Pausable.sol\":1836:1845  !paused() */\n      iszero\n        /* \"https://github.com/OpenZeppelin/openzeppelin-contracts/blob/release-v4.9/contracts/security/Pausable.sol\":1828:1866  require(!paused(), \"Pausable: paused\") */\n      tag_348\n      jumpi\n      mload(0x40)\n      0x08c379a000000000000000000000000000000000000000000000000000000000\n      dup2\n      mstore\n      0x04\n      add\n      tag_349\n      swap1\n      tag_350\n      jump\t// in\n    tag_349:\n      mload(0x40)\n      dup1\n      swap2\n      sub\n      swap1\n      revert\n    tag_348:\n        /* \"https://github.com/OpenZeppelin/openzeppelin-contracts/blob/release-v4.9/contracts/security/Pausable.sol\":1767:1873  function _requireNotPaused() internal view virtual {... */\n      jump\t// out\n        /* \"https://github.com/OpenZeppelin/openzeppelin-contracts/blob/release-v4.9/contracts/security/Pausable.sol\":2186:2301  function _pause() internal virtual whenNotPaused {... */\n    tag_292:\n        /* \"https://github.com/OpenZeppelin/openzeppelin-contracts/blob/release-v4.9/contracts/security/Pausable.sol\":1239:1258  _requireNotPaused() */\n      tag_352\n        /* \"https://github.com/OpenZeppelin/openzeppelin-contracts/blob/release-v4.9/contracts/security/Pausable.sol\":1239:1256  _requireNotPaused */\n      tag_156\n        /* \"https://github.com/OpenZeppelin/openzeppelin-contracts/blob/release-v4.9/contracts/security/Pausable.sol\":1239:1258  _requireNotPaused() */\n      jump\t// in\n    tag_352:\n        /* \"https://github.com/OpenZeppelin/openzeppelin-contracts/blob/release-v4.9/contracts/security/Pausable.sol\":2255:2259  true */\n      0x01\n        /* \"https://github.com/OpenZeppelin/openzeppelin-contracts/blob/release-v4.9/contracts/security/Pausable.sol\":2245:2252  _paused */\n      0x00\n      dup1\n        /* \"https://github.com/OpenZeppelin/openzeppelin-contracts/blob/release-v4.9/contracts/security/Pausable.sol\":2245:2259  _paused = true */\n      0x0100\n      exp\n      dup2\n      sload\n      dup2\n      0xff\n      mul\n      not\n      and\n      swap1\n      dup4\n      iszero\n      iszero\n      mul\n      or\n      swap1\n      sstore\n      pop\n        /* \"https://github.com/OpenZeppelin/openzeppelin-contracts/blob/release-v4.9/contracts/security/Pausable.sol\":2274:2294  Paused(_msgSender()) */\n      0x62e78cea01bee320cd4e420270b5ea74000d11b0c9f74754ebdbfc544b05a258\n        /* \"https://github.com/OpenZeppelin/openzeppelin-contracts/blob/release-v4.9/contracts/security/Pausable.sol\":2281:2293  _msgSender() */\n      tag_354\n        /* \"https://github.com/OpenZeppelin/openzeppelin-contracts/blob/release-v4.9/contracts/security/Pausable.sol\":2281:2291  _msgSender */\n      tag_344\n        /* \"https://github.com/OpenZeppelin/openzeppelin-contracts/blob/release-v4.9/contracts/security/Pausable.sol\":2281:2293  _msgSender() */\n      jump\t// in\n    tag_354:\n        /* \"https://github.com/OpenZeppelin/openzeppelin-contracts/blob/release-v4.9/contracts/security/Pausable.sol\":2274:2294  Paused(_msgSender()) */\n      mload(0x40)\n      tag_355\n      swap2\n      swap1\n      tag_66\n      jump\t// in\n    tag_355:\n      mload(0x40)\n      dup1\n      swap2\n      sub\n      swap1\n      log1\n        /* \"https://github.com/OpenZeppelin/openzeppelin-contracts/blob/release-v4.9/contracts/security/Pausable.sol\":2186:2301  function _pause() internal virtual whenNotPaused {... */\n      jump\t// out\n        /* \"https://github.com/thirdweb-dev/contracts/blob/ee78bf9df7b7ac8bc8ded1c8ce91c31ef43cf73e/contracts/extension/upgradeable/Ownable.sol\":859:1042  function data() internal pure returns (Data storage data_) {... */\n    tag_338:\n        /* \"https://github.com/thirdweb-dev/contracts/blob/ee78bf9df7b7ac8bc8ded1c8ce91c31ef43cf73e/contracts/extension/upgradeable/Ownable.sol\":898:916  Data storage data_ */\n      0x00\n        /* \"https://github.com/thirdweb-dev/contracts/blob/ee78bf9df7b7ac8bc8ded1c8ce91c31ef43cf73e/contracts/extension/upgradeable/Ownable.sol\":928:944  bytes32 position */\n      dup1\n        /* \"https://github.com/thirdweb-dev/contracts/blob/ee78bf9df7b7ac8bc8ded1c8ce91c31ef43cf73e/contracts/extension/upgradeable/Ownable.sol\":725:729  0xff */\n      0xff\n        /* \"https://github.com/thirdweb-dev/contracts/blob/ee78bf9df7b7ac8bc8ded1c8ce91c31ef43cf73e/contracts/extension/upgradeable/Ownable.sol\":709:731  bytes32(uint256(0xff)) */\n      0x00\n      shl\n        /* \"https://github.com/thirdweb-dev/contracts/blob/ee78bf9df7b7ac8bc8ded1c8ce91c31ef43cf73e/contracts/extension/upgradeable/Ownable.sol\":708:731  ~bytes32(uint256(0xff)) */\n      not\n        /* \"https://github.com/thirdweb-dev/contracts/blob/ee78bf9df7b7ac8bc8ded1c8ce91c31ef43cf73e/contracts/extension/upgradeable/Ownable.sol\":702:703  1 */\n      0x01\n        /* \"https://github.com/thirdweb-dev/contracts/blob/ee78bf9df7b7ac8bc8ded1c8ce91c31ef43cf73e/contracts/extension/upgradeable/Ownable.sol\":670:698  keccak256(\"ownable.storage\") */\n      0xfa02b2ade2dba28b48a24f204a68d8c0005ca2ccfd58c765cdddd023319a9b3f\n        /* \"https://github.com/thirdweb-dev/contracts/blob/ee78bf9df7b7ac8bc8ded1c8ce91c31ef43cf73e/contracts/extension/upgradeable/Ownable.sol\":662:699  uint256(keccak256(\"ownable.storage\")) */\n      0x00\n      shr\n        /* \"https://github.com/thirdweb-dev/contracts/blob/ee78bf9df7b7ac8bc8ded1c8ce91c31ef43cf73e/contracts/extension/upgradeable/Ownable.sol\":662:703  uint256(keccak256(\"ownable.storage\")) - 1 */\n      tag_357\n      swap2\n      swap1\n      tag_225\n      jump\t// in\n    tag_357:\n        /* \"https://github.com/thirdweb-dev/contracts/blob/ee78bf9df7b7ac8bc8ded1c8ce91c31ef43cf73e/contracts/extension/upgradeable/Ownable.sol\":651:704  abi.encode(uint256(keccak256(\"ownable.storage\")) - 1) */\n      add(0x20, mload(0x40))\n      tag_358\n      swap2\n      swap1\n      tag_79\n      jump\t// in\n    tag_358:\n      mload(0x40)\n      0x20\n      dup2\n      dup4\n      sub\n      sub\n      dup2\n      mstore\n      swap1\n      0x40\n      mstore\n        /* \"https://github.com/thirdweb-dev/contracts/blob/ee78bf9df7b7ac8bc8ded1c8ce91c31ef43cf73e/contracts/extension/upgradeable/Ownable.sol\":641:705  keccak256(abi.encode(uint256(keccak256(\"ownable.storage\")) - 1)) */\n      dup1\n      mload\n      swap1\n      0x20\n      add\n      keccak256\n        /* \"https://github.com/thirdweb-dev/contracts/blob/ee78bf9df7b7ac8bc8ded1c8ce91c31ef43cf73e/contracts/extension/upgradeable/Ownable.sol\":641:731  keccak256(abi.encode(uint256(keccak256(\"ownable.storage\")) - 1)) & ~bytes32(uint256(0xff)) */\n      and\n        /* \"https://github.com/thirdweb-dev/contracts/blob/ee78bf9df7b7ac8bc8ded1c8ce91c31ef43cf73e/contracts/extension/upgradeable/Ownable.sol\":928:971  bytes32 position = OWNABLE_STORAGE_POSITION */\n      swap1\n      pop\n        /* \"https://github.com/thirdweb-dev/contracts/blob/ee78bf9df7b7ac8bc8ded1c8ce91c31ef43cf73e/contracts/extension/upgradeable/Ownable.sol\":1018:1026  position */\n      dup1\n        /* \"https://github.com/thirdweb-dev/contracts/blob/ee78bf9df7b7ac8bc8ded1c8ce91c31ef43cf73e/contracts/extension/upgradeable/Ownable.sol\":1004:1026  data_.slot := position */\n      swap2\n      pop\n        /* \"https://github.com/thirdweb-dev/contracts/blob/ee78bf9df7b7ac8bc8ded1c8ce91c31ef43cf73e/contracts/extension/upgradeable/Ownable.sol\":990:1036  {... */\n      pop\n        /* \"https://github.com/thirdweb-dev/contracts/blob/ee78bf9df7b7ac8bc8ded1c8ce91c31ef43cf73e/contracts/extension/upgradeable/Ownable.sol\":859:1042  function data() internal pure returns (Data storage data_) {... */\n      swap1\n      jump\t// out\n        /* \"https://github.com/OpenZeppelin/openzeppelin-contracts/blob/release-v4.9/contracts/security/Pausable.sol\":1945:2051  function _requirePaused() internal view virtual {... */\n    tag_341:\n        /* \"https://github.com/OpenZeppelin/openzeppelin-contracts/blob/release-v4.9/contracts/security/Pausable.sol\":2011:2019  paused() */\n      tag_360\n        /* \"https://github.com/OpenZeppelin/openzeppelin-contracts/blob/release-v4.9/contracts/security/Pausable.sol\":2011:2017  paused */\n      tag_48\n        /* \"https://github.com/OpenZeppelin/openzeppelin-contracts/blob/release-v4.9/contracts/security/Pausable.sol\":2011:2019  paused() */\n      jump\t// in\n    tag_360:\n        /* \"https://github.com/OpenZeppelin/openzeppelin-contracts/blob/release-v4.9/contracts/security/Pausable.sol\":2003:2044  require(paused(), \"Pausable: not paused\") */\n      tag_361\n      jumpi\n      mload(0x40)\n      0x08c379a000000000000000000000000000000000000000000000000000000000\n      dup2\n      mstore\n      0x04\n      add\n      tag_362\n      swap1\n      tag_363\n      jump\t// in\n    tag_362:\n      mload(0x40)\n      dup1\n      swap2\n      sub\n      swap1\n      revert\n    tag_361:\n        /* \"https://github.com/OpenZeppelin/openzeppelin-contracts/blob/release-v4.9/contracts/security/Pausable.sol\":1945:2051  function _requirePaused() internal view virtual {... */\n      jump\t// out\n        /* \"https://github.com/OpenZeppelin/openzeppelin-contracts/blob/release-v4.9/contracts/utils/Context.sol\":640:736  function _msgSender() internal view virtual returns (address) {... */\n    tag_344:\n        /* \"https://github.com/OpenZeppelin/openzeppelin-contracts/blob/release-v4.9/contracts/utils/Context.sol\":693:700  address */\n      0x00\n        /* \"https://github.com/OpenZeppelin/openzeppelin-contracts/blob/release-v4.9/contracts/utils/Context.sol\":719:729  msg.sender */\n      caller\n        /* \"https://github.com/OpenZeppelin/openzeppelin-contracts/blob/release-v4.9/contracts/utils/Context.sol\":712:729  return msg.sender */\n      swap1\n      pop\n        /* \"https://github.com/OpenZeppelin/openzeppelin-contracts/blob/release-v4.9/contracts/utils/Context.sol\":640:736  function _msgSender() internal view virtual returns (address) {... */\n      swap1\n      jump\t// out\n    tag_138:\n      pop\n      dup1\n      sload\n      0x00\n      dup3\n      sstore\n      swap1\n      0x00\n      mstore\n      keccak256(0x00, 0x20)\n      swap1\n      dup2\n      add\n      swap1\n      tag_366\n      swap2\n      swap1\n      tag_367\n      jump\t// in\n    tag_366:\n      pop\n      jump\t// out\n    tag_191:\n      dup3\n      dup1\n      sload\n      dup3\n      dup3\n      sstore\n      swap1\n      0x00\n      mstore\n      keccak256(0x00, 0x20)\n      swap1\n      dup2\n      add\n      swap3\n      dup3\n      iszero\n      tag_368\n      jumpi\n      swap2\n      0x20\n      mul\n      dup3\n      add\n    tag_369:\n      dup3\n      dup2\n      gt\n      iszero\n      tag_370\n      jumpi\n      dup3\n      mload\n      dup3\n      sstore\n      swap2\n      0x20\n      add\n      swap2\n      swap1\n      0x01\n      add\n      swap1\n      jump(tag_369)\n    tag_370:\n    tag_368:\n      pop\n      swap1\n      pop\n      tag_371\n      swap2\n      swap1\n      tag_367\n      jump\t// in\n    tag_371:\n      pop\n      swap1\n      jump\t// out\n    tag_308:\n      mload(0x40)\n      dup1\n      0x40\n      add\n      0x40\n      mstore\n      dup1\n      0x00\n      dup2\n      mstore\n      0x20\n      add\n      0x60\n      dup2\n      mstore\n      pop\n      swap1\n      jump\t// out\n    tag_367:\n    tag_372:\n      dup1\n      dup3\n      gt\n      iszero\n      tag_373\n      jumpi\n      0x00\n      dup2\n      0x00\n      swap1\n      sstore\n      pop\n      0x01\n      add\n      jump(tag_372)\n    tag_373:\n      pop\n      swap1\n      jump\t// out\n        /* \"#utility.yul\":7:82   */\n    tag_374:\n        /* \"#utility.yul\":40:46   */\n      0x00\n        /* \"#utility.yul\":73:75   */\n      0x40\n        /* \"#utility.yul\":67:76   */\n      mload\n        /* \"#utility.yul\":57:76   */\n      swap1\n      pop\n        /* \"#utility.yul\":7:82   */\n      swap1\n      jump\t// out\n        /* \"#utility.yul\":88:205   */\n    tag_375:\n        /* \"#utility.yul\":197:198   */\n      0x00\n        /* \"#utility.yul\":194:195   */\n      dup1\n        /* \"#utility.yul\":187:199   */\n      revert\n        /* \"#utility.yul\":211:328   */\n    tag_376:\n        /* \"#utility.yul\":320:321   */\n      0x00\n        /* \"#utility.yul\":317:318   */\n      dup1\n        /* \"#utility.yul\":310:322   */\n      revert\n        /* \"#utility.yul\":334:460   */\n    tag_377:\n        /* \"#utility.yul\":371:378   */\n      0x00\n        /* \"#utility.yul\":411:453   */\n      0xffffffffffffffffffffffffffffffffffffffff\n        /* \"#utility.yul\":404:409   */\n      dup3\n        /* \"#utility.yul\":400:454   */\n      and\n        /* \"#utility.yul\":389:454   */\n      swap1\n      pop\n        /* \"#utility.yul\":334:460   */\n      swap2\n      swap1\n      pop\n      jump\t// out\n        /* \"#utility.yul\":466:562   */\n    tag_378:\n        /* \"#utility.yul\":503:510   */\n      0x00\n        /* \"#utility.yul\":532:556   */\n      tag_458\n        /* \"#utility.yul\":550:555   */\n      dup3\n        /* \"#utility.yul\":532:556   */\n      tag_377\n      jump\t// in\n    tag_458:\n        /* \"#utility.yul\":521:556   */\n      swap1\n      pop\n        /* \"#utility.yul\":466:562   */\n      swap2\n      swap1\n      pop\n      jump\t// out\n        /* \"#utility.yul\":568:690   */\n    tag_379:\n        /* \"#utility.yul\":641:665   */\n      tag_460\n        /* \"#utility.yul\":659:664   */\n      dup2\n        /* \"#utility.yul\":641:665   */\n      tag_378\n      jump\t// in\n    tag_460:\n        /* \"#utility.yul\":634:639   */\n      dup2\n        /* \"#utility.yul\":631:666   */\n      eq\n        /* \"#utility.yul\":621:684   */\n      tag_461\n      jumpi\n        /* \"#utility.yul\":680:681   */\n      0x00\n        /* \"#utility.yul\":677:678   */\n      dup1\n        /* \"#utility.yul\":670:682   */\n      revert\n        /* \"#utility.yul\":621:684   */\n    tag_461:\n        /* \"#utility.yul\":568:690   */\n      pop\n      jump\t// out\n        /* \"#utility.yul\":696:835   */\n    tag_380:\n        /* \"#utility.yul\":742:747   */\n      0x00\n        /* \"#utility.yul\":780:786   */\n      dup2\n        /* \"#utility.yul\":767:787   */\n      calldataload\n        /* \"#utility.yul\":758:787   */\n      swap1\n      pop\n        /* \"#utility.yul\":796:829   */\n      tag_463\n        /* \"#utility.yul\":823:828   */\n      dup2\n        /* \"#utility.yul\":796:829   */\n      tag_379\n      jump\t// in\n    tag_463:\n        /* \"#utility.yul\":696:835   */\n      swap3\n      swap2\n      pop\n      pop\n      jump\t// out\n        /* \"#utility.yul\":841:1170   */\n    tag_28:\n        /* \"#utility.yul\":900:906   */\n      0x00\n        /* \"#utility.yul\":949:951   */\n      0x20\n        /* \"#utility.yul\":937:946   */\n      dup3\n        /* \"#utility.yul\":928:935   */\n      dup5\n        /* \"#utility.yul\":924:947   */\n      sub\n        /* \"#utility.yul\":920:952   */\n      slt\n        /* \"#utility.yul\":917:1036   */\n      iszero\n      tag_465\n      jumpi\n        /* \"#utility.yul\":955:1034   */\n      tag_466\n      tag_375\n      jump\t// in\n    tag_466:\n        /* \"#utility.yul\":917:1036   */\n    tag_465:\n        /* \"#utility.yul\":1075:1076   */\n      0x00\n        /* \"#utility.yul\":1100:1153   */\n      tag_467\n        /* \"#utility.yul\":1145:1152   */\n      dup5\n        /* \"#utility.yul\":1136:1142   */\n      dup3\n        /* \"#utility.yul\":1125:1134   */\n      dup6\n        /* \"#utility.yul\":1121:1143   */\n      add\n        /* \"#utility.yul\":1100:1153   */\n      tag_380\n      jump\t// in\n    tag_467:\n        /* \"#utility.yul\":1090:1153   */\n      swap2\n      pop\n        /* \"#utility.yul\":1046:1163   */\n      pop\n        /* \"#utility.yul\":841:1170   */\n      swap3\n      swap2\n      pop\n      pop\n      jump\t// out\n        /* \"#utility.yul\":1176:1253   */\n    tag_381:\n        /* \"#utility.yul\":1213:1220   */\n      0x00\n        /* \"#utility.yul\":1242:1247   */\n      dup2\n        /* \"#utility.yul\":1231:1247   */\n      swap1\n      pop\n        /* \"#utility.yul\":1176:1253   */\n      swap2\n      swap1\n      pop\n      jump\t// out\n        /* \"#utility.yul\":1259:1381   */\n    tag_382:\n        /* \"#utility.yul\":1332:1356   */\n      tag_470\n        /* \"#utility.yul\":1350:1355   */\n      dup2\n        /* \"#utility.yul\":1332:1356   */\n      tag_381\n      jump\t// in\n    tag_470:\n        /* \"#utility.yul\":1325:1330   */\n      dup2\n        /* \"#utility.yul\":1322:1357   */\n      eq\n        /* \"#utility.yul\":1312:1375   */\n      tag_471\n      jumpi\n        /* \"#utility.yul\":1371:1372   */\n      0x00\n        /* \"#utility.yul\":1368:1369   */\n      dup1\n        /* \"#utility.yul\":1361:1373   */\n      revert\n        /* \"#utility.yul\":1312:1375   */\n    tag_471:\n        /* \"#utility.yul\":1259:1381   */\n      pop\n      jump\t// out\n        /* \"#utility.yul\":1387:1526   */\n    tag_383:\n        /* \"#utility.yul\":1433:1438   */\n      0x00\n        /* \"#utility.yul\":1471:1477   */\n      dup2\n        /* \"#utility.yul\":1458:1478   */\n      calldataload\n        /* \"#utility.yul\":1449:1478   */\n      swap1\n      pop\n        /* \"#utility.yul\":1487:1520   */\n      tag_473\n        /* \"#utility.yul\":1514:1519   */\n      dup2\n        /* \"#utility.yul\":1487:1520   */\n      tag_382\n      jump\t// in\n    tag_473:\n        /* \"#utility.yul\":1387:1526   */\n      swap3\n      swap2\n      pop\n      pop\n      jump\t// out\n        /* \"#utility.yul\":1532:1861   */\n    tag_33:\n        /* \"#utility.yul\":1591:1597   */\n      0x00\n        /* \"#utility.yul\":1640:1642   */\n      0x20\n        /* \"#utility.yul\":1628:1637   */\n      dup3\n        /* \"#utility.yul\":1619:1626   */\n      dup5\n        /* \"#utility.yul\":1615:1638   */\n      sub\n        /* \"#utility.yul\":1611:1643   */\n      slt\n        /* \"#utility.yul\":1608:1727   */\n      iszero\n      tag_475\n      jumpi\n        /* \"#utility.yul\":1646:1725   */\n      tag_476\n      tag_375\n      jump\t// in\n    tag_476:\n        /* \"#utility.yul\":1608:1727   */\n    tag_475:\n        /* \"#utility.yul\":1766:1767   */\n      0x00\n        /* \"#utility.yul\":1791:1844   */\n      tag_477\n        /* \"#utility.yul\":1836:1843   */\n      dup5\n        /* \"#utility.yul\":1827:1833   */\n      dup3\n        /* \"#utility.yul\":1816:1825   */\n      dup6\n        /* \"#utility.yul\":1812:1834   */\n      add\n        /* \"#utility.yul\":1791:1844   */\n      tag_383\n      jump\t// in\n    tag_477:\n        /* \"#utility.yul\":1781:1844   */\n      swap2\n      pop\n        /* \"#utility.yul\":1737:1854   */\n      pop\n        /* \"#utility.yul\":1532:1861   */\n      swap3\n      swap2\n      pop\n      pop\n      jump\t// out\n        /* \"#utility.yul\":1867:1984   */\n    tag_384:\n        /* \"#utility.yul\":1976:1977   */\n      0x00\n        /* \"#utility.yul\":1973:1974   */\n      dup1\n        /* \"#utility.yul\":1966:1978   */\n      revert\n        /* \"#utility.yul\":1990:2092   */\n    tag_385:\n        /* \"#utility.yul\":2031:2037   */\n      0x00\n        /* \"#utility.yul\":2082:2084   */\n      0x1f\n        /* \"#utility.yul\":2078:2085   */\n      not\n        /* \"#utility.yul\":2073:2075   */\n      0x1f\n        /* \"#utility.yul\":2066:2071   */\n      dup4\n        /* \"#utility.yul\":2062:2076   */\n      add\n        /* \"#utility.yul\":2058:2086   */\n      and\n        /* \"#utility.yul\":2048:2086   */\n      swap1\n      pop\n        /* \"#utility.yul\":1990:2092   */\n      swap2\n      swap1\n      pop\n      jump\t// out\n        /* \"#utility.yul\":2098:2278   */\n    tag_304:\n        /* \"#utility.yul\":2146:2223   */\n      0x4e487b7100000000000000000000000000000000000000000000000000000000\n        /* \"#utility.yul\":2143:2144   */\n      0x00\n        /* \"#utility.yul\":2136:2224   */\n      mstore\n        /* \"#utility.yul\":2243:2247   */\n      0x41\n        /* \"#utility.yul\":2240:2241   */\n      0x04\n        /* \"#utility.yul\":2233:2248   */\n      mstore\n        /* \"#utility.yul\":2267:2271   */\n      0x24\n        /* \"#utility.yul\":2264:2265   */\n      0x00\n        /* \"#utility.yul\":2257:2272   */\n      revert\n        /* \"#utility.yul\":2284:2565   */\n    tag_386:\n        /* \"#utility.yul\":2367:2394   */\n      tag_482\n        /* \"#utility.yul\":2389:2393   */\n      dup3\n        /* \"#utility.yul\":2367:2394   */\n      tag_385\n      jump\t// in\n    tag_482:\n        /* \"#utility.yul\":2359:2365   */\n      dup2\n        /* \"#utility.yul\":2355:2395   */\n      add\n        /* \"#utility.yul\":2497:2503   */\n      dup2\n        /* \"#utility.yul\":2485:2495   */\n      dup2\n        /* \"#utility.yul\":2482:2504   */\n      lt\n        /* \"#utility.yul\":2461:2479   */\n      0xffffffffffffffff\n        /* \"#utility.yul\":2449:2459   */\n      dup3\n        /* \"#utility.yul\":2446:2480   */\n      gt\n        /* \"#utility.yul\":2443:2505   */\n      or\n        /* \"#utility.yul\":2440:2528   */\n      iszero\n      tag_483\n      jumpi\n        /* \"#utility.yul\":2508:2526   */\n      tag_484\n      tag_304\n      jump\t// in\n    tag_484:\n        /* \"#utility.yul\":2440:2528   */\n    tag_483:\n        /* \"#utility.yul\":2548:2558   */\n      dup1\n        /* \"#utility.yul\":2544:2546   */\n      0x40\n        /* \"#utility.yul\":2537:2559   */\n      mstore\n        /* \"#utility.yul\":2327:2565   */\n      pop\n        /* \"#utility.yul\":2284:2565   */\n      pop\n      pop\n      jump\t// out\n        /* \"#utility.yul\":2571:2700   */\n    tag_387:\n        /* \"#utility.yul\":2605:2611   */\n      0x00\n        /* \"#utility.yul\":2632:2652   */\n      tag_486\n      tag_374\n      jump\t// in\n    tag_486:\n        /* \"#utility.yul\":2622:2652   */\n      swap1\n      pop\n        /* \"#utility.yul\":2661:2694   */\n      tag_487\n        /* \"#utility.yul\":2689:2693   */\n      dup3\n        /* \"#utility.yul\":2681:2687   */\n      dup3\n        /* \"#utility.yul\":2661:2694   */\n      tag_386\n      jump\t// in\n    tag_487:\n        /* \"#utility.yul\":2571:2700   */\n      swap2\n      swap1\n      pop\n      jump\t// out\n        /* \"#utility.yul\":2706:3017   */\n    tag_388:\n        /* \"#utility.yul\":2783:2787   */\n      0x00\n        /* \"#utility.yul\":2873:2891   */\n      0xffffffffffffffff\n        /* \"#utility.yul\":2865:2871   */\n      dup3\n        /* \"#utility.yul\":2862:2892   */\n      gt\n        /* \"#utility.yul\":2859:2915   */\n      iszero\n      tag_489\n      jumpi\n        /* \"#utility.yul\":2895:2913   */\n      tag_490\n      tag_304\n      jump\t// in\n    tag_490:\n        /* \"#utility.yul\":2859:2915   */\n    tag_489:\n        /* \"#utility.yul\":2945:2949   */\n      0x20\n        /* \"#utility.yul\":2937:2943   */\n      dup3\n        /* \"#utility.yul\":2933:2950   */\n      mul\n        /* \"#utility.yul\":2925:2950   */\n      swap1\n      pop\n        /* \"#utility.yul\":3005:3009   */\n      0x20\n        /* \"#utility.yul\":2999:3003   */\n      dup2\n        /* \"#utility.yul\":2995:3010   */\n      add\n        /* \"#utility.yul\":2987:3010   */\n      swap1\n      pop\n        /* \"#utility.yul\":2706:3017   */\n      swap2\n      swap1\n      pop\n      jump\t// out\n        /* \"#utility.yul\":3023:3140   */\n    tag_389:\n        /* \"#utility.yul\":3132:3133   */\n      0x00\n        /* \"#utility.yul\":3129:3130   */\n      dup1\n        /* \"#utility.yul\":3122:3134   */\n      revert\n        /* \"#utility.yul\":3163:3873   */\n    tag_390:\n        /* \"#utility.yul\":3259:3264   */\n      0x00\n        /* \"#utility.yul\":3284:3365   */\n      tag_493\n        /* \"#utility.yul\":3300:3364   */\n      tag_494\n        /* \"#utility.yul\":3357:3363   */\n      dup5\n        /* \"#utility.yul\":3300:3364   */\n      tag_388\n      jump\t// in\n    tag_494:\n        /* \"#utility.yul\":3284:3365   */\n      tag_387\n      jump\t// in\n    tag_493:\n        /* \"#utility.yul\":3275:3365   */\n      swap1\n      pop\n        /* \"#utility.yul\":3385:3390   */\n      dup1\n        /* \"#utility.yul\":3414:3420   */\n      dup4\n        /* \"#utility.yul\":3407:3412   */\n      dup3\n        /* \"#utility.yul\":3400:3421   */\n      mstore\n        /* \"#utility.yul\":3448:3452   */\n      0x20\n        /* \"#utility.yul\":3441:3446   */\n      dup3\n        /* \"#utility.yul\":3437:3453   */\n      add\n        /* \"#utility.yul\":3430:3453   */\n      swap1\n      pop\n        /* \"#utility.yul\":3501:3505   */\n      0x20\n        /* \"#utility.yul\":3493:3499   */\n      dup5\n        /* \"#utility.yul\":3489:3506   */\n      mul\n        /* \"#utility.yul\":3481:3487   */\n      dup4\n        /* \"#utility.yul\":3477:3507   */\n      add\n        /* \"#utility.yul\":3530:3533   */\n      dup6\n        /* \"#utility.yul\":3522:3528   */\n      dup2\n        /* \"#utility.yul\":3519:3534   */\n      gt\n        /* \"#utility.yul\":3516:3638   */\n      iszero\n      tag_495\n      jumpi\n        /* \"#utility.yul\":3549:3628   */\n      tag_496\n      tag_389\n      jump\t// in\n    tag_496:\n        /* \"#utility.yul\":3516:3638   */\n    tag_495:\n        /* \"#utility.yul\":3664:3670   */\n      dup4\n        /* \"#utility.yul\":3647:3867   */\n    tag_497:\n        /* \"#utility.yul\":3681:3687   */\n      dup2\n        /* \"#utility.yul\":3676:3679   */\n      dup2\n        /* \"#utility.yul\":3673:3688   */\n      lt\n        /* \"#utility.yul\":3647:3867   */\n      iszero\n      tag_499\n      jumpi\n        /* \"#utility.yul\":3756:3759   */\n      dup1\n        /* \"#utility.yul\":3785:3822   */\n      tag_500\n        /* \"#utility.yul\":3818:3821   */\n      dup9\n        /* \"#utility.yul\":3806:3816   */\n      dup3\n        /* \"#utility.yul\":3785:3822   */\n      tag_383\n      jump\t// in\n    tag_500:\n        /* \"#utility.yul\":3780:3783   */\n      dup5\n        /* \"#utility.yul\":3773:3823   */\n      mstore\n        /* \"#utility.yul\":3852:3856   */\n      0x20\n        /* \"#utility.yul\":3847:3850   */\n      dup5\n        /* \"#utility.yul\":3843:3857   */\n      add\n        /* \"#utility.yul\":3836:3857   */\n      swap4\n      pop\n        /* \"#utility.yul\":3723:3867   */\n      pop\n        /* \"#utility.yul\":3707:3711   */\n      0x20\n        /* \"#utility.yul\":3702:3705   */\n      dup2\n        /* \"#utility.yul\":3698:3712   */\n      add\n        /* \"#utility.yul\":3691:3712   */\n      swap1\n      pop\n        /* \"#utility.yul\":3647:3867   */\n      jump(tag_497)\n    tag_499:\n        /* \"#utility.yul\":3651:3672   */\n      pop\n        /* \"#utility.yul\":3265:3873   */\n      pop\n      pop\n        /* \"#utility.yul\":3163:3873   */\n      swap4\n      swap3\n      pop\n      pop\n      pop\n      jump\t// out\n        /* \"#utility.yul\":3896:4266   */\n    tag_391:\n        /* \"#utility.yul\":3967:3972   */\n      0x00\n        /* \"#utility.yul\":4016:4019   */\n      dup3\n        /* \"#utility.yul\":4009:4013   */\n      0x1f\n        /* \"#utility.yul\":4001:4007   */\n      dup4\n        /* \"#utility.yul\":3997:4014   */\n      add\n        /* \"#utility.yul\":3993:4020   */\n      slt\n        /* \"#utility.yul\":3983:4105   */\n      tag_502\n      jumpi\n        /* \"#utility.yul\":4024:4103   */\n      tag_503\n      tag_384\n      jump\t// in\n    tag_503:\n        /* \"#utility.yul\":3983:4105   */\n    tag_502:\n        /* \"#utility.yul\":4141:4147   */\n      dup2\n        /* \"#utility.yul\":4128:4148   */\n      calldataload\n        /* \"#utility.yul\":4166:4260   */\n      tag_504\n        /* \"#utility.yul\":4256:4259   */\n      dup5\n        /* \"#utility.yul\":4248:4254   */\n      dup3\n        /* \"#utility.yul\":4241:4245   */\n      0x20\n        /* \"#utility.yul\":4233:4239   */\n      dup7\n        /* \"#utility.yul\":4229:4246   */\n      add\n        /* \"#utility.yul\":4166:4260   */\n      tag_390\n      jump\t// in\n    tag_504:\n        /* \"#utility.yul\":4157:4260   */\n      swap2\n      pop\n        /* \"#utility.yul\":3973:4266   */\n      pop\n        /* \"#utility.yul\":3896:4266   */\n      swap3\n      swap2\n      pop\n      pop\n      jump\t// out\n        /* \"#utility.yul\":4272:5247   */\n    tag_41:\n        /* \"#utility.yul\":4383:4389   */\n      0x00\n        /* \"#utility.yul\":4391:4397   */\n      dup1\n        /* \"#utility.yul\":4399:4405   */\n      0x00\n        /* \"#utility.yul\":4407:4413   */\n      dup1\n        /* \"#utility.yul\":4456:4459   */\n      0x80\n        /* \"#utility.yul\":4444:4453   */\n      dup6\n        /* \"#utility.yul\":4435:4442   */\n      dup8\n        /* \"#utility.yul\":4431:4454   */\n      sub\n        /* \"#utility.yul\":4427:4460   */\n      slt\n        /* \"#utility.yul\":4424:4544   */\n      iszero\n      tag_506\n      jumpi\n        /* \"#utility.yul\":4463:4542   */\n      tag_507\n      tag_375\n      jump\t// in\n    tag_507:\n        /* \"#utility.yul\":4424:4544   */\n    tag_506:\n        /* \"#utility.yul\":4583:4584   */\n      0x00\n        /* \"#utility.yul\":4608:4661   */\n      tag_508\n        /* \"#utility.yul\":4653:4660   */\n      dup8\n        /* \"#utility.yul\":4644:4650   */\n      dup3\n        /* \"#utility.yul\":4633:4642   */\n      dup9\n        /* \"#utility.yul\":4629:4651   */\n      add\n        /* \"#utility.yul\":4608:4661   */\n      tag_380\n      jump\t// in\n    tag_508:\n        /* \"#utility.yul\":4598:4661   */\n      swap5\n      pop\n        /* \"#utility.yul\":4554:4671   */\n      pop\n        /* \"#utility.yul\":4738:4740   */\n      0x20\n        /* \"#utility.yul\":4727:4736   */\n      dup6\n        /* \"#utility.yul\":4723:4741   */\n      add\n        /* \"#utility.yul\":4710:4742   */\n      calldataload\n        /* \"#utility.yul\":4769:4787   */\n      0xffffffffffffffff\n        /* \"#utility.yul\":4761:4767   */\n      dup2\n        /* \"#utility.yul\":4758:4788   */\n      gt\n        /* \"#utility.yul\":4755:4872   */\n      iszero\n      tag_509\n      jumpi\n        /* \"#utility.yul\":4791:4870   */\n      tag_510\n      tag_376\n      jump\t// in\n    tag_510:\n        /* \"#utility.yul\":4755:4872   */\n    tag_509:\n        /* \"#utility.yul\":4896:4974   */\n      tag_511\n        /* \"#utility.yul\":4966:4973   */\n      dup8\n        /* \"#utility.yul\":4957:4963   */\n      dup3\n        /* \"#utility.yul\":4946:4955   */\n      dup9\n        /* \"#utility.yul\":4942:4964   */\n      add\n        /* \"#utility.yul\":4896:4974   */\n      tag_391\n      jump\t// in\n    tag_511:\n        /* \"#utility.yul\":4886:4974   */\n      swap4\n      pop\n        /* \"#utility.yul\":4681:4984   */\n      pop\n        /* \"#utility.yul\":5023:5025   */\n      0x40\n        /* \"#utility.yul\":5049:5102   */\n      tag_512\n        /* \"#utility.yul\":5094:5101   */\n      dup8\n        /* \"#utility.yul\":5085:5091   */\n      dup3\n        /* \"#utility.yul\":5074:5083   */\n      dup9\n        /* \"#utility.yul\":5070:5092   */\n      add\n        /* \"#utility.yul\":5049:5102   */\n      tag_383\n      jump\t// in\n    tag_512:\n        /* \"#utility.yul\":5039:5102   */\n      swap3\n      pop\n        /* \"#utility.yul\":4994:5112   */\n      pop\n        /* \"#utility.yul\":5151:5153   */\n      0x60\n        /* \"#utility.yul\":5177:5230   */\n      tag_513\n        /* \"#utility.yul\":5222:5229   */\n      dup8\n        /* \"#utility.yul\":5213:5219   */\n      dup3\n        /* \"#utility.yul\":5202:5211   */\n      dup9\n        /* \"#utility.yul\":5198:5220   */\n      add\n        /* \"#utility.yul\":5177:5230   */\n      tag_383\n      jump\t// in\n    tag_513:\n        /* \"#utility.yul\":5167:5230   */\n      swap2\n      pop\n        /* \"#utility.yul\":5122:5240   */\n      pop\n        /* \"#utility.yul\":4272:5247   */\n      swap3\n      swap6\n      swap2\n      swap5\n      pop\n      swap3\n      pop\n      jump\t// out\n        /* \"#utility.yul\":5253:5343   */\n    tag_392:\n        /* \"#utility.yul\":5287:5294   */\n      0x00\n        /* \"#utility.yul\":5330:5335   */\n      dup2\n        /* \"#utility.yul\":5323:5336   */\n      iszero\n        /* \"#utility.yul\":5316:5337   */\n      iszero\n        /* \"#utility.yul\":5305:5337   */\n      swap1\n      pop\n        /* \"#utility.yul\":5253:5343   */\n      swap2\n      swap1\n      pop\n      jump\t// out\n        /* \"#utility.yul\":5349:5458   */\n    tag_393:\n        /* \"#utility.yul\":5430:5451   */\n      tag_516\n        /* \"#utility.yul\":5445:5450   */\n      dup2\n        /* \"#utility.yul\":5430:5451   */\n      tag_392\n      jump\t// in\n    tag_516:\n        /* \"#utility.yul\":5425:5428   */\n      dup3\n        /* \"#utility.yul\":5418:5452   */\n      mstore\n        /* \"#utility.yul\":5349:5458   */\n      pop\n      pop\n      jump\t// out\n        /* \"#utility.yul\":5464:5674   */\n    tag_50:\n        /* \"#utility.yul\":5551:5555   */\n      0x00\n        /* \"#utility.yul\":5589:5591   */\n      0x20\n        /* \"#utility.yul\":5578:5587   */\n      dup3\n        /* \"#utility.yul\":5574:5592   */\n      add\n        /* \"#utility.yul\":5566:5592   */\n      swap1\n      pop\n        /* \"#utility.yul\":5602:5667   */\n      tag_518\n        /* \"#utility.yul\":5664:5665   */\n      0x00\n        /* \"#utility.yul\":5653:5662   */\n      dup4\n        /* \"#utility.yul\":5649:5666   */\n      add\n        /* \"#utility.yul\":5640:5646   */\n      dup5\n        /* \"#utility.yul\":5602:5667   */\n      tag_393\n      jump\t// in\n    tag_518:\n        /* \"#utility.yul\":5464:5674   */\n      swap3\n      swap2\n      pop\n      pop\n      jump\t// out\n        /* \"#utility.yul\":5680:6154   */\n    tag_54:\n        /* \"#utility.yul\":5748:5754   */\n      0x00\n        /* \"#utility.yul\":5756:5762   */\n      dup1\n        /* \"#utility.yul\":5805:5807   */\n      0x40\n        /* \"#utility.yul\":5793:5802   */\n      dup4\n        /* \"#utility.yul\":5784:5791   */\n      dup6\n        /* \"#utility.yul\":5780:5803   */\n      sub\n        /* \"#utility.yul\":5776:5808   */\n      slt\n        /* \"#utility.yul\":5773:5892   */\n      iszero\n      tag_520\n      jumpi\n        /* \"#utility.yul\":5811:5890   */\n      tag_521\n      tag_375\n      jump\t// in\n    tag_521:\n        /* \"#utility.yul\":5773:5892   */\n    tag_520:\n        /* \"#utility.yul\":5931:5932   */\n      0x00\n        /* \"#utility.yul\":5956:6009   */\n      tag_522\n        /* \"#utility.yul\":6001:6008   */\n      dup6\n        /* \"#utility.yul\":5992:5998   */\n      dup3\n        /* \"#utility.yul\":5981:5990   */\n      dup7\n        /* \"#utility.yul\":5977:5999   */\n      add\n        /* \"#utility.yul\":5956:6009   */\n      tag_380\n      jump\t// in\n    tag_522:\n        /* \"#utility.yul\":5946:6009   */\n      swap3\n      pop\n        /* \"#utility.yul\":5902:6019   */\n      pop\n        /* \"#utility.yul\":6058:6060   */\n      0x20\n        /* \"#utility.yul\":6084:6137   */\n      tag_523\n        /* \"#utility.yul\":6129:6136   */\n      dup6\n        /* \"#utility.yul\":6120:6126   */\n      dup3\n        /* \"#utility.yul\":6109:6118   */\n      dup7\n        /* \"#utility.yul\":6105:6127   */\n      add\n        /* \"#utility.yul\":6084:6137   */\n      tag_380\n      jump\t// in\n    tag_523:\n        /* \"#utility.yul\":6074:6137   */\n      swap2\n      pop\n        /* \"#utility.yul\":6029:6147   */\n      pop\n        /* \"#utility.yul\":5680:6154   */\n      swap3\n      pop\n      swap3\n      swap1\n      pop\n      jump\t// out\n        /* \"#utility.yul\":6160:6634   */\n    tag_59:\n        /* \"#utility.yul\":6228:6234   */\n      0x00\n        /* \"#utility.yul\":6236:6242   */\n      dup1\n        /* \"#utility.yul\":6285:6287   */\n      0x40\n        /* \"#utility.yul\":6273:6282   */\n      dup4\n        /* \"#utility.yul\":6264:6271   */\n      dup6\n        /* \"#utility.yul\":6260:6283   */\n      sub\n        /* \"#utility.yul\":6256:6288   */\n      slt\n        /* \"#utility.yul\":6253:6372   */\n      iszero\n      tag_525\n      jumpi\n        /* \"#utility.yul\":6291:6370   */\n      tag_526\n      tag_375\n      jump\t// in\n    tag_526:\n        /* \"#utility.yul\":6253:6372   */\n    tag_525:\n        /* \"#utility.yul\":6411:6412   */\n      0x00\n        /* \"#utility.yul\":6436:6489   */\n      tag_527\n        /* \"#utility.yul\":6481:6488   */\n      dup6\n        /* \"#utility.yul\":6472:6478   */\n      dup3\n        /* \"#utility.yul\":6461:6470   */\n      dup7\n        /* \"#utility.yul\":6457:6479   */\n      add\n        /* \"#utility.yul\":6436:6489   */\n      tag_383\n      jump\t// in\n    tag_527:\n        /* \"#utility.yul\":6426:6489   */\n      swap3\n      pop\n        /* \"#utility.yul\":6382:6499   */\n      pop\n        /* \"#utility.yul\":6538:6540   */\n      0x20\n        /* \"#utility.yul\":6564:6617   */\n      tag_528\n        /* \"#utility.yul\":6609:6616   */\n      dup6\n        /* \"#utility.yul\":6600:6606   */\n      dup3\n        /* \"#utility.yul\":6589:6598   */\n      dup7\n        /* \"#utility.yul\":6585:6607   */\n      add\n        /* \"#utility.yul\":6564:6617   */\n      tag_383\n      jump\t// in\n    tag_528:\n        /* \"#utility.yul\":6554:6617   */\n      swap2\n      pop\n        /* \"#utility.yul\":6509:6627   */\n      pop\n        /* \"#utility.yul\":6160:6634   */\n      swap3\n      pop\n      swap3\n      swap1\n      pop\n      jump\t// out\n        /* \"#utility.yul\":6640:6758   */\n    tag_394:\n        /* \"#utility.yul\":6727:6751   */\n      tag_530\n        /* \"#utility.yul\":6745:6750   */\n      dup2\n        /* \"#utility.yul\":6727:6751   */\n      tag_378\n      jump\t// in\n    tag_530:\n        /* \"#utility.yul\":6722:6725   */\n      dup3\n        /* \"#utility.yul\":6715:6752   */\n      mstore\n        /* \"#utility.yul\":6640:6758   */\n      pop\n      pop\n      jump\t// out\n        /* \"#utility.yul\":6764:6986   */\n    tag_66:\n        /* \"#utility.yul\":6857:6861   */\n      0x00\n        /* \"#utility.yul\":6895:6897   */\n      0x20\n        /* \"#utility.yul\":6884:6893   */\n      dup3\n        /* \"#utility.yul\":6880:6898   */\n      add\n        /* \"#utility.yul\":6872:6898   */\n      swap1\n      pop\n        /* \"#utility.yul\":6908:6979   */\n      tag_532\n        /* \"#utility.yul\":6976:6977   */\n      0x00\n        /* \"#utility.yul\":6965:6974   */\n      dup4\n        /* \"#utility.yul\":6961:6978   */\n      add\n        /* \"#utility.yul\":6952:6958   */\n      dup5\n        /* \"#utility.yul\":6908:6979   */\n      tag_394\n      jump\t// in\n    tag_532:\n        /* \"#utility.yul\":6764:6986   */\n      swap3\n      swap2\n      pop\n      pop\n      jump\t// out\n        /* \"#utility.yul\":6992:7106   */\n    tag_395:\n        /* \"#utility.yul\":7059:7065   */\n      0x00\n        /* \"#utility.yul\":7093:7098   */\n      dup2\n        /* \"#utility.yul\":7087:7099   */\n      mload\n        /* \"#utility.yul\":7077:7099   */\n      swap1\n      pop\n        /* \"#utility.yul\":6992:7106   */\n      swap2\n      swap1\n      pop\n      jump\t// out\n        /* \"#utility.yul\":7112:7296   */\n    tag_396:\n        /* \"#utility.yul\":7211:7222   */\n      0x00\n        /* \"#utility.yul\":7245:7251   */\n      dup3\n        /* \"#utility.yul\":7240:7243   */\n      dup3\n        /* \"#utility.yul\":7233:7252   */\n      mstore\n        /* \"#utility.yul\":7285:7289   */\n      0x20\n        /* \"#utility.yul\":7280:7283   */\n      dup3\n        /* \"#utility.yul\":7276:7290   */\n      add\n        /* \"#utility.yul\":7261:7290   */\n      swap1\n      pop\n        /* \"#utility.yul\":7112:7296   */\n      swap3\n      swap2\n      pop\n      pop\n      jump\t// out\n        /* \"#utility.yul\":7302:7434   */\n    tag_397:\n        /* \"#utility.yul\":7369:7373   */\n      0x00\n        /* \"#utility.yul\":7392:7395   */\n      dup2\n        /* \"#utility.yul\":7384:7395   */\n      swap1\n      pop\n        /* \"#utility.yul\":7422:7426   */\n      0x20\n        /* \"#utility.yul\":7417:7420   */\n      dup3\n        /* \"#utility.yul\":7413:7427   */\n      add\n        /* \"#utility.yul\":7405:7427   */\n      swap1\n      pop\n        /* \"#utility.yul\":7302:7434   */\n      swap2\n      swap1\n      pop\n      jump\t// out\n        /* \"#utility.yul\":7440:7548   */\n    tag_398:\n        /* \"#utility.yul\":7517:7541   */\n      tag_537\n        /* \"#utility.yul\":7535:7540   */\n      dup2\n        /* \"#utility.yul\":7517:7541   */\n      tag_381\n      jump\t// in\n    tag_537:\n        /* \"#utility.yul\":7512:7515   */\n      dup3\n        /* \"#utility.yul\":7505:7542   */\n      mstore\n        /* \"#utility.yul\":7440:7548   */\n      pop\n      pop\n      jump\t// out\n        /* \"#utility.yul\":7554:7733   */\n    tag_399:\n        /* \"#utility.yul\":7623:7633   */\n      0x00\n        /* \"#utility.yul\":7644:7690   */\n      tag_539\n        /* \"#utility.yul\":7686:7689   */\n      dup4\n        /* \"#utility.yul\":7678:7684   */\n      dup4\n        /* \"#utility.yul\":7644:7690   */\n      tag_398\n      jump\t// in\n    tag_539:\n        /* \"#utility.yul\":7722:7726   */\n      0x20\n        /* \"#utility.yul\":7717:7720   */\n      dup4\n        /* \"#utility.yul\":7713:7727   */\n      add\n        /* \"#utility.yul\":7699:7727   */\n      swap1\n      pop\n        /* \"#utility.yul\":7554:7733   */\n      swap3\n      swap2\n      pop\n      pop\n      jump\t// out\n        /* \"#utility.yul\":7739:7852   */\n    tag_400:\n        /* \"#utility.yul\":7809:7813   */\n      0x00\n        /* \"#utility.yul\":7841:7845   */\n      0x20\n        /* \"#utility.yul\":7836:7839   */\n      dup3\n        /* \"#utility.yul\":7832:7846   */\n      add\n        /* \"#utility.yul\":7824:7846   */\n      swap1\n      pop\n        /* \"#utility.yul\":7739:7852   */\n      swap2\n      swap1\n      pop\n      jump\t// out\n        /* \"#utility.yul\":7888:8620   */\n    tag_401:\n        /* \"#utility.yul\":8007:8010   */\n      0x00\n        /* \"#utility.yul\":8036:8090   */\n      tag_542\n        /* \"#utility.yul\":8084:8089   */\n      dup3\n        /* \"#utility.yul\":8036:8090   */\n      tag_395\n      jump\t// in\n    tag_542:\n        /* \"#utility.yul\":8106:8192   */\n      tag_543\n        /* \"#utility.yul\":8185:8191   */\n      dup2\n        /* \"#utility.yul\":8180:8183   */\n      dup6\n        /* \"#utility.yul\":8106:8192   */\n      tag_396\n      jump\t// in\n    tag_543:\n        /* \"#utility.yul\":8099:8192   */\n      swap4\n      pop\n        /* \"#utility.yul\":8216:8272   */\n      tag_544\n        /* \"#utility.yul\":8266:8271   */\n      dup4\n        /* \"#utility.yul\":8216:8272   */\n      tag_397\n      jump\t// in\n    tag_544:\n        /* \"#utility.yul\":8295:8302   */\n      dup1\n        /* \"#utility.yul\":8326:8327   */\n      0x00\n        /* \"#utility.yul\":8311:8595   */\n    tag_545:\n        /* \"#utility.yul\":8336:8342   */\n      dup4\n        /* \"#utility.yul\":8333:8334   */\n      dup2\n        /* \"#utility.yul\":8330:8343   */\n      lt\n        /* \"#utility.yul\":8311:8595   */\n      iszero\n      tag_547\n      jumpi\n        /* \"#utility.yul\":8412:8418   */\n      dup2\n        /* \"#utility.yul\":8406:8419   */\n      mload\n        /* \"#utility.yul\":8439:8502   */\n      tag_548\n        /* \"#utility.yul\":8498:8501   */\n      dup9\n        /* \"#utility.yul\":8483:8496   */\n      dup3\n        /* \"#utility.yul\":8439:8502   */\n      tag_399\n      jump\t// in\n    tag_548:\n        /* \"#utility.yul\":8432:8502   */\n      swap8\n      pop\n        /* \"#utility.yul\":8525:8585   */\n      tag_549\n        /* \"#utility.yul\":8578:8584   */\n      dup4\n        /* \"#utility.yul\":8525:8585   */\n      tag_400\n      jump\t// in\n    tag_549:\n        /* \"#utility.yul\":8515:8585   */\n      swap3\n      pop\n        /* \"#utility.yul\":8371:8595   */\n      pop\n        /* \"#utility.yul\":8358:8359   */\n      0x01\n        /* \"#utility.yul\":8355:8356   */\n      dup2\n        /* \"#utility.yul\":8351:8360   */\n      add\n        /* \"#utility.yul\":8346:8360   */\n      swap1\n      pop\n        /* \"#utility.yul\":8311:8595   */\n      jump(tag_545)\n    tag_547:\n        /* \"#utility.yul\":8315:8329   */\n      pop\n        /* \"#utility.yul\":8611:8614   */\n      dup6\n        /* \"#utility.yul\":8604:8614   */\n      swap4\n      pop\n        /* \"#utility.yul\":8012:8620   */\n      pop\n      pop\n      pop\n        /* \"#utility.yul\":7888:8620   */\n      swap3\n      swap2\n      pop\n      pop\n      jump\t// out\n        /* \"#utility.yul\":8626:8999   */\n    tag_74:\n        /* \"#utility.yul\":8769:8773   */\n      0x00\n        /* \"#utility.yul\":8807:8809   */\n      0x20\n        /* \"#utility.yul\":8796:8805   */\n      dup3\n        /* \"#utility.yul\":8792:8810   */\n      add\n        /* \"#utility.yul\":8784:8810   */\n      swap1\n      pop\n        /* \"#utility.yul\":8856:8865   */\n      dup2\n        /* \"#utility.yul\":8850:8854   */\n      dup2\n        /* \"#utility.yul\":8846:8866   */\n      sub\n        /* \"#utility.yul\":8842:8843   */\n      0x00\n        /* \"#utility.yul\":8831:8840   */\n      dup4\n        /* \"#utility.yul\":8827:8844   */\n      add\n        /* \"#utility.yul\":8820:8867   */\n      mstore\n        /* \"#utility.yul\":8884:8992   */\n      tag_551\n        /* \"#utility.yul\":8987:8991   */\n      dup2\n        /* \"#utility.yul\":8978:8984   */\n      dup5\n        /* \"#utility.yul\":8884:8992   */\n      tag_401\n      jump\t// in\n    tag_551:\n        /* \"#utility.yul\":8876:8992   */\n      swap1\n      pop\n        /* \"#utility.yul\":8626:8999   */\n      swap3\n      swap2\n      pop\n      pop\n      jump\t// out\n        /* \"#utility.yul\":9005:9123   */\n    tag_402:\n        /* \"#utility.yul\":9092:9116   */\n      tag_553\n        /* \"#utility.yul\":9110:9115   */\n      dup2\n        /* \"#utility.yul\":9092:9116   */\n      tag_381\n      jump\t// in\n    tag_553:\n        /* \"#utility.yul\":9087:9090   */\n      dup3\n        /* \"#utility.yul\":9080:9117   */\n      mstore\n        /* \"#utility.yul\":9005:9123   */\n      pop\n      pop\n      jump\t// out\n        /* \"#utility.yul\":9129:9351   */\n    tag_79:\n        /* \"#utility.yul\":9222:9226   */\n      0x00\n        /* \"#utility.yul\":9260:9262   */\n      0x20\n        /* \"#utility.yul\":9249:9258   */\n      dup3\n        /* \"#utility.yul\":9245:9263   */\n      add\n        /* \"#utility.yul\":9237:9263   */\n      swap1\n      pop\n        /* \"#utility.yul\":9273:9344   */\n      tag_555\n        /* \"#utility.yul\":9341:9342   */\n      0x00\n        /* \"#utility.yul\":9330:9339   */\n      dup4\n        /* \"#utility.yul\":9326:9343   */\n      add\n        /* \"#utility.yul\":9317:9323   */\n      dup5\n        /* \"#utility.yul\":9273:9344   */\n      tag_402\n      jump\t// in\n    tag_555:\n        /* \"#utility.yul\":9129:9351   */\n      swap3\n      swap2\n      pop\n      pop\n      jump\t// out\n        /* \"#utility.yul\":9357:9496   */\n    tag_403:\n        /* \"#utility.yul\":9449:9455   */\n      0x00\n        /* \"#utility.yul\":9483:9488   */\n      dup2\n        /* \"#utility.yul\":9477:9489   */\n      mload\n        /* \"#utility.yul\":9467:9489   */\n      swap1\n      pop\n        /* \"#utility.yul\":9357:9496   */\n      swap2\n      swap1\n      pop\n      jump\t// out\n        /* \"#utility.yul\":9502:9711   */\n    tag_404:\n        /* \"#utility.yul\":9626:9637   */\n      0x00\n        /* \"#utility.yul\":9660:9666   */\n      dup3\n        /* \"#utility.yul\":9655:9658   */\n      dup3\n        /* \"#utility.yul\":9648:9667   */\n      mstore\n        /* \"#utility.yul\":9700:9704   */\n      0x20\n        /* \"#utility.yul\":9695:9698   */\n      dup3\n        /* \"#utility.yul\":9691:9705   */\n      add\n        /* \"#utility.yul\":9676:9705   */\n      swap1\n      pop\n        /* \"#utility.yul\":9502:9711   */\n      swap3\n      swap2\n      pop\n      pop\n      jump\t// out\n        /* \"#utility.yul\":9717:9874   */\n    tag_405:\n        /* \"#utility.yul\":9809:9813   */\n      0x00\n        /* \"#utility.yul\":9832:9835   */\n      dup2\n        /* \"#utility.yul\":9824:9835   */\n      swap1\n      pop\n        /* \"#utility.yul\":9862:9866   */\n      0x20\n        /* \"#utility.yul\":9857:9860   */\n      dup3\n        /* \"#utility.yul\":9853:9867   */\n      add\n        /* \"#utility.yul\":9845:9867   */\n      swap1\n      pop\n        /* \"#utility.yul\":9717:9874   */\n      swap2\n      swap1\n      pop\n      jump\t// out\n        /* \"#utility.yul\":9880:9979   */\n    tag_406:\n        /* \"#utility.yul\":9932:9938   */\n      0x00\n        /* \"#utility.yul\":9966:9971   */\n      dup2\n        /* \"#utility.yul\":9960:9972   */\n      mload\n        /* \"#utility.yul\":9950:9972   */\n      swap1\n      pop\n        /* \"#utility.yul\":9880:9979   */\n      swap2\n      swap1\n      pop\n      jump\t// out\n        /* \"#utility.yul\":9985:10144   */\n    tag_407:\n        /* \"#utility.yul\":10059:10070   */\n      0x00\n        /* \"#utility.yul\":10093:10099   */\n      dup3\n        /* \"#utility.yul\":10088:10091   */\n      dup3\n        /* \"#utility.yul\":10081:10100   */\n      mstore\n        /* \"#utility.yul\":10133:10137   */\n      0x20\n        /* \"#utility.yul\":10128:10131   */\n      dup3\n        /* \"#utility.yul\":10124:10138   */\n      add\n        /* \"#utility.yul\":10109:10138   */\n      swap1\n      pop\n        /* \"#utility.yul\":9985:10144   */\n      swap3\n      swap2\n      pop\n      pop\n      jump\t// out\n        /* \"#utility.yul\":10150:10457   */\n    tag_408:\n        /* \"#utility.yul\":10218:10219   */\n      0x00\n        /* \"#utility.yul\":10228:10341   */\n    tag_562:\n        /* \"#utility.yul\":10242:10248   */\n      dup4\n        /* \"#utility.yul\":10239:10240   */\n      dup2\n        /* \"#utility.yul\":10236:10249   */\n      lt\n        /* \"#utility.yul\":10228:10341   */\n      iszero\n      tag_564\n      jumpi\n        /* \"#utility.yul\":10327:10328   */\n      dup1\n        /* \"#utility.yul\":10322:10325   */\n      dup3\n        /* \"#utility.yul\":10318:10329   */\n      add\n        /* \"#utility.yul\":10312:10330   */\n      mload\n        /* \"#utility.yul\":10308:10309   */\n      dup2\n        /* \"#utility.yul\":10303:10306   */\n      dup5\n        /* \"#utility.yul\":10299:10310   */\n      add\n        /* \"#utility.yul\":10292:10331   */\n      mstore\n        /* \"#utility.yul\":10264:10266   */\n      0x20\n        /* \"#utility.yul\":10261:10262   */\n      dup2\n        /* \"#utility.yul\":10257:10267   */\n      add\n        /* \"#utility.yul\":10252:10267   */\n      swap1\n      pop\n        /* \"#utility.yul\":10228:10341   */\n      jump(tag_562)\n    tag_564:\n        /* \"#utility.yul\":10359:10365   */\n      dup4\n        /* \"#utility.yul\":10356:10357   */\n      dup2\n        /* \"#utility.yul\":10353:10366   */\n      gt\n        /* \"#utility.yul\":10350:10451   */\n      iszero\n      tag_565\n      jumpi\n        /* \"#utility.yul\":10439:10440   */\n      0x00\n        /* \"#utility.yul\":10430:10436   */\n      dup5\n        /* \"#utility.yul\":10425:10428   */\n      dup5\n        /* \"#utility.yul\":10421:10437   */\n      add\n        /* \"#utility.yul\":10414:10441   */\n      mstore\n        /* \"#utility.yul\":10350:10451   */\n    tag_565:\n        /* \"#utility.yul\":10199:10457   */\n      pop\n        /* \"#utility.yul\":10150:10457   */\n      pop\n      pop\n      pop\n      jump\t// out\n        /* \"#utility.yul\":10463:10807   */\n    tag_409:\n        /* \"#utility.yul\":10541:10544   */\n      0x00\n        /* \"#utility.yul\":10569:10608   */\n      tag_567\n        /* \"#utility.yul\":10602:10607   */\n      dup3\n        /* \"#utility.yul\":10569:10608   */\n      tag_406\n      jump\t// in\n    tag_567:\n        /* \"#utility.yul\":10624:10685   */\n      tag_568\n        /* \"#utility.yul\":10678:10684   */\n      dup2\n        /* \"#utility.yul\":10673:10676   */\n      dup6\n        /* \"#utility.yul\":10624:10685   */\n      tag_407\n      jump\t// in\n    tag_568:\n        /* \"#utility.yul\":10617:10685   */\n      swap4\n      pop\n        /* \"#utility.yul\":10694:10746   */\n      tag_569\n        /* \"#utility.yul\":10739:10745   */\n      dup2\n        /* \"#utility.yul\":10734:10737   */\n      dup6\n        /* \"#utility.yul\":10727:10731   */\n      0x20\n        /* \"#utility.yul\":10720:10725   */\n      dup7\n        /* \"#utility.yul\":10716:10732   */\n      add\n        /* \"#utility.yul\":10694:10746   */\n      tag_408\n      jump\t// in\n    tag_569:\n        /* \"#utility.yul\":10771:10800   */\n      tag_570\n        /* \"#utility.yul\":10793:10799   */\n      dup2\n        /* \"#utility.yul\":10771:10800   */\n      tag_385\n      jump\t// in\n    tag_570:\n        /* \"#utility.yul\":10766:10769   */\n      dup5\n        /* \"#utility.yul\":10762:10801   */\n      add\n        /* \"#utility.yul\":10755:10801   */\n      swap2\n      pop\n        /* \"#utility.yul\":10545:10807   */\n      pop\n        /* \"#utility.yul\":10463:10807   */\n      swap3\n      swap2\n      pop\n      pop\n      jump\t// out\n        /* \"#utility.yul\":10897:11504   */\n    tag_410:\n        /* \"#utility.yul\":11006:11009   */\n      0x00\n        /* \"#utility.yul\":11042:11046   */\n      0x40\n        /* \"#utility.yul\":11037:11040   */\n      dup4\n        /* \"#utility.yul\":11033:11047   */\n      add\n        /* \"#utility.yul\":11132:11136   */\n      0x00\n        /* \"#utility.yul\":11125:11130   */\n      dup4\n        /* \"#utility.yul\":11121:11137   */\n      add\n        /* \"#utility.yul\":11115:11138   */\n      mload\n        /* \"#utility.yul\":11151:11214   */\n      tag_572\n        /* \"#utility.yul\":11208:11212   */\n      0x00\n        /* \"#utility.yul\":11203:11206   */\n      dup7\n        /* \"#utility.yul\":11199:11213   */\n      add\n        /* \"#utility.yul\":11185:11197   */\n      dup3\n        /* \"#utility.yul\":11151:11214   */\n      tag_398\n      jump\t// in\n    tag_572:\n        /* \"#utility.yul\":11057:11224   */\n      pop\n        /* \"#utility.yul\":11314:11318   */\n      0x20\n        /* \"#utility.yul\":11307:11312   */\n      dup4\n        /* \"#utility.yul\":11303:11319   */\n      add\n        /* \"#utility.yul\":11297:11320   */\n      mload\n        /* \"#utility.yul\":11367:11370   */\n      dup5\n        /* \"#utility.yul\":11361:11365   */\n      dup3\n        /* \"#utility.yul\":11357:11371   */\n      sub\n        /* \"#utility.yul\":11350:11354   */\n      0x20\n        /* \"#utility.yul\":11345:11348   */\n      dup7\n        /* \"#utility.yul\":11341:11355   */\n      add\n        /* \"#utility.yul\":11334:11372   */\n      mstore\n        /* \"#utility.yul\":11393:11466   */\n      tag_573\n        /* \"#utility.yul\":11461:11465   */\n      dup3\n        /* \"#utility.yul\":11447:11459   */\n      dup3\n        /* \"#utility.yul\":11393:11466   */\n      tag_409\n      jump\t// in\n    tag_573:\n        /* \"#utility.yul\":11385:11466   */\n      swap2\n      pop\n        /* \"#utility.yul\":11234:11477   */\n      pop\n        /* \"#utility.yul\":11494:11498   */\n      dup1\n        /* \"#utility.yul\":11487:11498   */\n      swap2\n      pop\n        /* \"#utility.yul\":11011:11504   */\n      pop\n        /* \"#utility.yul\":10897:11504   */\n      swap3\n      swap2\n      pop\n      pop\n      jump\t// out\n        /* \"#utility.yul\":11510:11766   */\n    tag_411:\n        /* \"#utility.yul\":11629:11639   */\n      0x00\n        /* \"#utility.yul\":11664:11760   */\n      tag_575\n        /* \"#utility.yul\":11756:11759   */\n      dup4\n        /* \"#utility.yul\":11748:11754   */\n      dup4\n        /* \"#utility.yul\":11664:11760   */\n      tag_410\n      jump\t// in\n    tag_575:\n        /* \"#utility.yul\":11650:11760   */\n      swap1\n      pop\n        /* \"#utility.yul\":11510:11766   */\n      swap3\n      swap2\n      pop\n      pop\n      jump\t// out\n        /* \"#utility.yul\":11772:11910   */\n    tag_412:\n        /* \"#utility.yul\":11867:11871   */\n      0x00\n        /* \"#utility.yul\":11899:11903   */\n      0x20\n        /* \"#utility.yul\":11894:11897   */\n      dup3\n        /* \"#utility.yul\":11890:11904   */\n      add\n        /* \"#utility.yul\":11882:11904   */\n      swap1\n      pop\n        /* \"#utility.yul\":11772:11910   */\n      swap2\n      swap1\n      pop\n      jump\t// out\n        /* \"#utility.yul\":12004:13115   */\n    tag_413:\n        /* \"#utility.yul\":12173:12176   */\n      0x00\n        /* \"#utility.yul\":12202:12281   */\n      tag_578\n        /* \"#utility.yul\":12275:12280   */\n      dup3\n        /* \"#utility.yul\":12202:12281   */\n      tag_403\n      jump\t// in\n    tag_578:\n        /* \"#utility.yul\":12297:12408   */\n      tag_579\n        /* \"#utility.yul\":12401:12407   */\n      dup2\n        /* \"#utility.yul\":12396:12399   */\n      dup6\n        /* \"#utility.yul\":12297:12408   */\n      tag_404\n      jump\t// in\n    tag_579:\n        /* \"#utility.yul\":12290:12408   */\n      swap4\n      pop\n        /* \"#utility.yul\":12434:12437   */\n      dup4\n        /* \"#utility.yul\":12479:12483   */\n      0x20\n        /* \"#utility.yul\":12471:12477   */\n      dup3\n        /* \"#utility.yul\":12467:12484   */\n      mul\n        /* \"#utility.yul\":12462:12465   */\n      dup6\n        /* \"#utility.yul\":12458:12485   */\n      add\n        /* \"#utility.yul\":12509:12590   */\n      tag_580\n        /* \"#utility.yul\":12584:12589   */\n      dup6\n        /* \"#utility.yul\":12509:12590   */\n      tag_405\n      jump\t// in\n    tag_580:\n        /* \"#utility.yul\":12613:12620   */\n      dup1\n        /* \"#utility.yul\":12644:12645   */\n      0x00\n        /* \"#utility.yul\":12629:13070   */\n    tag_581:\n        /* \"#utility.yul\":12654:12660   */\n      dup6\n        /* \"#utility.yul\":12651:12652   */\n      dup2\n        /* \"#utility.yul\":12648:12661   */\n      lt\n        /* \"#utility.yul\":12629:13070   */\n      iszero\n      tag_583\n      jumpi\n        /* \"#utility.yul\":12725:12734   */\n      dup5\n        /* \"#utility.yul\":12719:12723   */\n      dup5\n        /* \"#utility.yul\":12715:12735   */\n      sub\n        /* \"#utility.yul\":12710:12713   */\n      dup10\n        /* \"#utility.yul\":12703:12736   */\n      mstore\n        /* \"#utility.yul\":12776:12782   */\n      dup2\n        /* \"#utility.yul\":12770:12783   */\n      mload\n        /* \"#utility.yul\":12804:12918   */\n      tag_584\n        /* \"#utility.yul\":12913:12917   */\n      dup6\n        /* \"#utility.yul\":12898:12911   */\n      dup3\n        /* \"#utility.yul\":12804:12918   */\n      tag_411\n      jump\t// in\n    tag_584:\n        /* \"#utility.yul\":12796:12918   */\n      swap5\n      pop\n        /* \"#utility.yul\":12941:13026   */\n      tag_585\n        /* \"#utility.yul\":13019:13025   */\n      dup4\n        /* \"#utility.yul\":12941:13026   */\n      tag_412\n      jump\t// in\n    tag_585:\n        /* \"#utility.yul\":12931:13026   */\n      swap3\n      pop\n        /* \"#utility.yul\":13055:13059   */\n      0x20\n        /* \"#utility.yul\":13050:13053   */\n      dup11\n        /* \"#utility.yul\":13046:13060   */\n      add\n        /* \"#utility.yul\":13039:13060   */\n      swap10\n      pop\n        /* \"#utility.yul\":12689:13070   */\n      pop\n        /* \"#utility.yul\":12676:12677   */\n      0x01\n        /* \"#utility.yul\":12673:12674   */\n      dup2\n        /* \"#utility.yul\":12669:12678   */\n      add\n        /* \"#utility.yul\":12664:12678   */\n      swap1\n      pop\n        /* \"#utility.yul\":12629:13070   */\n      jump(tag_581)\n    tag_583:\n        /* \"#utility.yul\":12633:12647   */\n      pop\n        /* \"#utility.yul\":13086:13090   */\n      dup3\n        /* \"#utility.yul\":13079:13090   */\n      swap8\n      pop\n        /* \"#utility.yul\":13106:13109   */\n      dup8\n        /* \"#utility.yul\":13099:13109   */\n      swap6\n      pop\n        /* \"#utility.yul\":12178:13115   */\n      pop\n      pop\n      pop\n      pop\n      pop\n        /* \"#utility.yul\":12004:13115   */\n      swap3\n      swap2\n      pop\n      pop\n      jump\t// out\n        /* \"#utility.yul\":13121:13594   */\n    tag_97:\n        /* \"#utility.yul\":13314:13318   */\n      0x00\n        /* \"#utility.yul\":13352:13354   */\n      0x20\n        /* \"#utility.yul\":13341:13350   */\n      dup3\n        /* \"#utility.yul\":13337:13355   */\n      add\n        /* \"#utility.yul\":13329:13355   */\n      swap1\n      pop\n        /* \"#utility.yul\":13401:13410   */\n      dup2\n        /* \"#utility.yul\":13395:13399   */\n      dup2\n        /* \"#utility.yul\":13391:13411   */\n      sub\n        /* \"#utility.yul\":13387:13388   */\n      0x00\n        /* \"#utility.yul\":13376:13385   */\n      dup4\n        /* \"#utility.yul\":13372:13389   */\n      add\n        /* \"#utility.yul\":13365:13412   */\n      mstore\n        /* \"#utility.yul\":13429:13587   */\n      tag_587\n        /* \"#utility.yul\":13582:13586   */\n      dup2\n        /* \"#utility.yul\":13573:13579   */\n      dup5\n        /* \"#utility.yul\":13429:13587   */\n      tag_413\n      jump\t// in\n    tag_587:\n        /* \"#utility.yul\":13421:13587   */\n      swap1\n      pop\n        /* \"#utility.yul\":13121:13594   */\n      swap3\n      swap2\n      pop\n      pop\n      jump\t// out\n        /* \"#utility.yul\":13600:14153   */\n    tag_107:\n        /* \"#utility.yul\":13777:13781   */\n      0x00\n        /* \"#utility.yul\":13815:13818   */\n      0x80\n        /* \"#utility.yul\":13804:13813   */\n      dup3\n        /* \"#utility.yul\":13800:13819   */\n      add\n        /* \"#utility.yul\":13792:13819   */\n      swap1\n      pop\n        /* \"#utility.yul\":13829:13900   */\n      tag_589\n        /* \"#utility.yul\":13897:13898   */\n      0x00\n        /* \"#utility.yul\":13886:13895   */\n      dup4\n        /* \"#utility.yul\":13882:13899   */\n      add\n        /* \"#utility.yul\":13873:13879   */\n      dup8\n        /* \"#utility.yul\":13829:13900   */\n      tag_394\n      jump\t// in\n    tag_589:\n        /* \"#utility.yul\":13910:13982   */\n      tag_590\n        /* \"#utility.yul\":13978:13980   */\n      0x20\n        /* \"#utility.yul\":13967:13976   */\n      dup4\n        /* \"#utility.yul\":13963:13981   */\n      add\n        /* \"#utility.yul\":13954:13960   */\n      dup7\n        /* \"#utility.yul\":13910:13982   */\n      tag_394\n      jump\t// in\n    tag_590:\n        /* \"#utility.yul\":13992:14064   */\n      tag_591\n        /* \"#utility.yul\":14060:14062   */\n      0x40\n        /* \"#utility.yul\":14049:14058   */\n      dup4\n        /* \"#utility.yul\":14045:14063   */\n      add\n        /* \"#utility.yul\":14036:14042   */\n      dup6\n        /* \"#utility.yul\":13992:14064   */\n      tag_402\n      jump\t// in\n    tag_591:\n        /* \"#utility.yul\":14074:14146   */\n      tag_592\n        /* \"#utility.yul\":14142:14144   */\n      0x60\n        /* \"#utility.yul\":14131:14140   */\n      dup4\n        /* \"#utility.yul\":14127:14145   */\n      add\n        /* \"#utility.yul\":14118:14124   */\n      dup5\n        /* \"#utility.yul\":14074:14146   */\n      tag_402\n      jump\t// in\n    tag_592:\n        /* \"#utility.yul\":13600:14153   */\n      swap6\n      swap5\n      pop\n      pop\n      pop\n      pop\n      pop\n      jump\t// out\n        /* \"#utility.yul\":14159:14328   */\n    tag_414:\n        /* \"#utility.yul\":14243:14254   */\n      0x00\n        /* \"#utility.yul\":14277:14283   */\n      dup3\n        /* \"#utility.yul\":14272:14275   */\n      dup3\n        /* \"#utility.yul\":14265:14284   */\n      mstore\n        /* \"#utility.yul\":14317:14321   */\n      0x20\n        /* \"#utility.yul\":14312:14315   */\n      dup3\n        /* \"#utility.yul\":14308:14322   */\n      add\n        /* \"#utility.yul\":14293:14322   */\n      swap1\n      pop\n        /* \"#utility.yul\":14159:14328   */\n      swap3\n      swap2\n      pop\n      pop\n      jump\t// out\n        /* \"#utility.yul\":14334:14498   */\n    tag_415:\n        /* \"#utility.yul\":14474:14490   */\n      0x4e6f7420617574686f72697a6564000000000000000000000000000000000000\n        /* \"#utility.yul\":14470:14471   */\n      0x00\n        /* \"#utility.yul\":14462:14468   */\n      dup3\n        /* \"#utility.yul\":14458:14472   */\n      add\n        /* \"#utility.yul\":14451:14491   */\n      mstore\n        /* \"#utility.yul\":14334:14498   */\n      pop\n      jump\t// out\n        /* \"#utility.yul\":14504:14870   */\n    tag_416:\n        /* \"#utility.yul\":14646:14649   */\n      0x00\n        /* \"#utility.yul\":14667:14734   */\n      tag_596\n        /* \"#utility.yul\":14731:14733   */\n      0x0e\n        /* \"#utility.yul\":14726:14729   */\n      dup4\n        /* \"#utility.yul\":14667:14734   */\n      tag_414\n      jump\t// in\n    tag_596:\n        /* \"#utility.yul\":14660:14734   */\n      swap2\n      pop\n        /* \"#utility.yul\":14743:14836   */\n      tag_597\n        /* \"#utility.yul\":14832:14835   */\n      dup3\n        /* \"#utility.yul\":14743:14836   */\n      tag_415\n      jump\t// in\n    tag_597:\n        /* \"#utility.yul\":14861:14863   */\n      0x20\n        /* \"#utility.yul\":14856:14859   */\n      dup3\n        /* \"#utility.yul\":14852:14864   */\n      add\n        /* \"#utility.yul\":14845:14864   */\n      swap1\n      pop\n        /* \"#utility.yul\":14504:14870   */\n      swap2\n      swap1\n      pop\n      jump\t// out\n        /* \"#utility.yul\":14876:15295   */\n    tag_123:\n        /* \"#utility.yul\":15042:15046   */\n      0x00\n        /* \"#utility.yul\":15080:15082   */\n      0x20\n        /* \"#utility.yul\":15069:15078   */\n      dup3\n        /* \"#utility.yul\":15065:15083   */\n      add\n        /* \"#utility.yul\":15057:15083   */\n      swap1\n      pop\n        /* \"#utility.yul\":15129:15138   */\n      dup2\n        /* \"#utility.yul\":15123:15127   */\n      dup2\n        /* \"#utility.yul\":15119:15139   */\n      sub\n        /* \"#utility.yul\":15115:15116   */\n      0x00\n        /* \"#utility.yul\":15104:15113   */\n      dup4\n        /* \"#utility.yul\":15100:15117   */\n      add\n        /* \"#utility.yul\":15093:15140   */\n      mstore\n        /* \"#utility.yul\":15157:15288   */\n      tag_599\n        /* \"#utility.yul\":15283:15287   */\n      dup2\n        /* \"#utility.yul\":15157:15288   */\n      tag_416\n      jump\t// in\n    tag_599:\n        /* \"#utility.yul\":15149:15288   */\n      swap1\n      pop\n        /* \"#utility.yul\":14876:15295   */\n      swap2\n      swap1\n      pop\n      jump\t// out\n        /* \"#utility.yul\":15301:15482   */\n    tag_417:\n        /* \"#utility.yul\":15441:15474   */\n      0x5265656e7472616e637947756172643a207265656e7472616e742063616c6c00\n        /* \"#utility.yul\":15437:15438   */\n      0x00\n        /* \"#utility.yul\":15429:15435   */\n      dup3\n        /* \"#utility.yul\":15425:15439   */\n      add\n        /* \"#utility.yul\":15418:15475   */\n      mstore\n        /* \"#utility.yul\":15301:15482   */\n      pop\n      jump\t// out\n        /* \"#utility.yul\":15488:15854   */\n    tag_418:\n        /* \"#utility.yul\":15630:15633   */\n      0x00\n        /* \"#utility.yul\":15651:15718   */\n      tag_602\n        /* \"#utility.yul\":15715:15717   */\n      0x1f\n        /* \"#utility.yul\":15710:15713   */\n      dup4\n        /* \"#utility.yul\":15651:15718   */\n      tag_414\n      jump\t// in\n    tag_602:\n        /* \"#utility.yul\":15644:15718   */\n      swap2\n      pop\n        /* \"#utility.yul\":15727:15820   */\n      tag_603\n        /* \"#utility.yul\":15816:15819   */\n      dup3\n        /* \"#utility.yul\":15727:15820   */\n      tag_417\n      jump\t// in\n    tag_603:\n        /* \"#utility.yul\":15845:15847   */\n      0x20\n        /* \"#utility.yul\":15840:15843   */\n      dup3\n        /* \"#utility.yul\":15836:15848   */\n      add\n        /* \"#utility.yul\":15829:15848   */\n      swap1\n      pop\n        /* \"#utility.yul\":15488:15854   */\n      swap2\n      swap1\n      pop\n      jump\t// out\n        /* \"#utility.yul\":15860:16279   */\n    tag_131:\n        /* \"#utility.yul\":16026:16030   */\n      0x00\n        /* \"#utility.yul\":16064:16066   */\n      0x20\n        /* \"#utility.yul\":16053:16062   */\n      dup3\n        /* \"#utility.yul\":16049:16067   */\n      add\n        /* \"#utility.yul\":16041:16067   */\n      swap1\n      pop\n        /* \"#utility.yul\":16113:16122   */\n      dup2\n        /* \"#utility.yul\":16107:16111   */\n      dup2\n        /* \"#utility.yul\":16103:16123   */\n      sub\n        /* \"#utility.yul\":16099:16100   */\n      0x00\n        /* \"#utility.yul\":16088:16097   */\n      dup4\n        /* \"#utility.yul\":16084:16101   */\n      add\n        /* \"#utility.yul\":16077:16124   */\n      mstore\n        /* \"#utility.yul\":16141:16272   */\n      tag_605\n        /* \"#utility.yul\":16267:16271   */\n      dup2\n        /* \"#utility.yul\":16141:16272   */\n      tag_418\n      jump\t// in\n    tag_605:\n        /* \"#utility.yul\":16133:16272   */\n      swap1\n      pop\n        /* \"#utility.yul\":15860:16279   */\n      swap2\n      swap1\n      pop\n      jump\t// out\n        /* \"#utility.yul\":16285:16509   */\n    tag_419:\n        /* \"#utility.yul\":16425:16459   */\n      0x4f6e6c7920746865206c697374696e67206f776e65722063616e2063616e6365\n        /* \"#utility.yul\":16421:16422   */\n      0x00\n        /* \"#utility.yul\":16413:16419   */\n      dup3\n        /* \"#utility.yul\":16409:16423   */\n      add\n        /* \"#utility.yul\":16402:16460   */\n      mstore\n        /* \"#utility.yul\":16494:16501   */\n      0x6c2069742e000000000000000000000000000000000000000000000000000000\n        /* \"#utility.yul\":16489:16491   */\n      0x20\n        /* \"#utility.yul\":16481:16487   */\n      dup3\n        /* \"#utility.yul\":16477:16492   */\n      add\n        /* \"#utility.yul\":16470:16502   */\n      mstore\n        /* \"#utility.yul\":16285:16509   */\n      pop\n      jump\t// out\n        /* \"#utility.yul\":16515:16881   */\n    tag_420:\n        /* \"#utility.yul\":16657:16660   */\n      0x00\n        /* \"#utility.yul\":16678:16745   */\n      tag_608\n        /* \"#utility.yul\":16742:16744   */\n      0x25\n        /* \"#utility.yul\":16737:16740   */\n      dup4\n        /* \"#utility.yul\":16678:16745   */\n      tag_414\n      jump\t// in\n    tag_608:\n        /* \"#utility.yul\":16671:16745   */\n      swap2\n      pop\n        /* \"#utility.yul\":16754:16847   */\n      tag_609\n        /* \"#utility.yul\":16843:16846   */\n      dup3\n        /* \"#utility.yul\":16754:16847   */\n      tag_419\n      jump\t// in\n    tag_609:\n        /* \"#utility.yul\":16872:16874   */\n      0x40\n        /* \"#utility.yul\":16867:16870   */\n      dup3\n        /* \"#utility.yul\":16863:16875   */\n      add\n        /* \"#utility.yul\":16856:16875   */\n      swap1\n      pop\n        /* \"#utility.yul\":16515:16881   */\n      swap2\n      swap1\n      pop\n      jump\t// out\n        /* \"#utility.yul\":16887:17306   */\n    tag_136:\n        /* \"#utility.yul\":17053:17057   */\n      0x00\n        /* \"#utility.yul\":17091:17093   */\n      0x20\n        /* \"#utility.yul\":17080:17089   */\n      dup3\n        /* \"#utility.yul\":17076:17094   */\n      add\n        /* \"#utility.yul\":17068:17094   */\n      swap1\n      pop\n        /* \"#utility.yul\":17140:17149   */\n      dup2\n        /* \"#utility.yul\":17134:17138   */\n      dup2\n        /* \"#utility.yul\":17130:17150   */\n      sub\n        /* \"#utility.yul\":17126:17127   */\n      0x00\n        /* \"#utility.yul\":17115:17124   */\n      dup4\n        /* \"#utility.yul\":17111:17128   */\n      add\n        /* \"#utility.yul\":17104:17151   */\n      mstore\n        /* \"#utility.yul\":17168:17299   */\n      tag_611\n        /* \"#utility.yul\":17294:17298   */\n      dup2\n        /* \"#utility.yul\":17168:17299   */\n      tag_420\n      jump\t// in\n    tag_611:\n        /* \"#utility.yul\":17160:17299   */\n      swap1\n      pop\n        /* \"#utility.yul\":16887:17306   */\n      swap2\n      swap1\n      pop\n      jump\t// out\n        /* \"#utility.yul\":17312:17494   */\n    tag_421:\n        /* \"#utility.yul\":17452:17486   */\n      0x5072696365206d7573742062652067726561746572207468616e207a65726f2e\n        /* \"#utility.yul\":17448:17449   */\n      0x00\n        /* \"#utility.yul\":17440:17446   */\n      dup3\n        /* \"#utility.yul\":17436:17450   */\n      add\n        /* \"#utility.yul\":17429:17487   */\n      mstore\n        /* \"#utility.yul\":17312:17494   */\n      pop\n      jump\t// out\n        /* \"#utility.yul\":17500:17866   */\n    tag_422:\n        /* \"#utility.yul\":17642:17645   */\n      0x00\n        /* \"#utility.yul\":17663:17730   */\n      tag_614\n        /* \"#utility.yul\":17727:17729   */\n      0x20\n        /* \"#utility.yul\":17722:17725   */\n      dup4\n        /* \"#utility.yul\":17663:17730   */\n      tag_414\n      jump\t// in\n    tag_614:\n        /* \"#utility.yul\":17656:17730   */\n      swap2\n      pop\n        /* \"#utility.yul\":17739:17832   */\n      tag_615\n        /* \"#utility.yul\":17828:17831   */\n      dup3\n        /* \"#utility.yul\":17739:17832   */\n      tag_421\n      jump\t// in\n    tag_615:\n        /* \"#utility.yul\":17857:17859   */\n      0x20\n        /* \"#utility.yul\":17852:17855   */\n      dup3\n        /* \"#utility.yul\":17848:17860   */\n      add\n        /* \"#utility.yul\":17841:17860   */\n      swap1\n      pop\n        /* \"#utility.yul\":17500:17866   */\n      swap2\n      swap1\n      pop\n      jump\t// out\n        /* \"#utility.yul\":17872:18291   */\n    tag_165:\n        /* \"#utility.yul\":18038:18042   */\n      0x00\n        /* \"#utility.yul\":18076:18078   */\n      0x20\n        /* \"#utility.yul\":18065:18074   */\n      dup3\n        /* \"#utility.yul\":18061:18079   */\n      add\n        /* \"#utility.yul\":18053:18079   */\n      swap1\n      pop\n        /* \"#utility.yul\":18125:18134   */\n      dup2\n        /* \"#utility.yul\":18119:18123   */\n      dup2\n        /* \"#utility.yul\":18115:18135   */\n      sub\n        /* \"#utility.yul\":18111:18112   */\n      0x00\n        /* \"#utility.yul\":18100:18109   */\n      dup4\n        /* \"#utility.yul\":18096:18113   */\n      add\n        /* \"#utility.yul\":18089:18136   */\n      mstore\n        /* \"#utility.yul\":18153:18284   */\n      tag_617\n        /* \"#utility.yul\":18279:18283   */\n      dup2\n        /* \"#utility.yul\":18153:18284   */\n      tag_422\n      jump\t// in\n    tag_617:\n        /* \"#utility.yul\":18145:18284   */\n      swap1\n      pop\n        /* \"#utility.yul\":17872:18291   */\n      swap2\n      swap1\n      pop\n      jump\t// out\n        /* \"#utility.yul\":18297:18519   */\n    tag_423:\n        /* \"#utility.yul\":18437:18471   */\n      0x446561646c696e65206d7573742062652067726561746572207468616e207a65\n        /* \"#utility.yul\":18433:18434   */\n      0x00\n        /* \"#utility.yul\":18425:18431   */\n      dup3\n        /* \"#utility.yul\":18421:18435   */\n      add\n        /* \"#utility.yul\":18414:18472   */\n      mstore\n        /* \"#utility.yul\":18506:18511   */\n      0x726f2e0000000000000000000000000000000000000000000000000000000000\n        /* \"#utility.yul\":18501:18503   */\n      0x20\n        /* \"#utility.yul\":18493:18499   */\n      dup3\n        /* \"#utility.yul\":18489:18504   */\n      add\n        /* \"#utility.yul\":18482:18512   */\n      mstore\n        /* \"#utility.yul\":18297:18519   */\n      pop\n      jump\t// out\n        /* \"#utility.yul\":18525:18891   */\n    tag_424:\n        /* \"#utility.yul\":18667:18670   */\n      0x00\n        /* \"#utility.yul\":18688:18755   */\n      tag_620\n        /* \"#utility.yul\":18752:18754   */\n      0x23\n        /* \"#utility.yul\":18747:18750   */\n      dup4\n        /* \"#utility.yul\":18688:18755   */\n      tag_414\n      jump\t// in\n    tag_620:\n        /* \"#utility.yul\":18681:18755   */\n      swap2\n      pop\n        /* \"#utility.yul\":18764:18857   */\n      tag_621\n        /* \"#utility.yul\":18853:18856   */\n      dup3\n        /* \"#utility.yul\":18764:18857   */\n      tag_423\n      jump\t// in\n    tag_621:\n        /* \"#utility.yul\":18882:18884   */\n      0x40\n        /* \"#utility.yul\":18877:18880   */\n      dup3\n        /* \"#utility.yul\":18873:18885   */\n      add\n        /* \"#utility.yul\":18866:18885   */\n      swap1\n      pop\n        /* \"#utility.yul\":18525:18891   */\n      swap2\n      swap1\n      pop\n      jump\t// out\n        /* \"#utility.yul\":18897:19316   */\n    tag_168:\n        /* \"#utility.yul\":19063:19067   */\n      0x00\n        /* \"#utility.yul\":19101:19103   */\n      0x20\n        /* \"#utility.yul\":19090:19099   */\n      dup3\n        /* \"#utility.yul\":19086:19104   */\n      add\n        /* \"#utility.yul\":19078:19104   */\n      swap1\n      pop\n        /* \"#utility.yul\":19150:19159   */\n      dup2\n        /* \"#utility.yul\":19144:19148   */\n      dup2\n        /* \"#utility.yul\":19140:19160   */\n      sub\n        /* \"#utility.yul\":19136:19137   */\n      0x00\n        /* \"#utility.yul\":19125:19134   */\n      dup4\n        /* \"#utility.yul\":19121:19138   */\n      add\n        /* \"#utility.yul\":19114:19161   */\n      mstore\n        /* \"#utility.yul\":19178:19309   */\n      tag_623\n        /* \"#utility.yul\":19304:19308   */\n      dup2\n        /* \"#utility.yul\":19178:19309   */\n      tag_424\n      jump\t// in\n    tag_623:\n        /* \"#utility.yul\":19170:19309   */\n      swap1\n      pop\n        /* \"#utility.yul\":18897:19316   */\n      swap2\n      swap1\n      pop\n      jump\t// out\n        /* \"#utility.yul\":19322:19499   */\n    tag_425:\n        /* \"#utility.yul\":19462:19491   */\n      0x4d757374206c697374206174206c65617374206f6e65204e46542e0000000000\n        /* \"#utility.yul\":19458:19459   */\n      0x00\n        /* \"#utility.yul\":19450:19456   */\n      dup3\n        /* \"#utility.yul\":19446:19460   */\n      add\n        /* \"#utility.yul\":19439:19492   */\n      mstore\n        /* \"#utility.yul\":19322:19499   */\n      pop\n      jump\t// out\n        /* \"#utility.yul\":19505:19871   */\n    tag_426:\n        /* \"#utility.yul\":19647:19650   */\n      0x00\n        /* \"#utility.yul\":19668:19735   */\n      tag_626\n        /* \"#utility.yul\":19732:19734   */\n      0x1b\n        /* \"#utility.yul\":19727:19730   */\n      dup4\n        /* \"#utility.yul\":19668:19735   */\n      tag_414\n      jump\t// in\n    tag_626:\n        /* \"#utility.yul\":19661:19735   */\n      swap2\n      pop\n        /* \"#utility.yul\":19744:19837   */\n      tag_627\n        /* \"#utility.yul\":19833:19836   */\n      dup3\n        /* \"#utility.yul\":19744:19837   */\n      tag_425\n      jump\t// in\n    tag_627:\n        /* \"#utility.yul\":19862:19864   */\n      0x20\n        /* \"#utility.yul\":19857:19860   */\n      dup3\n        /* \"#utility.yul\":19853:19865   */\n      add\n        /* \"#utility.yul\":19846:19865   */\n      swap1\n      pop\n        /* \"#utility.yul\":19505:19871   */\n      swap2\n      swap1\n      pop\n      jump\t// out\n        /* \"#utility.yul\":19877:20296   */\n    tag_171:\n        /* \"#utility.yul\":20043:20047   */\n      0x00\n        /* \"#utility.yul\":20081:20083   */\n      0x20\n        /* \"#utility.yul\":20070:20079   */\n      dup3\n        /* \"#utility.yul\":20066:20084   */\n      add\n        /* \"#utility.yul\":20058:20084   */\n      swap1\n      pop\n        /* \"#utility.yul\":20130:20139   */\n      dup2\n        /* \"#utility.yul\":20124:20128   */\n      dup2\n        /* \"#utility.yul\":20120:20140   */\n      sub\n        /* \"#utility.yul\":20116:20117   */\n      0x00\n        /* \"#utility.yul\":20105:20114   */\n      dup4\n        /* \"#utility.yul\":20101:20118   */\n      add\n        /* \"#utility.yul\":20094:20141   */\n      mstore\n        /* \"#utility.yul\":20158:20289   */\n      tag_629\n        /* \"#utility.yul\":20284:20288   */\n      dup2\n        /* \"#utility.yul\":20158:20289   */\n      tag_426\n      jump\t// in\n    tag_629:\n        /* \"#utility.yul\":20150:20289   */\n      swap1\n      pop\n        /* \"#utility.yul\":19877:20296   */\n      swap2\n      swap1\n      pop\n      jump\t// out\n        /* \"#utility.yul\":20302:20482   */\n    tag_177:\n        /* \"#utility.yul\":20350:20427   */\n      0x4e487b7100000000000000000000000000000000000000000000000000000000\n        /* \"#utility.yul\":20347:20348   */\n      0x00\n        /* \"#utility.yul\":20340:20428   */\n      mstore\n        /* \"#utility.yul\":20447:20451   */\n      0x32\n        /* \"#utility.yul\":20444:20445   */\n      0x04\n        /* \"#utility.yul\":20437:20452   */\n      mstore\n        /* \"#utility.yul\":20471:20475   */\n      0x24\n        /* \"#utility.yul\":20468:20469   */\n      0x00\n        /* \"#utility.yul\":20461:20476   */\n      revert\n        /* \"#utility.yul\":20488:20631   */\n    tag_427:\n        /* \"#utility.yul\":20545:20550   */\n      0x00\n        /* \"#utility.yul\":20576:20582   */\n      dup2\n        /* \"#utility.yul\":20570:20583   */\n      mload\n        /* \"#utility.yul\":20561:20583   */\n      swap1\n      pop\n        /* \"#utility.yul\":20592:20625   */\n      tag_632\n        /* \"#utility.yul\":20619:20624   */\n      dup2\n        /* \"#utility.yul\":20592:20625   */\n      tag_379\n      jump\t// in\n    tag_632:\n        /* \"#utility.yul\":20488:20631   */\n      swap3\n      swap2\n      pop\n      pop\n      jump\t// out\n        /* \"#utility.yul\":20637:20988   */\n    tag_182:\n        /* \"#utility.yul\":20707:20713   */\n      0x00\n        /* \"#utility.yul\":20756:20758   */\n      0x20\n        /* \"#utility.yul\":20744:20753   */\n      dup3\n        /* \"#utility.yul\":20735:20742   */\n      dup5\n        /* \"#utility.yul\":20731:20754   */\n      sub\n        /* \"#utility.yul\":20727:20759   */\n      slt\n        /* \"#utility.yul\":20724:20843   */\n      iszero\n      tag_634\n      jumpi\n        /* \"#utility.yul\":20762:20841   */\n      tag_635\n      tag_375\n      jump\t// in\n    tag_635:\n        /* \"#utility.yul\":20724:20843   */\n    tag_634:\n        /* \"#utility.yul\":20882:20883   */\n      0x00\n        /* \"#utility.yul\":20907:20971   */\n      tag_636\n        /* \"#utility.yul\":20963:20970   */\n      dup5\n        /* \"#utility.yul\":20954:20960   */\n      dup3\n        /* \"#utility.yul\":20943:20952   */\n      dup6\n        /* \"#utility.yul\":20939:20961   */\n      add\n        /* \"#utility.yul\":20907:20971   */\n      tag_427\n      jump\t// in\n    tag_636:\n        /* \"#utility.yul\":20897:20971   */\n      swap2\n      pop\n        /* \"#utility.yul\":20853:20981   */\n      pop\n        /* \"#utility.yul\":20637:20988   */\n      swap3\n      swap2\n      pop\n      pop\n      jump\t// out\n        /* \"#utility.yul\":20994:21176   */\n    tag_428:\n        /* \"#utility.yul\":21134:21168   */\n      0x596f75206d757374206f776e20746865204e465420746f206c6973742069742e\n        /* \"#utility.yul\":21130:21131   */\n      0x00\n        /* \"#utility.yul\":21122:21128   */\n      dup3\n        /* \"#utility.yul\":21118:21132   */\n      add\n        /* \"#utility.yul\":21111:21169   */\n      mstore\n        /* \"#utility.yul\":20994:21176   */\n      pop\n      jump\t// out\n        /* \"#utility.yul\":21182:21548   */\n    tag_429:\n        /* \"#utility.yul\":21324:21327   */\n      0x00\n        /* \"#utility.yul\":21345:21412   */\n      tag_639\n        /* \"#utility.yul\":21409:21411   */\n      0x20\n        /* \"#utility.yul\":21404:21407   */\n      dup4\n        /* \"#utility.yul\":21345:21412   */\n      tag_414\n      jump\t// in\n    tag_639:\n        /* \"#utility.yul\":21338:21412   */\n      swap2\n      pop\n        /* \"#utility.yul\":21421:21514   */\n      tag_640\n        /* \"#utility.yul\":21510:21513   */\n      dup3\n        /* \"#utility.yul\":21421:21514   */\n      tag_428\n      jump\t// in\n    tag_640:\n        /* \"#utility.yul\":21539:21541   */\n      0x20\n        /* \"#utility.yul\":21534:21537   */\n      dup3\n        /* \"#utility.yul\":21530:21542   */\n      add\n        /* \"#utility.yul\":21523:21542   */\n      swap1\n      pop\n        /* \"#utility.yul\":21182:21548   */\n      swap2\n      swap1\n      pop\n      jump\t// out\n        /* \"#utility.yul\":21554:21973   */\n    tag_185:\n        /* \"#utility.yul\":21720:21724   */\n      0x00\n        /* \"#utility.yul\":21758:21760   */\n      0x20\n        /* \"#utility.yul\":21747:21756   */\n      dup3\n        /* \"#utility.yul\":21743:21761   */\n      add\n        /* \"#utility.yul\":21735:21761   */\n      swap1\n      pop\n        /* \"#utility.yul\":21807:21816   */\n      dup2\n        /* \"#utility.yul\":21801:21805   */\n      dup2\n        /* \"#utility.yul\":21797:21817   */\n      sub\n        /* \"#utility.yul\":21793:21794   */\n      0x00\n        /* \"#utility.yul\":21782:21791   */\n      dup4\n        /* \"#utility.yul\":21778:21795   */\n      add\n        /* \"#utility.yul\":21771:21818   */\n      mstore\n        /* \"#utility.yul\":21835:21966   */\n      tag_642\n        /* \"#utility.yul\":21961:21965   */\n      dup2\n        /* \"#utility.yul\":21835:21966   */\n      tag_429\n      jump\t// in\n    tag_642:\n        /* \"#utility.yul\":21827:21966   */\n      swap1\n      pop\n        /* \"#utility.yul\":21554:21973   */\n      swap2\n      swap1\n      pop\n      jump\t// out\n        /* \"#utility.yul\":21979:22159   */\n    tag_430:\n        /* \"#utility.yul\":22027:22104   */\n      0x4e487b7100000000000000000000000000000000000000000000000000000000\n        /* \"#utility.yul\":22024:22025   */\n      0x00\n        /* \"#utility.yul\":22017:22105   */\n      mstore\n        /* \"#utility.yul\":22124:22128   */\n      0x11\n        /* \"#utility.yul\":22121:22122   */\n      0x04\n        /* \"#utility.yul\":22114:22129   */\n      mstore\n        /* \"#utility.yul\":22148:22152   */\n      0x24\n        /* \"#utility.yul\":22145:22146   */\n      0x00\n        /* \"#utility.yul\":22138:22153   */\n      revert\n        /* \"#utility.yul\":22165:22398   */\n    tag_187:\n        /* \"#utility.yul\":22204:22207   */\n      0x00\n        /* \"#utility.yul\":22227:22251   */\n      tag_645\n        /* \"#utility.yul\":22245:22250   */\n      dup3\n        /* \"#utility.yul\":22227:22251   */\n      tag_381\n      jump\t// in\n    tag_645:\n        /* \"#utility.yul\":22218:22251   */\n      swap2\n      pop\n        /* \"#utility.yul\":22273:22339   */\n      0xffffffffffffffffffffffffffffffffffffffffffffffffffffffffffffffff\n        /* \"#utility.yul\":22266:22271   */\n      dup3\n        /* \"#utility.yul\":22263:22340   */\n      eq\n        /* \"#utility.yul\":22260:22363   */\n      iszero\n      tag_646\n      jumpi\n        /* \"#utility.yul\":22343:22361   */\n      tag_647\n      tag_430\n      jump\t// in\n    tag_647:\n        /* \"#utility.yul\":22260:22363   */\n    tag_646:\n        /* \"#utility.yul\":22390:22391   */\n      0x01\n        /* \"#utility.yul\":22383:22388   */\n      dup3\n        /* \"#utility.yul\":22379:22392   */\n      add\n        /* \"#utility.yul\":22372:22392   */\n      swap1\n      pop\n        /* \"#utility.yul\":22165:22398   */\n      swap2\n      swap1\n      pop\n      jump\t// out\n        /* \"#utility.yul\":22404:22709   */\n    tag_189:\n        /* \"#utility.yul\":22444:22447   */\n      0x00\n        /* \"#utility.yul\":22463:22483   */\n      tag_649\n        /* \"#utility.yul\":22481:22482   */\n      dup3\n        /* \"#utility.yul\":22463:22483   */\n      tag_381\n      jump\t// in\n    tag_649:\n        /* \"#utility.yul\":22458:22483   */\n      swap2\n      pop\n        /* \"#utility.yul\":22497:22517   */\n      tag_650\n        /* \"#utility.yul\":22515:22516   */\n      dup4\n        /* \"#utility.yul\":22497:22517   */\n      tag_381\n      jump\t// in\n    tag_650:\n        /* \"#utility.yul\":22492:22517   */\n      swap3\n      pop\n        /* \"#utility.yul\":22651:22652   */\n      dup3\n        /* \"#utility.yul\":22583:22649   */\n      0xffffffffffffffffffffffffffffffffffffffffffffffffffffffffffffffff\n        /* \"#utility.yul\":22579:22653   */\n      sub\n        /* \"#utility.yul\":22576:22577   */\n      dup3\n        /* \"#utility.yul\":22573:22654   */\n      gt\n        /* \"#utility.yul\":22570:22677   */\n      iszero\n      tag_651\n      jumpi\n        /* \"#utility.yul\":22657:22675   */\n      tag_652\n      tag_430\n      jump\t// in\n    tag_652:\n        /* \"#utility.yul\":22570:22677   */\n    tag_651:\n        /* \"#utility.yul\":22701:22702   */\n      dup3\n        /* \"#utility.yul\":22698:22699   */\n      dup3\n        /* \"#utility.yul\":22694:22703   */\n      add\n        /* \"#utility.yul\":22687:22703   */\n      swap1\n      pop\n        /* \"#utility.yul\":22404:22709   */\n      swap3\n      swap2\n      pop\n      pop\n      jump\t// out\n        /* \"#utility.yul\":22715:23308   */\n    tag_195:\n        /* \"#utility.yul\":22914:22918   */\n      0x00\n        /* \"#utility.yul\":22952:22954   */\n      0x60\n        /* \"#utility.yul\":22941:22950   */\n      dup3\n        /* \"#utility.yul\":22937:22955   */\n      add\n        /* \"#utility.yul\":22929:22955   */\n      swap1\n      pop\n        /* \"#utility.yul\":23001:23010   */\n      dup2\n        /* \"#utility.yul\":22995:22999   */\n      dup2\n        /* \"#utility.yul\":22991:23011   */\n      sub\n        /* \"#utility.yul\":22987:22988   */\n      0x00\n        /* \"#utility.yul\":22976:22985   */\n      dup4\n        /* \"#utility.yul\":22972:22989   */\n      add\n        /* \"#utility.yul\":22965:23012   */\n      mstore\n        /* \"#utility.yul\":23029:23137   */\n      tag_654\n        /* \"#utility.yul\":23132:23136   */\n      dup2\n        /* \"#utility.yul\":23123:23129   */\n      dup7\n        /* \"#utility.yul\":23029:23137   */\n      tag_401\n      jump\t// in\n    tag_654:\n        /* \"#utility.yul\":23021:23137   */\n      swap1\n      pop\n        /* \"#utility.yul\":23147:23219   */\n      tag_655\n        /* \"#utility.yul\":23215:23217   */\n      0x20\n        /* \"#utility.yul\":23204:23213   */\n      dup4\n        /* \"#utility.yul\":23200:23218   */\n      add\n        /* \"#utility.yul\":23191:23197   */\n      dup6\n        /* \"#utility.yul\":23147:23219   */\n      tag_402\n      jump\t// in\n    tag_655:\n        /* \"#utility.yul\":23229:23301   */\n      tag_656\n        /* \"#utility.yul\":23297:23299   */\n      0x40\n        /* \"#utility.yul\":23286:23295   */\n      dup4\n        /* \"#utility.yul\":23282:23300   */\n      add\n        /* \"#utility.yul\":23273:23279   */\n      dup5\n        /* \"#utility.yul\":23229:23301   */\n      tag_402\n      jump\t// in\n    tag_656:\n        /* \"#utility.yul\":22715:23308   */\n      swap5\n      swap4\n      pop\n      pop\n      pop\n      pop\n      jump\t// out\n        /* \"#utility.yul\":23314:23538   */\n    tag_431:\n        /* \"#utility.yul\":23454:23488   */\n      0x53656e742076616c7565206d7573742062652067726561746572207468616e20\n        /* \"#utility.yul\":23450:23451   */\n      0x00\n        /* \"#utility.yul\":23442:23448   */\n      dup3\n        /* \"#utility.yul\":23438:23452   */\n      add\n        /* \"#utility.yul\":23431:23489   */\n      mstore\n        /* \"#utility.yul\":23523:23530   */\n      0x7a65726f2e000000000000000000000000000000000000000000000000000000\n        /* \"#utility.yul\":23518:23520   */\n      0x20\n        /* \"#utility.yul\":23510:23516   */\n      dup3\n        /* \"#utility.yul\":23506:23521   */\n      add\n        /* \"#utility.yul\":23499:23531   */\n      mstore\n        /* \"#utility.yul\":23314:23538   */\n      pop\n      jump\t// out\n        /* \"#utility.yul\":23544:23910   */\n    tag_432:\n        /* \"#utility.yul\":23686:23689   */\n      0x00\n        /* \"#utility.yul\":23707:23774   */\n      tag_659\n        /* \"#utility.yul\":23771:23773   */\n      0x25\n        /* \"#utility.yul\":23766:23769   */\n      dup4\n        /* \"#utility.yul\":23707:23774   */\n      tag_414\n      jump\t// in\n    tag_659:\n        /* \"#utility.yul\":23700:23774   */\n      swap2\n      pop\n        /* \"#utility.yul\":23783:23876   */\n      tag_660\n        /* \"#utility.yul\":23872:23875   */\n      dup3\n        /* \"#utility.yul\":23783:23876   */\n      tag_431\n      jump\t// in\n    tag_660:\n        /* \"#utility.yul\":23901:23903   */\n      0x40\n        /* \"#utility.yul\":23896:23899   */\n      dup3\n        /* \"#utility.yul\":23892:23904   */\n      add\n        /* \"#utility.yul\":23885:23904   */\n      swap1\n      pop\n        /* \"#utility.yul\":23544:23910   */\n      swap2\n      swap1\n      pop\n      jump\t// out\n        /* \"#utility.yul\":23916:24335   */\n    tag_208:\n        /* \"#utility.yul\":24082:24086   */\n      0x00\n        /* \"#utility.yul\":24120:24122   */\n      0x20\n        /* \"#utility.yul\":24109:24118   */\n      dup3\n        /* \"#utility.yul\":24105:24123   */\n      add\n        /* \"#utility.yul\":24097:24123   */\n      swap1\n      pop\n        /* \"#utility.yul\":24169:24178   */\n      dup2\n        /* \"#utility.yul\":24163:24167   */\n      dup2\n        /* \"#utility.yul\":24159:24179   */\n      sub\n        /* \"#utility.yul\":24155:24156   */\n      0x00\n        /* \"#utility.yul\":24144:24153   */\n      dup4\n        /* \"#utility.yul\":24140:24157   */\n      add\n        /* \"#utility.yul\":24133:24180   */\n      mstore\n        /* \"#utility.yul\":24197:24328   */\n      tag_662\n        /* \"#utility.yul\":24323:24327   */\n      dup2\n        /* \"#utility.yul\":24197:24328   */\n      tag_432\n      jump\t// in\n    tag_662:\n        /* \"#utility.yul\":24189:24328   */\n      swap1\n      pop\n        /* \"#utility.yul\":23916:24335   */\n      swap2\n      swap1\n      pop\n      jump\t// out\n        /* \"#utility.yul\":24341:24514   */\n    tag_433:\n        /* \"#utility.yul\":24481:24506   */\n      0x4c697374696e6720646f6573206e6f742065786973742e000000000000000000\n        /* \"#utility.yul\":24477:24478   */\n      0x00\n        /* \"#utility.yul\":24469:24475   */\n      dup3\n        /* \"#utility.yul\":24465:24479   */\n      add\n        /* \"#utility.yul\":24458:24507   */\n      mstore\n        /* \"#utility.yul\":24341:24514   */\n      pop\n      jump\t// out\n        /* \"#utility.yul\":24520:24886   */\n    tag_434:\n        /* \"#utility.yul\":24662:24665   */\n      0x00\n        /* \"#utility.yul\":24683:24750   */\n      tag_665\n        /* \"#utility.yul\":24747:24749   */\n      0x17\n        /* \"#utility.yul\":24742:24745   */\n      dup4\n        /* \"#utility.yul\":24683:24750   */\n      tag_414\n      jump\t// in\n    tag_665:\n        /* \"#utility.yul\":24676:24750   */\n      swap2\n      pop\n        /* \"#utility.yul\":24759:24852   */\n      tag_666\n        /* \"#utility.yul\":24848:24851   */\n      dup3\n        /* \"#utility.yul\":24759:24852   */\n      tag_433\n      jump\t// in\n    tag_666:\n        /* \"#utility.yul\":24877:24879   */\n      0x20\n        /* \"#utility.yul\":24872:24875   */\n      dup3\n        /* \"#utility.yul\":24868:24880   */\n      add\n        /* \"#utility.yul\":24861:24880   */\n      swap1\n      pop\n        /* \"#utility.yul\":24520:24886   */\n      swap2\n      swap1\n      pop\n      jump\t// out\n        /* \"#utility.yul\":24892:25311   */\n    tag_211:\n        /* \"#utility.yul\":25058:25062   */\n      0x00\n        /* \"#utility.yul\":25096:25098   */\n      0x20\n        /* \"#utility.yul\":25085:25094   */\n      dup3\n        /* \"#utility.yul\":25081:25099   */\n      add\n        /* \"#utility.yul\":25073:25099   */\n      swap1\n      pop\n        /* \"#utility.yul\":25145:25154   */\n      dup2\n        /* \"#utility.yul\":25139:25143   */\n      dup2\n        /* \"#utility.yul\":25135:25155   */\n      sub\n        /* \"#utility.yul\":25131:25132   */\n      0x00\n        /* \"#utility.yul\":25120:25129   */\n      dup4\n        /* \"#utility.yul\":25116:25133   */\n      add\n        /* \"#utility.yul\":25109:25156   */\n      mstore\n        /* \"#utility.yul\":25173:25304   */\n      tag_668\n        /* \"#utility.yul\":25299:25303   */\n      dup2\n        /* \"#utility.yul\":25173:25304   */\n      tag_434\n      jump\t// in\n    tag_668:\n        /* \"#utility.yul\":25165:25304   */\n      swap1\n      pop\n        /* \"#utility.yul\":24892:25311   */\n      swap2\n      swap1\n      pop\n      jump\t// out\n        /* \"#utility.yul\":25317:25492   */\n    tag_435:\n        /* \"#utility.yul\":25457:25484   */\n      0x54686973206c697374696e672068617320657870697265642e00000000000000\n        /* \"#utility.yul\":25453:25454   */\n      0x00\n        /* \"#utility.yul\":25445:25451   */\n      dup3\n        /* \"#utility.yul\":25441:25455   */\n      add\n        /* \"#utility.yul\":25434:25485   */\n      mstore\n        /* \"#utility.yul\":25317:25492   */\n      pop\n      jump\t// out\n        /* \"#utility.yul\":25498:25864   */\n    tag_436:\n        /* \"#utility.yul\":25640:25643   */\n      0x00\n        /* \"#utility.yul\":25661:25728   */\n      tag_671\n        /* \"#utility.yul\":25725:25727   */\n      0x19\n        /* \"#utility.yul\":25720:25723   */\n      dup4\n        /* \"#utility.yul\":25661:25728   */\n      tag_414\n      jump\t// in\n    tag_671:\n        /* \"#utility.yul\":25654:25728   */\n      swap2\n      pop\n        /* \"#utility.yul\":25737:25830   */\n      tag_672\n        /* \"#utility.yul\":25826:25829   */\n      dup3\n        /* \"#utility.yul\":25737:25830   */\n      tag_435\n      jump\t// in\n    tag_672:\n        /* \"#utility.yul\":25855:25857   */\n      0x20\n        /* \"#utility.yul\":25850:25853   */\n      dup3\n        /* \"#utility.yul\":25846:25858   */\n      add\n        /* \"#utility.yul\":25839:25858   */\n      swap1\n      pop\n        /* \"#utility.yul\":25498:25864   */\n      swap2\n      swap1\n      pop\n      jump\t// out\n        /* \"#utility.yul\":25870:26289   */\n    tag_214:\n        /* \"#utility.yul\":26036:26040   */\n      0x00\n        /* \"#utility.yul\":26074:26076   */\n      0x20\n        /* \"#utility.yul\":26063:26072   */\n      dup3\n        /* \"#utility.yul\":26059:26077   */\n      add\n        /* \"#utility.yul\":26051:26077   */\n      swap1\n      pop\n        /* \"#utility.yul\":26123:26132   */\n      dup2\n        /* \"#utility.yul\":26117:26121   */\n      dup2\n        /* \"#utility.yul\":26113:26133   */\n      sub\n        /* \"#utility.yul\":26109:26110   */\n      0x00\n        /* \"#utility.yul\":26098:26107   */\n      dup4\n        /* \"#utility.yul\":26094:26111   */\n      add\n        /* \"#utility.yul\":26087:26134   */\n      mstore\n        /* \"#utility.yul\":26151:26282   */\n      tag_674\n        /* \"#utility.yul\":26277:26281   */\n      dup2\n        /* \"#utility.yul\":26151:26282   */\n      tag_436\n      jump\t// in\n    tag_674:\n        /* \"#utility.yul\":26143:26282   */\n      swap1\n      pop\n        /* \"#utility.yul\":25870:26289   */\n      swap2\n      swap1\n      pop\n      jump\t// out\n        /* \"#utility.yul\":26295:26528   */\n    tag_437:\n        /* \"#utility.yul\":26435:26469   */\n      0x53656e742076616c7565206d75737420626520657175616c20746f2074686520\n        /* \"#utility.yul\":26431:26432   */\n      0x00\n        /* \"#utility.yul\":26423:26429   */\n      dup3\n        /* \"#utility.yul\":26419:26433   */\n      add\n        /* \"#utility.yul\":26412:26470   */\n      mstore\n        /* \"#utility.yul\":26504:26520   */\n      0x6c697374696e672070726963652e000000000000000000000000000000000000\n        /* \"#utility.yul\":26499:26501   */\n      0x20\n        /* \"#utility.yul\":26491:26497   */\n      dup3\n        /* \"#utility.yul\":26487:26502   */\n      add\n        /* \"#utility.yul\":26480:26521   */\n      mstore\n        /* \"#utility.yul\":26295:26528   */\n      pop\n      jump\t// out\n        /* \"#utility.yul\":26534:26900   */\n    tag_438:\n        /* \"#utility.yul\":26676:26679   */\n      0x00\n        /* \"#utility.yul\":26697:26764   */\n      tag_677\n        /* \"#utility.yul\":26761:26763   */\n      0x2e\n        /* \"#utility.yul\":26756:26759   */\n      dup4\n        /* \"#utility.yul\":26697:26764   */\n      tag_414\n      jump\t// in\n    tag_677:\n        /* \"#utility.yul\":26690:26764   */\n      swap2\n      pop\n        /* \"#utility.yul\":26773:26866   */\n      tag_678\n        /* \"#utility.yul\":26862:26865   */\n      dup3\n        /* \"#utility.yul\":26773:26866   */\n      tag_437\n      jump\t// in\n    tag_678:\n        /* \"#utility.yul\":26891:26893   */\n      0x40\n        /* \"#utility.yul\":26886:26889   */\n      dup3\n        /* \"#utility.yul\":26882:26894   */\n      add\n        /* \"#utility.yul\":26875:26894   */\n      swap1\n      pop\n        /* \"#utility.yul\":26534:26900   */\n      swap2\n      swap1\n      pop\n      jump\t// out\n        /* \"#utility.yul\":26906:27325   */\n    tag_217:\n        /* \"#utility.yul\":27072:27076   */\n      0x00\n        /* \"#utility.yul\":27110:27112   */\n      0x20\n        /* \"#utility.yul\":27099:27108   */\n      dup3\n        /* \"#utility.yul\":27095:27113   */\n      add\n        /* \"#utility.yul\":27087:27113   */\n      swap1\n      pop\n        /* \"#utility.yul\":27159:27168   */\n      dup2\n        /* \"#utility.yul\":27153:27157   */\n      dup2\n        /* \"#utility.yul\":27149:27169   */\n      sub\n        /* \"#utility.yul\":27145:27146   */\n      0x00\n        /* \"#utility.yul\":27134:27143   */\n      dup4\n        /* \"#utility.yul\":27130:27147   */\n      add\n        /* \"#utility.yul\":27123:27170   */\n      mstore\n        /* \"#utility.yul\":27187:27318   */\n      tag_680\n        /* \"#utility.yul\":27313:27317   */\n      dup2\n        /* \"#utility.yul\":27187:27318   */\n      tag_438\n      jump\t// in\n    tag_680:\n        /* \"#utility.yul\":27179:27318   */\n      swap1\n      pop\n        /* \"#utility.yul\":26906:27325   */\n      swap2\n      swap1\n      pop\n      jump\t// out\n        /* \"#utility.yul\":27331:27679   */\n    tag_219:\n        /* \"#utility.yul\":27371:27378   */\n      0x00\n        /* \"#utility.yul\":27394:27414   */\n      tag_682\n        /* \"#utility.yul\":27412:27413   */\n      dup3\n        /* \"#utility.yul\":27394:27414   */\n      tag_381\n      jump\t// in\n    tag_682:\n        /* \"#utility.yul\":27389:27414   */\n      swap2\n      pop\n        /* \"#utility.yul\":27428:27448   */\n      tag_683\n        /* \"#utility.yul\":27446:27447   */\n      dup4\n        /* \"#utility.yul\":27428:27448   */\n      tag_381\n      jump\t// in\n    tag_683:\n        /* \"#utility.yul\":27423:27448   */\n      swap3\n      pop\n        /* \"#utility.yul\":27616:27617   */\n      dup2\n        /* \"#utility.yul\":27548:27614   */\n      0xffffffffffffffffffffffffffffffffffffffffffffffffffffffffffffffff\n        /* \"#utility.yul\":27544:27618   */\n      div\n        /* \"#utility.yul\":27541:27542   */\n      dup4\n        /* \"#utility.yul\":27538:27619   */\n      gt\n        /* \"#utility.yul\":27533:27534   */\n      dup3\n        /* \"#utility.yul\":27526:27535   */\n      iszero\n        /* \"#utility.yul\":27519:27536   */\n      iszero\n        /* \"#utility.yul\":27515:27620   */\n      and\n        /* \"#utility.yul\":27512:27643   */\n      iszero\n      tag_684\n      jumpi\n        /* \"#utility.yul\":27623:27641   */\n      tag_685\n      tag_430\n      jump\t// in\n    tag_685:\n        /* \"#utility.yul\":27512:27643   */\n    tag_684:\n        /* \"#utility.yul\":27671:27672   */\n      dup3\n        /* \"#utility.yul\":27668:27669   */\n      dup3\n        /* \"#utility.yul\":27664:27673   */\n      mul\n        /* \"#utility.yul\":27653:27673   */\n      swap1\n      pop\n        /* \"#utility.yul\":27331:27679   */\n      swap3\n      swap2\n      pop\n      pop\n      jump\t// out\n        /* \"#utility.yul\":27685:27865   */\n    tag_439:\n        /* \"#utility.yul\":27733:27810   */\n      0x4e487b7100000000000000000000000000000000000000000000000000000000\n        /* \"#utility.yul\":27730:27731   */\n      0x00\n        /* \"#utility.yul\":27723:27811   */\n      mstore\n        /* \"#utility.yul\":27830:27834   */\n      0x12\n        /* \"#utility.yul\":27827:27828   */\n      0x04\n        /* \"#utility.yul\":27820:27835   */\n      mstore\n        /* \"#utility.yul\":27854:27858   */\n      0x24\n        /* \"#utility.yul\":27851:27852   */\n      0x00\n        /* \"#utility.yul\":27844:27859   */\n      revert\n        /* \"#utility.yul\":27871:28056   */\n    tag_221:\n        /* \"#utility.yul\":27911:27912   */\n      0x00\n        /* \"#utility.yul\":27928:27948   */\n      tag_688\n        /* \"#utility.yul\":27946:27947   */\n      dup3\n        /* \"#utility.yul\":27928:27948   */\n      tag_381\n      jump\t// in\n    tag_688:\n        /* \"#utility.yul\":27923:27948   */\n      swap2\n      pop\n        /* \"#utility.yul\":27962:27982   */\n      tag_689\n        /* \"#utility.yul\":27980:27981   */\n      dup4\n        /* \"#utility.yul\":27962:27982   */\n      tag_381\n      jump\t// in\n    tag_689:\n        /* \"#utility.yul\":27957:27982   */\n      swap3\n      pop\n        /* \"#utility.yul\":28001:28002   */\n      dup3\n        /* \"#utility.yul\":27991:28026   */\n      tag_690\n      jumpi\n        /* \"#utility.yul\":28006:28024   */\n      tag_691\n      tag_439\n      jump\t// in\n    tag_691:\n        /* \"#utility.yul\":27991:28026   */\n    tag_690:\n        /* \"#utility.yul\":28048:28049   */\n      dup3\n        /* \"#utility.yul\":28045:28046   */\n      dup3\n        /* \"#utility.yul\":28041:28050   */\n      div\n        /* \"#utility.yul\":28036:28050   */\n      swap1\n      pop\n        /* \"#utility.yul\":27871:28056   */\n      swap3\n      swap2\n      pop\n      pop\n      jump\t// out\n        /* \"#utility.yul\":28062:28253   */\n    tag_225:\n        /* \"#utility.yul\":28102:28106   */\n      0x00\n        /* \"#utility.yul\":28122:28142   */\n      tag_693\n        /* \"#utility.yul\":28140:28141   */\n      dup3\n        /* \"#utility.yul\":28122:28142   */\n      tag_381\n      jump\t// in\n    tag_693:\n        /* \"#utility.yul\":28117:28142   */\n      swap2\n      pop\n        /* \"#utility.yul\":28156:28176   */\n      tag_694\n        /* \"#utility.yul\":28174:28175   */\n      dup4\n        /* \"#utility.yul\":28156:28176   */\n      tag_381\n      jump\t// in\n    tag_694:\n        /* \"#utility.yul\":28151:28176   */\n      swap3\n      pop\n        /* \"#utility.yul\":28195:28196   */\n      dup3\n        /* \"#utility.yul\":28192:28193   */\n      dup3\n        /* \"#utility.yul\":28189:28197   */\n      lt\n        /* \"#utility.yul\":28186:28220   */\n      iszero\n      tag_695\n      jumpi\n        /* \"#utility.yul\":28200:28218   */\n      tag_696\n      tag_430\n      jump\t// in\n    tag_696:\n        /* \"#utility.yul\":28186:28220   */\n    tag_695:\n        /* \"#utility.yul\":28245:28246   */\n      dup3\n        /* \"#utility.yul\":28242:28243   */\n      dup3\n        /* \"#utility.yul\":28238:28247   */\n      sub\n        /* \"#utility.yul\":28230:28247   */\n      swap1\n      pop\n        /* \"#utility.yul\":28062:28253   */\n      swap3\n      swap2\n      pop\n      pop\n      jump\t// out\n        /* \"#utility.yul\":28259:28484   */\n    tag_440:\n        /* \"#utility.yul\":28399:28433   */\n      0x53656c6c6572206e6f206c6f6e676572206f776e73206f6e65206f6620746865\n        /* \"#utility.yul\":28395:28396   */\n      0x00\n        /* \"#utility.yul\":28387:28393   */\n      dup3\n        /* \"#utility.yul\":28383:28397   */\n      add\n        /* \"#utility.yul\":28376:28434   */\n      mstore\n        /* \"#utility.yul\":28468:28476   */\n      0x204e4654732e0000000000000000000000000000000000000000000000000000\n        /* \"#utility.yul\":28463:28465   */\n      0x20\n        /* \"#utility.yul\":28455:28461   */\n      dup3\n        /* \"#utility.yul\":28451:28466   */\n      add\n        /* \"#utility.yul\":28444:28477   */\n      mstore\n        /* \"#utility.yul\":28259:28484   */\n      pop\n      jump\t// out\n        /* \"#utility.yul\":28490:28856   */\n    tag_441:\n        /* \"#utility.yul\":28632:28635   */\n      0x00\n        /* \"#utility.yul\":28653:28720   */\n      tag_699\n        /* \"#utility.yul\":28717:28719   */\n      0x26\n        /* \"#utility.yul\":28712:28715   */\n      dup4\n        /* \"#utility.yul\":28653:28720   */\n      tag_414\n      jump\t// in\n    tag_699:\n        /* \"#utility.yul\":28646:28720   */\n      swap2\n      pop\n        /* \"#utility.yul\":28729:28822   */\n      tag_700\n        /* \"#utility.yul\":28818:28821   */\n      dup3\n        /* \"#utility.yul\":28729:28822   */\n      tag_440\n      jump\t// in\n    tag_700:\n        /* \"#utility.yul\":28847:28849   */\n      0x40\n        /* \"#utility.yul\":28842:28845   */\n      dup3\n        /* \"#utility.yul\":28838:28850   */\n      add\n        /* \"#utility.yul\":28831:28850   */\n      swap1\n      pop\n        /* \"#utility.yul\":28490:28856   */\n      swap2\n      swap1\n      pop\n      jump\t// out\n        /* \"#utility.yul\":28862:29281   */\n    tag_239:\n        /* \"#utility.yul\":29028:29032   */\n      0x00\n        /* \"#utility.yul\":29066:29068   */\n      0x20\n        /* \"#utility.yul\":29055:29064   */\n      dup3\n        /* \"#utility.yul\":29051:29069   */\n      add\n        /* \"#utility.yul\":29043:29069   */\n      swap1\n      pop\n        /* \"#utility.yul\":29115:29124   */\n      dup2\n        /* \"#utility.yul\":29109:29113   */\n      dup2\n        /* \"#utility.yul\":29105:29125   */\n      sub\n        /* \"#utility.yul\":29101:29102   */\n      0x00\n        /* \"#utility.yul\":29090:29099   */\n      dup4\n        /* \"#utility.yul\":29086:29103   */\n      add\n        /* \"#utility.yul\":29079:29126   */\n      mstore\n        /* \"#utility.yul\":29143:29274   */\n      tag_702\n        /* \"#utility.yul\":29269:29273   */\n      dup2\n        /* \"#utility.yul\":29143:29274   */\n      tag_441\n      jump\t// in\n    tag_702:\n        /* \"#utility.yul\":29135:29274   */\n      swap1\n      pop\n        /* \"#utility.yul\":28862:29281   */\n      swap2\n      swap1\n      pop\n      jump\t// out\n        /* \"#utility.yul\":29287:29729   */\n    tag_241:\n        /* \"#utility.yul\":29436:29440   */\n      0x00\n        /* \"#utility.yul\":29474:29476   */\n      0x60\n        /* \"#utility.yul\":29463:29472   */\n      dup3\n        /* \"#utility.yul\":29459:29477   */\n      add\n        /* \"#utility.yul\":29451:29477   */\n      swap1\n      pop\n        /* \"#utility.yul\":29487:29558   */\n      tag_704\n        /* \"#utility.yul\":29555:29556   */\n      0x00\n        /* \"#utility.yul\":29544:29553   */\n      dup4\n        /* \"#utility.yul\":29540:29557   */\n      add\n        /* \"#utility.yul\":29531:29537   */\n      dup7\n        /* \"#utility.yul\":29487:29558   */\n      tag_394\n      jump\t// in\n    tag_704:\n        /* \"#utility.yul\":29568:29640   */\n      tag_705\n        /* \"#utility.yul\":29636:29638   */\n      0x20\n        /* \"#utility.yul\":29625:29634   */\n      dup4\n        /* \"#utility.yul\":29621:29639   */\n      add\n        /* \"#utility.yul\":29612:29618   */\n      dup6\n        /* \"#utility.yul\":29568:29640   */\n      tag_394\n      jump\t// in\n    tag_705:\n        /* \"#utility.yul\":29650:29722   */\n      tag_706\n        /* \"#utility.yul\":29718:29720   */\n      0x40\n        /* \"#utility.yul\":29707:29716   */\n      dup4\n        /* \"#utility.yul\":29703:29721   */\n      add\n        /* \"#utility.yul\":29694:29700   */\n      dup5\n        /* \"#utility.yul\":29650:29722   */\n      tag_402\n      jump\t// in\n    tag_706:\n        /* \"#utility.yul\":29287:29729   */\n      swap5\n      swap4\n      pop\n      pop\n      pop\n      pop\n      jump\t// out\n        /* \"#utility.yul\":29735:29909   */\n    tag_442:\n        /* \"#utility.yul\":29875:29901   */\n      0x4164647265737365732063616e6e6f74206265207a65726f0000000000000000\n        /* \"#utility.yul\":29871:29872   */\n      0x00\n        /* \"#utility.yul\":29863:29869   */\n      dup3\n        /* \"#utility.yul\":29859:29873   */\n      add\n        /* \"#utility.yul\":29852:29902   */\n      mstore\n        /* \"#utility.yul\":29735:29909   */\n      pop\n      jump\t// out\n        /* \"#utility.yul\":29915:30281   */\n    tag_443:\n        /* \"#utility.yul\":30057:30060   */\n      0x00\n        /* \"#utility.yul\":30078:30145   */\n      tag_709\n        /* \"#utility.yul\":30142:30144   */\n      0x18\n        /* \"#utility.yul\":30137:30140   */\n      dup4\n        /* \"#utility.yul\":30078:30145   */\n      tag_414\n      jump\t// in\n    tag_709:\n        /* \"#utility.yul\":30071:30145   */\n      swap2\n      pop\n        /* \"#utility.yul\":30154:30247   */\n      tag_710\n        /* \"#utility.yul\":30243:30246   */\n      dup3\n        /* \"#utility.yul\":30154:30247   */\n      tag_442\n      jump\t// in\n    tag_710:\n        /* \"#utility.yul\":30272:30274   */\n      0x20\n        /* \"#utility.yul\":30267:30270   */\n      dup3\n        /* \"#utility.yul\":30263:30275   */\n      add\n        /* \"#utility.yul\":30256:30275   */\n      swap1\n      pop\n        /* \"#utility.yul\":29915:30281   */\n      swap2\n      swap1\n      pop\n      jump\t// out\n        /* \"#utility.yul\":30287:30706   */\n    tag_268:\n        /* \"#utility.yul\":30453:30457   */\n      0x00\n        /* \"#utility.yul\":30491:30493   */\n      0x20\n        /* \"#utility.yul\":30480:30489   */\n      dup3\n        /* \"#utility.yul\":30476:30494   */\n      add\n        /* \"#utility.yul\":30468:30494   */\n      swap1\n      pop\n        /* \"#utility.yul\":30540:30549   */\n      dup2\n        /* \"#utility.yul\":30534:30538   */\n      dup2\n        /* \"#utility.yul\":30530:30550   */\n      sub\n        /* \"#utility.yul\":30526:30527   */\n      0x00\n        /* \"#utility.yul\":30515:30524   */\n      dup4\n        /* \"#utility.yul\":30511:30528   */\n      add\n        /* \"#utility.yul\":30504:30551   */\n      mstore\n        /* \"#utility.yul\":30568:30699   */\n      tag_712\n        /* \"#utility.yul\":30694:30698   */\n      dup2\n        /* \"#utility.yul\":30568:30699   */\n      tag_443\n      jump\t// in\n    tag_712:\n        /* \"#utility.yul\":30560:30699   */\n      swap1\n      pop\n        /* \"#utility.yul\":30287:30706   */\n      swap2\n      swap1\n      pop\n      jump\t// out\n        /* \"#utility.yul\":30712:30829   */\n    tag_444:\n        /* \"#utility.yul\":30821:30822   */\n      0x00\n        /* \"#utility.yul\":30818:30819   */\n      dup1\n        /* \"#utility.yul\":30811:30823   */\n      revert\n        /* \"#utility.yul\":30835:31143   */\n    tag_445:\n        /* \"#utility.yul\":30897:30901   */\n      0x00\n        /* \"#utility.yul\":30987:31005   */\n      0xffffffffffffffff\n        /* \"#utility.yul\":30979:30985   */\n      dup3\n        /* \"#utility.yul\":30976:31006   */\n      gt\n        /* \"#utility.yul\":30973:31029   */\n      iszero\n      tag_715\n      jumpi\n        /* \"#utility.yul\":31009:31027   */\n      tag_716\n      tag_304\n      jump\t// in\n    tag_716:\n        /* \"#utility.yul\":30973:31029   */\n    tag_715:\n        /* \"#utility.yul\":31047:31076   */\n      tag_717\n        /* \"#utility.yul\":31069:31075   */\n      dup3\n        /* \"#utility.yul\":31047:31076   */\n      tag_385\n      jump\t// in\n    tag_717:\n        /* \"#utility.yul\":31039:31076   */\n      swap1\n      pop\n        /* \"#utility.yul\":31131:31135   */\n      0x20\n        /* \"#utility.yul\":31125:31129   */\n      dup2\n        /* \"#utility.yul\":31121:31136   */\n      add\n        /* \"#utility.yul\":31113:31136   */\n      swap1\n      pop\n        /* \"#utility.yul\":30835:31143   */\n      swap2\n      swap1\n      pop\n      jump\t// out\n        /* \"#utility.yul\":31149:31570   */\n    tag_446:\n        /* \"#utility.yul\":31238:31243   */\n      0x00\n        /* \"#utility.yul\":31263:31329   */\n      tag_719\n        /* \"#utility.yul\":31279:31328   */\n      tag_720\n        /* \"#utility.yul\":31321:31327   */\n      dup5\n        /* \"#utility.yul\":31279:31328   */\n      tag_445\n      jump\t// in\n    tag_720:\n        /* \"#utility.yul\":31263:31329   */\n      tag_387\n      jump\t// in\n    tag_719:\n        /* \"#utility.yul\":31254:31329   */\n      swap1\n      pop\n        /* \"#utility.yul\":31352:31358   */\n      dup3\n        /* \"#utility.yul\":31345:31350   */\n      dup2\n        /* \"#utility.yul\":31338:31359   */\n      mstore\n        /* \"#utility.yul\":31390:31394   */\n      0x20\n        /* \"#utility.yul\":31383:31388   */\n      dup2\n        /* \"#utility.yul\":31379:31395   */\n      add\n        /* \"#utility.yul\":31428:31431   */\n      dup5\n        /* \"#utility.yul\":31419:31425   */\n      dup5\n        /* \"#utility.yul\":31414:31417   */\n      dup5\n        /* \"#utility.yul\":31410:31426   */\n      add\n        /* \"#utility.yul\":31407:31432   */\n      gt\n        /* \"#utility.yul\":31404:31516   */\n      iszero\n      tag_721\n      jumpi\n        /* \"#utility.yul\":31435:31514   */\n      tag_722\n      tag_444\n      jump\t// in\n    tag_722:\n        /* \"#utility.yul\":31404:31516   */\n    tag_721:\n        /* \"#utility.yul\":31525:31564   */\n      tag_723\n        /* \"#utility.yul\":31557:31563   */\n      dup5\n        /* \"#utility.yul\":31552:31555   */\n      dup3\n        /* \"#utility.yul\":31547:31550   */\n      dup6\n        /* \"#utility.yul\":31525:31564   */\n      tag_408\n      jump\t// in\n    tag_723:\n        /* \"#utility.yul\":31244:31570   */\n      pop\n        /* \"#utility.yul\":31149:31570   */\n      swap4\n      swap3\n      pop\n      pop\n      pop\n      jump\t// out\n        /* \"#utility.yul\":31590:31945   */\n    tag_447:\n        /* \"#utility.yul\":31657:31662   */\n      0x00\n        /* \"#utility.yul\":31706:31709   */\n      dup3\n        /* \"#utility.yul\":31699:31703   */\n      0x1f\n        /* \"#utility.yul\":31691:31697   */\n      dup4\n        /* \"#utility.yul\":31687:31704   */\n      add\n        /* \"#utility.yul\":31683:31710   */\n      slt\n        /* \"#utility.yul\":31673:31795   */\n      tag_725\n      jumpi\n        /* \"#utility.yul\":31714:31793   */\n      tag_726\n      tag_384\n      jump\t// in\n    tag_726:\n        /* \"#utility.yul\":31673:31795   */\n    tag_725:\n        /* \"#utility.yul\":31824:31830   */\n      dup2\n        /* \"#utility.yul\":31818:31831   */\n      mload\n        /* \"#utility.yul\":31849:31939   */\n      tag_727\n        /* \"#utility.yul\":31935:31938   */\n      dup5\n        /* \"#utility.yul\":31927:31933   */\n      dup3\n        /* \"#utility.yul\":31920:31924   */\n      0x20\n        /* \"#utility.yul\":31912:31918   */\n      dup7\n        /* \"#utility.yul\":31908:31925   */\n      add\n        /* \"#utility.yul\":31849:31939   */\n      tag_446\n      jump\t// in\n    tag_727:\n        /* \"#utility.yul\":31840:31939   */\n      swap2\n      pop\n        /* \"#utility.yul\":31663:31945   */\n      pop\n        /* \"#utility.yul\":31590:31945   */\n      swap3\n      swap2\n      pop\n      pop\n      jump\t// out\n        /* \"#utility.yul\":31951:32475   */\n    tag_318:\n        /* \"#utility.yul\":32031:32037   */\n      0x00\n        /* \"#utility.yul\":32080:32082   */\n      0x20\n        /* \"#utility.yul\":32068:32077   */\n      dup3\n        /* \"#utility.yul\":32059:32066   */\n      dup5\n        /* \"#utility.yul\":32055:32078   */\n      sub\n        /* \"#utility.yul\":32051:32083   */\n      slt\n        /* \"#utility.yul\":32048:32167   */\n      iszero\n      tag_729\n      jumpi\n        /* \"#utility.yul\":32086:32165   */\n      tag_730\n      tag_375\n      jump\t// in\n    tag_730:\n        /* \"#utility.yul\":32048:32167   */\n    tag_729:\n        /* \"#utility.yul\":32227:32228   */\n      0x00\n        /* \"#utility.yul\":32216:32225   */\n      dup3\n        /* \"#utility.yul\":32212:32229   */\n      add\n        /* \"#utility.yul\":32206:32230   */\n      mload\n        /* \"#utility.yul\":32257:32275   */\n      0xffffffffffffffff\n        /* \"#utility.yul\":32249:32255   */\n      dup2\n        /* \"#utility.yul\":32246:32276   */\n      gt\n        /* \"#utility.yul\":32243:32360   */\n      iszero\n      tag_731\n      jumpi\n        /* \"#utility.yul\":32279:32358   */\n      tag_732\n      tag_376\n      jump\t// in\n    tag_732:\n        /* \"#utility.yul\":32243:32360   */\n    tag_731:\n        /* \"#utility.yul\":32384:32458   */\n      tag_733\n        /* \"#utility.yul\":32450:32457   */\n      dup5\n        /* \"#utility.yul\":32441:32447   */\n      dup3\n        /* \"#utility.yul\":32430:32439   */\n      dup6\n        /* \"#utility.yul\":32426:32448   */\n      add\n        /* \"#utility.yul\":32384:32458   */\n      tag_447\n      jump\t// in\n    tag_733:\n        /* \"#utility.yul\":32374:32458   */\n      swap2\n      pop\n        /* \"#utility.yul\":32177:32468   */\n      pop\n        /* \"#utility.yul\":31951:32475   */\n      swap3\n      swap2\n      pop\n      pop\n      jump\t// out\n        /* \"#utility.yul\":32481:32647   */\n    tag_448:\n        /* \"#utility.yul\":32621:32639   */\n      0x5061757361626c653a2070617573656400000000000000000000000000000000\n        /* \"#utility.yul\":32617:32618   */\n      0x00\n        /* \"#utility.yul\":32609:32615   */\n      dup3\n        /* \"#utility.yul\":32605:32619   */\n      add\n        /* \"#utility.yul\":32598:32640   */\n      mstore\n        /* \"#utility.yul\":32481:32647   */\n      pop\n      jump\t// out\n        /* \"#utility.yul\":32653:33019   */\n    tag_449:\n        /* \"#utility.yul\":32795:32798   */\n      0x00\n        /* \"#utility.yul\":32816:32883   */\n      tag_736\n        /* \"#utility.yul\":32880:32882   */\n      0x10\n        /* \"#utility.yul\":32875:32878   */\n      dup4\n        /* \"#utility.yul\":32816:32883   */\n      tag_414\n      jump\t// in\n    tag_736:\n        /* \"#utility.yul\":32809:32883   */\n      swap2\n      pop\n        /* \"#utility.yul\":32892:32985   */\n      tag_737\n        /* \"#utility.yul\":32981:32984   */\n      dup3\n        /* \"#utility.yul\":32892:32985   */\n      tag_448\n      jump\t// in\n    tag_737:\n        /* \"#utility.yul\":33010:33012   */\n      0x20\n        /* \"#utility.yul\":33005:33008   */\n      dup3\n        /* \"#utility.yul\":33001:33013   */\n      add\n        /* \"#utility.yul\":32994:33013   */\n      swap1\n      pop\n        /* \"#utility.yul\":32653:33019   */\n      swap2\n      swap1\n      pop\n      jump\t// out\n        /* \"#utility.yul\":33025:33444   */\n    tag_350:\n        /* \"#utility.yul\":33191:33195   */\n      0x00\n        /* \"#utility.yul\":33229:33231   */\n      0x20\n        /* \"#utility.yul\":33218:33227   */\n      dup3\n        /* \"#utility.yul\":33214:33232   */\n      add\n        /* \"#utility.yul\":33206:33232   */\n      swap1\n      pop\n        /* \"#utility.yul\":33278:33287   */\n      dup2\n        /* \"#utility.yul\":33272:33276   */\n      dup2\n        /* \"#utility.yul\":33268:33288   */\n      sub\n        /* \"#utility.yul\":33264:33265   */\n      0x00\n        /* \"#utility.yul\":33253:33262   */\n      dup4\n        /* \"#utility.yul\":33249:33266   */\n      add\n        /* \"#utility.yul\":33242:33289   */\n      mstore\n        /* \"#utility.yul\":33306:33437   */\n      tag_739\n        /* \"#utility.yul\":33432:33436   */\n      dup2\n        /* \"#utility.yul\":33306:33437   */\n      tag_449\n      jump\t// in\n    tag_739:\n        /* \"#utility.yul\":33298:33437   */\n      swap1\n      pop\n        /* \"#utility.yul\":33025:33444   */\n      swap2\n      swap1\n      pop\n      jump\t// out\n        /* \"#utility.yul\":33450:33620   */\n    tag_450:\n        /* \"#utility.yul\":33590:33612   */\n      0x5061757361626c653a206e6f7420706175736564000000000000000000000000\n        /* \"#utility.yul\":33586:33587   */\n      0x00\n        /* \"#utility.yul\":33578:33584   */\n      dup3\n        /* \"#utility.yul\":33574:33588   */\n      add\n        /* \"#utility.yul\":33567:33613   */\n      mstore\n        /* \"#utility.yul\":33450:33620   */\n      pop\n      jump\t// out\n        /* \"#utility.yul\":33626:33992   */\n    tag_451:\n        /* \"#utility.yul\":33768:33771   */\n      0x00\n        /* \"#utility.yul\":33789:33856   */\n      tag_742\n        /* \"#utility.yul\":33853:33855   */\n      0x14\n        /* \"#utility.yul\":33848:33851   */\n      dup4\n        /* \"#utility.yul\":33789:33856   */\n      tag_414\n      jump\t// in\n    tag_742:\n        /* \"#utility.yul\":33782:33856   */\n      swap2\n      pop\n        /* \"#utility.yul\":33865:33958   */\n      tag_743\n        /* \"#utility.yul\":33954:33957   */\n      dup3\n        /* \"#utility.yul\":33865:33958   */\n      tag_450\n      jump\t// in\n    tag_743:\n        /* \"#utility.yul\":33983:33985   */\n      0x20\n        /* \"#utility.yul\":33978:33981   */\n      dup3\n        /* \"#utility.yul\":33974:33986   */\n      add\n        /* \"#utility.yul\":33967:33986   */\n      swap1\n      pop\n        /* \"#utility.yul\":33626:33992   */\n      swap2\n      swap1\n      pop\n      jump\t// out\n        /* \"#utility.yul\":33998:34417   */\n    tag_363:\n        /* \"#utility.yul\":34164:34168   */\n      0x00\n        /* \"#utility.yul\":34202:34204   */\n      0x20\n        /* \"#utility.yul\":34191:34200   */\n      dup3\n        /* \"#utility.yul\":34187:34205   */\n      add\n        /* \"#utility.yul\":34179:34205   */\n      swap1\n      pop\n        /* \"#utility.yul\":34251:34260   */\n      dup2\n        /* \"#utility.yul\":34245:34249   */\n      dup2\n        /* \"#utility.yul\":34241:34261   */\n      sub\n        /* \"#utility.yul\":34237:34238   */\n      0x00\n        /* \"#utility.yul\":34226:34235   */\n      dup4\n        /* \"#utility.yul\":34222:34239   */\n      add\n        /* \"#utility.yul\":34215:34262   */\n      mstore\n        /* \"#utility.yul\":34279:34410   */\n      tag_745\n        /* \"#utility.yul\":34405:34409   */\n      dup2\n        /* \"#utility.yul\":34279:34410   */\n      tag_451\n      jump\t// in\n    tag_745:\n        /* \"#utility.yul\":34271:34410   */\n      swap1\n      pop\n        /* \"#utility.yul\":33998:34417   */\n      swap2\n      swap1\n      pop\n      jump\t// out\n\n    auxdata: 0xa2646970667358221220a2d098f0af85bb7403f73f8f6d4d9f600418f9b7d63de2a089f59593e65cf21f64736f6c634300080c0033\n}\n",
				"bytecode": {
					"linkReferences": {},
					"object": "608060405260016008553480156200001657600080fd5b506040516200346e3803806200346e83398181016040528101906200003c9190620002a7565b60016200004e620001b660201b60201c565b6000018190555060008060006101000a81548160ff021916908315150217905550600073ffffffffffffffffffffffffffffffffffffffff168273ffffffffffffffffffffffffffffffffffffffff1614158015620000da5750600073ffffffffffffffffffffffffffffffffffffffff168173ffffffffffffffffffffffffffffffffffffffff1614155b6200011c576040517f08c379a000000000000000000000000000000000000000000000000000000000815260040162000113906200037a565b60405180910390fd5b836002819055508260038190555081600460006101000a81548173ffffffffffffffffffffffffffffffffffffffff021916908373ffffffffffffffffffffffffffffffffffffffff16021790555080600560006101000a81548173ffffffffffffffffffffffffffffffffffffffff021916908373ffffffffffffffffffffffffffffffffffffffff160217905550505050506200039c565b6000620001cd620001d260201b62001b861760201c565b905090565b6000807f1d281c488dae143b6ea4122e80c65059929950b9c32f17fc57be22089d9c3b0060001b90508091505090565b600080fd5b6000819050919050565b6200021c8162000207565b81146200022857600080fd5b50565b6000815190506200023c8162000211565b92915050565b600073ffffffffffffffffffffffffffffffffffffffff82169050919050565b60006200026f8262000242565b9050919050565b620002818162000262565b81146200028d57600080fd5b50565b600081519050620002a18162000276565b92915050565b60008060008060808587031215620002c457620002c362000202565b5b6000620002d4878288016200022b565b9450506020620002e7878288016200022b565b9350506040620002fa8782880162000290565b92505060606200030d8782880162000290565b91505092959194509250565b600082825260208201905092915050565b7f4164647265737365732063616e6e6f74206265207a65726f0000000000000000600082015250565b60006200036260188362000319565b91506200036f826200032a565b602082019050919050565b60006020820190508181036000830152620003958162000353565b9050919050565b6130c280620003ac6000396000f3fe60806040526004361061011f5760003560e01c806385dd3008116100a0578063b931413511610064578063b93141351461037a578063cdd78cfc146103b7578063de74e57b146103e2578063e3b6a1f614610422578063ed14834f1461045f5761011f565b806385dd3008146102a35780638a71bb2d146102ce5780638da5cb5b146102f9578063aaccf1ec14610324578063ad2f852a1461034f5761011f565b80635c975abb116100e75780635c975abb146101d25780635e4e8d65146101fd57806378578bb3146102265780637bdaceef1461024f5780638456cb591461028c5761011f565b806313af403514610124578063305a67a81461014d5780633f4ba83a146101765780634e3137961461018d57806351ed8288146101b6575b600080fd5b34801561013057600080fd5b5061014b60048036038101906101469190611f94565b61048a565b005b34801561015957600080fd5b50610174600480360381019061016f9190611ff7565b6104dd565b005b34801561018257600080fd5b5061018b6106d9565b005b34801561019957600080fd5b506101b460048036038101906101af919061217d565b6107ed565b005b6101d060048036038101906101cb9190611ff7565b610ca6565b005b3480156101de57600080fd5b506101e7611303565b6040516101f4919061221b565b60405180910390f35b34801561020957600080fd5b50610224600480360381019061021f9190612236565b611319565b005b34801561023257600080fd5b5061024d60048036038101906102489190612276565b611552565b005b34801561025b57600080fd5b5061027660048036038101906102719190611ff7565b61166e565b60405161028391906122c5565b60405180910390f35b34801561029857600080fd5b506102a16116a1565b005b3480156102af57600080fd5b506102b86117b5565b6040516102c5919061239e565b60405180910390f35b3480156102da57600080fd5b506102e361180d565b6040516102f091906123cf565b60405180910390f35b34801561030557600080fd5b5061030e611813565b60405161031b91906122c5565b60405180910390f35b34801561033057600080fd5b50610339611846565b60405161034691906123cf565b60405180910390f35b34801561035b57600080fd5b5061036461184c565b60405161037191906122c5565b60405180910390f35b34801561038657600080fd5b506103a1600480360381019061039c9190611ff7565b611872565b6040516103ae9190612571565b60405180910390f35b3480156103c357600080fd5b506103cc611ac6565b6040516103d991906123cf565b60405180910390f35b3480156103ee57600080fd5b5061040960048036038101906104049190611ff7565b611acc565b6040516104199493929190612593565b60405180910390f35b34801561042e57600080fd5b5061044960048036038101906104449190611ff7565b611b3c565b60405161045691906123cf565b60405180910390f35b34801561046b57600080fd5b50610474611b60565b60405161048191906122c5565b60405180910390f35b610492611bb6565b6104d1576040517f08c379a00000000000000000000000000000000000000000000000000000000081526004016104c890612635565b60405180910390fd5b6104da81611bbf565b50565b60026104e7611c97565b60000154141561052c576040517f08c379a0000000000000000000000000000000000000000000000000000000008152600401610523906126a1565b60405180910390fd5b6002610536611c97565b600001819055503373ffffffffffffffffffffffffffffffffffffffff166007600083815260200190815260200160002060009054906101000a900473ffffffffffffffffffffffffffffffffffffffff1673ffffffffffffffffffffffffffffffffffffffff16146105de576040517f08c379a00000000000000000000000000000000000000000000000000000000081526004016105d590612733565b60405180910390fd5b60066000828152602001908152602001600020600080820160006101000a81549073ffffffffffffffffffffffffffffffffffffffff02191690556001820160006106299190611e7d565b6002820160006101000a81549073ffffffffffffffffffffffffffffffffffffffff02191690556003820160009055600482016000905550506007600082815260200190815260200160002060006101000a81549073ffffffffffffffffffffffffffffffffffffffff0219169055807fc0c55a6edead4433d18cb1e287a0a20a2fa003a6f483bc9823d2e504d70d1c6760405160405180910390a260016106cf611c97565b6000018190555050565b6106e1611ca6565b60000160009054906101000a900473ffffffffffffffffffffffffffffffffffffffff1673ffffffffffffffffffffffffffffffffffffffff163373ffffffffffffffffffffffffffffffffffffffff1614610772576040517f08c379a000000000000000000000000000000000000000000000000000000000815260040161076990612635565b60405180910390fd5b600261077c611c97565b6000015414156107c1576040517f08c379a00000000000000000000000000000000000000000000000000000000081526004016107b8906126a1565b60405180910390fd5b60026107cb611c97565b600001819055506107da611cb5565b60016107e4611c97565b60000181905550565b6107f5611d17565b60026107ff611c97565b600001541415610844576040517f08c379a000000000000000000000000000000000000000000000000000000000815260040161083b906126a1565b60405180910390fd5b600261084e611c97565b6000018190555060008211610898576040517f08c379a000000000000000000000000000000000000000000000000000000000815260040161088f9061279f565b60405180910390fd5b600081116108db576040517f08c379a00000000000000000000000000000000000000000000000000000000081526004016108d290612831565b60405180910390fd5b600083511161091f576040517f08c379a00000000000000000000000000000000000000000000000000000000081526004016109169061289d565b60405180910390fd5b600084905060005b8451811015610a4a576000858281518110610945576109446128bd565b5b602002602001015190503373ffffffffffffffffffffffffffffffffffffffff168373ffffffffffffffffffffffffffffffffffffffff16636352211e836040518263ffffffff1660e01b815260040161099f91906123cf565b602060405180830381865afa1580156109bc573d6000803e3d6000fd5b505050506040513d601f19601f820116820180604052508101906109e09190612901565b73ffffffffffffffffffffffffffffffffffffffff1614610a36576040517f08c379a0000000000000000000000000000000000000000000000000000000008152600401610a2d9061297a565b60405180910390fd5b508080610a42906129c9565b915050610927565b506040518060a001604052808673ffffffffffffffffffffffffffffffffffffffff1681526020018581526020013373ffffffffffffffffffffffffffffffffffffffff1681526020018481526020018342610aa69190612a12565b81525060066000600854815260200190815260200160002060008201518160000160006101000a81548173ffffffffffffffffffffffffffffffffffffffff021916908373ffffffffffffffffffffffffffffffffffffffff1602179055506020820151816001019080519060200190610b21929190611e9e565b5060408201518160020160006101000a81548173ffffffffffffffffffffffffffffffffffffffff021916908373ffffffffffffffffffffffffffffffffffffffff16021790555060608201518160030155608082015181600401559050503360076000600854815260200190815260200160002060006101000a81548173ffffffffffffffffffffffffffffffffffffffff021916908373ffffffffffffffffffffffffffffffffffffffff160217905550600160085490806001815401808255809150506001900390600052602060002001600090919091909150558473ffffffffffffffffffffffffffffffffffffffff163373ffffffffffffffffffffffffffffffffffffffff166008547fb135ab5d6fb2741efa75bf597e471845ca0a87fc756c5ab2a23f77639e3a894187878742610c5f9190612a12565b604051610c6e93929190612a68565b60405180910390a460086000815480929190610c89906129c9565b9190505550506001610c99611c97565b6000018190555050505050565b610cae611d17565b6002610cb8611c97565b600001541415610cfd576040517f08c379a0000000000000000000000000000000000000000000000000000000008152600401610cf4906126a1565b60405180910390fd5b6002610d07611c97565b6000018190555060003411610d51576040517f08c379a0000000000000000000000000000000000000000000000000000000008152600401610d4890612b18565b60405180910390fd5b6000600660008381526020019081526020016000209050600073ffffffffffffffffffffffffffffffffffffffff168160020160009054906101000a900473ffffffffffffffffffffffffffffffffffffffff1673ffffffffffffffffffffffffffffffffffffffff161415610dfc576040517f08c379a0000000000000000000000000000000000000000000000000000000008152600401610df390612b84565b60405180910390fd5b8060040154421115610e43576040517f08c379a0000000000000000000000000000000000000000000000000000000008152600401610e3a90612bf0565b60405180910390fd5b80600301543414610e89576040517f08c379a0000000000000000000000000000000000000000000000000000000008152600401610e8090612c82565b60405180910390fd5b60006127106002548360030154610ea09190612ca2565b610eaa9190612d2b565b905060006127106003548460030154610ec39190612ca2565b610ecd9190612d2b565b9050600081838560030154610ee29190612d5c565b610eec9190612d5c565b905060005b846001018054905081101561111f576000856001018281548110610f1857610f176128bd565b5b906000526020600020015490508560020160009054906101000a900473ffffffffffffffffffffffffffffffffffffffff1673ffffffffffffffffffffffffffffffffffffffff168660000160009054906101000a900473ffffffffffffffffffffffffffffffffffffffff1673ffffffffffffffffffffffffffffffffffffffff16636352211e836040518263ffffffff1660e01b8152600401610fbd91906123cf565b602060405180830381865afa158015610fda573d6000803e3d6000fd5b505050506040513d601f19601f82011682018060405250810190610ffe9190612901565b73ffffffffffffffffffffffffffffffffffffffff1614611054576040517f08c379a000000000000000000000000000000000000000000000000000000000815260040161104b90612e02565b60405180910390fd5b8560000160009054906101000a900473ffffffffffffffffffffffffffffffffffffffff1673ffffffffffffffffffffffffffffffffffffffff166323b872dd8760020160009054906101000a900473ffffffffffffffffffffffffffffffffffffffff1633846040518463ffffffff1660e01b81526004016110d993929190612e22565b600060405180830381600087803b1580156110f357600080fd5b505af1158015611107573d6000803e3d6000fd5b50505050508080611117906129c9565b915050610ef1565b508360020160009054906101000a900473ffffffffffffffffffffffffffffffffffffffff1673ffffffffffffffffffffffffffffffffffffffff166108fc829081150290604051600060405180830381858888f1935050505015801561118a573d6000803e3d6000fd5b50600460009054906101000a900473ffffffffffffffffffffffffffffffffffffffff1673ffffffffffffffffffffffffffffffffffffffff166108fc849081150290604051600060405180830381858888f193505050501580156111f3573d6000803e3d6000fd5b50600560009054906101000a900473ffffffffffffffffffffffffffffffffffffffff1673ffffffffffffffffffffffffffffffffffffffff166108fc839081150290604051600060405180830381858888f1935050505015801561125c573d6000803e3d6000fd5b503373ffffffffffffffffffffffffffffffffffffffff168460020160009054906101000a900473ffffffffffffffffffffffffffffffffffffffff1673ffffffffffffffffffffffffffffffffffffffff16867f8562eb94748e30bb0071e932744ce902b460c683474fcb3bfd567ffa16b1afb287600301546040516112e391906123cf565b60405180910390a45050505060016112f9611c97565b6000018190555050565b60008060009054906101000a900460ff16905090565b611321611ca6565b60000160009054906101000a900473ffffffffffffffffffffffffffffffffffffffff1673ffffffffffffffffffffffffffffffffffffffff163373ffffffffffffffffffffffffffffffffffffffff16146113b2576040517f08c379a00000000000000000000000000000000000000000000000000000000081526004016113a990612635565b60405180910390fd5b60026113bc611c97565b600001541415611401576040517f08c379a00000000000000000000000000000000000000000000000000000000081526004016113f8906126a1565b60405180910390fd5b600261140b611c97565b60000181905550600073ffffffffffffffffffffffffffffffffffffffff168273ffffffffffffffffffffffffffffffffffffffff161415801561147c5750600073ffffffffffffffffffffffffffffffffffffffff168173ffffffffffffffffffffffffffffffffffffffff1614155b6114bb576040517f08c379a00000000000000000000000000000000000000000000000000000000081526004016114b290612ea5565b60405180910390fd5b81600460006101000a81548173ffffffffffffffffffffffffffffffffffffffff021916908373ffffffffffffffffffffffffffffffffffffffff16021790555080600560006101000a81548173ffffffffffffffffffffffffffffffffffffffff021916908373ffffffffffffffffffffffffffffffffffffffff1602179055506001611547611c97565b600001819055505050565b61155a611ca6565b60000160009054906101000a900473ffffffffffffffffffffffffffffffffffffffff1673ffffffffffffffffffffffffffffffffffffffff163373ffffffffffffffffffffffffffffffffffffffff16146115eb576040517f08c379a00000000000000000000000000000000000000000000000000000000081526004016115e290612635565b60405180910390fd5b60026115f5611c97565b60000154141561163a576040517f08c379a0000000000000000000000000000000000000000000000000000000008152600401611631906126a1565b60405180910390fd5b6002611644611c97565b6000018190555081600281905550806003819055506001611663611c97565b600001819055505050565b60076020528060005260406000206000915054906101000a900473ffffffffffffffffffffffffffffffffffffffff1681565b6116a9611ca6565b60000160009054906101000a900473ffffffffffffffffffffffffffffffffffffffff1673ffffffffffffffffffffffffffffffffffffffff163373ffffffffffffffffffffffffffffffffffffffff161461173a576040517f08c379a000000000000000000000000000000000000000000000000000000000815260040161173190612635565b60405180910390fd5b6002611744611c97565b600001541415611789576040517f08c379a0000000000000000000000000000000000000000000000000000000008152600401611780906126a1565b60405180910390fd5b6002611793611c97565b600001819055506117a2611d61565b60016117ac611c97565b60000181905550565b6060600180548060200260200160405190810160405280929190818152602001828054801561180357602002820191906000526020600020905b8154815260200190600101908083116117ef575b5050505050905090565b60025481565b600061181d611ca6565b60000160009054906101000a900473ffffffffffffffffffffffffffffffffffffffff16905090565b60085481565b600460009054906101000a900473ffffffffffffffffffffffffffffffffffffffff1681565b60606000600660008481526020019081526020016000209050600073ffffffffffffffffffffffffffffffffffffffff168160020160009054906101000a900473ffffffffffffffffffffffffffffffffffffffff1673ffffffffffffffffffffffffffffffffffffffff16141561191f576040517f08c379a000000000000000000000000000000000000000000000000000000000815260040161191690612b84565b60405180910390fd5b6000816001018054905067ffffffffffffffff8111156119425761194161203a565b5b60405190808252806020026020018201604052801561197b57816020015b611968611eeb565b8152602001906001900390816119605790505b50905060005b8260010180549050811015611abb5760008360010182815481106119a8576119a76128bd565b5b9060005260206000200154905060006040518060200160405280600081525090508460000160009054906101000a900473ffffffffffffffffffffffffffffffffffffffff1673ffffffffffffffffffffffffffffffffffffffff1663c87b56dd836040518263ffffffff1660e01b8152600401611a2691906123cf565b600060405180830381865afa925050508015611a6557506040513d6000823e3d601f19601f82011682018060405250810190611a629190612f6b565b60015b611a6e57611a73565b809150505b604051806040016040528083815260200182815250848481518110611a9b57611a9a6128bd565b5b602002602001018190525050508080611ab3906129c9565b915050611981565b508092505050919050565b60035481565b60066020528060005260406000206000915090508060000160009054906101000a900473ffffffffffffffffffffffffffffffffffffffff16908060020160009054906101000a900473ffffffffffffffffffffffffffffffffffffffff16908060030154908060040154905084565b60018181548110611b4c57600080fd5b906000526020600020016000915090505481565b600560009054906101000a900473ffffffffffffffffffffffffffffffffffffffff1681565b6000807f1d281c488dae143b6ea4122e80c65059929950b9c32f17fc57be22089d9c3b0060001b90508091505090565b60006001905090565b6000611bc9611ca6565b60000160009054906101000a900473ffffffffffffffffffffffffffffffffffffffff16905081611bf8611ca6565b60000160006101000a81548173ffffffffffffffffffffffffffffffffffffffff021916908373ffffffffffffffffffffffffffffffffffffffff1602179055508173ffffffffffffffffffffffffffffffffffffffff168173ffffffffffffffffffffffffffffffffffffffff167f8292fce18fa69edf4db7b94ea2e58241df0ae57f97e0a6c9b29067028bf92d7660405160405180910390a35050565b6000611ca1611b86565b905090565b6000611cb0611dc3565b905090565b611cbd611e2c565b60008060006101000a81548160ff0219169083151502179055507f5db9ee0a495bf2e6ff9c91a7834c1ba4fdd244a5e8aa4e537bd38aeae4b073aa611d00611e75565b604051611d0d91906122c5565b60405180910390a1565b611d1f611303565b15611d5f576040517f08c379a0000000000000000000000000000000000000000000000000000000008152600401611d5690613000565b60405180910390fd5b565b611d69611d17565b60016000806101000a81548160ff0219169083151502179055507f62e78cea01bee320cd4e420270b5ea74000d11b0c9f74754ebdbfc544b05a258611dac611e75565b604051611db991906122c5565b60405180910390a1565b60008060ff60001b1960017ffa02b2ade2dba28b48a24f204a68d8c0005ca2ccfd58c765cdddd023319a9b3f60001c611dfc9190612d5c565b604051602001611e0c91906123cf565b604051602081830303815290604052805190602001201690508091505090565b611e34611303565b611e73576040517f08c379a0000000000000000000000000000000000000000000000000000000008152600401611e6a9061306c565b60405180910390fd5b565b600033905090565b5080546000825590600052602060002090810190611e9b9190611f05565b50565b828054828255906000526020600020908101928215611eda579160200282015b82811115611ed9578251825591602001919060010190611ebe565b5b509050611ee79190611f05565b5090565b604051806040016040528060008152602001606081525090565b5b80821115611f1e576000816000905550600101611f06565b5090565b6000604051905090565b600080fd5b600080fd5b600073ffffffffffffffffffffffffffffffffffffffff82169050919050565b6000611f6182611f36565b9050919050565b611f7181611f56565b8114611f7c57600080fd5b50565b600081359050611f8e81611f68565b92915050565b600060208284031215611faa57611fa9611f2c565b5b6000611fb884828501611f7f565b91505092915050565b6000819050919050565b611fd481611fc1565b8114611fdf57600080fd5b50565b600081359050611ff181611fcb565b92915050565b60006020828403121561200d5761200c611f2c565b5b600061201b84828501611fe2565b91505092915050565b600080fd5b6000601f19601f8301169050919050565b7f4e487b7100000000000000000000000000000000000000000000000000000000600052604160045260246000fd5b61207282612029565b810181811067ffffffffffffffff821117156120915761209061203a565b5b80604052505050565b60006120a4611f22565b90506120b08282612069565b919050565b600067ffffffffffffffff8211156120d0576120cf61203a565b5b602082029050602081019050919050565b600080fd5b60006120f96120f4846120b5565b61209a565b9050808382526020820190506020840283018581111561211c5761211b6120e1565b5b835b8181101561214557806121318882611fe2565b84526020840193505060208101905061211e565b5050509392505050565b600082601f83011261216457612163612024565b5b81356121748482602086016120e6565b91505092915050565b6000806000806080858703121561219757612196611f2c565b5b60006121a587828801611f7f565b945050602085013567ffffffffffffffff8111156121c6576121c5611f31565b5b6121d28782880161214f565b93505060406121e387828801611fe2565b92505060606121f487828801611fe2565b91505092959194509250565b60008115159050919050565b61221581612200565b82525050565b6000602082019050612230600083018461220c565b92915050565b6000806040838503121561224d5761224c611f2c565b5b600061225b85828601611f7f565b925050602061226c85828601611f7f565b9150509250929050565b6000806040838503121561228d5761228c611f2c565b5b600061229b85828601611fe2565b92505060206122ac85828601611fe2565b9150509250929050565b6122bf81611f56565b82525050565b60006020820190506122da60008301846122b6565b92915050565b600081519050919050565b600082825260208201905092915050565b6000819050602082019050919050565b61231581611fc1565b82525050565b6000612327838361230c565b60208301905092915050565b6000602082019050919050565b600061234b826122e0565b61235581856122eb565b9350612360836122fc565b8060005b83811015612391578151612378888261231b565b975061238383612333565b925050600181019050612364565b5085935050505092915050565b600060208201905081810360008301526123b88184612340565b905092915050565b6123c981611fc1565b82525050565b60006020820190506123e460008301846123c0565b92915050565b600081519050919050565b600082825260208201905092915050565b6000819050602082019050919050565b600081519050919050565b600082825260208201905092915050565b60005b83811015612450578082015181840152602081019050612435565b8381111561245f576000848401525b50505050565b600061247082612416565b61247a8185612421565b935061248a818560208601612432565b61249381612029565b840191505092915050565b60006040830160008301516124b6600086018261230c565b50602083015184820360208601526124ce8282612465565b9150508091505092915050565b60006124e7838361249e565b905092915050565b6000602082019050919050565b6000612507826123ea565b61251181856123f5565b93508360208202850161252385612406565b8060005b8581101561255f578484038952815161254085826124db565b945061254b836124ef565b925060208a01995050600181019050612527565b50829750879550505050505092915050565b6000602082019050818103600083015261258b81846124fc565b905092915050565b60006080820190506125a860008301876122b6565b6125b560208301866122b6565b6125c260408301856123c0565b6125cf60608301846123c0565b95945050505050565b600082825260208201905092915050565b7f4e6f7420617574686f72697a6564000000000000000000000000000000000000600082015250565b600061261f600e836125d8565b915061262a826125e9565b602082019050919050565b6000602082019050818103600083015261264e81612612565b9050919050565b7f5265656e7472616e637947756172643a207265656e7472616e742063616c6c00600082015250565b600061268b601f836125d8565b915061269682612655565b602082019050919050565b600060208201905081810360008301526126ba8161267e565b9050919050565b7f4f6e6c7920746865206c697374696e67206f776e65722063616e2063616e636560008201527f6c2069742e000000000000000000000000000000000000000000000000000000602082015250565b600061271d6025836125d8565b9150612728826126c1565b604082019050919050565b6000602082019050818103600083015261274c81612710565b9050919050565b7f5072696365206d7573742062652067726561746572207468616e207a65726f2e600082015250565b60006127896020836125d8565b915061279482612753565b602082019050919050565b600060208201905081810360008301526127b88161277c565b9050919050565b7f446561646c696e65206d7573742062652067726561746572207468616e207a6560008201527f726f2e0000000000000000000000000000000000000000000000000000000000602082015250565b600061281b6023836125d8565b9150612826826127bf565b604082019050919050565b6000602082019050818103600083015261284a8161280e565b9050919050565b7f4d757374206c697374206174206c65617374206f6e65204e46542e0000000000600082015250565b6000612887601b836125d8565b915061289282612851565b602082019050919050565b600060208201905081810360008301526128b68161287a565b9050919050565b7f4e487b7100000000000000000000000000000000000000000000000000000000600052603260045260246000fd5b6000815190506128fb81611f68565b92915050565b60006020828403121561291757612916611f2c565b5b6000612925848285016128ec565b91505092915050565b7f596f75206d757374206f776e20746865204e465420746f206c6973742069742e600082015250565b60006129646020836125d8565b915061296f8261292e565b602082019050919050565b6000602082019050818103600083015261299381612957565b9050919050565b7f4e487b7100000000000000000000000000000000000000000000000000000000600052601160045260246000fd5b60006129d482611fc1565b91507fffffffffffffffffffffffffffffffffffffffffffffffffffffffffffffffff821415612a0757612a0661299a565b5b600182019050919050565b6000612a1d82611fc1565b9150612a2883611fc1565b9250827fffffffffffffffffffffffffffffffffffffffffffffffffffffffffffffffff03821115612a5d57612a5c61299a565b5b828201905092915050565b60006060820190508181036000830152612a828186612340565b9050612a9160208301856123c0565b612a9e60408301846123c0565b949350505050565b7f53656e742076616c7565206d7573742062652067726561746572207468616e2060008201527f7a65726f2e000000000000000000000000000000000000000000000000000000602082015250565b6000612b026025836125d8565b9150612b0d82612aa6565b604082019050919050565b60006020820190508181036000830152612b3181612af5565b9050919050565b7f4c697374696e6720646f6573206e6f742065786973742e000000000000000000600082015250565b6000612b6e6017836125d8565b9150612b7982612b38565b602082019050919050565b60006020820190508181036000830152612b9d81612b61565b9050919050565b7f54686973206c697374696e672068617320657870697265642e00000000000000600082015250565b6000612bda6019836125d8565b9150612be582612ba4565b602082019050919050565b60006020820190508181036000830152612c0981612bcd565b9050919050565b7f53656e742076616c7565206d75737420626520657175616c20746f207468652060008201527f6c697374696e672070726963652e000000000000000000000000000000000000602082015250565b6000612c6c602e836125d8565b9150612c7782612c10565b604082019050919050565b60006020820190508181036000830152612c9b81612c5f565b9050919050565b6000612cad82611fc1565b9150612cb883611fc1565b9250817fffffffffffffffffffffffffffffffffffffffffffffffffffffffffffffffff0483118215151615612cf157612cf061299a565b5b828202905092915050565b7f4e487b7100000000000000000000000000000000000000000000000000000000600052601260045260246000fd5b6000612d3682611fc1565b9150612d4183611fc1565b925082612d5157612d50612cfc565b5b828204905092915050565b6000612d6782611fc1565b9150612d7283611fc1565b925082821015612d8557612d8461299a565b5b828203905092915050565b7f53656c6c6572206e6f206c6f6e676572206f776e73206f6e65206f662074686560008201527f204e4654732e0000000000000000000000000000000000000000000000000000602082015250565b6000612dec6026836125d8565b9150612df782612d90565b604082019050919050565b60006020820190508181036000830152612e1b81612ddf565b9050919050565b6000606082019050612e3760008301866122b6565b612e4460208301856122b6565b612e5160408301846123c0565b949350505050565b7f4164647265737365732063616e6e6f74206265207a65726f0000000000000000600082015250565b6000612e8f6018836125d8565b9150612e9a82612e59565b602082019050919050565b60006020820190508181036000830152612ebe81612e82565b9050919050565b600080fd5b600067ffffffffffffffff821115612ee557612ee461203a565b5b612eee82612029565b9050602081019050919050565b6000612f0e612f0984612eca565b61209a565b905082815260208101848484011115612f2a57612f29612ec5565b5b612f35848285612432565b509392505050565b600082601f830112612f5257612f51612024565b5b8151612f62848260208601612efb565b91505092915050565b600060208284031215612f8157612f80611f2c565b5b600082015167ffffffffffffffff811115612f9f57612f9e611f31565b5b612fab84828501612f3d565b91505092915050565b7f5061757361626c653a2070617573656400000000000000000000000000000000600082015250565b6000612fea6010836125d8565b9150612ff582612fb4565b602082019050919050565b6000602082019050818103600083015261301981612fdd565b9050919050565b7f5061757361626c653a206e6f7420706175736564000000000000000000000000600082015250565b60006130566014836125d8565b915061306182613020565b602082019050919050565b6000602082019050818103600083015261308581613049565b905091905056fea2646970667358221220a2d098f0af85bb7403f73f8f6d4d9f600418f9b7d63de2a089f59593e65cf21f64736f6c634300080c0033",
					"opcodes": "PUSH1 0x80 PUSH1 0x40 MSTORE PUSH1 0x1 PUSH1 0x8 SSTORE CALLVALUE DUP1 ISZERO PUSH3 0x16 JUMPI PUSH1 0x0 DUP1 REVERT JUMPDEST POP PUSH1 0x40 MLOAD PUSH3 0x346E CODESIZE SUB DUP1 PUSH3 0x346E DUP4 CODECOPY DUP2 DUP2 ADD PUSH1 0x40 MSTORE DUP2 ADD SWAP1 PUSH3 0x3C SWAP2 SWAP1 PUSH3 0x2A7 JUMP JUMPDEST PUSH1 0x1 PUSH3 0x4E PUSH3 0x1B6 PUSH1 0x20 SHL PUSH1 0x20 SHR JUMP JUMPDEST PUSH1 0x0 ADD DUP2 SWAP1 SSTORE POP PUSH1 0x0 DUP1 PUSH1 0x0 PUSH2 0x100 EXP DUP2 SLOAD DUP2 PUSH1 0xFF MUL NOT AND SWAP1 DUP4 ISZERO ISZERO MUL OR SWAP1 SSTORE POP PUSH1 0x0 PUSH20 0xFFFFFFFFFFFFFFFFFFFFFFFFFFFFFFFFFFFFFFFF AND DUP3 PUSH20 0xFFFFFFFFFFFFFFFFFFFFFFFFFFFFFFFFFFFFFFFF AND EQ ISZERO DUP1 ISZERO PUSH3 0xDA JUMPI POP PUSH1 0x0 PUSH20 0xFFFFFFFFFFFFFFFFFFFFFFFFFFFFFFFFFFFFFFFF AND DUP2 PUSH20 0xFFFFFFFFFFFFFFFFFFFFFFFFFFFFFFFFFFFFFFFF AND EQ ISZERO JUMPDEST PUSH3 0x11C JUMPI PUSH1 0x40 MLOAD PUSH32 0x8C379A000000000000000000000000000000000000000000000000000000000 DUP2 MSTORE PUSH1 0x4 ADD PUSH3 0x113 SWAP1 PUSH3 0x37A JUMP JUMPDEST PUSH1 0x40 MLOAD DUP1 SWAP2 SUB SWAP1 REVERT JUMPDEST DUP4 PUSH1 0x2 DUP2 SWAP1 SSTORE POP DUP3 PUSH1 0x3 DUP2 SWAP1 SSTORE POP DUP2 PUSH1 0x4 PUSH1 0x0 PUSH2 0x100 EXP DUP2 SLOAD DUP2 PUSH20 0xFFFFFFFFFFFFFFFFFFFFFFFFFFFFFFFFFFFFFFFF MUL NOT AND SWAP1 DUP4 PUSH20 0xFFFFFFFFFFFFFFFFFFFFFFFFFFFFFFFFFFFFFFFF AND MUL OR SWAP1 SSTORE POP DUP1 PUSH1 0x5 PUSH1 0x0 PUSH2 0x100 EXP DUP2 SLOAD DUP2 PUSH20 0xFFFFFFFFFFFFFFFFFFFFFFFFFFFFFFFFFFFFFFFF MUL NOT AND SWAP1 DUP4 PUSH20 0xFFFFFFFFFFFFFFFFFFFFFFFFFFFFFFFFFFFFFFFF AND MUL OR SWAP1 SSTORE POP POP POP POP POP PUSH3 0x39C JUMP JUMPDEST PUSH1 0x0 PUSH3 0x1CD PUSH3 0x1D2 PUSH1 0x20 SHL PUSH3 0x1B86 OR PUSH1 0x20 SHR JUMP JUMPDEST SWAP1 POP SWAP1 JUMP JUMPDEST PUSH1 0x0 DUP1 PUSH32 0x1D281C488DAE143B6EA4122E80C65059929950B9C32F17FC57BE22089D9C3B00 PUSH1 0x0 SHL SWAP1 POP DUP1 SWAP2 POP POP SWAP1 JUMP JUMPDEST PUSH1 0x0 DUP1 REVERT JUMPDEST PUSH1 0x0 DUP2 SWAP1 POP SWAP2 SWAP1 POP JUMP JUMPDEST PUSH3 0x21C DUP2 PUSH3 0x207 JUMP JUMPDEST DUP2 EQ PUSH3 0x228 JUMPI PUSH1 0x0 DUP1 REVERT JUMPDEST POP JUMP JUMPDEST PUSH1 0x0 DUP2 MLOAD SWAP1 POP PUSH3 0x23C DUP2 PUSH3 0x211 JUMP JUMPDEST SWAP3 SWAP2 POP POP JUMP JUMPDEST PUSH1 0x0 PUSH20 0xFFFFFFFFFFFFFFFFFFFFFFFFFFFFFFFFFFFFFFFF DUP3 AND SWAP1 POP SWAP2 SWAP1 POP JUMP JUMPDEST PUSH1 0x0 PUSH3 0x26F DUP3 PUSH3 0x242 JUMP JUMPDEST SWAP1 POP SWAP2 SWAP1 POP JUMP JUMPDEST PUSH3 0x281 DUP2 PUSH3 0x262 JUMP JUMPDEST DUP2 EQ PUSH3 0x28D JUMPI PUSH1 0x0 DUP1 REVERT JUMPDEST POP JUMP JUMPDEST PUSH1 0x0 DUP2 MLOAD SWAP1 POP PUSH3 0x2A1 DUP2 PUSH3 0x276 JUMP JUMPDEST SWAP3 SWAP2 POP POP JUMP JUMPDEST PUSH1 0x0 DUP1 PUSH1 0x0 DUP1 PUSH1 0x80 DUP6 DUP8 SUB SLT ISZERO PUSH3 0x2C4 JUMPI PUSH3 0x2C3 PUSH3 0x202 JUMP JUMPDEST JUMPDEST PUSH1 0x0 PUSH3 0x2D4 DUP8 DUP3 DUP9 ADD PUSH3 0x22B JUMP JUMPDEST SWAP5 POP POP PUSH1 0x20 PUSH3 0x2E7 DUP8 DUP3 DUP9 ADD PUSH3 0x22B JUMP JUMPDEST SWAP4 POP POP PUSH1 0x40 PUSH3 0x2FA DUP8 DUP3 DUP9 ADD PUSH3 0x290 JUMP JUMPDEST SWAP3 POP POP PUSH1 0x60 PUSH3 0x30D DUP8 DUP3 DUP9 ADD PUSH3 0x290 JUMP JUMPDEST SWAP2 POP POP SWAP3 SWAP6 SWAP2 SWAP5 POP SWAP3 POP JUMP JUMPDEST PUSH1 0x0 DUP3 DUP3 MSTORE PUSH1 0x20 DUP3 ADD SWAP1 POP SWAP3 SWAP2 POP POP JUMP JUMPDEST PUSH32 0x4164647265737365732063616E6E6F74206265207A65726F0000000000000000 PUSH1 0x0 DUP3 ADD MSTORE POP JUMP JUMPDEST PUSH1 0x0 PUSH3 0x362 PUSH1 0x18 DUP4 PUSH3 0x319 JUMP JUMPDEST SWAP2 POP PUSH3 0x36F DUP3 PUSH3 0x32A JUMP JUMPDEST PUSH1 0x20 DUP3 ADD SWAP1 POP SWAP2 SWAP1 POP JUMP JUMPDEST PUSH1 0x0 PUSH1 0x20 DUP3 ADD SWAP1 POP DUP2 DUP2 SUB PUSH1 0x0 DUP4 ADD MSTORE PUSH3 0x395 DUP2 PUSH3 0x353 JUMP JUMPDEST SWAP1 POP SWAP2 SWAP1 POP JUMP JUMPDEST PUSH2 0x30C2 DUP1 PUSH3 0x3AC PUSH1 0x0 CODECOPY PUSH1 0x0 RETURN INVALID PUSH1 0x80 PUSH1 0x40 MSTORE PUSH1 0x4 CALLDATASIZE LT PUSH2 0x11F JUMPI PUSH1 0x0 CALLDATALOAD PUSH1 0xE0 SHR DUP1 PUSH4 0x85DD3008 GT PUSH2 0xA0 JUMPI DUP1 PUSH4 0xB9314135 GT PUSH2 0x64 JUMPI DUP1 PUSH4 0xB9314135 EQ PUSH2 0x37A JUMPI DUP1 PUSH4 0xCDD78CFC EQ PUSH2 0x3B7 JUMPI DUP1 PUSH4 0xDE74E57B EQ PUSH2 0x3E2 JUMPI DUP1 PUSH4 0xE3B6A1F6 EQ PUSH2 0x422 JUMPI DUP1 PUSH4 0xED14834F EQ PUSH2 0x45F JUMPI PUSH2 0x11F JUMP JUMPDEST DUP1 PUSH4 0x85DD3008 EQ PUSH2 0x2A3 JUMPI DUP1 PUSH4 0x8A71BB2D EQ PUSH2 0x2CE JUMPI DUP1 PUSH4 0x8DA5CB5B EQ PUSH2 0x2F9 JUMPI DUP1 PUSH4 0xAACCF1EC EQ PUSH2 0x324 JUMPI DUP1 PUSH4 0xAD2F852A EQ PUSH2 0x34F JUMPI PUSH2 0x11F JUMP JUMPDEST DUP1 PUSH4 0x5C975ABB GT PUSH2 0xE7 JUMPI DUP1 PUSH4 0x5C975ABB EQ PUSH2 0x1D2 JUMPI DUP1 PUSH4 0x5E4E8D65 EQ PUSH2 0x1FD JUMPI DUP1 PUSH4 0x78578BB3 EQ PUSH2 0x226 JUMPI DUP1 PUSH4 0x7BDACEEF EQ PUSH2 0x24F JUMPI DUP1 PUSH4 0x8456CB59 EQ PUSH2 0x28C JUMPI PUSH2 0x11F JUMP JUMPDEST DUP1 PUSH4 0x13AF4035 EQ PUSH2 0x124 JUMPI DUP1 PUSH4 0x305A67A8 EQ PUSH2 0x14D JUMPI DUP1 PUSH4 0x3F4BA83A EQ PUSH2 0x176 JUMPI DUP1 PUSH4 0x4E313796 EQ PUSH2 0x18D JUMPI DUP1 PUSH4 0x51ED8288 EQ PUSH2 0x1B6 JUMPI JUMPDEST PUSH1 0x0 DUP1 REVERT JUMPDEST CALLVALUE DUP1 ISZERO PUSH2 0x130 JUMPI PUSH1 0x0 DUP1 REVERT JUMPDEST POP PUSH2 0x14B PUSH1 0x4 DUP1 CALLDATASIZE SUB DUP2 ADD SWAP1 PUSH2 0x146 SWAP2 SWAP1 PUSH2 0x1F94 JUMP JUMPDEST PUSH2 0x48A JUMP JUMPDEST STOP JUMPDEST CALLVALUE DUP1 ISZERO PUSH2 0x159 JUMPI PUSH1 0x0 DUP1 REVERT JUMPDEST POP PUSH2 0x174 PUSH1 0x4 DUP1 CALLDATASIZE SUB DUP2 ADD SWAP1 PUSH2 0x16F SWAP2 SWAP1 PUSH2 0x1FF7 JUMP JUMPDEST PUSH2 0x4DD JUMP JUMPDEST STOP JUMPDEST CALLVALUE DUP1 ISZERO PUSH2 0x182 JUMPI PUSH1 0x0 DUP1 REVERT JUMPDEST POP PUSH2 0x18B PUSH2 0x6D9 JUMP JUMPDEST STOP JUMPDEST CALLVALUE DUP1 ISZERO PUSH2 0x199 JUMPI PUSH1 0x0 DUP1 REVERT JUMPDEST POP PUSH2 0x1B4 PUSH1 0x4 DUP1 CALLDATASIZE SUB DUP2 ADD SWAP1 PUSH2 0x1AF SWAP2 SWAP1 PUSH2 0x217D JUMP JUMPDEST PUSH2 0x7ED JUMP JUMPDEST STOP JUMPDEST PUSH2 0x1D0 PUSH1 0x4 DUP1 CALLDATASIZE SUB DUP2 ADD SWAP1 PUSH2 0x1CB SWAP2 SWAP1 PUSH2 0x1FF7 JUMP JUMPDEST PUSH2 0xCA6 JUMP JUMPDEST STOP JUMPDEST CALLVALUE DUP1 ISZERO PUSH2 0x1DE JUMPI PUSH1 0x0 DUP1 REVERT JUMPDEST POP PUSH2 0x1E7 PUSH2 0x1303 JUMP JUMPDEST PUSH1 0x40 MLOAD PUSH2 0x1F4 SWAP2 SWAP1 PUSH2 0x221B JUMP JUMPDEST PUSH1 0x40 MLOAD DUP1 SWAP2 SUB SWAP1 RETURN JUMPDEST CALLVALUE DUP1 ISZERO PUSH2 0x209 JUMPI PUSH1 0x0 DUP1 REVERT JUMPDEST POP PUSH2 0x224 PUSH1 0x4 DUP1 CALLDATASIZE SUB DUP2 ADD SWAP1 PUSH2 0x21F SWAP2 SWAP1 PUSH2 0x2236 JUMP JUMPDEST PUSH2 0x1319 JUMP JUMPDEST STOP JUMPDEST CALLVALUE DUP1 ISZERO PUSH2 0x232 JUMPI PUSH1 0x0 DUP1 REVERT JUMPDEST POP PUSH2 0x24D PUSH1 0x4 DUP1 CALLDATASIZE SUB DUP2 ADD SWAP1 PUSH2 0x248 SWAP2 SWAP1 PUSH2 0x2276 JUMP JUMPDEST PUSH2 0x1552 JUMP JUMPDEST STOP JUMPDEST CALLVALUE DUP1 ISZERO PUSH2 0x25B JUMPI PUSH1 0x0 DUP1 REVERT JUMPDEST POP PUSH2 0x276 PUSH1 0x4 DUP1 CALLDATASIZE SUB DUP2 ADD SWAP1 PUSH2 0x271 SWAP2 SWAP1 PUSH2 0x1FF7 JUMP JUMPDEST PUSH2 0x166E JUMP JUMPDEST PUSH1 0x40 MLOAD PUSH2 0x283 SWAP2 SWAP1 PUSH2 0x22C5 JUMP JUMPDEST PUSH1 0x40 MLOAD DUP1 SWAP2 SUB SWAP1 RETURN JUMPDEST CALLVALUE DUP1 ISZERO PUSH2 0x298 JUMPI PUSH1 0x0 DUP1 REVERT JUMPDEST POP PUSH2 0x2A1 PUSH2 0x16A1 JUMP JUMPDEST STOP JUMPDEST CALLVALUE DUP1 ISZERO PUSH2 0x2AF JUMPI PUSH1 0x0 DUP1 REVERT JUMPDEST POP PUSH2 0x2B8 PUSH2 0x17B5 JUMP JUMPDEST PUSH1 0x40 MLOAD PUSH2 0x2C5 SWAP2 SWAP1 PUSH2 0x239E JUMP JUMPDEST PUSH1 0x40 MLOAD DUP1 SWAP2 SUB SWAP1 RETURN JUMPDEST CALLVALUE DUP1 ISZERO PUSH2 0x2DA JUMPI PUSH1 0x0 DUP1 REVERT JUMPDEST POP PUSH2 0x2E3 PUSH2 0x180D JUMP JUMPDEST PUSH1 0x40 MLOAD PUSH2 0x2F0 SWAP2 SWAP1 PUSH2 0x23CF JUMP JUMPDEST PUSH1 0x40 MLOAD DUP1 SWAP2 SUB SWAP1 RETURN JUMPDEST CALLVALUE DUP1 ISZERO PUSH2 0x305 JUMPI PUSH1 0x0 DUP1 REVERT JUMPDEST POP PUSH2 0x30E PUSH2 0x1813 JUMP JUMPDEST PUSH1 0x40 MLOAD PUSH2 0x31B SWAP2 SWAP1 PUSH2 0x22C5 JUMP JUMPDEST PUSH1 0x40 MLOAD DUP1 SWAP2 SUB SWAP1 RETURN JUMPDEST CALLVALUE DUP1 ISZERO PUSH2 0x330 JUMPI PUSH1 0x0 DUP1 REVERT JUMPDEST POP PUSH2 0x339 PUSH2 0x1846 JUMP JUMPDEST PUSH1 0x40 MLOAD PUSH2 0x346 SWAP2 SWAP1 PUSH2 0x23CF JUMP JUMPDEST PUSH1 0x40 MLOAD DUP1 SWAP2 SUB SWAP1 RETURN JUMPDEST CALLVALUE DUP1 ISZERO PUSH2 0x35B JUMPI PUSH1 0x0 DUP1 REVERT JUMPDEST POP PUSH2 0x364 PUSH2 0x184C JUMP JUMPDEST PUSH1 0x40 MLOAD PUSH2 0x371 SWAP2 SWAP1 PUSH2 0x22C5 JUMP JUMPDEST PUSH1 0x40 MLOAD DUP1 SWAP2 SUB SWAP1 RETURN JUMPDEST CALLVALUE DUP1 ISZERO PUSH2 0x386 JUMPI PUSH1 0x0 DUP1 REVERT JUMPDEST POP PUSH2 0x3A1 PUSH1 0x4 DUP1 CALLDATASIZE SUB DUP2 ADD SWAP1 PUSH2 0x39C SWAP2 SWAP1 PUSH2 0x1FF7 JUMP JUMPDEST PUSH2 0x1872 JUMP JUMPDEST PUSH1 0x40 MLOAD PUSH2 0x3AE SWAP2 SWAP1 PUSH2 0x2571 JUMP JUMPDEST PUSH1 0x40 MLOAD DUP1 SWAP2 SUB SWAP1 RETURN JUMPDEST CALLVALUE DUP1 ISZERO PUSH2 0x3C3 JUMPI PUSH1 0x0 DUP1 REVERT JUMPDEST POP PUSH2 0x3CC PUSH2 0x1AC6 JUMP JUMPDEST PUSH1 0x40 MLOAD PUSH2 0x3D9 SWAP2 SWAP1 PUSH2 0x23CF JUMP JUMPDEST PUSH1 0x40 MLOAD DUP1 SWAP2 SUB SWAP1 RETURN JUMPDEST CALLVALUE DUP1 ISZERO PUSH2 0x3EE JUMPI PUSH1 0x0 DUP1 REVERT JUMPDEST POP PUSH2 0x409 PUSH1 0x4 DUP1 CALLDATASIZE SUB DUP2 ADD SWAP1 PUSH2 0x404 SWAP2 SWAP1 PUSH2 0x1FF7 JUMP JUMPDEST PUSH2 0x1ACC JUMP JUMPDEST PUSH1 0x40 MLOAD PUSH2 0x419 SWAP5 SWAP4 SWAP3 SWAP2 SWAP1 PUSH2 0x2593 JUMP JUMPDEST PUSH1 0x40 MLOAD DUP1 SWAP2 SUB SWAP1 RETURN JUMPDEST CALLVALUE DUP1 ISZERO PUSH2 0x42E JUMPI PUSH1 0x0 DUP1 REVERT JUMPDEST POP PUSH2 0x449 PUSH1 0x4 DUP1 CALLDATASIZE SUB DUP2 ADD SWAP1 PUSH2 0x444 SWAP2 SWAP1 PUSH2 0x1FF7 JUMP JUMPDEST PUSH2 0x1B3C JUMP JUMPDEST PUSH1 0x40 MLOAD PUSH2 0x456 SWAP2 SWAP1 PUSH2 0x23CF JUMP JUMPDEST PUSH1 0x40 MLOAD DUP1 SWAP2 SUB SWAP1 RETURN JUMPDEST CALLVALUE DUP1 ISZERO PUSH2 0x46B JUMPI PUSH1 0x0 DUP1 REVERT JUMPDEST POP PUSH2 0x474 PUSH2 0x1B60 JUMP JUMPDEST PUSH1 0x40 MLOAD PUSH2 0x481 SWAP2 SWAP1 PUSH2 0x22C5 JUMP JUMPDEST PUSH1 0x40 MLOAD DUP1 SWAP2 SUB SWAP1 RETURN JUMPDEST PUSH2 0x492 PUSH2 0x1BB6 JUMP JUMPDEST PUSH2 0x4D1 JUMPI PUSH1 0x40 MLOAD PUSH32 0x8C379A000000000000000000000000000000000000000000000000000000000 DUP2 MSTORE PUSH1 0x4 ADD PUSH2 0x4C8 SWAP1 PUSH2 0x2635 JUMP JUMPDEST PUSH1 0x40 MLOAD DUP1 SWAP2 SUB SWAP1 REVERT JUMPDEST PUSH2 0x4DA DUP2 PUSH2 0x1BBF JUMP JUMPDEST POP JUMP JUMPDEST PUSH1 0x2 PUSH2 0x4E7 PUSH2 0x1C97 JUMP JUMPDEST PUSH1 0x0 ADD SLOAD EQ ISZERO PUSH2 0x52C JUMPI PUSH1 0x40 MLOAD PUSH32 0x8C379A000000000000000000000000000000000000000000000000000000000 DUP2 MSTORE PUSH1 0x4 ADD PUSH2 0x523 SWAP1 PUSH2 0x26A1 JUMP JUMPDEST PUSH1 0x40 MLOAD DUP1 SWAP2 SUB SWAP1 REVERT JUMPDEST PUSH1 0x2 PUSH2 0x536 PUSH2 0x1C97 JUMP JUMPDEST PUSH1 0x0 ADD DUP2 SWAP1 SSTORE POP CALLER PUSH20 0xFFFFFFFFFFFFFFFFFFFFFFFFFFFFFFFFFFFFFFFF AND PUSH1 0x7 PUSH1 0x0 DUP4 DUP2 MSTORE PUSH1 0x20 ADD SWAP1 DUP2 MSTORE PUSH1 0x20 ADD PUSH1 0x0 KECCAK256 PUSH1 0x0 SWAP1 SLOAD SWAP1 PUSH2 0x100 EXP SWAP1 DIV PUSH20 0xFFFFFFFFFFFFFFFFFFFFFFFFFFFFFFFFFFFFFFFF AND PUSH20 0xFFFFFFFFFFFFFFFFFFFFFFFFFFFFFFFFFFFFFFFF AND EQ PUSH2 0x5DE JUMPI PUSH1 0x40 MLOAD PUSH32 0x8C379A000000000000000000000000000000000000000000000000000000000 DUP2 MSTORE PUSH1 0x4 ADD PUSH2 0x5D5 SWAP1 PUSH2 0x2733 JUMP JUMPDEST PUSH1 0x40 MLOAD DUP1 SWAP2 SUB SWAP1 REVERT JUMPDEST PUSH1 0x6 PUSH1 0x0 DUP3 DUP2 MSTORE PUSH1 0x20 ADD SWAP1 DUP2 MSTORE PUSH1 0x20 ADD PUSH1 0x0 KECCAK256 PUSH1 0x0 DUP1 DUP3 ADD PUSH1 0x0 PUSH2 0x100 EXP DUP2 SLOAD SWAP1 PUSH20 0xFFFFFFFFFFFFFFFFFFFFFFFFFFFFFFFFFFFFFFFF MUL NOT AND SWAP1 SSTORE PUSH1 0x1 DUP3 ADD PUSH1 0x0 PUSH2 0x629 SWAP2 SWAP1 PUSH2 0x1E7D JUMP JUMPDEST PUSH1 0x2 DUP3 ADD PUSH1 0x0 PUSH2 0x100 EXP DUP2 SLOAD SWAP1 PUSH20 0xFFFFFFFFFFFFFFFFFFFFFFFFFFFFFFFFFFFFFFFF MUL NOT AND SWAP1 SSTORE PUSH1 0x3 DUP3 ADD PUSH1 0x0 SWAP1 SSTORE PUSH1 0x4 DUP3 ADD PUSH1 0x0 SWAP1 SSTORE POP POP PUSH1 0x7 PUSH1 0x0 DUP3 DUP2 MSTORE PUSH1 0x20 ADD SWAP1 DUP2 MSTORE PUSH1 0x20 ADD PUSH1 0x0 KECCAK256 PUSH1 0x0 PUSH2 0x100 EXP DUP2 SLOAD SWAP1 PUSH20 0xFFFFFFFFFFFFFFFFFFFFFFFFFFFFFFFFFFFFFFFF MUL NOT AND SWAP1 SSTORE DUP1 PUSH32 0xC0C55A6EDEAD4433D18CB1E287A0A20A2FA003A6F483BC9823D2E504D70D1C67 PUSH1 0x40 MLOAD PUSH1 0x40 MLOAD DUP1 SWAP2 SUB SWAP1 LOG2 PUSH1 0x1 PUSH2 0x6CF PUSH2 0x1C97 JUMP JUMPDEST PUSH1 0x0 ADD DUP2 SWAP1 SSTORE POP POP JUMP JUMPDEST PUSH2 0x6E1 PUSH2 0x1CA6 JUMP JUMPDEST PUSH1 0x0 ADD PUSH1 0x0 SWAP1 SLOAD SWAP1 PUSH2 0x100 EXP SWAP1 DIV PUSH20 0xFFFFFFFFFFFFFFFFFFFFFFFFFFFFFFFFFFFFFFFF AND PUSH20 0xFFFFFFFFFFFFFFFFFFFFFFFFFFFFFFFFFFFFFFFF AND CALLER PUSH20 0xFFFFFFFFFFFFFFFFFFFFFFFFFFFFFFFFFFFFFFFF AND EQ PUSH2 0x772 JUMPI PUSH1 0x40 MLOAD PUSH32 0x8C379A000000000000000000000000000000000000000000000000000000000 DUP2 MSTORE PUSH1 0x4 ADD PUSH2 0x769 SWAP1 PUSH2 0x2635 JUMP JUMPDEST PUSH1 0x40 MLOAD DUP1 SWAP2 SUB SWAP1 REVERT JUMPDEST PUSH1 0x2 PUSH2 0x77C PUSH2 0x1C97 JUMP JUMPDEST PUSH1 0x0 ADD SLOAD EQ ISZERO PUSH2 0x7C1 JUMPI PUSH1 0x40 MLOAD PUSH32 0x8C379A000000000000000000000000000000000000000000000000000000000 DUP2 MSTORE PUSH1 0x4 ADD PUSH2 0x7B8 SWAP1 PUSH2 0x26A1 JUMP JUMPDEST PUSH1 0x40 MLOAD DUP1 SWAP2 SUB SWAP1 REVERT JUMPDEST PUSH1 0x2 PUSH2 0x7CB PUSH2 0x1C97 JUMP JUMPDEST PUSH1 0x0 ADD DUP2 SWAP1 SSTORE POP PUSH2 0x7DA PUSH2 0x1CB5 JUMP JUMPDEST PUSH1 0x1 PUSH2 0x7E4 PUSH2 0x1C97 JUMP JUMPDEST PUSH1 0x0 ADD DUP2 SWAP1 SSTORE POP JUMP JUMPDEST PUSH2 0x7F5 PUSH2 0x1D17 JUMP JUMPDEST PUSH1 0x2 PUSH2 0x7FF PUSH2 0x1C97 JUMP JUMPDEST PUSH1 0x0 ADD SLOAD EQ ISZERO PUSH2 0x844 JUMPI PUSH1 0x40 MLOAD PUSH32 0x8C379A000000000000000000000000000000000000000000000000000000000 DUP2 MSTORE PUSH1 0x4 ADD PUSH2 0x83B SWAP1 PUSH2 0x26A1 JUMP JUMPDEST PUSH1 0x40 MLOAD DUP1 SWAP2 SUB SWAP1 REVERT JUMPDEST PUSH1 0x2 PUSH2 0x84E PUSH2 0x1C97 JUMP JUMPDEST PUSH1 0x0 ADD DUP2 SWAP1 SSTORE POP PUSH1 0x0 DUP3 GT PUSH2 0x898 JUMPI PUSH1 0x40 MLOAD PUSH32 0x8C379A000000000000000000000000000000000000000000000000000000000 DUP2 MSTORE PUSH1 0x4 ADD PUSH2 0x88F SWAP1 PUSH2 0x279F JUMP JUMPDEST PUSH1 0x40 MLOAD DUP1 SWAP2 SUB SWAP1 REVERT JUMPDEST PUSH1 0x0 DUP2 GT PUSH2 0x8DB JUMPI PUSH1 0x40 MLOAD PUSH32 0x8C379A000000000000000000000000000000000000000000000000000000000 DUP2 MSTORE PUSH1 0x4 ADD PUSH2 0x8D2 SWAP1 PUSH2 0x2831 JUMP JUMPDEST PUSH1 0x40 MLOAD DUP1 SWAP2 SUB SWAP1 REVERT JUMPDEST PUSH1 0x0 DUP4 MLOAD GT PUSH2 0x91F JUMPI PUSH1 0x40 MLOAD PUSH32 0x8C379A000000000000000000000000000000000000000000000000000000000 DUP2 MSTORE PUSH1 0x4 ADD PUSH2 0x916 SWAP1 PUSH2 0x289D JUMP JUMPDEST PUSH1 0x40 MLOAD DUP1 SWAP2 SUB SWAP1 REVERT JUMPDEST PUSH1 0x0 DUP5 SWAP1 POP PUSH1 0x0 JUMPDEST DUP5 MLOAD DUP2 LT ISZERO PUSH2 0xA4A JUMPI PUSH1 0x0 DUP6 DUP3 DUP2 MLOAD DUP2 LT PUSH2 0x945 JUMPI PUSH2 0x944 PUSH2 0x28BD JUMP JUMPDEST JUMPDEST PUSH1 0x20 MUL PUSH1 0x20 ADD ADD MLOAD SWAP1 POP CALLER PUSH20 0xFFFFFFFFFFFFFFFFFFFFFFFFFFFFFFFFFFFFFFFF AND DUP4 PUSH20 0xFFFFFFFFFFFFFFFFFFFFFFFFFFFFFFFFFFFFFFFF AND PUSH4 0x6352211E DUP4 PUSH1 0x40 MLOAD DUP3 PUSH4 0xFFFFFFFF AND PUSH1 0xE0 SHL DUP2 MSTORE PUSH1 0x4 ADD PUSH2 0x99F SWAP2 SWAP1 PUSH2 0x23CF JUMP JUMPDEST PUSH1 0x20 PUSH1 0x40 MLOAD DUP1 DUP4 SUB DUP2 DUP7 GAS STATICCALL ISZERO DUP1 ISZERO PUSH2 0x9BC JUMPI RETURNDATASIZE PUSH1 0x0 DUP1 RETURNDATACOPY RETURNDATASIZE PUSH1 0x0 REVERT JUMPDEST POP POP POP POP PUSH1 0x40 MLOAD RETURNDATASIZE PUSH1 0x1F NOT PUSH1 0x1F DUP3 ADD AND DUP3 ADD DUP1 PUSH1 0x40 MSTORE POP DUP2 ADD SWAP1 PUSH2 0x9E0 SWAP2 SWAP1 PUSH2 0x2901 JUMP JUMPDEST PUSH20 0xFFFFFFFFFFFFFFFFFFFFFFFFFFFFFFFFFFFFFFFF AND EQ PUSH2 0xA36 JUMPI PUSH1 0x40 MLOAD PUSH32 0x8C379A000000000000000000000000000000000000000000000000000000000 DUP2 MSTORE PUSH1 0x4 ADD PUSH2 0xA2D SWAP1 PUSH2 0x297A JUMP JUMPDEST PUSH1 0x40 MLOAD DUP1 SWAP2 SUB SWAP1 REVERT JUMPDEST POP DUP1 DUP1 PUSH2 0xA42 SWAP1 PUSH2 0x29C9 JUMP JUMPDEST SWAP2 POP POP PUSH2 0x927 JUMP JUMPDEST POP PUSH1 0x40 MLOAD DUP1 PUSH1 0xA0 ADD PUSH1 0x40 MSTORE DUP1 DUP7 PUSH20 0xFFFFFFFFFFFFFFFFFFFFFFFFFFFFFFFFFFFFFFFF AND DUP2 MSTORE PUSH1 0x20 ADD DUP6 DUP2 MSTORE PUSH1 0x20 ADD CALLER PUSH20 0xFFFFFFFFFFFFFFFFFFFFFFFFFFFFFFFFFFFFFFFF AND DUP2 MSTORE PUSH1 0x20 ADD DUP5 DUP2 MSTORE PUSH1 0x20 ADD DUP4 TIMESTAMP PUSH2 0xAA6 SWAP2 SWAP1 PUSH2 0x2A12 JUMP JUMPDEST DUP2 MSTORE POP PUSH1 0x6 PUSH1 0x0 PUSH1 0x8 SLOAD DUP2 MSTORE PUSH1 0x20 ADD SWAP1 DUP2 MSTORE PUSH1 0x20 ADD PUSH1 0x0 KECCAK256 PUSH1 0x0 DUP3 ADD MLOAD DUP2 PUSH1 0x0 ADD PUSH1 0x0 PUSH2 0x100 EXP DUP2 SLOAD DUP2 PUSH20 0xFFFFFFFFFFFFFFFFFFFFFFFFFFFFFFFFFFFFFFFF MUL NOT AND SWAP1 DUP4 PUSH20 0xFFFFFFFFFFFFFFFFFFFFFFFFFFFFFFFFFFFFFFFF AND MUL OR SWAP1 SSTORE POP PUSH1 0x20 DUP3 ADD MLOAD DUP2 PUSH1 0x1 ADD SWAP1 DUP1 MLOAD SWAP1 PUSH1 0x20 ADD SWAP1 PUSH2 0xB21 SWAP3 SWAP2 SWAP1 PUSH2 0x1E9E JUMP JUMPDEST POP PUSH1 0x40 DUP3 ADD MLOAD DUP2 PUSH1 0x2 ADD PUSH1 0x0 PUSH2 0x100 EXP DUP2 SLOAD DUP2 PUSH20 0xFFFFFFFFFFFFFFFFFFFFFFFFFFFFFFFFFFFFFFFF MUL NOT AND SWAP1 DUP4 PUSH20 0xFFFFFFFFFFFFFFFFFFFFFFFFFFFFFFFFFFFFFFFF AND MUL OR SWAP1 SSTORE POP PUSH1 0x60 DUP3 ADD MLOAD DUP2 PUSH1 0x3 ADD SSTORE PUSH1 0x80 DUP3 ADD MLOAD DUP2 PUSH1 0x4 ADD SSTORE SWAP1 POP POP CALLER PUSH1 0x7 PUSH1 0x0 PUSH1 0x8 SLOAD DUP2 MSTORE PUSH1 0x20 ADD SWAP1 DUP2 MSTORE PUSH1 0x20 ADD PUSH1 0x0 KECCAK256 PUSH1 0x0 PUSH2 0x100 EXP DUP2 SLOAD DUP2 PUSH20 0xFFFFFFFFFFFFFFFFFFFFFFFFFFFFFFFFFFFFFFFF MUL NOT AND SWAP1 DUP4 PUSH20 0xFFFFFFFFFFFFFFFFFFFFFFFFFFFFFFFFFFFFFFFF AND MUL OR SWAP1 SSTORE POP PUSH1 0x1 PUSH1 0x8 SLOAD SWAP1 DUP1 PUSH1 0x1 DUP2 SLOAD ADD DUP1 DUP3 SSTORE DUP1 SWAP2 POP POP PUSH1 0x1 SWAP1 SUB SWAP1 PUSH1 0x0 MSTORE PUSH1 0x20 PUSH1 0x0 KECCAK256 ADD PUSH1 0x0 SWAP1 SWAP2 SWAP1 SWAP2 SWAP1 SWAP2 POP SSTORE DUP5 PUSH20 0xFFFFFFFFFFFFFFFFFFFFFFFFFFFFFFFFFFFFFFFF AND CALLER PUSH20 0xFFFFFFFFFFFFFFFFFFFFFFFFFFFFFFFFFFFFFFFF AND PUSH1 0x8 SLOAD PUSH32 0xB135AB5D6FB2741EFA75BF597E471845CA0A87FC756C5AB2A23F77639E3A8941 DUP8 DUP8 DUP8 TIMESTAMP PUSH2 0xC5F SWAP2 SWAP1 PUSH2 0x2A12 JUMP JUMPDEST PUSH1 0x40 MLOAD PUSH2 0xC6E SWAP4 SWAP3 SWAP2 SWAP1 PUSH2 0x2A68 JUMP JUMPDEST PUSH1 0x40 MLOAD DUP1 SWAP2 SUB SWAP1 LOG4 PUSH1 0x8 PUSH1 0x0 DUP2 SLOAD DUP1 SWAP3 SWAP2 SWAP1 PUSH2 0xC89 SWAP1 PUSH2 0x29C9 JUMP JUMPDEST SWAP2 SWAP1 POP SSTORE POP POP PUSH1 0x1 PUSH2 0xC99 PUSH2 0x1C97 JUMP JUMPDEST PUSH1 0x0 ADD DUP2 SWAP1 SSTORE POP POP POP POP POP JUMP JUMPDEST PUSH2 0xCAE PUSH2 0x1D17 JUMP JUMPDEST PUSH1 0x2 PUSH2 0xCB8 PUSH2 0x1C97 JUMP JUMPDEST PUSH1 0x0 ADD SLOAD EQ ISZERO PUSH2 0xCFD JUMPI PUSH1 0x40 MLOAD PUSH32 0x8C379A000000000000000000000000000000000000000000000000000000000 DUP2 MSTORE PUSH1 0x4 ADD PUSH2 0xCF4 SWAP1 PUSH2 0x26A1 JUMP JUMPDEST PUSH1 0x40 MLOAD DUP1 SWAP2 SUB SWAP1 REVERT JUMPDEST PUSH1 0x2 PUSH2 0xD07 PUSH2 0x1C97 JUMP JUMPDEST PUSH1 0x0 ADD DUP2 SWAP1 SSTORE POP PUSH1 0x0 CALLVALUE GT PUSH2 0xD51 JUMPI PUSH1 0x40 MLOAD PUSH32 0x8C379A000000000000000000000000000000000000000000000000000000000 DUP2 MSTORE PUSH1 0x4 ADD PUSH2 0xD48 SWAP1 PUSH2 0x2B18 JUMP JUMPDEST PUSH1 0x40 MLOAD DUP1 SWAP2 SUB SWAP1 REVERT JUMPDEST PUSH1 0x0 PUSH1 0x6 PUSH1 0x0 DUP4 DUP2 MSTORE PUSH1 0x20 ADD SWAP1 DUP2 MSTORE PUSH1 0x20 ADD PUSH1 0x0 KECCAK256 SWAP1 POP PUSH1 0x0 PUSH20 0xFFFFFFFFFFFFFFFFFFFFFFFFFFFFFFFFFFFFFFFF AND DUP2 PUSH1 0x2 ADD PUSH1 0x0 SWAP1 SLOAD SWAP1 PUSH2 0x100 EXP SWAP1 DIV PUSH20 0xFFFFFFFFFFFFFFFFFFFFFFFFFFFFFFFFFFFFFFFF AND PUSH20 0xFFFFFFFFFFFFFFFFFFFFFFFFFFFFFFFFFFFFFFFF AND EQ ISZERO PUSH2 0xDFC JUMPI PUSH1 0x40 MLOAD PUSH32 0x8C379A000000000000000000000000000000000000000000000000000000000 DUP2 MSTORE PUSH1 0x4 ADD PUSH2 0xDF3 SWAP1 PUSH2 0x2B84 JUMP JUMPDEST PUSH1 0x40 MLOAD DUP1 SWAP2 SUB SWAP1 REVERT JUMPDEST DUP1 PUSH1 0x4 ADD SLOAD TIMESTAMP GT ISZERO PUSH2 0xE43 JUMPI PUSH1 0x40 MLOAD PUSH32 0x8C379A000000000000000000000000000000000000000000000000000000000 DUP2 MSTORE PUSH1 0x4 ADD PUSH2 0xE3A SWAP1 PUSH2 0x2BF0 JUMP JUMPDEST PUSH1 0x40 MLOAD DUP1 SWAP2 SUB SWAP1 REVERT JUMPDEST DUP1 PUSH1 0x3 ADD SLOAD CALLVALUE EQ PUSH2 0xE89 JUMPI PUSH1 0x40 MLOAD PUSH32 0x8C379A000000000000000000000000000000000000000000000000000000000 DUP2 MSTORE PUSH1 0x4 ADD PUSH2 0xE80 SWAP1 PUSH2 0x2C82 JUMP JUMPDEST PUSH1 0x40 MLOAD DUP1 SWAP2 SUB SWAP1 REVERT JUMPDEST PUSH1 0x0 PUSH2 0x2710 PUSH1 0x2 SLOAD DUP4 PUSH1 0x3 ADD SLOAD PUSH2 0xEA0 SWAP2 SWAP1 PUSH2 0x2CA2 JUMP JUMPDEST PUSH2 0xEAA SWAP2 SWAP1 PUSH2 0x2D2B JUMP JUMPDEST SWAP1 POP PUSH1 0x0 PUSH2 0x2710 PUSH1 0x3 SLOAD DUP5 PUSH1 0x3 ADD SLOAD PUSH2 0xEC3 SWAP2 SWAP1 PUSH2 0x2CA2 JUMP JUMPDEST PUSH2 0xECD SWAP2 SWAP1 PUSH2 0x2D2B JUMP JUMPDEST SWAP1 POP PUSH1 0x0 DUP2 DUP4 DUP6 PUSH1 0x3 ADD SLOAD PUSH2 0xEE2 SWAP2 SWAP1 PUSH2 0x2D5C JUMP JUMPDEST PUSH2 0xEEC SWAP2 SWAP1 PUSH2 0x2D5C JUMP JUMPDEST SWAP1 POP PUSH1 0x0 JUMPDEST DUP5 PUSH1 0x1 ADD DUP1 SLOAD SWAP1 POP DUP2 LT ISZERO PUSH2 0x111F JUMPI PUSH1 0x0 DUP6 PUSH1 0x1 ADD DUP3 DUP2 SLOAD DUP2 LT PUSH2 0xF18 JUMPI PUSH2 0xF17 PUSH2 0x28BD JUMP JUMPDEST JUMPDEST SWAP1 PUSH1 0x0 MSTORE PUSH1 0x20 PUSH1 0x0 KECCAK256 ADD SLOAD SWAP1 POP DUP6 PUSH1 0x2 ADD PUSH1 0x0 SWAP1 SLOAD SWAP1 PUSH2 0x100 EXP SWAP1 DIV PUSH20 0xFFFFFFFFFFFFFFFFFFFFFFFFFFFFFFFFFFFFFFFF AND PUSH20 0xFFFFFFFFFFFFFFFFFFFFFFFFFFFFFFFFFFFFFFFF AND DUP7 PUSH1 0x0 ADD PUSH1 0x0 SWAP1 SLOAD SWAP1 PUSH2 0x100 EXP SWAP1 DIV PUSH20 0xFFFFFFFFFFFFFFFFFFFFFFFFFFFFFFFFFFFFFFFF AND PUSH20 0xFFFFFFFFFFFFFFFFFFFFFFFFFFFFFFFFFFFFFFFF AND PUSH4 0x6352211E DUP4 PUSH1 0x40 MLOAD DUP3 PUSH4 0xFFFFFFFF AND PUSH1 0xE0 SHL DUP2 MSTORE PUSH1 0x4 ADD PUSH2 0xFBD SWAP2 SWAP1 PUSH2 0x23CF JUMP JUMPDEST PUSH1 0x20 PUSH1 0x40 MLOAD DUP1 DUP4 SUB DUP2 DUP7 GAS STATICCALL ISZERO DUP1 ISZERO PUSH2 0xFDA JUMPI RETURNDATASIZE PUSH1 0x0 DUP1 RETURNDATACOPY RETURNDATASIZE PUSH1 0x0 REVERT JUMPDEST POP POP POP POP PUSH1 0x40 MLOAD RETURNDATASIZE PUSH1 0x1F NOT PUSH1 0x1F DUP3 ADD AND DUP3 ADD DUP1 PUSH1 0x40 MSTORE POP DUP2 ADD SWAP1 PUSH2 0xFFE SWAP2 SWAP1 PUSH2 0x2901 JUMP JUMPDEST PUSH20 0xFFFFFFFFFFFFFFFFFFFFFFFFFFFFFFFFFFFFFFFF AND EQ PUSH2 0x1054 JUMPI PUSH1 0x40 MLOAD PUSH32 0x8C379A000000000000000000000000000000000000000000000000000000000 DUP2 MSTORE PUSH1 0x4 ADD PUSH2 0x104B SWAP1 PUSH2 0x2E02 JUMP JUMPDEST PUSH1 0x40 MLOAD DUP1 SWAP2 SUB SWAP1 REVERT JUMPDEST DUP6 PUSH1 0x0 ADD PUSH1 0x0 SWAP1 SLOAD SWAP1 PUSH2 0x100 EXP SWAP1 DIV PUSH20 0xFFFFFFFFFFFFFFFFFFFFFFFFFFFFFFFFFFFFFFFF AND PUSH20 0xFFFFFFFFFFFFFFFFFFFFFFFFFFFFFFFFFFFFFFFF AND PUSH4 0x23B872DD DUP8 PUSH1 0x2 ADD PUSH1 0x0 SWAP1 SLOAD SWAP1 PUSH2 0x100 EXP SWAP1 DIV PUSH20 0xFFFFFFFFFFFFFFFFFFFFFFFFFFFFFFFFFFFFFFFF AND CALLER DUP5 PUSH1 0x40 MLOAD DUP5 PUSH4 0xFFFFFFFF AND PUSH1 0xE0 SHL DUP2 MSTORE PUSH1 0x4 ADD PUSH2 0x10D9 SWAP4 SWAP3 SWAP2 SWAP1 PUSH2 0x2E22 JUMP JUMPDEST PUSH1 0x0 PUSH1 0x40 MLOAD DUP1 DUP4 SUB DUP2 PUSH1 0x0 DUP8 DUP1 EXTCODESIZE ISZERO DUP1 ISZERO PUSH2 0x10F3 JUMPI PUSH1 0x0 DUP1 REVERT JUMPDEST POP GAS CALL ISZERO DUP1 ISZERO PUSH2 0x1107 JUMPI RETURNDATASIZE PUSH1 0x0 DUP1 RETURNDATACOPY RETURNDATASIZE PUSH1 0x0 REVERT JUMPDEST POP POP POP POP POP DUP1 DUP1 PUSH2 0x1117 SWAP1 PUSH2 0x29C9 JUMP JUMPDEST SWAP2 POP POP PUSH2 0xEF1 JUMP JUMPDEST POP DUP4 PUSH1 0x2 ADD PUSH1 0x0 SWAP1 SLOAD SWAP1 PUSH2 0x100 EXP SWAP1 DIV PUSH20 0xFFFFFFFFFFFFFFFFFFFFFFFFFFFFFFFFFFFFFFFF AND PUSH20 0xFFFFFFFFFFFFFFFFFFFFFFFFFFFFFFFFFFFFFFFF AND PUSH2 0x8FC DUP3 SWAP1 DUP2 ISZERO MUL SWAP1 PUSH1 0x40 MLOAD PUSH1 0x0 PUSH1 0x40 MLOAD DUP1 DUP4 SUB DUP2 DUP6 DUP9 DUP9 CALL SWAP4 POP POP POP POP ISZERO DUP1 ISZERO PUSH2 0x118A JUMPI RETURNDATASIZE PUSH1 0x0 DUP1 RETURNDATACOPY RETURNDATASIZE PUSH1 0x0 REVERT JUMPDEST POP PUSH1 0x4 PUSH1 0x0 SWAP1 SLOAD SWAP1 PUSH2 0x100 EXP SWAP1 DIV PUSH20 0xFFFFFFFFFFFFFFFFFFFFFFFFFFFFFFFFFFFFFFFF AND PUSH20 0xFFFFFFFFFFFFFFFFFFFFFFFFFFFFFFFFFFFFFFFF AND PUSH2 0x8FC DUP5 SWAP1 DUP2 ISZERO MUL SWAP1 PUSH1 0x40 MLOAD PUSH1 0x0 PUSH1 0x40 MLOAD DUP1 DUP4 SUB DUP2 DUP6 DUP9 DUP9 CALL SWAP4 POP POP POP POP ISZERO DUP1 ISZERO PUSH2 0x11F3 JUMPI RETURNDATASIZE PUSH1 0x0 DUP1 RETURNDATACOPY RETURNDATASIZE PUSH1 0x0 REVERT JUMPDEST POP PUSH1 0x5 PUSH1 0x0 SWAP1 SLOAD SWAP1 PUSH2 0x100 EXP SWAP1 DIV PUSH20 0xFFFFFFFFFFFFFFFFFFFFFFFFFFFFFFFFFFFFFFFF AND PUSH20 0xFFFFFFFFFFFFFFFFFFFFFFFFFFFFFFFFFFFFFFFF AND PUSH2 0x8FC DUP4 SWAP1 DUP2 ISZERO MUL SWAP1 PUSH1 0x40 MLOAD PUSH1 0x0 PUSH1 0x40 MLOAD DUP1 DUP4 SUB DUP2 DUP6 DUP9 DUP9 CALL SWAP4 POP POP POP POP ISZERO DUP1 ISZERO PUSH2 0x125C JUMPI RETURNDATASIZE PUSH1 0x0 DUP1 RETURNDATACOPY RETURNDATASIZE PUSH1 0x0 REVERT JUMPDEST POP CALLER PUSH20 0xFFFFFFFFFFFFFFFFFFFFFFFFFFFFFFFFFFFFFFFF AND DUP5 PUSH1 0x2 ADD PUSH1 0x0 SWAP1 SLOAD SWAP1 PUSH2 0x100 EXP SWAP1 DIV PUSH20 0xFFFFFFFFFFFFFFFFFFFFFFFFFFFFFFFFFFFFFFFF AND PUSH20 0xFFFFFFFFFFFFFFFFFFFFFFFFFFFFFFFFFFFFFFFF AND DUP7 PUSH32 0x8562EB94748E30BB0071E932744CE902B460C683474FCB3BFD567FFA16B1AFB2 DUP8 PUSH1 0x3 ADD SLOAD PUSH1 0x40 MLOAD PUSH2 0x12E3 SWAP2 SWAP1 PUSH2 0x23CF JUMP JUMPDEST PUSH1 0x40 MLOAD DUP1 SWAP2 SUB SWAP1 LOG4 POP POP POP POP PUSH1 0x1 PUSH2 0x12F9 PUSH2 0x1C97 JUMP JUMPDEST PUSH1 0x0 ADD DUP2 SWAP1 SSTORE POP POP JUMP JUMPDEST PUSH1 0x0 DUP1 PUSH1 0x0 SWAP1 SLOAD SWAP1 PUSH2 0x100 EXP SWAP1 DIV PUSH1 0xFF AND SWAP1 POP SWAP1 JUMP JUMPDEST PUSH2 0x1321 PUSH2 0x1CA6 JUMP JUMPDEST PUSH1 0x0 ADD PUSH1 0x0 SWAP1 SLOAD SWAP1 PUSH2 0x100 EXP SWAP1 DIV PUSH20 0xFFFFFFFFFFFFFFFFFFFFFFFFFFFFFFFFFFFFFFFF AND PUSH20 0xFFFFFFFFFFFFFFFFFFFFFFFFFFFFFFFFFFFFFFFF AND CALLER PUSH20 0xFFFFFFFFFFFFFFFFFFFFFFFFFFFFFFFFFFFFFFFF AND EQ PUSH2 0x13B2 JUMPI PUSH1 0x40 MLOAD PUSH32 0x8C379A000000000000000000000000000000000000000000000000000000000 DUP2 MSTORE PUSH1 0x4 ADD PUSH2 0x13A9 SWAP1 PUSH2 0x2635 JUMP JUMPDEST PUSH1 0x40 MLOAD DUP1 SWAP2 SUB SWAP1 REVERT JUMPDEST PUSH1 0x2 PUSH2 0x13BC PUSH2 0x1C97 JUMP JUMPDEST PUSH1 0x0 ADD SLOAD EQ ISZERO PUSH2 0x1401 JUMPI PUSH1 0x40 MLOAD PUSH32 0x8C379A000000000000000000000000000000000000000000000000000000000 DUP2 MSTORE PUSH1 0x4 ADD PUSH2 0x13F8 SWAP1 PUSH2 0x26A1 JUMP JUMPDEST PUSH1 0x40 MLOAD DUP1 SWAP2 SUB SWAP1 REVERT JUMPDEST PUSH1 0x2 PUSH2 0x140B PUSH2 0x1C97 JUMP JUMPDEST PUSH1 0x0 ADD DUP2 SWAP1 SSTORE POP PUSH1 0x0 PUSH20 0xFFFFFFFFFFFFFFFFFFFFFFFFFFFFFFFFFFFFFFFF AND DUP3 PUSH20 0xFFFFFFFFFFFFFFFFFFFFFFFFFFFFFFFFFFFFFFFF AND EQ ISZERO DUP1 ISZERO PUSH2 0x147C JUMPI POP PUSH1 0x0 PUSH20 0xFFFFFFFFFFFFFFFFFFFFFFFFFFFFFFFFFFFFFFFF AND DUP2 PUSH20 0xFFFFFFFFFFFFFFFFFFFFFFFFFFFFFFFFFFFFFFFF AND EQ ISZERO JUMPDEST PUSH2 0x14BB JUMPI PUSH1 0x40 MLOAD PUSH32 0x8C379A000000000000000000000000000000000000000000000000000000000 DUP2 MSTORE PUSH1 0x4 ADD PUSH2 0x14B2 SWAP1 PUSH2 0x2EA5 JUMP JUMPDEST PUSH1 0x40 MLOAD DUP1 SWAP2 SUB SWAP1 REVERT JUMPDEST DUP2 PUSH1 0x4 PUSH1 0x0 PUSH2 0x100 EXP DUP2 SLOAD DUP2 PUSH20 0xFFFFFFFFFFFFFFFFFFFFFFFFFFFFFFFFFFFFFFFF MUL NOT AND SWAP1 DUP4 PUSH20 0xFFFFFFFFFFFFFFFFFFFFFFFFFFFFFFFFFFFFFFFF AND MUL OR SWAP1 SSTORE POP DUP1 PUSH1 0x5 PUSH1 0x0 PUSH2 0x100 EXP DUP2 SLOAD DUP2 PUSH20 0xFFFFFFFFFFFFFFFFFFFFFFFFFFFFFFFFFFFFFFFF MUL NOT AND SWAP1 DUP4 PUSH20 0xFFFFFFFFFFFFFFFFFFFFFFFFFFFFFFFFFFFFFFFF AND MUL OR SWAP1 SSTORE POP PUSH1 0x1 PUSH2 0x1547 PUSH2 0x1C97 JUMP JUMPDEST PUSH1 0x0 ADD DUP2 SWAP1 SSTORE POP POP POP JUMP JUMPDEST PUSH2 0x155A PUSH2 0x1CA6 JUMP JUMPDEST PUSH1 0x0 ADD PUSH1 0x0 SWAP1 SLOAD SWAP1 PUSH2 0x100 EXP SWAP1 DIV PUSH20 0xFFFFFFFFFFFFFFFFFFFFFFFFFFFFFFFFFFFFFFFF AND PUSH20 0xFFFFFFFFFFFFFFFFFFFFFFFFFFFFFFFFFFFFFFFF AND CALLER PUSH20 0xFFFFFFFFFFFFFFFFFFFFFFFFFFFFFFFFFFFFFFFF AND EQ PUSH2 0x15EB JUMPI PUSH1 0x40 MLOAD PUSH32 0x8C379A000000000000000000000000000000000000000000000000000000000 DUP2 MSTORE PUSH1 0x4 ADD PUSH2 0x15E2 SWAP1 PUSH2 0x2635 JUMP JUMPDEST PUSH1 0x40 MLOAD DUP1 SWAP2 SUB SWAP1 REVERT JUMPDEST PUSH1 0x2 PUSH2 0x15F5 PUSH2 0x1C97 JUMP JUMPDEST PUSH1 0x0 ADD SLOAD EQ ISZERO PUSH2 0x163A JUMPI PUSH1 0x40 MLOAD PUSH32 0x8C379A000000000000000000000000000000000000000000000000000000000 DUP2 MSTORE PUSH1 0x4 ADD PUSH2 0x1631 SWAP1 PUSH2 0x26A1 JUMP JUMPDEST PUSH1 0x40 MLOAD DUP1 SWAP2 SUB SWAP1 REVERT JUMPDEST PUSH1 0x2 PUSH2 0x1644 PUSH2 0x1C97 JUMP JUMPDEST PUSH1 0x0 ADD DUP2 SWAP1 SSTORE POP DUP2 PUSH1 0x2 DUP2 SWAP1 SSTORE POP DUP1 PUSH1 0x3 DUP2 SWAP1 SSTORE POP PUSH1 0x1 PUSH2 0x1663 PUSH2 0x1C97 JUMP JUMPDEST PUSH1 0x0 ADD DUP2 SWAP1 SSTORE POP POP POP JUMP JUMPDEST PUSH1 0x7 PUSH1 0x20 MSTORE DUP1 PUSH1 0x0 MSTORE PUSH1 0x40 PUSH1 0x0 KECCAK256 PUSH1 0x0 SWAP2 POP SLOAD SWAP1 PUSH2 0x100 EXP SWAP1 DIV PUSH20 0xFFFFFFFFFFFFFFFFFFFFFFFFFFFFFFFFFFFFFFFF AND DUP2 JUMP JUMPDEST PUSH2 0x16A9 PUSH2 0x1CA6 JUMP JUMPDEST PUSH1 0x0 ADD PUSH1 0x0 SWAP1 SLOAD SWAP1 PUSH2 0x100 EXP SWAP1 DIV PUSH20 0xFFFFFFFFFFFFFFFFFFFFFFFFFFFFFFFFFFFFFFFF AND PUSH20 0xFFFFFFFFFFFFFFFFFFFFFFFFFFFFFFFFFFFFFFFF AND CALLER PUSH20 0xFFFFFFFFFFFFFFFFFFFFFFFFFFFFFFFFFFFFFFFF AND EQ PUSH2 0x173A JUMPI PUSH1 0x40 MLOAD PUSH32 0x8C379A000000000000000000000000000000000000000000000000000000000 DUP2 MSTORE PUSH1 0x4 ADD PUSH2 0x1731 SWAP1 PUSH2 0x2635 JUMP JUMPDEST PUSH1 0x40 MLOAD DUP1 SWAP2 SUB SWAP1 REVERT JUMPDEST PUSH1 0x2 PUSH2 0x1744 PUSH2 0x1C97 JUMP JUMPDEST PUSH1 0x0 ADD SLOAD EQ ISZERO PUSH2 0x1789 JUMPI PUSH1 0x40 MLOAD PUSH32 0x8C379A000000000000000000000000000000000000000000000000000000000 DUP2 MSTORE PUSH1 0x4 ADD PUSH2 0x1780 SWAP1 PUSH2 0x26A1 JUMP JUMPDEST PUSH1 0x40 MLOAD DUP1 SWAP2 SUB SWAP1 REVERT JUMPDEST PUSH1 0x2 PUSH2 0x1793 PUSH2 0x1C97 JUMP JUMPDEST PUSH1 0x0 ADD DUP2 SWAP1 SSTORE POP PUSH2 0x17A2 PUSH2 0x1D61 JUMP JUMPDEST PUSH1 0x1 PUSH2 0x17AC PUSH2 0x1C97 JUMP JUMPDEST PUSH1 0x0 ADD DUP2 SWAP1 SSTORE POP JUMP JUMPDEST PUSH1 0x60 PUSH1 0x1 DUP1 SLOAD DUP1 PUSH1 0x20 MUL PUSH1 0x20 ADD PUSH1 0x40 MLOAD SWAP1 DUP2 ADD PUSH1 0x40 MSTORE DUP1 SWAP3 SWAP2 SWAP1 DUP2 DUP2 MSTORE PUSH1 0x20 ADD DUP3 DUP1 SLOAD DUP1 ISZERO PUSH2 0x1803 JUMPI PUSH1 0x20 MUL DUP3 ADD SWAP2 SWAP1 PUSH1 0x0 MSTORE PUSH1 0x20 PUSH1 0x0 KECCAK256 SWAP1 JUMPDEST DUP2 SLOAD DUP2 MSTORE PUSH1 0x20 ADD SWAP1 PUSH1 0x1 ADD SWAP1 DUP1 DUP4 GT PUSH2 0x17EF JUMPI JUMPDEST POP POP POP POP POP SWAP1 POP SWAP1 JUMP JUMPDEST PUSH1 0x2 SLOAD DUP2 JUMP JUMPDEST PUSH1 0x0 PUSH2 0x181D PUSH2 0x1CA6 JUMP JUMPDEST PUSH1 0x0 ADD PUSH1 0x0 SWAP1 SLOAD SWAP1 PUSH2 0x100 EXP SWAP1 DIV PUSH20 0xFFFFFFFFFFFFFFFFFFFFFFFFFFFFFFFFFFFFFFFF AND SWAP1 POP SWAP1 JUMP JUMPDEST PUSH1 0x8 SLOAD DUP2 JUMP JUMPDEST PUSH1 0x4 PUSH1 0x0 SWAP1 SLOAD SWAP1 PUSH2 0x100 EXP SWAP1 DIV PUSH20 0xFFFFFFFFFFFFFFFFFFFFFFFFFFFFFFFFFFFFFFFF AND DUP2 JUMP JUMPDEST PUSH1 0x60 PUSH1 0x0 PUSH1 0x6 PUSH1 0x0 DUP5 DUP2 MSTORE PUSH1 0x20 ADD SWAP1 DUP2 MSTORE PUSH1 0x20 ADD PUSH1 0x0 KECCAK256 SWAP1 POP PUSH1 0x0 PUSH20 0xFFFFFFFFFFFFFFFFFFFFFFFFFFFFFFFFFFFFFFFF AND DUP2 PUSH1 0x2 ADD PUSH1 0x0 SWAP1 SLOAD SWAP1 PUSH2 0x100 EXP SWAP1 DIV PUSH20 0xFFFFFFFFFFFFFFFFFFFFFFFFFFFFFFFFFFFFFFFF AND PUSH20 0xFFFFFFFFFFFFFFFFFFFFFFFFFFFFFFFFFFFFFFFF AND EQ ISZERO PUSH2 0x191F JUMPI PUSH1 0x40 MLOAD PUSH32 0x8C379A000000000000000000000000000000000000000000000000000000000 DUP2 MSTORE PUSH1 0x4 ADD PUSH2 0x1916 SWAP1 PUSH2 0x2B84 JUMP JUMPDEST PUSH1 0x40 MLOAD DUP1 SWAP2 SUB SWAP1 REVERT JUMPDEST PUSH1 0x0 DUP2 PUSH1 0x1 ADD DUP1 SLOAD SWAP1 POP PUSH8 0xFFFFFFFFFFFFFFFF DUP2 GT ISZERO PUSH2 0x1942 JUMPI PUSH2 0x1941 PUSH2 0x203A JUMP JUMPDEST JUMPDEST PUSH1 0x40 MLOAD SWAP1 DUP1 DUP3 MSTORE DUP1 PUSH1 0x20 MUL PUSH1 0x20 ADD DUP3 ADD PUSH1 0x40 MSTORE DUP1 ISZERO PUSH2 0x197B JUMPI DUP2 PUSH1 0x20 ADD JUMPDEST PUSH2 0x1968 PUSH2 0x1EEB JUMP JUMPDEST DUP2 MSTORE PUSH1 0x20 ADD SWAP1 PUSH1 0x1 SWAP1 SUB SWAP1 DUP2 PUSH2 0x1960 JUMPI SWAP1 POP JUMPDEST POP SWAP1 POP PUSH1 0x0 JUMPDEST DUP3 PUSH1 0x1 ADD DUP1 SLOAD SWAP1 POP DUP2 LT ISZERO PUSH2 0x1ABB JUMPI PUSH1 0x0 DUP4 PUSH1 0x1 ADD DUP3 DUP2 SLOAD DUP2 LT PUSH2 0x19A8 JUMPI PUSH2 0x19A7 PUSH2 0x28BD JUMP JUMPDEST JUMPDEST SWAP1 PUSH1 0x0 MSTORE PUSH1 0x20 PUSH1 0x0 KECCAK256 ADD SLOAD SWAP1 POP PUSH1 0x0 PUSH1 0x40 MLOAD DUP1 PUSH1 0x20 ADD PUSH1 0x40 MSTORE DUP1 PUSH1 0x0 DUP2 MSTORE POP SWAP1 POP DUP5 PUSH1 0x0 ADD PUSH1 0x0 SWAP1 SLOAD SWAP1 PUSH2 0x100 EXP SWAP1 DIV PUSH20 0xFFFFFFFFFFFFFFFFFFFFFFFFFFFFFFFFFFFFFFFF AND PUSH20 0xFFFFFFFFFFFFFFFFFFFFFFFFFFFFFFFFFFFFFFFF AND PUSH4 0xC87B56DD DUP4 PUSH1 0x40 MLOAD DUP3 PUSH4 0xFFFFFFFF AND PUSH1 0xE0 SHL DUP2 MSTORE PUSH1 0x4 ADD PUSH2 0x1A26 SWAP2 SWAP1 PUSH2 0x23CF JUMP JUMPDEST PUSH1 0x0 PUSH1 0x40 MLOAD DUP1 DUP4 SUB DUP2 DUP7 GAS STATICCALL SWAP3 POP POP POP DUP1 ISZERO PUSH2 0x1A65 JUMPI POP PUSH1 0x40 MLOAD RETURNDATASIZE PUSH1 0x0 DUP3 RETURNDATACOPY RETURNDATASIZE PUSH1 0x1F NOT PUSH1 0x1F DUP3 ADD AND DUP3 ADD DUP1 PUSH1 0x40 MSTORE POP DUP2 ADD SWAP1 PUSH2 0x1A62 SWAP2 SWAP1 PUSH2 0x2F6B JUMP JUMPDEST PUSH1 0x1 JUMPDEST PUSH2 0x1A6E JUMPI PUSH2 0x1A73 JUMP JUMPDEST DUP1 SWAP2 POP POP JUMPDEST PUSH1 0x40 MLOAD DUP1 PUSH1 0x40 ADD PUSH1 0x40 MSTORE DUP1 DUP4 DUP2 MSTORE PUSH1 0x20 ADD DUP3 DUP2 MSTORE POP DUP5 DUP5 DUP2 MLOAD DUP2 LT PUSH2 0x1A9B JUMPI PUSH2 0x1A9A PUSH2 0x28BD JUMP JUMPDEST JUMPDEST PUSH1 0x20 MUL PUSH1 0x20 ADD ADD DUP2 SWAP1 MSTORE POP POP POP DUP1 DUP1 PUSH2 0x1AB3 SWAP1 PUSH2 0x29C9 JUMP JUMPDEST SWAP2 POP POP PUSH2 0x1981 JUMP JUMPDEST POP DUP1 SWAP3 POP POP POP SWAP2 SWAP1 POP JUMP JUMPDEST PUSH1 0x3 SLOAD DUP2 JUMP JUMPDEST PUSH1 0x6 PUSH1 0x20 MSTORE DUP1 PUSH1 0x0 MSTORE PUSH1 0x40 PUSH1 0x0 KECCAK256 PUSH1 0x0 SWAP2 POP SWAP1 POP DUP1 PUSH1 0x0 ADD PUSH1 0x0 SWAP1 SLOAD SWAP1 PUSH2 0x100 EXP SWAP1 DIV PUSH20 0xFFFFFFFFFFFFFFFFFFFFFFFFFFFFFFFFFFFFFFFF AND SWAP1 DUP1 PUSH1 0x2 ADD PUSH1 0x0 SWAP1 SLOAD SWAP1 PUSH2 0x100 EXP SWAP1 DIV PUSH20 0xFFFFFFFFFFFFFFFFFFFFFFFFFFFFFFFFFFFFFFFF AND SWAP1 DUP1 PUSH1 0x3 ADD SLOAD SWAP1 DUP1 PUSH1 0x4 ADD SLOAD SWAP1 POP DUP5 JUMP JUMPDEST PUSH1 0x1 DUP2 DUP2 SLOAD DUP2 LT PUSH2 0x1B4C JUMPI PUSH1 0x0 DUP1 REVERT JUMPDEST SWAP1 PUSH1 0x0 MSTORE PUSH1 0x20 PUSH1 0x0 KECCAK256 ADD PUSH1 0x0 SWAP2 POP SWAP1 POP SLOAD DUP2 JUMP JUMPDEST PUSH1 0x5 PUSH1 0x0 SWAP1 SLOAD SWAP1 PUSH2 0x100 EXP SWAP1 DIV PUSH20 0xFFFFFFFFFFFFFFFFFFFFFFFFFFFFFFFFFFFFFFFF AND DUP2 JUMP JUMPDEST PUSH1 0x0 DUP1 PUSH32 0x1D281C488DAE143B6EA4122E80C65059929950B9C32F17FC57BE22089D9C3B00 PUSH1 0x0 SHL SWAP1 POP DUP1 SWAP2 POP POP SWAP1 JUMP JUMPDEST PUSH1 0x0 PUSH1 0x1 SWAP1 POP SWAP1 JUMP JUMPDEST PUSH1 0x0 PUSH2 0x1BC9 PUSH2 0x1CA6 JUMP JUMPDEST PUSH1 0x0 ADD PUSH1 0x0 SWAP1 SLOAD SWAP1 PUSH2 0x100 EXP SWAP1 DIV PUSH20 0xFFFFFFFFFFFFFFFFFFFFFFFFFFFFFFFFFFFFFFFF AND SWAP1 POP DUP2 PUSH2 0x1BF8 PUSH2 0x1CA6 JUMP JUMPDEST PUSH1 0x0 ADD PUSH1 0x0 PUSH2 0x100 EXP DUP2 SLOAD DUP2 PUSH20 0xFFFFFFFFFFFFFFFFFFFFFFFFFFFFFFFFFFFFFFFF MUL NOT AND SWAP1 DUP4 PUSH20 0xFFFFFFFFFFFFFFFFFFFFFFFFFFFFFFFFFFFFFFFF AND MUL OR SWAP1 SSTORE POP DUP2 PUSH20 0xFFFFFFFFFFFFFFFFFFFFFFFFFFFFFFFFFFFFFFFF AND DUP2 PUSH20 0xFFFFFFFFFFFFFFFFFFFFFFFFFFFFFFFFFFFFFFFF AND PUSH32 0x8292FCE18FA69EDF4DB7B94EA2E58241DF0AE57F97E0A6C9B29067028BF92D76 PUSH1 0x40 MLOAD PUSH1 0x40 MLOAD DUP1 SWAP2 SUB SWAP1 LOG3 POP POP JUMP JUMPDEST PUSH1 0x0 PUSH2 0x1CA1 PUSH2 0x1B86 JUMP JUMPDEST SWAP1 POP SWAP1 JUMP JUMPDEST PUSH1 0x0 PUSH2 0x1CB0 PUSH2 0x1DC3 JUMP JUMPDEST SWAP1 POP SWAP1 JUMP JUMPDEST PUSH2 0x1CBD PUSH2 0x1E2C JUMP JUMPDEST PUSH1 0x0 DUP1 PUSH1 0x0 PUSH2 0x100 EXP DUP2 SLOAD DUP2 PUSH1 0xFF MUL NOT AND SWAP1 DUP4 ISZERO ISZERO MUL OR SWAP1 SSTORE POP PUSH32 0x5DB9EE0A495BF2E6FF9C91A7834C1BA4FDD244A5E8AA4E537BD38AEAE4B073AA PUSH2 0x1D00 PUSH2 0x1E75 JUMP JUMPDEST PUSH1 0x40 MLOAD PUSH2 0x1D0D SWAP2 SWAP1 PUSH2 0x22C5 JUMP JUMPDEST PUSH1 0x40 MLOAD DUP1 SWAP2 SUB SWAP1 LOG1 JUMP JUMPDEST PUSH2 0x1D1F PUSH2 0x1303 JUMP JUMPDEST ISZERO PUSH2 0x1D5F JUMPI PUSH1 0x40 MLOAD PUSH32 0x8C379A000000000000000000000000000000000000000000000000000000000 DUP2 MSTORE PUSH1 0x4 ADD PUSH2 0x1D56 SWAP1 PUSH2 0x3000 JUMP JUMPDEST PUSH1 0x40 MLOAD DUP1 SWAP2 SUB SWAP1 REVERT JUMPDEST JUMP JUMPDEST PUSH2 0x1D69 PUSH2 0x1D17 JUMP JUMPDEST PUSH1 0x1 PUSH1 0x0 DUP1 PUSH2 0x100 EXP DUP2 SLOAD DUP2 PUSH1 0xFF MUL NOT AND SWAP1 DUP4 ISZERO ISZERO MUL OR SWAP1 SSTORE POP PUSH32 0x62E78CEA01BEE320CD4E420270B5EA74000D11B0C9F74754EBDBFC544B05A258 PUSH2 0x1DAC PUSH2 0x1E75 JUMP JUMPDEST PUSH1 0x40 MLOAD PUSH2 0x1DB9 SWAP2 SWAP1 PUSH2 0x22C5 JUMP JUMPDEST PUSH1 0x40 MLOAD DUP1 SWAP2 SUB SWAP1 LOG1 JUMP JUMPDEST PUSH1 0x0 DUP1 PUSH1 0xFF PUSH1 0x0 SHL NOT PUSH1 0x1 PUSH32 0xFA02B2ADE2DBA28B48A24F204A68D8C0005CA2CCFD58C765CDDDD023319A9B3F PUSH1 0x0 SHR PUSH2 0x1DFC SWAP2 SWAP1 PUSH2 0x2D5C JUMP JUMPDEST PUSH1 0x40 MLOAD PUSH1 0x20 ADD PUSH2 0x1E0C SWAP2 SWAP1 PUSH2 0x23CF JUMP JUMPDEST PUSH1 0x40 MLOAD PUSH1 0x20 DUP2 DUP4 SUB SUB DUP2 MSTORE SWAP1 PUSH1 0x40 MSTORE DUP1 MLOAD SWAP1 PUSH1 0x20 ADD KECCAK256 AND SWAP1 POP DUP1 SWAP2 POP POP SWAP1 JUMP JUMPDEST PUSH2 0x1E34 PUSH2 0x1303 JUMP JUMPDEST PUSH2 0x1E73 JUMPI PUSH1 0x40 MLOAD PUSH32 0x8C379A000000000000000000000000000000000000000000000000000000000 DUP2 MSTORE PUSH1 0x4 ADD PUSH2 0x1E6A SWAP1 PUSH2 0x306C JUMP JUMPDEST PUSH1 0x40 MLOAD DUP1 SWAP2 SUB SWAP1 REVERT JUMPDEST JUMP JUMPDEST PUSH1 0x0 CALLER SWAP1 POP SWAP1 JUMP JUMPDEST POP DUP1 SLOAD PUSH1 0x0 DUP3 SSTORE SWAP1 PUSH1 0x0 MSTORE PUSH1 0x20 PUSH1 0x0 KECCAK256 SWAP1 DUP2 ADD SWAP1 PUSH2 0x1E9B SWAP2 SWAP1 PUSH2 0x1F05 JUMP JUMPDEST POP JUMP JUMPDEST DUP3 DUP1 SLOAD DUP3 DUP3 SSTORE SWAP1 PUSH1 0x0 MSTORE PUSH1 0x20 PUSH1 0x0 KECCAK256 SWAP1 DUP2 ADD SWAP3 DUP3 ISZERO PUSH2 0x1EDA JUMPI SWAP2 PUSH1 0x20 MUL DUP3 ADD JUMPDEST DUP3 DUP2 GT ISZERO PUSH2 0x1ED9 JUMPI DUP3 MLOAD DUP3 SSTORE SWAP2 PUSH1 0x20 ADD SWAP2 SWAP1 PUSH1 0x1 ADD SWAP1 PUSH2 0x1EBE JUMP JUMPDEST JUMPDEST POP SWAP1 POP PUSH2 0x1EE7 SWAP2 SWAP1 PUSH2 0x1F05 JUMP JUMPDEST POP SWAP1 JUMP JUMPDEST PUSH1 0x40 MLOAD DUP1 PUSH1 0x40 ADD PUSH1 0x40 MSTORE DUP1 PUSH1 0x0 DUP2 MSTORE PUSH1 0x20 ADD PUSH1 0x60 DUP2 MSTORE POP SWAP1 JUMP JUMPDEST JUMPDEST DUP1 DUP3 GT ISZERO PUSH2 0x1F1E JUMPI PUSH1 0x0 DUP2 PUSH1 0x0 SWAP1 SSTORE POP PUSH1 0x1 ADD PUSH2 0x1F06 JUMP JUMPDEST POP SWAP1 JUMP JUMPDEST PUSH1 0x0 PUSH1 0x40 MLOAD SWAP1 POP SWAP1 JUMP JUMPDEST PUSH1 0x0 DUP1 REVERT JUMPDEST PUSH1 0x0 DUP1 REVERT JUMPDEST PUSH1 0x0 PUSH20 0xFFFFFFFFFFFFFFFFFFFFFFFFFFFFFFFFFFFFFFFF DUP3 AND SWAP1 POP SWAP2 SWAP1 POP JUMP JUMPDEST PUSH1 0x0 PUSH2 0x1F61 DUP3 PUSH2 0x1F36 JUMP JUMPDEST SWAP1 POP SWAP2 SWAP1 POP JUMP JUMPDEST PUSH2 0x1F71 DUP2 PUSH2 0x1F56 JUMP JUMPDEST DUP2 EQ PUSH2 0x1F7C JUMPI PUSH1 0x0 DUP1 REVERT JUMPDEST POP JUMP JUMPDEST PUSH1 0x0 DUP2 CALLDATALOAD SWAP1 POP PUSH2 0x1F8E DUP2 PUSH2 0x1F68 JUMP JUMPDEST SWAP3 SWAP2 POP POP JUMP JUMPDEST PUSH1 0x0 PUSH1 0x20 DUP3 DUP5 SUB SLT ISZERO PUSH2 0x1FAA JUMPI PUSH2 0x1FA9 PUSH2 0x1F2C JUMP JUMPDEST JUMPDEST PUSH1 0x0 PUSH2 0x1FB8 DUP5 DUP3 DUP6 ADD PUSH2 0x1F7F JUMP JUMPDEST SWAP2 POP POP SWAP3 SWAP2 POP POP JUMP JUMPDEST PUSH1 0x0 DUP2 SWAP1 POP SWAP2 SWAP1 POP JUMP JUMPDEST PUSH2 0x1FD4 DUP2 PUSH2 0x1FC1 JUMP JUMPDEST DUP2 EQ PUSH2 0x1FDF JUMPI PUSH1 0x0 DUP1 REVERT JUMPDEST POP JUMP JUMPDEST PUSH1 0x0 DUP2 CALLDATALOAD SWAP1 POP PUSH2 0x1FF1 DUP2 PUSH2 0x1FCB JUMP JUMPDEST SWAP3 SWAP2 POP POP JUMP JUMPDEST PUSH1 0x0 PUSH1 0x20 DUP3 DUP5 SUB SLT ISZERO PUSH2 0x200D JUMPI PUSH2 0x200C PUSH2 0x1F2C JUMP JUMPDEST JUMPDEST PUSH1 0x0 PUSH2 0x201B DUP5 DUP3 DUP6 ADD PUSH2 0x1FE2 JUMP JUMPDEST SWAP2 POP POP SWAP3 SWAP2 POP POP JUMP JUMPDEST PUSH1 0x0 DUP1 REVERT JUMPDEST PUSH1 0x0 PUSH1 0x1F NOT PUSH1 0x1F DUP4 ADD AND SWAP1 POP SWAP2 SWAP1 POP JUMP JUMPDEST PUSH32 0x4E487B7100000000000000000000000000000000000000000000000000000000 PUSH1 0x0 MSTORE PUSH1 0x41 PUSH1 0x4 MSTORE PUSH1 0x24 PUSH1 0x0 REVERT JUMPDEST PUSH2 0x2072 DUP3 PUSH2 0x2029 JUMP JUMPDEST DUP2 ADD DUP2 DUP2 LT PUSH8 0xFFFFFFFFFFFFFFFF DUP3 GT OR ISZERO PUSH2 0x2091 JUMPI PUSH2 0x2090 PUSH2 0x203A JUMP JUMPDEST JUMPDEST DUP1 PUSH1 0x40 MSTORE POP POP POP JUMP JUMPDEST PUSH1 0x0 PUSH2 0x20A4 PUSH2 0x1F22 JUMP JUMPDEST SWAP1 POP PUSH2 0x20B0 DUP3 DUP3 PUSH2 0x2069 JUMP JUMPDEST SWAP2 SWAP1 POP JUMP JUMPDEST PUSH1 0x0 PUSH8 0xFFFFFFFFFFFFFFFF DUP3 GT ISZERO PUSH2 0x20D0 JUMPI PUSH2 0x20CF PUSH2 0x203A JUMP JUMPDEST JUMPDEST PUSH1 0x20 DUP3 MUL SWAP1 POP PUSH1 0x20 DUP2 ADD SWAP1 POP SWAP2 SWAP1 POP JUMP JUMPDEST PUSH1 0x0 DUP1 REVERT JUMPDEST PUSH1 0x0 PUSH2 0x20F9 PUSH2 0x20F4 DUP5 PUSH2 0x20B5 JUMP JUMPDEST PUSH2 0x209A JUMP JUMPDEST SWAP1 POP DUP1 DUP4 DUP3 MSTORE PUSH1 0x20 DUP3 ADD SWAP1 POP PUSH1 0x20 DUP5 MUL DUP4 ADD DUP6 DUP2 GT ISZERO PUSH2 0x211C JUMPI PUSH2 0x211B PUSH2 0x20E1 JUMP JUMPDEST JUMPDEST DUP4 JUMPDEST DUP2 DUP2 LT ISZERO PUSH2 0x2145 JUMPI DUP1 PUSH2 0x2131 DUP9 DUP3 PUSH2 0x1FE2 JUMP JUMPDEST DUP5 MSTORE PUSH1 0x20 DUP5 ADD SWAP4 POP POP PUSH1 0x20 DUP2 ADD SWAP1 POP PUSH2 0x211E JUMP JUMPDEST POP POP POP SWAP4 SWAP3 POP POP POP JUMP JUMPDEST PUSH1 0x0 DUP3 PUSH1 0x1F DUP4 ADD SLT PUSH2 0x2164 JUMPI PUSH2 0x2163 PUSH2 0x2024 JUMP JUMPDEST JUMPDEST DUP2 CALLDATALOAD PUSH2 0x2174 DUP5 DUP3 PUSH1 0x20 DUP7 ADD PUSH2 0x20E6 JUMP JUMPDEST SWAP2 POP POP SWAP3 SWAP2 POP POP JUMP JUMPDEST PUSH1 0x0 DUP1 PUSH1 0x0 DUP1 PUSH1 0x80 DUP6 DUP8 SUB SLT ISZERO PUSH2 0x2197 JUMPI PUSH2 0x2196 PUSH2 0x1F2C JUMP JUMPDEST JUMPDEST PUSH1 0x0 PUSH2 0x21A5 DUP8 DUP3 DUP9 ADD PUSH2 0x1F7F JUMP JUMPDEST SWAP5 POP POP PUSH1 0x20 DUP6 ADD CALLDATALOAD PUSH8 0xFFFFFFFFFFFFFFFF DUP2 GT ISZERO PUSH2 0x21C6 JUMPI PUSH2 0x21C5 PUSH2 0x1F31 JUMP JUMPDEST JUMPDEST PUSH2 0x21D2 DUP8 DUP3 DUP9 ADD PUSH2 0x214F JUMP JUMPDEST SWAP4 POP POP PUSH1 0x40 PUSH2 0x21E3 DUP8 DUP3 DUP9 ADD PUSH2 0x1FE2 JUMP JUMPDEST SWAP3 POP POP PUSH1 0x60 PUSH2 0x21F4 DUP8 DUP3 DUP9 ADD PUSH2 0x1FE2 JUMP JUMPDEST SWAP2 POP POP SWAP3 SWAP6 SWAP2 SWAP5 POP SWAP3 POP JUMP JUMPDEST PUSH1 0x0 DUP2 ISZERO ISZERO SWAP1 POP SWAP2 SWAP1 POP JUMP JUMPDEST PUSH2 0x2215 DUP2 PUSH2 0x2200 JUMP JUMPDEST DUP3 MSTORE POP POP JUMP JUMPDEST PUSH1 0x0 PUSH1 0x20 DUP3 ADD SWAP1 POP PUSH2 0x2230 PUSH1 0x0 DUP4 ADD DUP5 PUSH2 0x220C JUMP JUMPDEST SWAP3 SWAP2 POP POP JUMP JUMPDEST PUSH1 0x0 DUP1 PUSH1 0x40 DUP4 DUP6 SUB SLT ISZERO PUSH2 0x224D JUMPI PUSH2 0x224C PUSH2 0x1F2C JUMP JUMPDEST JUMPDEST PUSH1 0x0 PUSH2 0x225B DUP6 DUP3 DUP7 ADD PUSH2 0x1F7F JUMP JUMPDEST SWAP3 POP POP PUSH1 0x20 PUSH2 0x226C DUP6 DUP3 DUP7 ADD PUSH2 0x1F7F JUMP JUMPDEST SWAP2 POP POP SWAP3 POP SWAP3 SWAP1 POP JUMP JUMPDEST PUSH1 0x0 DUP1 PUSH1 0x40 DUP4 DUP6 SUB SLT ISZERO PUSH2 0x228D JUMPI PUSH2 0x228C PUSH2 0x1F2C JUMP JUMPDEST JUMPDEST PUSH1 0x0 PUSH2 0x229B DUP6 DUP3 DUP7 ADD PUSH2 0x1FE2 JUMP JUMPDEST SWAP3 POP POP PUSH1 0x20 PUSH2 0x22AC DUP6 DUP3 DUP7 ADD PUSH2 0x1FE2 JUMP JUMPDEST SWAP2 POP POP SWAP3 POP SWAP3 SWAP1 POP JUMP JUMPDEST PUSH2 0x22BF DUP2 PUSH2 0x1F56 JUMP JUMPDEST DUP3 MSTORE POP POP JUMP JUMPDEST PUSH1 0x0 PUSH1 0x20 DUP3 ADD SWAP1 POP PUSH2 0x22DA PUSH1 0x0 DUP4 ADD DUP5 PUSH2 0x22B6 JUMP JUMPDEST SWAP3 SWAP2 POP POP JUMP JUMPDEST PUSH1 0x0 DUP2 MLOAD SWAP1 POP SWAP2 SWAP1 POP JUMP JUMPDEST PUSH1 0x0 DUP3 DUP3 MSTORE PUSH1 0x20 DUP3 ADD SWAP1 POP SWAP3 SWAP2 POP POP JUMP JUMPDEST PUSH1 0x0 DUP2 SWAP1 POP PUSH1 0x20 DUP3 ADD SWAP1 POP SWAP2 SWAP1 POP JUMP JUMPDEST PUSH2 0x2315 DUP2 PUSH2 0x1FC1 JUMP JUMPDEST DUP3 MSTORE POP POP JUMP JUMPDEST PUSH1 0x0 PUSH2 0x2327 DUP4 DUP4 PUSH2 0x230C JUMP JUMPDEST PUSH1 0x20 DUP4 ADD SWAP1 POP SWAP3 SWAP2 POP POP JUMP JUMPDEST PUSH1 0x0 PUSH1 0x20 DUP3 ADD SWAP1 POP SWAP2 SWAP1 POP JUMP JUMPDEST PUSH1 0x0 PUSH2 0x234B DUP3 PUSH2 0x22E0 JUMP JUMPDEST PUSH2 0x2355 DUP2 DUP6 PUSH2 0x22EB JUMP JUMPDEST SWAP4 POP PUSH2 0x2360 DUP4 PUSH2 0x22FC JUMP JUMPDEST DUP1 PUSH1 0x0 JUMPDEST DUP4 DUP2 LT ISZERO PUSH2 0x2391 JUMPI DUP2 MLOAD PUSH2 0x2378 DUP9 DUP3 PUSH2 0x231B JUMP JUMPDEST SWAP8 POP PUSH2 0x2383 DUP4 PUSH2 0x2333 JUMP JUMPDEST SWAP3 POP POP PUSH1 0x1 DUP2 ADD SWAP1 POP PUSH2 0x2364 JUMP JUMPDEST POP DUP6 SWAP4 POP POP POP POP SWAP3 SWAP2 POP POP JUMP JUMPDEST PUSH1 0x0 PUSH1 0x20 DUP3 ADD SWAP1 POP DUP2 DUP2 SUB PUSH1 0x0 DUP4 ADD MSTORE PUSH2 0x23B8 DUP2 DUP5 PUSH2 0x2340 JUMP JUMPDEST SWAP1 POP SWAP3 SWAP2 POP POP JUMP JUMPDEST PUSH2 0x23C9 DUP2 PUSH2 0x1FC1 JUMP JUMPDEST DUP3 MSTORE POP POP JUMP JUMPDEST PUSH1 0x0 PUSH1 0x20 DUP3 ADD SWAP1 POP PUSH2 0x23E4 PUSH1 0x0 DUP4 ADD DUP5 PUSH2 0x23C0 JUMP JUMPDEST SWAP3 SWAP2 POP POP JUMP JUMPDEST PUSH1 0x0 DUP2 MLOAD SWAP1 POP SWAP2 SWAP1 POP JUMP JUMPDEST PUSH1 0x0 DUP3 DUP3 MSTORE PUSH1 0x20 DUP3 ADD SWAP1 POP SWAP3 SWAP2 POP POP JUMP JUMPDEST PUSH1 0x0 DUP2 SWAP1 POP PUSH1 0x20 DUP3 ADD SWAP1 POP SWAP2 SWAP1 POP JUMP JUMPDEST PUSH1 0x0 DUP2 MLOAD SWAP1 POP SWAP2 SWAP1 POP JUMP JUMPDEST PUSH1 0x0 DUP3 DUP3 MSTORE PUSH1 0x20 DUP3 ADD SWAP1 POP SWAP3 SWAP2 POP POP JUMP JUMPDEST PUSH1 0x0 JUMPDEST DUP4 DUP2 LT ISZERO PUSH2 0x2450 JUMPI DUP1 DUP3 ADD MLOAD DUP2 DUP5 ADD MSTORE PUSH1 0x20 DUP2 ADD SWAP1 POP PUSH2 0x2435 JUMP JUMPDEST DUP4 DUP2 GT ISZERO PUSH2 0x245F JUMPI PUSH1 0x0 DUP5 DUP5 ADD MSTORE JUMPDEST POP POP POP POP JUMP JUMPDEST PUSH1 0x0 PUSH2 0x2470 DUP3 PUSH2 0x2416 JUMP JUMPDEST PUSH2 0x247A DUP2 DUP6 PUSH2 0x2421 JUMP JUMPDEST SWAP4 POP PUSH2 0x248A DUP2 DUP6 PUSH1 0x20 DUP7 ADD PUSH2 0x2432 JUMP JUMPDEST PUSH2 0x2493 DUP2 PUSH2 0x2029 JUMP JUMPDEST DUP5 ADD SWAP2 POP POP SWAP3 SWAP2 POP POP JUMP JUMPDEST PUSH1 0x0 PUSH1 0x40 DUP4 ADD PUSH1 0x0 DUP4 ADD MLOAD PUSH2 0x24B6 PUSH1 0x0 DUP7 ADD DUP3 PUSH2 0x230C JUMP JUMPDEST POP PUSH1 0x20 DUP4 ADD MLOAD DUP5 DUP3 SUB PUSH1 0x20 DUP7 ADD MSTORE PUSH2 0x24CE DUP3 DUP3 PUSH2 0x2465 JUMP JUMPDEST SWAP2 POP POP DUP1 SWAP2 POP POP SWAP3 SWAP2 POP POP JUMP JUMPDEST PUSH1 0x0 PUSH2 0x24E7 DUP4 DUP4 PUSH2 0x249E JUMP JUMPDEST SWAP1 POP SWAP3 SWAP2 POP POP JUMP JUMPDEST PUSH1 0x0 PUSH1 0x20 DUP3 ADD SWAP1 POP SWAP2 SWAP1 POP JUMP JUMPDEST PUSH1 0x0 PUSH2 0x2507 DUP3 PUSH2 0x23EA JUMP JUMPDEST PUSH2 0x2511 DUP2 DUP6 PUSH2 0x23F5 JUMP JUMPDEST SWAP4 POP DUP4 PUSH1 0x20 DUP3 MUL DUP6 ADD PUSH2 0x2523 DUP6 PUSH2 0x2406 JUMP JUMPDEST DUP1 PUSH1 0x0 JUMPDEST DUP6 DUP2 LT ISZERO PUSH2 0x255F JUMPI DUP5 DUP5 SUB DUP10 MSTORE DUP2 MLOAD PUSH2 0x2540 DUP6 DUP3 PUSH2 0x24DB JUMP JUMPDEST SWAP5 POP PUSH2 0x254B DUP4 PUSH2 0x24EF JUMP JUMPDEST SWAP3 POP PUSH1 0x20 DUP11 ADD SWAP10 POP POP PUSH1 0x1 DUP2 ADD SWAP1 POP PUSH2 0x2527 JUMP JUMPDEST POP DUP3 SWAP8 POP DUP8 SWAP6 POP POP POP POP POP POP SWAP3 SWAP2 POP POP JUMP JUMPDEST PUSH1 0x0 PUSH1 0x20 DUP3 ADD SWAP1 POP DUP2 DUP2 SUB PUSH1 0x0 DUP4 ADD MSTORE PUSH2 0x258B DUP2 DUP5 PUSH2 0x24FC JUMP JUMPDEST SWAP1 POP SWAP3 SWAP2 POP POP JUMP JUMPDEST PUSH1 0x0 PUSH1 0x80 DUP3 ADD SWAP1 POP PUSH2 0x25A8 PUSH1 0x0 DUP4 ADD DUP8 PUSH2 0x22B6 JUMP JUMPDEST PUSH2 0x25B5 PUSH1 0x20 DUP4 ADD DUP7 PUSH2 0x22B6 JUMP JUMPDEST PUSH2 0x25C2 PUSH1 0x40 DUP4 ADD DUP6 PUSH2 0x23C0 JUMP JUMPDEST PUSH2 0x25CF PUSH1 0x60 DUP4 ADD DUP5 PUSH2 0x23C0 JUMP JUMPDEST SWAP6 SWAP5 POP POP POP POP POP JUMP JUMPDEST PUSH1 0x0 DUP3 DUP3 MSTORE PUSH1 0x20 DUP3 ADD SWAP1 POP SWAP3 SWAP2 POP POP JUMP JUMPDEST PUSH32 0x4E6F7420617574686F72697A6564000000000000000000000000000000000000 PUSH1 0x0 DUP3 ADD MSTORE POP JUMP JUMPDEST PUSH1 0x0 PUSH2 0x261F PUSH1 0xE DUP4 PUSH2 0x25D8 JUMP JUMPDEST SWAP2 POP PUSH2 0x262A DUP3 PUSH2 0x25E9 JUMP JUMPDEST PUSH1 0x20 DUP3 ADD SWAP1 POP SWAP2 SWAP1 POP JUMP JUMPDEST PUSH1 0x0 PUSH1 0x20 DUP3 ADD SWAP1 POP DUP2 DUP2 SUB PUSH1 0x0 DUP4 ADD MSTORE PUSH2 0x264E DUP2 PUSH2 0x2612 JUMP JUMPDEST SWAP1 POP SWAP2 SWAP1 POP JUMP JUMPDEST PUSH32 0x5265656E7472616E637947756172643A207265656E7472616E742063616C6C00 PUSH1 0x0 DUP3 ADD MSTORE POP JUMP JUMPDEST PUSH1 0x0 PUSH2 0x268B PUSH1 0x1F DUP4 PUSH2 0x25D8 JUMP JUMPDEST SWAP2 POP PUSH2 0x2696 DUP3 PUSH2 0x2655 JUMP JUMPDEST PUSH1 0x20 DUP3 ADD SWAP1 POP SWAP2 SWAP1 POP JUMP JUMPDEST PUSH1 0x0 PUSH1 0x20 DUP3 ADD SWAP1 POP DUP2 DUP2 SUB PUSH1 0x0 DUP4 ADD MSTORE PUSH2 0x26BA DUP2 PUSH2 0x267E JUMP JUMPDEST SWAP1 POP SWAP2 SWAP1 POP JUMP JUMPDEST PUSH32 0x4F6E6C7920746865206C697374696E67206F776E65722063616E2063616E6365 PUSH1 0x0 DUP3 ADD MSTORE PUSH32 0x6C2069742E000000000000000000000000000000000000000000000000000000 PUSH1 0x20 DUP3 ADD MSTORE POP JUMP JUMPDEST PUSH1 0x0 PUSH2 0x271D PUSH1 0x25 DUP4 PUSH2 0x25D8 JUMP JUMPDEST SWAP2 POP PUSH2 0x2728 DUP3 PUSH2 0x26C1 JUMP JUMPDEST PUSH1 0x40 DUP3 ADD SWAP1 POP SWAP2 SWAP1 POP JUMP JUMPDEST PUSH1 0x0 PUSH1 0x20 DUP3 ADD SWAP1 POP DUP2 DUP2 SUB PUSH1 0x0 DUP4 ADD MSTORE PUSH2 0x274C DUP2 PUSH2 0x2710 JUMP JUMPDEST SWAP1 POP SWAP2 SWAP1 POP JUMP JUMPDEST PUSH32 0x5072696365206D7573742062652067726561746572207468616E207A65726F2E PUSH1 0x0 DUP3 ADD MSTORE POP JUMP JUMPDEST PUSH1 0x0 PUSH2 0x2789 PUSH1 0x20 DUP4 PUSH2 0x25D8 JUMP JUMPDEST SWAP2 POP PUSH2 0x2794 DUP3 PUSH2 0x2753 JUMP JUMPDEST PUSH1 0x20 DUP3 ADD SWAP1 POP SWAP2 SWAP1 POP JUMP JUMPDEST PUSH1 0x0 PUSH1 0x20 DUP3 ADD SWAP1 POP DUP2 DUP2 SUB PUSH1 0x0 DUP4 ADD MSTORE PUSH2 0x27B8 DUP2 PUSH2 0x277C JUMP JUMPDEST SWAP1 POP SWAP2 SWAP1 POP JUMP JUMPDEST PUSH32 0x446561646C696E65206D7573742062652067726561746572207468616E207A65 PUSH1 0x0 DUP3 ADD MSTORE PUSH32 0x726F2E0000000000000000000000000000000000000000000000000000000000 PUSH1 0x20 DUP3 ADD MSTORE POP JUMP JUMPDEST PUSH1 0x0 PUSH2 0x281B PUSH1 0x23 DUP4 PUSH2 0x25D8 JUMP JUMPDEST SWAP2 POP PUSH2 0x2826 DUP3 PUSH2 0x27BF JUMP JUMPDEST PUSH1 0x40 DUP3 ADD SWAP1 POP SWAP2 SWAP1 POP JUMP JUMPDEST PUSH1 0x0 PUSH1 0x20 DUP3 ADD SWAP1 POP DUP2 DUP2 SUB PUSH1 0x0 DUP4 ADD MSTORE PUSH2 0x284A DUP2 PUSH2 0x280E JUMP JUMPDEST SWAP1 POP SWAP2 SWAP1 POP JUMP JUMPDEST PUSH32 0x4D757374206C697374206174206C65617374206F6E65204E46542E0000000000 PUSH1 0x0 DUP3 ADD MSTORE POP JUMP JUMPDEST PUSH1 0x0 PUSH2 0x2887 PUSH1 0x1B DUP4 PUSH2 0x25D8 JUMP JUMPDEST SWAP2 POP PUSH2 0x2892 DUP3 PUSH2 0x2851 JUMP JUMPDEST PUSH1 0x20 DUP3 ADD SWAP1 POP SWAP2 SWAP1 POP JUMP JUMPDEST PUSH1 0x0 PUSH1 0x20 DUP3 ADD SWAP1 POP DUP2 DUP2 SUB PUSH1 0x0 DUP4 ADD MSTORE PUSH2 0x28B6 DUP2 PUSH2 0x287A JUMP JUMPDEST SWAP1 POP SWAP2 SWAP1 POP JUMP JUMPDEST PUSH32 0x4E487B7100000000000000000000000000000000000000000000000000000000 PUSH1 0x0 MSTORE PUSH1 0x32 PUSH1 0x4 MSTORE PUSH1 0x24 PUSH1 0x0 REVERT JUMPDEST PUSH1 0x0 DUP2 MLOAD SWAP1 POP PUSH2 0x28FB DUP2 PUSH2 0x1F68 JUMP JUMPDEST SWAP3 SWAP2 POP POP JUMP JUMPDEST PUSH1 0x0 PUSH1 0x20 DUP3 DUP5 SUB SLT ISZERO PUSH2 0x2917 JUMPI PUSH2 0x2916 PUSH2 0x1F2C JUMP JUMPDEST JUMPDEST PUSH1 0x0 PUSH2 0x2925 DUP5 DUP3 DUP6 ADD PUSH2 0x28EC JUMP JUMPDEST SWAP2 POP POP SWAP3 SWAP2 POP POP JUMP JUMPDEST PUSH32 0x596F75206D757374206F776E20746865204E465420746F206C6973742069742E PUSH1 0x0 DUP3 ADD MSTORE POP JUMP JUMPDEST PUSH1 0x0 PUSH2 0x2964 PUSH1 0x20 DUP4 PUSH2 0x25D8 JUMP JUMPDEST SWAP2 POP PUSH2 0x296F DUP3 PUSH2 0x292E JUMP JUMPDEST PUSH1 0x20 DUP3 ADD SWAP1 POP SWAP2 SWAP1 POP JUMP JUMPDEST PUSH1 0x0 PUSH1 0x20 DUP3 ADD SWAP1 POP DUP2 DUP2 SUB PUSH1 0x0 DUP4 ADD MSTORE PUSH2 0x2993 DUP2 PUSH2 0x2957 JUMP JUMPDEST SWAP1 POP SWAP2 SWAP1 POP JUMP JUMPDEST PUSH32 0x4E487B7100000000000000000000000000000000000000000000000000000000 PUSH1 0x0 MSTORE PUSH1 0x11 PUSH1 0x4 MSTORE PUSH1 0x24 PUSH1 0x0 REVERT JUMPDEST PUSH1 0x0 PUSH2 0x29D4 DUP3 PUSH2 0x1FC1 JUMP JUMPDEST SWAP2 POP PUSH32 0xFFFFFFFFFFFFFFFFFFFFFFFFFFFFFFFFFFFFFFFFFFFFFFFFFFFFFFFFFFFFFFFF DUP3 EQ ISZERO PUSH2 0x2A07 JUMPI PUSH2 0x2A06 PUSH2 0x299A JUMP JUMPDEST JUMPDEST PUSH1 0x1 DUP3 ADD SWAP1 POP SWAP2 SWAP1 POP JUMP JUMPDEST PUSH1 0x0 PUSH2 0x2A1D DUP3 PUSH2 0x1FC1 JUMP JUMPDEST SWAP2 POP PUSH2 0x2A28 DUP4 PUSH2 0x1FC1 JUMP JUMPDEST SWAP3 POP DUP3 PUSH32 0xFFFFFFFFFFFFFFFFFFFFFFFFFFFFFFFFFFFFFFFFFFFFFFFFFFFFFFFFFFFFFFFF SUB DUP3 GT ISZERO PUSH2 0x2A5D JUMPI PUSH2 0x2A5C PUSH2 0x299A JUMP JUMPDEST JUMPDEST DUP3 DUP3 ADD SWAP1 POP SWAP3 SWAP2 POP POP JUMP JUMPDEST PUSH1 0x0 PUSH1 0x60 DUP3 ADD SWAP1 POP DUP2 DUP2 SUB PUSH1 0x0 DUP4 ADD MSTORE PUSH2 0x2A82 DUP2 DUP7 PUSH2 0x2340 JUMP JUMPDEST SWAP1 POP PUSH2 0x2A91 PUSH1 0x20 DUP4 ADD DUP6 PUSH2 0x23C0 JUMP JUMPDEST PUSH2 0x2A9E PUSH1 0x40 DUP4 ADD DUP5 PUSH2 0x23C0 JUMP JUMPDEST SWAP5 SWAP4 POP POP POP POP JUMP JUMPDEST PUSH32 0x53656E742076616C7565206D7573742062652067726561746572207468616E20 PUSH1 0x0 DUP3 ADD MSTORE PUSH32 0x7A65726F2E000000000000000000000000000000000000000000000000000000 PUSH1 0x20 DUP3 ADD MSTORE POP JUMP JUMPDEST PUSH1 0x0 PUSH2 0x2B02 PUSH1 0x25 DUP4 PUSH2 0x25D8 JUMP JUMPDEST SWAP2 POP PUSH2 0x2B0D DUP3 PUSH2 0x2AA6 JUMP JUMPDEST PUSH1 0x40 DUP3 ADD SWAP1 POP SWAP2 SWAP1 POP JUMP JUMPDEST PUSH1 0x0 PUSH1 0x20 DUP3 ADD SWAP1 POP DUP2 DUP2 SUB PUSH1 0x0 DUP4 ADD MSTORE PUSH2 0x2B31 DUP2 PUSH2 0x2AF5 JUMP JUMPDEST SWAP1 POP SWAP2 SWAP1 POP JUMP JUMPDEST PUSH32 0x4C697374696E6720646F6573206E6F742065786973742E000000000000000000 PUSH1 0x0 DUP3 ADD MSTORE POP JUMP JUMPDEST PUSH1 0x0 PUSH2 0x2B6E PUSH1 0x17 DUP4 PUSH2 0x25D8 JUMP JUMPDEST SWAP2 POP PUSH2 0x2B79 DUP3 PUSH2 0x2B38 JUMP JUMPDEST PUSH1 0x20 DUP3 ADD SWAP1 POP SWAP2 SWAP1 POP JUMP JUMPDEST PUSH1 0x0 PUSH1 0x20 DUP3 ADD SWAP1 POP DUP2 DUP2 SUB PUSH1 0x0 DUP4 ADD MSTORE PUSH2 0x2B9D DUP2 PUSH2 0x2B61 JUMP JUMPDEST SWAP1 POP SWAP2 SWAP1 POP JUMP JUMPDEST PUSH32 0x54686973206C697374696E672068617320657870697265642E00000000000000 PUSH1 0x0 DUP3 ADD MSTORE POP JUMP JUMPDEST PUSH1 0x0 PUSH2 0x2BDA PUSH1 0x19 DUP4 PUSH2 0x25D8 JUMP JUMPDEST SWAP2 POP PUSH2 0x2BE5 DUP3 PUSH2 0x2BA4 JUMP JUMPDEST PUSH1 0x20 DUP3 ADD SWAP1 POP SWAP2 SWAP1 POP JUMP JUMPDEST PUSH1 0x0 PUSH1 0x20 DUP3 ADD SWAP1 POP DUP2 DUP2 SUB PUSH1 0x0 DUP4 ADD MSTORE PUSH2 0x2C09 DUP2 PUSH2 0x2BCD JUMP JUMPDEST SWAP1 POP SWAP2 SWAP1 POP JUMP JUMPDEST PUSH32 0x53656E742076616C7565206D75737420626520657175616C20746F2074686520 PUSH1 0x0 DUP3 ADD MSTORE PUSH32 0x6C697374696E672070726963652E000000000000000000000000000000000000 PUSH1 0x20 DUP3 ADD MSTORE POP JUMP JUMPDEST PUSH1 0x0 PUSH2 0x2C6C PUSH1 0x2E DUP4 PUSH2 0x25D8 JUMP JUMPDEST SWAP2 POP PUSH2 0x2C77 DUP3 PUSH2 0x2C10 JUMP JUMPDEST PUSH1 0x40 DUP3 ADD SWAP1 POP SWAP2 SWAP1 POP JUMP JUMPDEST PUSH1 0x0 PUSH1 0x20 DUP3 ADD SWAP1 POP DUP2 DUP2 SUB PUSH1 0x0 DUP4 ADD MSTORE PUSH2 0x2C9B DUP2 PUSH2 0x2C5F JUMP JUMPDEST SWAP1 POP SWAP2 SWAP1 POP JUMP JUMPDEST PUSH1 0x0 PUSH2 0x2CAD DUP3 PUSH2 0x1FC1 JUMP JUMPDEST SWAP2 POP PUSH2 0x2CB8 DUP4 PUSH2 0x1FC1 JUMP JUMPDEST SWAP3 POP DUP2 PUSH32 0xFFFFFFFFFFFFFFFFFFFFFFFFFFFFFFFFFFFFFFFFFFFFFFFFFFFFFFFFFFFFFFFF DIV DUP4 GT DUP3 ISZERO ISZERO AND ISZERO PUSH2 0x2CF1 JUMPI PUSH2 0x2CF0 PUSH2 0x299A JUMP JUMPDEST JUMPDEST DUP3 DUP3 MUL SWAP1 POP SWAP3 SWAP2 POP POP JUMP JUMPDEST PUSH32 0x4E487B7100000000000000000000000000000000000000000000000000000000 PUSH1 0x0 MSTORE PUSH1 0x12 PUSH1 0x4 MSTORE PUSH1 0x24 PUSH1 0x0 REVERT JUMPDEST PUSH1 0x0 PUSH2 0x2D36 DUP3 PUSH2 0x1FC1 JUMP JUMPDEST SWAP2 POP PUSH2 0x2D41 DUP4 PUSH2 0x1FC1 JUMP JUMPDEST SWAP3 POP DUP3 PUSH2 0x2D51 JUMPI PUSH2 0x2D50 PUSH2 0x2CFC JUMP JUMPDEST JUMPDEST DUP3 DUP3 DIV SWAP1 POP SWAP3 SWAP2 POP POP JUMP JUMPDEST PUSH1 0x0 PUSH2 0x2D67 DUP3 PUSH2 0x1FC1 JUMP JUMPDEST SWAP2 POP PUSH2 0x2D72 DUP4 PUSH2 0x1FC1 JUMP JUMPDEST SWAP3 POP DUP3 DUP3 LT ISZERO PUSH2 0x2D85 JUMPI PUSH2 0x2D84 PUSH2 0x299A JUMP JUMPDEST JUMPDEST DUP3 DUP3 SUB SWAP1 POP SWAP3 SWAP2 POP POP JUMP JUMPDEST PUSH32 0x53656C6C6572206E6F206C6F6E676572206F776E73206F6E65206F6620746865 PUSH1 0x0 DUP3 ADD MSTORE PUSH32 0x204E4654732E0000000000000000000000000000000000000000000000000000 PUSH1 0x20 DUP3 ADD MSTORE POP JUMP JUMPDEST PUSH1 0x0 PUSH2 0x2DEC PUSH1 0x26 DUP4 PUSH2 0x25D8 JUMP JUMPDEST SWAP2 POP PUSH2 0x2DF7 DUP3 PUSH2 0x2D90 JUMP JUMPDEST PUSH1 0x40 DUP3 ADD SWAP1 POP SWAP2 SWAP1 POP JUMP JUMPDEST PUSH1 0x0 PUSH1 0x20 DUP3 ADD SWAP1 POP DUP2 DUP2 SUB PUSH1 0x0 DUP4 ADD MSTORE PUSH2 0x2E1B DUP2 PUSH2 0x2DDF JUMP JUMPDEST SWAP1 POP SWAP2 SWAP1 POP JUMP JUMPDEST PUSH1 0x0 PUSH1 0x60 DUP3 ADD SWAP1 POP PUSH2 0x2E37 PUSH1 0x0 DUP4 ADD DUP7 PUSH2 0x22B6 JUMP JUMPDEST PUSH2 0x2E44 PUSH1 0x20 DUP4 ADD DUP6 PUSH2 0x22B6 JUMP JUMPDEST PUSH2 0x2E51 PUSH1 0x40 DUP4 ADD DUP5 PUSH2 0x23C0 JUMP JUMPDEST SWAP5 SWAP4 POP POP POP POP JUMP JUMPDEST PUSH32 0x4164647265737365732063616E6E6F74206265207A65726F0000000000000000 PUSH1 0x0 DUP3 ADD MSTORE POP JUMP JUMPDEST PUSH1 0x0 PUSH2 0x2E8F PUSH1 0x18 DUP4 PUSH2 0x25D8 JUMP JUMPDEST SWAP2 POP PUSH2 0x2E9A DUP3 PUSH2 0x2E59 JUMP JUMPDEST PUSH1 0x20 DUP3 ADD SWAP1 POP SWAP2 SWAP1 POP JUMP JUMPDEST PUSH1 0x0 PUSH1 0x20 DUP3 ADD SWAP1 POP DUP2 DUP2 SUB PUSH1 0x0 DUP4 ADD MSTORE PUSH2 0x2EBE DUP2 PUSH2 0x2E82 JUMP JUMPDEST SWAP1 POP SWAP2 SWAP1 POP JUMP JUMPDEST PUSH1 0x0 DUP1 REVERT JUMPDEST PUSH1 0x0 PUSH8 0xFFFFFFFFFFFFFFFF DUP3 GT ISZERO PUSH2 0x2EE5 JUMPI PUSH2 0x2EE4 PUSH2 0x203A JUMP JUMPDEST JUMPDEST PUSH2 0x2EEE DUP3 PUSH2 0x2029 JUMP JUMPDEST SWAP1 POP PUSH1 0x20 DUP2 ADD SWAP1 POP SWAP2 SWAP1 POP JUMP JUMPDEST PUSH1 0x0 PUSH2 0x2F0E PUSH2 0x2F09 DUP5 PUSH2 0x2ECA JUMP JUMPDEST PUSH2 0x209A JUMP JUMPDEST SWAP1 POP DUP3 DUP2 MSTORE PUSH1 0x20 DUP2 ADD DUP5 DUP5 DUP5 ADD GT ISZERO PUSH2 0x2F2A JUMPI PUSH2 0x2F29 PUSH2 0x2EC5 JUMP JUMPDEST JUMPDEST PUSH2 0x2F35 DUP5 DUP3 DUP6 PUSH2 0x2432 JUMP JUMPDEST POP SWAP4 SWAP3 POP POP POP JUMP JUMPDEST PUSH1 0x0 DUP3 PUSH1 0x1F DUP4 ADD SLT PUSH2 0x2F52 JUMPI PUSH2 0x2F51 PUSH2 0x2024 JUMP JUMPDEST JUMPDEST DUP2 MLOAD PUSH2 0x2F62 DUP5 DUP3 PUSH1 0x20 DUP7 ADD PUSH2 0x2EFB JUMP JUMPDEST SWAP2 POP POP SWAP3 SWAP2 POP POP JUMP JUMPDEST PUSH1 0x0 PUSH1 0x20 DUP3 DUP5 SUB SLT ISZERO PUSH2 0x2F81 JUMPI PUSH2 0x2F80 PUSH2 0x1F2C JUMP JUMPDEST JUMPDEST PUSH1 0x0 DUP3 ADD MLOAD PUSH8 0xFFFFFFFFFFFFFFFF DUP2 GT ISZERO PUSH2 0x2F9F JUMPI PUSH2 0x2F9E PUSH2 0x1F31 JUMP JUMPDEST JUMPDEST PUSH2 0x2FAB DUP5 DUP3 DUP6 ADD PUSH2 0x2F3D JUMP JUMPDEST SWAP2 POP POP SWAP3 SWAP2 POP POP JUMP JUMPDEST PUSH32 0x5061757361626C653A2070617573656400000000000000000000000000000000 PUSH1 0x0 DUP3 ADD MSTORE POP JUMP JUMPDEST PUSH1 0x0 PUSH2 0x2FEA PUSH1 0x10 DUP4 PUSH2 0x25D8 JUMP JUMPDEST SWAP2 POP PUSH2 0x2FF5 DUP3 PUSH2 0x2FB4 JUMP JUMPDEST PUSH1 0x20 DUP3 ADD SWAP1 POP SWAP2 SWAP1 POP JUMP JUMPDEST PUSH1 0x0 PUSH1 0x20 DUP3 ADD SWAP1 POP DUP2 DUP2 SUB PUSH1 0x0 DUP4 ADD MSTORE PUSH2 0x3019 DUP2 PUSH2 0x2FDD JUMP JUMPDEST SWAP1 POP SWAP2 SWAP1 POP JUMP JUMPDEST PUSH32 0x5061757361626C653A206E6F7420706175736564000000000000000000000000 PUSH1 0x0 DUP3 ADD MSTORE POP JUMP JUMPDEST PUSH1 0x0 PUSH2 0x3056 PUSH1 0x14 DUP4 PUSH2 0x25D8 JUMP JUMPDEST SWAP2 POP PUSH2 0x3061 DUP3 PUSH2 0x3020 JUMP JUMPDEST PUSH1 0x20 DUP3 ADD SWAP1 POP SWAP2 SWAP1 POP JUMP JUMPDEST PUSH1 0x0 PUSH1 0x20 DUP3 ADD SWAP1 POP DUP2 DUP2 SUB PUSH1 0x0 DUP4 ADD MSTORE PUSH2 0x3085 DUP2 PUSH2 0x3049 JUMP JUMPDEST SWAP1 POP SWAP2 SWAP1 POP JUMP INVALID LOG2 PUSH5 0x6970667358 0x22 SLT KECCAK256 LOG2 0xD0 SWAP9 CREATE 0xAF DUP6 0xBB PUSH21 0x3F73F8F6D4D9F600418F9B7D63DE2A089F59593E6 0x5C CALLCODE 0x1F PUSH5 0x736F6C6343 STOP ADDMOD 0xC STOP CALLER "
				},
				"gasEstimates": {
					"creation": {
						"codeDepositCost": "2496400",
						"executionCost": "infinite",
						"totalCost": "infinite"
					},
					"external": {
						"activeListingIds(uint256)": "infinite",
						"buyNFT(uint256)": "infinite",
						"cancelListing(uint256)": "infinite",
						"getAllListingIds()": "infinite",
						"getListingInfo(uint256)": "infinite",
						"listNFT(address,uint256[],uint256,uint256)": "infinite",
						"listingOwners(uint256)": "1628",
						"listings(uint256)": "infinite",
						"nextListingId()": "1218",
						"owner()": "infinite",
						"pause()": "infinite",
						"paused()": "1202",
						"platformFeeAddress()": "1324",
						"platformFeePercentage()": "1173",
						"royaltyAddress()": "1325",
						"royaltyPercentage()": "1174",
						"setOwner(address)": "infinite",
						"unpause()": "infinite",
						"updateFeeAddresses(address,address)": "infinite",
						"updateFeePercentages(uint256,uint256)": "infinite"
					},
					"internal": {
						"_canSetOwner()": "23"
					}
				},
				"methodIdentifiers": {
					"activeListingIds(uint256)": "e3b6a1f6",
					"buyNFT(uint256)": "51ed8288",
					"cancelListing(uint256)": "305a67a8",
					"getAllListingIds()": "85dd3008",
					"getListingInfo(uint256)": "b9314135",
					"listNFT(address,uint256[],uint256,uint256)": "4e313796",
					"listingOwners(uint256)": "7bdaceef",
					"listings(uint256)": "de74e57b",
					"nextListingId()": "aaccf1ec",
					"owner()": "8da5cb5b",
					"pause()": "8456cb59",
					"paused()": "5c975abb",
					"platformFeeAddress()": "ed14834f",
					"platformFeePercentage()": "cdd78cfc",
					"royaltyAddress()": "ad2f852a",
					"royaltyPercentage()": "8a71bb2d",
					"setOwner(address)": "13af4035",
					"unpause()": "3f4ba83a",
					"updateFeeAddresses(address,address)": "5e4e8d65",
					"updateFeePercentages(uint256,uint256)": "78578bb3"
				}
			},
			"storageLayout": {
				"storage": [
					{
						"astId": 657,
						"contract": "gota.sol:GotasNFTMarketplace",
						"label": "_paused",
						"offset": 0,
						"slot": "0",
						"type": "t_bool"
					},
					{
						"astId": 32,
						"contract": "gota.sol:GotasNFTMarketplace",
						"label": "activeListingIds",
						"offset": 0,
						"slot": "1",
						"type": "t_array(t_uint256)dyn_storage"
					},
					{
						"astId": 34,
						"contract": "gota.sol:GotasNFTMarketplace",
						"label": "royaltyPercentage",
						"offset": 0,
						"slot": "2",
						"type": "t_uint256"
					},
					{
						"astId": 36,
						"contract": "gota.sol:GotasNFTMarketplace",
						"label": "platformFeePercentage",
						"offset": 0,
						"slot": "3",
						"type": "t_uint256"
					},
					{
						"astId": 38,
						"contract": "gota.sol:GotasNFTMarketplace",
						"label": "royaltyAddress",
						"offset": 0,
						"slot": "4",
						"type": "t_address"
					},
					{
						"astId": 40,
						"contract": "gota.sol:GotasNFTMarketplace",
						"label": "platformFeeAddress",
						"offset": 0,
						"slot": "5",
						"type": "t_address"
					},
					{
						"astId": 45,
						"contract": "gota.sol:GotasNFTMarketplace",
						"label": "listings",
						"offset": 0,
						"slot": "6",
						"type": "t_mapping(t_uint256,t_struct(Listing)24_storage)"
					},
					{
						"astId": 49,
						"contract": "gota.sol:GotasNFTMarketplace",
						"label": "listingOwners",
						"offset": 0,
						"slot": "7",
						"type": "t_mapping(t_uint256,t_address)"
					},
					{
						"astId": 52,
						"contract": "gota.sol:GotasNFTMarketplace",
						"label": "nextListingId",
						"offset": 0,
						"slot": "8",
						"type": "t_uint256"
					}
				],
				"types": {
					"t_address": {
						"encoding": "inplace",
						"label": "address",
						"numberOfBytes": "20"
					},
					"t_array(t_uint256)dyn_storage": {
						"base": "t_uint256",
						"encoding": "dynamic_array",
						"label": "uint256[]",
						"numberOfBytes": "32"
					},
					"t_bool": {
						"encoding": "inplace",
						"label": "bool",
						"numberOfBytes": "1"
					},
					"t_mapping(t_uint256,t_address)": {
						"encoding": "mapping",
						"key": "t_uint256",
						"label": "mapping(uint256 => address)",
						"numberOfBytes": "32",
						"value": "t_address"
					},
					"t_mapping(t_uint256,t_struct(Listing)24_storage)": {
						"encoding": "mapping",
						"key": "t_uint256",
						"label": "mapping(uint256 => struct GotasNFTMarketplace.Listing)",
						"numberOfBytes": "32",
						"value": "t_struct(Listing)24_storage"
					},
					"t_struct(Listing)24_storage": {
						"encoding": "inplace",
						"label": "struct GotasNFTMarketplace.Listing",
						"members": [
							{
								"astId": 14,
								"contract": "gota.sol:GotasNFTMarketplace",
								"label": "nftContractAddress",
								"offset": 0,
								"slot": "0",
								"type": "t_address"
							},
							{
								"astId": 17,
								"contract": "gota.sol:GotasNFTMarketplace",
								"label": "nftIds",
								"offset": 0,
								"slot": "1",
								"type": "t_array(t_uint256)dyn_storage"
							},
							{
								"astId": 19,
								"contract": "gota.sol:GotasNFTMarketplace",
								"label": "seller",
								"offset": 0,
								"slot": "2",
								"type": "t_address"
							},
							{
								"astId": 21,
								"contract": "gota.sol:GotasNFTMarketplace",
								"label": "price",
								"offset": 0,
								"slot": "3",
								"type": "t_uint256"
							},
							{
								"astId": 23,
								"contract": "gota.sol:GotasNFTMarketplace",
								"label": "deadline",
								"offset": 0,
								"slot": "4",
								"type": "t_uint256"
							}
						],
						"numberOfBytes": "160"
					},
					"t_uint256": {
						"encoding": "inplace",
						"label": "uint256",
						"numberOfBytes": "32"
					}
				}
			},
			"userdoc": {
				"kind": "user",
				"methods": {
					"owner()": {
						"notice": "Returns the owner of the contract."
					},
					"setOwner(address)": {
						"notice": "Lets an authorized wallet set a new owner for the contract."
					}
				},
				"version": 1
			}
		}
	}
}